{
  "_format": "hh-sol-artifact-1",
  "contractName": "DecentralizedBetting",
  "sourceName": "contracts/DecentralizedBetting.sol",
  "abi": [
    {
      "inputs": [
        {
          "internalType": "address",
          "name": "_socialOracleAddress",
          "type": "address"
        },
        {
          "internalType": "address",
          "name": "_matchNFTAddress",
          "type": "address"
        }
      ],
      "stateMutability": "nonpayable",
      "type": "constructor"
    },
    {
      "inputs": [
        {
          "internalType": "uint256",
          "name": "",
          "type": "uint256"
        },
        {
          "internalType": "address",
          "name": "",
          "type": "address"
        }
      ],
      "name": "bets",
      "outputs": [
        {
          "internalType": "uint256",
          "name": "amount",
          "type": "uint256"
        },
        {
          "internalType": "bool",
          "name": "prediction",
          "type": "bool"
        }
      ],
      "stateMutability": "view",
      "type": "function"
    },
    {
      "inputs": [
        {
          "internalType": "uint256",
          "name": "eventId",
          "type": "uint256"
        }
      ],
      "name": "claimWinnings",
      "outputs": [],
      "stateMutability": "nonpayable",
      "type": "function"
    },
    {
      "inputs": [
        {
          "internalType": "uint256",
          "name": "timestamp",
          "type": "uint256"
        },
        {
          "internalType": "string",
          "name": "description",
          "type": "string"
        }
      ],
      "name": "createEvent",
      "outputs": [],
      "stateMutability": "nonpayable",
      "type": "function"
    },
    {
      "inputs": [
        {
          "internalType": "uint256",
          "name": "",
          "type": "uint256"
        }
      ],
      "name": "events",
      "outputs": [
        {
          "internalType": "uint256",
          "name": "id",
          "type": "uint256"
        },
        {
          "internalType": "uint256",
          "name": "timestamp",
          "type": "uint256"
        },
        {
          "internalType": "bool",
          "name": "outcome",
          "type": "bool"
        },
        {
          "internalType": "bool",
          "name": "resolved",
          "type": "bool"
        },
        {
          "internalType": "uint256",
          "name": "totalPot",
          "type": "uint256"
        },
        {
          "internalType": "uint256",
          "name": "winningPot",
          "type": "uint256"
        },
        {
          "internalType": "bool",
          "name": "emergencyStop",
          "type": "bool"
        }
      ],
      "stateMutability": "view",
      "type": "function"
    },
    {
      "inputs": [],
      "name": "matchNFTAddress",
      "outputs": [
        {
          "internalType": "address",
          "name": "",
          "type": "address"
        }
      ],
      "stateMutability": "view",
      "type": "function"
    },
    {
      "inputs": [],
      "name": "owner",
      "outputs": [
        {
          "internalType": "address",
          "name": "",
          "type": "address"
        }
      ],
      "stateMutability": "view",
      "type": "function"
    },
    {
      "inputs": [
        {
          "internalType": "uint256",
          "name": "eventId",
          "type": "uint256"
        },
        {
          "internalType": "bool",
          "name": "prediction",
          "type": "bool"
        }
      ],
      "name": "placeBet",
      "outputs": [],
      "stateMutability": "payable",
      "type": "function"
    },
    {
      "inputs": [
        {
          "internalType": "uint256",
          "name": "eventId",
          "type": "uint256"
        }
      ],
      "name": "resolveEvent",
      "outputs": [],
      "stateMutability": "nonpayable",
      "type": "function"
    },
    {
      "inputs": [],
      "name": "socialOracleAddress",
      "outputs": [
        {
          "internalType": "address",
          "name": "",
          "type": "address"
        }
      ],
      "stateMutability": "view",
      "type": "function"
    },
    {
      "inputs": [
        {
          "internalType": "uint256",
          "name": "eventId",
          "type": "uint256"
        }
      ],
      "name": "toggleEmergencyStop",
      "outputs": [],
      "stateMutability": "nonpayable",
      "type": "function"
    },
    {
      "inputs": [],
      "name": "withdraw",
      "outputs": [],
      "stateMutability": "nonpayable",
      "type": "function"
    }
  ],
  "bytecode": "0x60806040523462000031576200001f62000018620000e5565b90620001a4565b6040516110d9620001e482396110d990f35b600080fd5b634e487b7160e01b600052604160045260246000fd5b90601f01601f191681019081106001600160401b038211176200006e57604052565b62000036565b906200008b6200008360405190565b92836200004c565b565b6001600160a01b031690565b90565b6001600160a01b038116036200003157565b905051906200008b826200009c565b9190604083820312620000315762000099906020620000dd8286620000ae565b9401620000ae565b62000108620012bd80380380620000fc8162000074565b928339810190620000bd565b9091565b906001600160a01b03905b9181191691161790565b62000099906200008d906001600160a01b031682565b620000999062000121565b620000999062000137565b906200016162000099620001699262000142565b82546200010c565b9055565b6200009962000099620000999290565b906000199062000117565b906200019c6200009962000169926200016d565b82546200017d565b90620001db6200008b92620001bb3360006200014d565b620001d3620001cb60016200016d565b600162000188565b60046200014d565b60056200014d56fe6080604052600436101561001257600080fd5b60003560e01c80630b791430146100c257806330658198146100bd5780633ccfd60b146100b8578063677bd9ff146100b35780638822e6fd146100ae5780638da5cb5b146100a95780639a2e8240146100a45780639ed9c74d1461009f578063a1d255e11461009a578063bed524d6146100955763f644b3bb036100d05761054d565b6104a9565b610490565b61037e565b61032b565b610304565b6102e1565b6102c9565b6102ac565b610285565b6101fd565b805b036100d057565b600080fd5b905035906100e2826100c7565b565b906020828203126100d0576100f8916100d5565b90565b6100f86100f86100f89290565b90610112906100fb565b600052602052604060002090565b6100f89081565b6100f89054610120565b6100f8905b60ff1690565b6100f89054610131565b6100f89060081c610136565b6100f89054610146565b610167906002610108565b61017081610127565b9161017d60018301610127565b9161018a6002820161013c565b9161019760028301610152565b916101a460038201610127565b916100f860056101b660048501610127565b930161013c565b9052565b90815260e08101979695909490939092909160208601521515604085015215156060840152608083015260a082015260c0016100e29115159052565b346100d0576102316102186102133660046100e4565b61015c565b9361022897959793919360405190565b978897886101c1565b0390f35b60009103126100d057565b6100f8916008021c5b6001600160a01b031690565b906100f89154610240565b6100f860006004610255565b6101bd90610249565b6020810192916100e2919061026c565b346100d057610295366004610235565b6102316102a0610260565b60405191829182610275565b346100d0576102bc366004610235565b6102c461066b565b604051005b346100d0576102c46102dc3660046100e4565b610990565b346100d0576102c46102f43660046100e4565b6109fb565b6100f8600080610255565b346100d057610314366004610235565b6102316102a06102f9565b6100f860006005610255565b346100d05761033b366004610235565b6102316102a061031f565b8015156100c9565b905035906100e282610346565b91906040838203126100d0576100f890602061037782866100d5565b940161034e565b6102c461038c36600461035b565b90610c91565b634e487b7160e01b600052604160045260246000fd5b90601f01601f1916810190811067ffffffffffffffff8211176103ca57604052565b610392565b906100e26103dc60405190565b92836103a8565b67ffffffffffffffff81116103ca57602090601f01601f19160190565b0190565b90826000939282370152565b90929192610425610420826103e3565b6103cf565b93818552818301116100d0576100e2916020850190610404565b9080601f830112156100d0578160206100f893359101610410565b9190916040818403126100d05761047183826100d5565b92602082013567ffffffffffffffff81116100d0576100f8920161043f565b346100d0576102c46104a336600461045a565b90610e7c565b346100d0576102c46104bc3660046100e4565b61109a565b6100c981610249565b905035906100e2826104c1565b91906040838203126100d0576100f89060206104f382866100d5565b94016104ca565b6100f890610249906001600160a01b031682565b6100f8906104fa565b6100f89061050e565b9061011290610517565b9061053961053e926003610108565b610520565b906100f860016101b684610127565b346100d0576105666105603660046104d7565b9061052a565b9061023161057360405190565b92839283908152901515602082015260400190565b6100f890610249565b6100f89054610588565b156105a257565b60405162461bcd60e51b815260206004820152602260248201527f4f6e6c79206f776e65722063616e2063616c6c20746869732066756e6374696f604482015261371760f11b6064820152608490fd5b6106166106076106026000610591565b610249565b61061033610249565b1461059b565b6100e261062a565b6040513d6000823e3d90fd5b600080808061063830610517565b3161064d61064861064884610591565b610517565b828215610662575bf11561065d57565b61061e565b506108fc610655565b6100e26105f2565b1561067a57565b60405162461bcd60e51b815260206004820152601860248201527f4576656e7420686173206265656e207265736f6c7665642e00000000000000006044820152606490fd5b6100e2906106e76106e26106de60026106d88582610108565b01610152565b1590565b610673565b610874565b156106f357565b60405162461bcd60e51b815260206004820152601c60248201527f4576656e7420686173206e6f74206265656e207265736f6c7665642e000000006044820152606490fd5b1561073f57565b60405162461bcd60e51b815260206004820152601960248201527f5573657220686173206e6f2062657420746f20636c61696d2e000000000000006044820152606490fd5b90600019905b9181191691161790565b906107a46100f86107ab926100fb565b8254610784565b9055565b634e487b7160e01b600052601160045260246000fd5b818102929181159184041417156107d857565b6107af565b634e487b7160e01b600052601260045260246000fd5b906107fd565b9190565b908115610808570490565b6107dd565b1561081457565b60405162461bcd60e51b815260206004820152603260248201527f496e73756666696369656e7420636f6e74726163742062616c616e636520746f604482015271103830bc9037baba103bb4b73734b733b99760711b6064820152608490fd5b600261088c610887826106d88582610108565b6106ec565b6108a46100f861089d846003610108565b3390610520565b6108ad81610127565b926108c66000946108c06107f9876100fb565b11610738565b6108d26001830161013c565b6108f76108f16108ec866108e68682610108565b0161013c565b151590565b91151590565b0361097957826109576109478695946109428761093160046109258961092b6003610925879e9d889e610108565b01610127565b99610108565b92019461093d86610127565b6107c5565b6107f3565b91610951846100fb565b90610794565b61096d61096330610517565b829031101561080d565b61064d61064833610517565b509050816109896100e2936100fb565b9101610794565b6100e2906106bf565b6100e2906109ad6106076106026000610591565b6109d2565b9060ff9061078a565b906109cb6100f86107ab926108ec565b82546109b2565b6100e29060056109f56109ed6106de836108e6866002610108565b926002610108565b016109bb565b6100e290610999565b906100e291610a1e6106e26106de60026106d88582610108565b610baa565b15610a2a57565b60405162461bcd60e51b815260206004820152602160248201527f42657474696e672069732074656d706f726172696c792073757370656e6465646044820152601760f91b6064820152608490fd5b15610a8057565b60405162461bcd60e51b815260206004820152602260248201527f42657420616d6f756e74206d7573742062652067726561746572207468616e20604482015261181760f11b6064820152608490fd5b15610ad757565b60405162461bcd60e51b815260206004820152601e60248201527f557365722068617320616c726561647920706c616365642061206265742e00006044820152606490fd5b15610b2357565b60405162461bcd60e51b815260206004820152601160248201527024b73b30b634b21032bb32b73a1024a21760791b6044820152606490fd5b6100f860406103cf565b6001610b8c60206100e294610b85610b7f600083015190565b86610794565b0151151590565b91016109bb565b906100e291610b66565b919082018092116107d857565b600291610bc7610bc26106de60056108e68688610108565b610a23565b610c7a6000610bdf610bd8826100fb565b3411610a79565b610c5c600391610c0b610bf98261092561089d8a88610108565b610c056107f9846100fb565b14610ad0565b610c2f610c1c82610925898b610108565b610c286107f9846100fb565b1415610b1c565b610c42610c3a610b5c565b913490830152565b8415156020820152610c5761089d8785610108565b610b93565b610c668486610108565b01610951610c7382610127565b3490610b9d565b610c82575050565b610c666004916100e293610108565b906100e291610a04565b906100e291610cb06106076106026000610591565b610d58565b60001981146107d85760010190565b60005b838110610cd75750506000910152565b8181015183820152602001610cc7565b610d08610d1160209361040093610cfc815190565b80835293849260200190565b95869101610cc4565b601f01601f191690565b90815292916100e291604090610d3d9060608701908782036020890152610ce7565b940152565b9081526040810192916100e2916020019061026c565b610d626001610127565b91610d76610d6f84610cb5565b6001610794565b610d8d836000610d87826002610108565b01610794565b610d9e826001610d87866002610108565b610dae6106486106486004610591565b91823b156100d057610de79260009283610dc760405190565b809681958294610ddb633386efc860e01b90565b84528a60048501610d1b565b03925af1801561065d57610e66575b50610e076106486106486005610591565b803b156100d057610e3d600092918392610e2060405190565b94859384928391906394bf804d60e01b8352339060048401610d42565b03925af1801561065d57610e4e5750565b6100e2906000610e5e81836103a8565b810190610235565b610e76906000610e5e81836103a8565b38610df6565b906100e291610c9b565b6100e290610e9a6106076106026000610591565b6100e290610eb36106e26106de60026106d88582610108565b610fb0565b15610ebf57565b60405162461bcd60e51b815260206004820152601b60248201527f4576656e7420686173206e6f74206f63637572726564207965742e00000000006044820152606490fd5b905051906100e282610346565b91906040838203126100d0576100f8906020610f2d8286610f04565b9401610f04565b15610f3b57565b60405162461bcd60e51b8152602060048201526024808201527f5175657374696f6e206f7574636f6d65206e6f742064657465726d696e6564206044820152633cb2ba1760e11b6064820152608490fd5b9061ff009060081b61078a565b90610fa96100f86107ab926108ec565b8254610f8c565b6002610fd1610fc460006109258585610108565b610c286107f960006100fb565b610fee610fe66100f860016109258686610108565b421015610eb8565b610ffe6106486106486004610591565b90604061100a60405190565b6325aaf90560e01b81526004810185905292839060249082905afa801561065d576100e29361105961105f92600195600080919092611065575b5061104e90610f34565b846109f58482610108565b82610108565b01610f99565b61104e925061108c915060403d604011611093575b61108481836103a8565b810190610f11565b9091611044565b503d61107a565b6100e290610e8656fea2646970667358221220ec67c85a48fe8727096e9a2c74bd13e5f3f699ba9b258677d71d378efc72639c64736f6c63430008180033",
  "linkReferences": {},
  "deployedLinkReferences": {}
}