{"contracts/SocialOracle.sol":{"SocialOracle":{"abi":[{"inputs":[{"internalType":"address","name":"_stakeContractAddress","type":"address"}],"stateMutability":"nonpayable","type":"constructor"},{"anonymous":false,"inputs":[{"indexed":true,"internalType":"uint256","name":"questionId","type":"uint256"},{"indexed":true,"internalType":"address","name":"user","type":"address"},{"indexed":false,"internalType":"bool","name":"answer","type":"bool"}],"name":"AnswerSubmitted","type":"event"},{"anonymous":false,"inputs":[{"indexed":true,"internalType":"uint256","name":"id","type":"uint256"},{"indexed":false,"internalType":"bool","name":"correctAnswer","type":"bool"}],"name":"QuestionAnswered","type":"event"},{"anonymous":false,"inputs":[{"indexed":true,"internalType":"uint256","name":"id","type":"uint256"},{"indexed":false,"internalType":"uint256","name":"deadline","type":"uint256"}],"name":"QuestionCreated","type":"event"},{"inputs":[{"internalType":"uint256","name":"_id","type":"uint256"},{"internalType":"uint256","name":"_deadline","type":"uint256"}],"name":"addQuestion","outputs":[],"stateMutability":"nonpayable","type":"function"},{"inputs":[{"internalType":"uint256","name":"","type":"uint256"},{"internalType":"address","name":"","type":"address"}],"name":"answers","outputs":[{"internalType":"bool","name":"","type":"bool"}],"stateMutability":"view","type":"function"},{"inputs":[{"internalType":"uint256","name":"_questionId","type":"uint256"}],"name":"determineCorrectAnswer","outputs":[],"stateMutability":"nonpayable","type":"function"},{"inputs":[{"internalType":"uint256","name":"_questionId","type":"uint256"}],"name":"getQuestionOutcome","outputs":[{"internalType":"bool","name":"outcome","type":"bool"},{"internalType":"bool","name":"determined","type":"bool"}],"stateMutability":"view","type":"function"},{"inputs":[{"internalType":"uint256","name":"","type":"uint256"},{"internalType":"address","name":"","type":"address"}],"name":"hasAnswered","outputs":[{"internalType":"bool","name":"","type":"bool"}],"stateMutability":"view","type":"function"},{"inputs":[{"internalType":"uint256","name":"","type":"uint256"}],"name":"questions","outputs":[{"internalType":"uint256","name":"id","type":"uint256"},{"internalType":"uint256","name":"deadline","type":"uint256"},{"internalType":"bool","name":"isAnswered","type":"bool"},{"internalType":"bool","name":"correctAnswer","type":"bool"},{"internalType":"bool","name":"answerDetermined","type":"bool"}],"stateMutability":"view","type":"function"},{"inputs":[],"name":"stakeContract","outputs":[{"internalType":"contract IStakeContract","name":"","type":"address"}],"stateMutability":"view","type":"function"},{"inputs":[{"internalType":"uint256","name":"_questionId","type":"uint256"},{"internalType":"bool","name":"_answer","type":"bool"}],"name":"submitAnswer","outputs":[],"stateMutability":"nonpayable","type":"function"}],"evm":{"bytecode":{"linkReferences":{},"object":"60806040523462000030576200001e62000018620000d3565b62000156565b604051610ae96200016e8239610ae990f35b600080fd5b634e487b7160e01b600052604160045260246000fd5b90601f01601f191681019081106001600160401b038211176200006d57604052565b62000035565b906200008a6200008260405190565b92836200004b565b565b6001600160a01b031690565b90565b6001600160a01b038116036200003057565b905051906200008a826200009b565b9060208282031262000030576200009891620000ad565b6200009862000c5780380380620000ea8162000073565b928339810190620000bc565b62000098906200008c906001600160a01b031682565b6200009890620000f6565b62000098906200010c565b906200013662000098620001529262000117565b82546001600160a01b0319166001600160a01b03919091161790565b9055565b620001656200008a9162000117565b60006200012256fe6080604052600436101561001257600080fd5b60003560e01c80631a1862271461009257806325aaf9051461008d57806331b1b978146100885780637adb3eac146100835780637dfca71c1461007e5780638df75c7a14610079578063938cfd67146100745763e6b4eacf036100a257610449565b61041c565b6103e1565b6103b2565b61031b565b6102b2565b61018a565b61011a565b60009103126100a257565b600080fd5b6100bc916008021c5b6001600160a01b031690565b90565b906100bc91546100a7565b6100bc6000806100bf565b6100bc906100b0906001600160a01b031682565b6100bc906100d5565b6100bc906100e9565b610104906100f2565b9052565b60208101929161011891906100fb565b565b346100a25761012a366004610097565b6101416101356100ca565b60405191829182610108565b0390f35b805b036100a257565b9050359061011882610145565b906020828203126100a2576100bc9161014e565b9015158152604081019291610118916020905b019015159052565b346100a2576101a261019d36600461015b565b61053e565b906101416101af60405190565b9283928361016f565b6100bc6100bc6100bc9290565b906101cf906101b8565b600052602052604060002090565b6100bc9081565b6100bc90546101dd565b6100bc905b60ff1690565b6100bc90546101ee565b6100bc9060081c6101f3565b6100bc9054610203565b6100bc9060101c6101f3565b6100bc9054610219565b61023a9060016101c5565b610243816101e4565b91610250600183016101e4565b9161025d600282016101f9565b916100bc600261026e81850161020f565b9301610225565b90959492610118946102a9610182926102a060809661029960a088019c6000890152565b6020870152565b15156040850152565b15156060830152565b346100a2576101416102cd6102c836600461015b565b61022f565b916102da95939560405190565b95869586610275565b801515610147565b90503590610118826102e3565b91906040838203126100a2576100bc906020610314828661014e565b94016102eb565b346100a25761033461032e3660046102f8565b906106cc565b604051005b610147816100b0565b9050359061011882610339565b91906040838203126100a2576100bc90602061036b828661014e565b9401610342565b906101cf906100f2565b6100bc916008021c6101f3565b906100bc915461037c565b6103ad6100bc926103a860009360026101c5565b610372565b610389565b346100a2576101416103ce6103c836600461034f565b90610394565b6040515b91829182901515815260200190565b346100a2576103346103f436600461015b565b6108fb565b91906040838203126100a2576100bc906020610415828661014e565b940161014e565b346100a25761033461042f3660046103f9565b90610a27565b6103ad6100bc926103a860009360046101c5565b346100a2576101416103ce61045f36600461034f565b90610435565b634e487b7160e01b600052604160045260246000fd5b90601f01601f1916810190811067ffffffffffffffff82111761049d57604052565b610465565b906101186104af60405190565b928361047b565b6100bc60a06104a2565b9061011861052c60026104d16104b6565b946104e26104de826101e4565b8752565b6104f86104f1600183016101e4565b6020880152565b61050f6105068383016101f9565b15156040880152565b61052661051d83830161020f565b15156060880152565b01610225565b15156080840152565b6100bc906104c0565b61055561055a9161054d600090565b5060016101c5565b610535565b906100bc608061056d6060850151151590565b930151151590565b6100bc906100b0565b6100bc9054610575565b9050519061011882610145565b906020828203126100a2576100bc91610588565b610104906100b0565b60208101929161011891906105a9565b6040513d6000823e3d90fd5b156105d557565b60405162461bcd60e51b815260206004820152601860248201527f4e6f7420656e6f75676820746f6b656e73207374616b656400000000000000006044820152606490fd5b1561062157565b60405162461bcd60e51b815260206004820152601060248201526f105b1c9958591e48185b9cddd95c995960821b6044820152606490fd5b9060ff905b9181191691161790565b906106786100bc61067f92151590565b8254610659565b9055565b634e487b7160e01b600052601160045260246000fd5b919082018092116106a657565b610683565b906000199061065e565b906106c56100bc61067f926101b8565b82546106ab565b6001906106d981836101c5565b506106ec6106e7600061057e565b6100f2565b9160206106f860405190565b938490630c2eb40360e01b8252818061071433600483016105b2565b03915afa928315610861576107da9361074891600091610832575b5061074161073d60646101b8565b9190565b10156105ce565b61077461076f61076b61076661075f8660046101c5565b3390610372565b6101f9565b1590565b61061a565b61078b8461078661075f8560026101c5565b610668565b61079d8161078661075f8560046101c5565b8315610816576107af6107d5916101b8565b6107cf60006107bf8560036101c5565b01916107ca836101e4565b610699565b906106b5565b6101b8565b7fe741e062b6b4247ee65c6f00e6b8f8f81a561c471498ab4eb5d3ab8cad5b6eea610811610807336100f2565b936103d260405190565b0390a3565b806107cf6108266107d5936101b8565b916107bf8560036101c5565b610854915060203d60201161085a575b61084c818361047b565b810190610595565b3861072f565b503d610842565b6105c2565b1561086d57565b60405162461bcd60e51b815260206004820152601960248201527f416e7377657220616c72656164792064657465726d696e6564000000000000006044820152606490fd5b9061ff009060081b61065e565b906108cf6100bc61067f92151590565b82546108b2565b9062ff00009060101b61065e565b906108f46100bc61067f92151590565b82546108d6565b7fb027d5b9823c9c8f39520f4b659b590e2597f7ef05da0d4e47d35437418acaa46109a661099c610996600161099160026109396100bc89856101c5565b019161094f61094a61076b85610225565b610866565b61098b6109606100bc8a60036101c5565b61096a8386610668565b61098461073d6100bc8561097d856101e4565b94016101e4565b11846108bf565b826108e4565b61020f565b936101b8565b926103d260405190565b0390a2565b90610a1760806002610118946109cb6109c5600087015190565b826106b5565b6109e26109d9602087015190565b600183016106b5565b01926109fa6109f46040830151151590565b85610668565b610a10610a0a6060830151151590565b856108bf565b0151151590565b906108e4565b90610118916109ab565b6109a6610a9c7fb9f6ae7e91af5cf462672f7db163810a3c68b9605216b3a540519ef79487d020926107d56000610a8c610a5f6104b6565b91610a6a8582850152565b610a75896020850152565b151560408301819052606083018190526080830152565b610a978360016101c5565b610a1d565b92610aa660405190565b918291829081526020019056fea26469706673582212201486496dfdd9cef6f461d4afd16d1e239ea45b7735b9905a005a7307bc806e2964736f6c63430008180033","opcodes":"PUSH1 0x80 PUSH1 0x40 MSTORE CALLVALUE PUSH3 0x30 JUMPI PUSH3 0x1E PUSH3 0x18 PUSH3 0xD3 JUMP JUMPDEST PUSH3 0x156 JUMP JUMPDEST PUSH1 0x40 MLOAD PUSH2 0xAE9 PUSH3 0x16E DUP3 CODECOPY PUSH2 0xAE9 SWAP1 RETURN JUMPDEST PUSH1 0x0 DUP1 REVERT JUMPDEST PUSH4 0x4E487B71 PUSH1 0xE0 SHL PUSH1 0x0 MSTORE PUSH1 0x41 PUSH1 0x4 MSTORE PUSH1 0x24 PUSH1 0x0 REVERT JUMPDEST SWAP1 PUSH1 0x1F ADD PUSH1 0x1F NOT AND DUP2 ADD SWAP1 DUP2 LT PUSH1 0x1 PUSH1 0x1 PUSH1 0x40 SHL SUB DUP3 GT OR PUSH3 0x6D JUMPI PUSH1 0x40 MSTORE JUMP JUMPDEST PUSH3 0x35 JUMP JUMPDEST SWAP1 PUSH3 0x8A PUSH3 0x82 PUSH1 0x40 MLOAD SWAP1 JUMP JUMPDEST SWAP3 DUP4 PUSH3 0x4B JUMP JUMPDEST JUMP JUMPDEST PUSH1 0x1 PUSH1 0x1 PUSH1 0xA0 SHL SUB AND SWAP1 JUMP JUMPDEST SWAP1 JUMP JUMPDEST PUSH1 0x1 PUSH1 0x1 PUSH1 0xA0 SHL SUB DUP2 AND SUB PUSH3 0x30 JUMPI JUMP JUMPDEST SWAP1 POP MLOAD SWAP1 PUSH3 0x8A DUP3 PUSH3 0x9B JUMP JUMPDEST SWAP1 PUSH1 0x20 DUP3 DUP3 SUB SLT PUSH3 0x30 JUMPI PUSH3 0x98 SWAP2 PUSH3 0xAD JUMP JUMPDEST PUSH3 0x98 PUSH3 0xC57 DUP1 CODESIZE SUB DUP1 PUSH3 0xEA DUP2 PUSH3 0x73 JUMP JUMPDEST SWAP3 DUP4 CODECOPY DUP2 ADD SWAP1 PUSH3 0xBC JUMP JUMPDEST PUSH3 0x98 SWAP1 PUSH3 0x8C SWAP1 PUSH1 0x1 PUSH1 0x1 PUSH1 0xA0 SHL SUB AND DUP3 JUMP JUMPDEST PUSH3 0x98 SWAP1 PUSH3 0xF6 JUMP JUMPDEST PUSH3 0x98 SWAP1 PUSH3 0x10C JUMP JUMPDEST SWAP1 PUSH3 0x136 PUSH3 0x98 PUSH3 0x152 SWAP3 PUSH3 0x117 JUMP JUMPDEST DUP3 SLOAD PUSH1 0x1 PUSH1 0x1 PUSH1 0xA0 SHL SUB NOT AND PUSH1 0x1 PUSH1 0x1 PUSH1 0xA0 SHL SUB SWAP2 SWAP1 SWAP2 AND OR SWAP1 JUMP JUMPDEST SWAP1 SSTORE JUMP JUMPDEST PUSH3 0x165 PUSH3 0x8A SWAP2 PUSH3 0x117 JUMP JUMPDEST PUSH1 0x0 PUSH3 0x122 JUMP INVALID PUSH1 0x80 PUSH1 0x40 MSTORE PUSH1 0x4 CALLDATASIZE LT ISZERO PUSH2 0x12 JUMPI PUSH1 0x0 DUP1 REVERT JUMPDEST PUSH1 0x0 CALLDATALOAD PUSH1 0xE0 SHR DUP1 PUSH4 0x1A186227 EQ PUSH2 0x92 JUMPI DUP1 PUSH4 0x25AAF905 EQ PUSH2 0x8D JUMPI DUP1 PUSH4 0x31B1B978 EQ PUSH2 0x88 JUMPI DUP1 PUSH4 0x7ADB3EAC EQ PUSH2 0x83 JUMPI DUP1 PUSH4 0x7DFCA71C EQ PUSH2 0x7E JUMPI DUP1 PUSH4 0x8DF75C7A EQ PUSH2 0x79 JUMPI DUP1 PUSH4 0x938CFD67 EQ PUSH2 0x74 JUMPI PUSH4 0xE6B4EACF SUB PUSH2 0xA2 JUMPI PUSH2 0x449 JUMP JUMPDEST PUSH2 0x41C JUMP JUMPDEST PUSH2 0x3E1 JUMP JUMPDEST PUSH2 0x3B2 JUMP JUMPDEST PUSH2 0x31B JUMP JUMPDEST PUSH2 0x2B2 JUMP JUMPDEST PUSH2 0x18A JUMP JUMPDEST PUSH2 0x11A JUMP JUMPDEST PUSH1 0x0 SWAP2 SUB SLT PUSH2 0xA2 JUMPI JUMP JUMPDEST PUSH1 0x0 DUP1 REVERT JUMPDEST PUSH2 0xBC SWAP2 PUSH1 0x8 MUL SHR JUMPDEST PUSH1 0x1 PUSH1 0x1 PUSH1 0xA0 SHL SUB AND SWAP1 JUMP JUMPDEST SWAP1 JUMP JUMPDEST SWAP1 PUSH2 0xBC SWAP2 SLOAD PUSH2 0xA7 JUMP JUMPDEST PUSH2 0xBC PUSH1 0x0 DUP1 PUSH2 0xBF JUMP JUMPDEST PUSH2 0xBC SWAP1 PUSH2 0xB0 SWAP1 PUSH1 0x1 PUSH1 0x1 PUSH1 0xA0 SHL SUB AND DUP3 JUMP JUMPDEST PUSH2 0xBC SWAP1 PUSH2 0xD5 JUMP JUMPDEST PUSH2 0xBC SWAP1 PUSH2 0xE9 JUMP JUMPDEST PUSH2 0x104 SWAP1 PUSH2 0xF2 JUMP JUMPDEST SWAP1 MSTORE JUMP JUMPDEST PUSH1 0x20 DUP2 ADD SWAP3 SWAP2 PUSH2 0x118 SWAP2 SWAP1 PUSH2 0xFB JUMP JUMPDEST JUMP JUMPDEST CALLVALUE PUSH2 0xA2 JUMPI PUSH2 0x12A CALLDATASIZE PUSH1 0x4 PUSH2 0x97 JUMP JUMPDEST PUSH2 0x141 PUSH2 0x135 PUSH2 0xCA JUMP JUMPDEST PUSH1 0x40 MLOAD SWAP2 DUP3 SWAP2 DUP3 PUSH2 0x108 JUMP JUMPDEST SUB SWAP1 RETURN JUMPDEST DUP1 JUMPDEST SUB PUSH2 0xA2 JUMPI JUMP JUMPDEST SWAP1 POP CALLDATALOAD SWAP1 PUSH2 0x118 DUP3 PUSH2 0x145 JUMP JUMPDEST SWAP1 PUSH1 0x20 DUP3 DUP3 SUB SLT PUSH2 0xA2 JUMPI PUSH2 0xBC SWAP2 PUSH2 0x14E JUMP JUMPDEST SWAP1 ISZERO ISZERO DUP2 MSTORE PUSH1 0x40 DUP2 ADD SWAP3 SWAP2 PUSH2 0x118 SWAP2 PUSH1 0x20 SWAP1 JUMPDEST ADD SWAP1 ISZERO ISZERO SWAP1 MSTORE JUMP JUMPDEST CALLVALUE PUSH2 0xA2 JUMPI PUSH2 0x1A2 PUSH2 0x19D CALLDATASIZE PUSH1 0x4 PUSH2 0x15B JUMP JUMPDEST PUSH2 0x53E JUMP JUMPDEST SWAP1 PUSH2 0x141 PUSH2 0x1AF PUSH1 0x40 MLOAD SWAP1 JUMP JUMPDEST SWAP3 DUP4 SWAP3 DUP4 PUSH2 0x16F JUMP JUMPDEST PUSH2 0xBC PUSH2 0xBC PUSH2 0xBC SWAP3 SWAP1 JUMP JUMPDEST SWAP1 PUSH2 0x1CF SWAP1 PUSH2 0x1B8 JUMP JUMPDEST PUSH1 0x0 MSTORE PUSH1 0x20 MSTORE PUSH1 0x40 PUSH1 0x0 KECCAK256 SWAP1 JUMP JUMPDEST PUSH2 0xBC SWAP1 DUP2 JUMP JUMPDEST PUSH2 0xBC SWAP1 SLOAD PUSH2 0x1DD JUMP JUMPDEST PUSH2 0xBC SWAP1 JUMPDEST PUSH1 0xFF AND SWAP1 JUMP JUMPDEST PUSH2 0xBC SWAP1 SLOAD PUSH2 0x1EE JUMP JUMPDEST PUSH2 0xBC SWAP1 PUSH1 0x8 SHR PUSH2 0x1F3 JUMP JUMPDEST PUSH2 0xBC SWAP1 SLOAD PUSH2 0x203 JUMP JUMPDEST PUSH2 0xBC SWAP1 PUSH1 0x10 SHR PUSH2 0x1F3 JUMP JUMPDEST PUSH2 0xBC SWAP1 SLOAD PUSH2 0x219 JUMP JUMPDEST PUSH2 0x23A SWAP1 PUSH1 0x1 PUSH2 0x1C5 JUMP JUMPDEST PUSH2 0x243 DUP2 PUSH2 0x1E4 JUMP JUMPDEST SWAP2 PUSH2 0x250 PUSH1 0x1 DUP4 ADD PUSH2 0x1E4 JUMP JUMPDEST SWAP2 PUSH2 0x25D PUSH1 0x2 DUP3 ADD PUSH2 0x1F9 JUMP JUMPDEST SWAP2 PUSH2 0xBC PUSH1 0x2 PUSH2 0x26E DUP2 DUP6 ADD PUSH2 0x20F JUMP JUMPDEST SWAP4 ADD PUSH2 0x225 JUMP JUMPDEST SWAP1 SWAP6 SWAP5 SWAP3 PUSH2 0x118 SWAP5 PUSH2 0x2A9 PUSH2 0x182 SWAP3 PUSH2 0x2A0 PUSH1 0x80 SWAP7 PUSH2 0x299 PUSH1 0xA0 DUP9 ADD SWAP13 PUSH1 0x0 DUP10 ADD MSTORE JUMP JUMPDEST PUSH1 0x20 DUP8 ADD MSTORE JUMP JUMPDEST ISZERO ISZERO PUSH1 0x40 DUP6 ADD MSTORE JUMP JUMPDEST ISZERO ISZERO PUSH1 0x60 DUP4 ADD MSTORE JUMP JUMPDEST CALLVALUE PUSH2 0xA2 JUMPI PUSH2 0x141 PUSH2 0x2CD PUSH2 0x2C8 CALLDATASIZE PUSH1 0x4 PUSH2 0x15B JUMP JUMPDEST PUSH2 0x22F JUMP JUMPDEST SWAP2 PUSH2 0x2DA SWAP6 SWAP4 SWAP6 PUSH1 0x40 MLOAD SWAP1 JUMP JUMPDEST SWAP6 DUP7 SWAP6 DUP7 PUSH2 0x275 JUMP JUMPDEST DUP1 ISZERO ISZERO PUSH2 0x147 JUMP JUMPDEST SWAP1 POP CALLDATALOAD SWAP1 PUSH2 0x118 DUP3 PUSH2 0x2E3 JUMP JUMPDEST SWAP2 SWAP1 PUSH1 0x40 DUP4 DUP3 SUB SLT PUSH2 0xA2 JUMPI PUSH2 0xBC SWAP1 PUSH1 0x20 PUSH2 0x314 DUP3 DUP7 PUSH2 0x14E JUMP JUMPDEST SWAP5 ADD PUSH2 0x2EB JUMP JUMPDEST CALLVALUE PUSH2 0xA2 JUMPI PUSH2 0x334 PUSH2 0x32E CALLDATASIZE PUSH1 0x4 PUSH2 0x2F8 JUMP JUMPDEST SWAP1 PUSH2 0x6CC JUMP JUMPDEST PUSH1 0x40 MLOAD STOP JUMPDEST PUSH2 0x147 DUP2 PUSH2 0xB0 JUMP JUMPDEST SWAP1 POP CALLDATALOAD SWAP1 PUSH2 0x118 DUP3 PUSH2 0x339 JUMP JUMPDEST SWAP2 SWAP1 PUSH1 0x40 DUP4 DUP3 SUB SLT PUSH2 0xA2 JUMPI PUSH2 0xBC SWAP1 PUSH1 0x20 PUSH2 0x36B DUP3 DUP7 PUSH2 0x14E JUMP JUMPDEST SWAP5 ADD PUSH2 0x342 JUMP JUMPDEST SWAP1 PUSH2 0x1CF SWAP1 PUSH2 0xF2 JUMP JUMPDEST PUSH2 0xBC SWAP2 PUSH1 0x8 MUL SHR PUSH2 0x1F3 JUMP JUMPDEST SWAP1 PUSH2 0xBC SWAP2 SLOAD PUSH2 0x37C JUMP JUMPDEST PUSH2 0x3AD PUSH2 0xBC SWAP3 PUSH2 0x3A8 PUSH1 0x0 SWAP4 PUSH1 0x2 PUSH2 0x1C5 JUMP JUMPDEST PUSH2 0x372 JUMP JUMPDEST PUSH2 0x389 JUMP JUMPDEST CALLVALUE PUSH2 0xA2 JUMPI PUSH2 0x141 PUSH2 0x3CE PUSH2 0x3C8 CALLDATASIZE PUSH1 0x4 PUSH2 0x34F JUMP JUMPDEST SWAP1 PUSH2 0x394 JUMP JUMPDEST PUSH1 0x40 MLOAD JUMPDEST SWAP2 DUP3 SWAP2 DUP3 SWAP1 ISZERO ISZERO DUP2 MSTORE PUSH1 0x20 ADD SWAP1 JUMP JUMPDEST CALLVALUE PUSH2 0xA2 JUMPI PUSH2 0x334 PUSH2 0x3F4 CALLDATASIZE PUSH1 0x4 PUSH2 0x15B JUMP JUMPDEST PUSH2 0x8FB JUMP JUMPDEST SWAP2 SWAP1 PUSH1 0x40 DUP4 DUP3 SUB SLT PUSH2 0xA2 JUMPI PUSH2 0xBC SWAP1 PUSH1 0x20 PUSH2 0x415 DUP3 DUP7 PUSH2 0x14E JUMP JUMPDEST SWAP5 ADD PUSH2 0x14E JUMP JUMPDEST CALLVALUE PUSH2 0xA2 JUMPI PUSH2 0x334 PUSH2 0x42F CALLDATASIZE PUSH1 0x4 PUSH2 0x3F9 JUMP JUMPDEST SWAP1 PUSH2 0xA27 JUMP JUMPDEST PUSH2 0x3AD PUSH2 0xBC SWAP3 PUSH2 0x3A8 PUSH1 0x0 SWAP4 PUSH1 0x4 PUSH2 0x1C5 JUMP JUMPDEST CALLVALUE PUSH2 0xA2 JUMPI PUSH2 0x141 PUSH2 0x3CE PUSH2 0x45F CALLDATASIZE PUSH1 0x4 PUSH2 0x34F JUMP JUMPDEST SWAP1 PUSH2 0x435 JUMP JUMPDEST PUSH4 0x4E487B71 PUSH1 0xE0 SHL PUSH1 0x0 MSTORE PUSH1 0x41 PUSH1 0x4 MSTORE PUSH1 0x24 PUSH1 0x0 REVERT JUMPDEST SWAP1 PUSH1 0x1F ADD PUSH1 0x1F NOT AND DUP2 ADD SWAP1 DUP2 LT PUSH8 0xFFFFFFFFFFFFFFFF DUP3 GT OR PUSH2 0x49D JUMPI PUSH1 0x40 MSTORE JUMP JUMPDEST PUSH2 0x465 JUMP JUMPDEST SWAP1 PUSH2 0x118 PUSH2 0x4AF PUSH1 0x40 MLOAD SWAP1 JUMP JUMPDEST SWAP3 DUP4 PUSH2 0x47B JUMP JUMPDEST PUSH2 0xBC PUSH1 0xA0 PUSH2 0x4A2 JUMP JUMPDEST SWAP1 PUSH2 0x118 PUSH2 0x52C PUSH1 0x2 PUSH2 0x4D1 PUSH2 0x4B6 JUMP JUMPDEST SWAP5 PUSH2 0x4E2 PUSH2 0x4DE DUP3 PUSH2 0x1E4 JUMP JUMPDEST DUP8 MSTORE JUMP JUMPDEST PUSH2 0x4F8 PUSH2 0x4F1 PUSH1 0x1 DUP4 ADD PUSH2 0x1E4 JUMP JUMPDEST PUSH1 0x20 DUP9 ADD MSTORE JUMP JUMPDEST PUSH2 0x50F PUSH2 0x506 DUP4 DUP4 ADD PUSH2 0x1F9 JUMP JUMPDEST ISZERO ISZERO PUSH1 0x40 DUP9 ADD MSTORE JUMP JUMPDEST PUSH2 0x526 PUSH2 0x51D DUP4 DUP4 ADD PUSH2 0x20F JUMP JUMPDEST ISZERO ISZERO PUSH1 0x60 DUP9 ADD MSTORE JUMP JUMPDEST ADD PUSH2 0x225 JUMP JUMPDEST ISZERO ISZERO PUSH1 0x80 DUP5 ADD MSTORE JUMP JUMPDEST PUSH2 0xBC SWAP1 PUSH2 0x4C0 JUMP JUMPDEST PUSH2 0x555 PUSH2 0x55A SWAP2 PUSH2 0x54D PUSH1 0x0 SWAP1 JUMP JUMPDEST POP PUSH1 0x1 PUSH2 0x1C5 JUMP JUMPDEST PUSH2 0x535 JUMP JUMPDEST SWAP1 PUSH2 0xBC PUSH1 0x80 PUSH2 0x56D PUSH1 0x60 DUP6 ADD MLOAD ISZERO ISZERO SWAP1 JUMP JUMPDEST SWAP4 ADD MLOAD ISZERO ISZERO SWAP1 JUMP JUMPDEST PUSH2 0xBC SWAP1 PUSH2 0xB0 JUMP JUMPDEST PUSH2 0xBC SWAP1 SLOAD PUSH2 0x575 JUMP JUMPDEST SWAP1 POP MLOAD SWAP1 PUSH2 0x118 DUP3 PUSH2 0x145 JUMP JUMPDEST SWAP1 PUSH1 0x20 DUP3 DUP3 SUB SLT PUSH2 0xA2 JUMPI PUSH2 0xBC SWAP2 PUSH2 0x588 JUMP JUMPDEST PUSH2 0x104 SWAP1 PUSH2 0xB0 JUMP JUMPDEST PUSH1 0x20 DUP2 ADD SWAP3 SWAP2 PUSH2 0x118 SWAP2 SWAP1 PUSH2 0x5A9 JUMP JUMPDEST PUSH1 0x40 MLOAD RETURNDATASIZE PUSH1 0x0 DUP3 RETURNDATACOPY RETURNDATASIZE SWAP1 REVERT JUMPDEST ISZERO PUSH2 0x5D5 JUMPI JUMP JUMPDEST PUSH1 0x40 MLOAD PUSH3 0x461BCD PUSH1 0xE5 SHL DUP2 MSTORE PUSH1 0x20 PUSH1 0x4 DUP3 ADD MSTORE PUSH1 0x18 PUSH1 0x24 DUP3 ADD MSTORE PUSH32 0x4E6F7420656E6F75676820746F6B656E73207374616B65640000000000000000 PUSH1 0x44 DUP3 ADD MSTORE PUSH1 0x64 SWAP1 REVERT JUMPDEST ISZERO PUSH2 0x621 JUMPI JUMP JUMPDEST PUSH1 0x40 MLOAD PUSH3 0x461BCD PUSH1 0xE5 SHL DUP2 MSTORE PUSH1 0x20 PUSH1 0x4 DUP3 ADD MSTORE PUSH1 0x10 PUSH1 0x24 DUP3 ADD MSTORE PUSH16 0x105B1C9958591E48185B9CDDD95C9959 PUSH1 0x82 SHL PUSH1 0x44 DUP3 ADD MSTORE PUSH1 0x64 SWAP1 REVERT JUMPDEST SWAP1 PUSH1 0xFF SWAP1 JUMPDEST SWAP2 DUP2 NOT AND SWAP2 AND OR SWAP1 JUMP JUMPDEST SWAP1 PUSH2 0x678 PUSH2 0xBC PUSH2 0x67F SWAP3 ISZERO ISZERO SWAP1 JUMP JUMPDEST DUP3 SLOAD PUSH2 0x659 JUMP JUMPDEST SWAP1 SSTORE JUMP JUMPDEST PUSH4 0x4E487B71 PUSH1 0xE0 SHL PUSH1 0x0 MSTORE PUSH1 0x11 PUSH1 0x4 MSTORE PUSH1 0x24 PUSH1 0x0 REVERT JUMPDEST SWAP2 SWAP1 DUP3 ADD DUP1 SWAP3 GT PUSH2 0x6A6 JUMPI JUMP JUMPDEST PUSH2 0x683 JUMP JUMPDEST SWAP1 PUSH1 0x0 NOT SWAP1 PUSH2 0x65E JUMP JUMPDEST SWAP1 PUSH2 0x6C5 PUSH2 0xBC PUSH2 0x67F SWAP3 PUSH2 0x1B8 JUMP JUMPDEST DUP3 SLOAD PUSH2 0x6AB JUMP JUMPDEST PUSH1 0x1 SWAP1 PUSH2 0x6D9 DUP2 DUP4 PUSH2 0x1C5 JUMP JUMPDEST POP PUSH2 0x6EC PUSH2 0x6E7 PUSH1 0x0 PUSH2 0x57E JUMP JUMPDEST PUSH2 0xF2 JUMP JUMPDEST SWAP2 PUSH1 0x20 PUSH2 0x6F8 PUSH1 0x40 MLOAD SWAP1 JUMP JUMPDEST SWAP4 DUP5 SWAP1 PUSH4 0xC2EB403 PUSH1 0xE0 SHL DUP3 MSTORE DUP2 DUP1 PUSH2 0x714 CALLER PUSH1 0x4 DUP4 ADD PUSH2 0x5B2 JUMP JUMPDEST SUB SWAP2 GAS STATICCALL SWAP3 DUP4 ISZERO PUSH2 0x861 JUMPI PUSH2 0x7DA SWAP4 PUSH2 0x748 SWAP2 PUSH1 0x0 SWAP2 PUSH2 0x832 JUMPI JUMPDEST POP PUSH2 0x741 PUSH2 0x73D PUSH1 0x64 PUSH2 0x1B8 JUMP JUMPDEST SWAP2 SWAP1 JUMP JUMPDEST LT ISZERO PUSH2 0x5CE JUMP JUMPDEST PUSH2 0x774 PUSH2 0x76F PUSH2 0x76B PUSH2 0x766 PUSH2 0x75F DUP7 PUSH1 0x4 PUSH2 0x1C5 JUMP JUMPDEST CALLER SWAP1 PUSH2 0x372 JUMP JUMPDEST PUSH2 0x1F9 JUMP JUMPDEST ISZERO SWAP1 JUMP JUMPDEST PUSH2 0x61A JUMP JUMPDEST PUSH2 0x78B DUP5 PUSH2 0x786 PUSH2 0x75F DUP6 PUSH1 0x2 PUSH2 0x1C5 JUMP JUMPDEST PUSH2 0x668 JUMP JUMPDEST PUSH2 0x79D DUP2 PUSH2 0x786 PUSH2 0x75F DUP6 PUSH1 0x4 PUSH2 0x1C5 JUMP JUMPDEST DUP4 ISZERO PUSH2 0x816 JUMPI PUSH2 0x7AF PUSH2 0x7D5 SWAP2 PUSH2 0x1B8 JUMP JUMPDEST PUSH2 0x7CF PUSH1 0x0 PUSH2 0x7BF DUP6 PUSH1 0x3 PUSH2 0x1C5 JUMP JUMPDEST ADD SWAP2 PUSH2 0x7CA DUP4 PUSH2 0x1E4 JUMP JUMPDEST PUSH2 0x699 JUMP JUMPDEST SWAP1 PUSH2 0x6B5 JUMP JUMPDEST PUSH2 0x1B8 JUMP JUMPDEST PUSH32 0xE741E062B6B4247EE65C6F00E6B8F8F81A561C471498AB4EB5D3AB8CAD5B6EEA PUSH2 0x811 PUSH2 0x807 CALLER PUSH2 0xF2 JUMP JUMPDEST SWAP4 PUSH2 0x3D2 PUSH1 0x40 MLOAD SWAP1 JUMP JUMPDEST SUB SWAP1 LOG3 JUMP JUMPDEST DUP1 PUSH2 0x7CF PUSH2 0x826 PUSH2 0x7D5 SWAP4 PUSH2 0x1B8 JUMP JUMPDEST SWAP2 PUSH2 0x7BF DUP6 PUSH1 0x3 PUSH2 0x1C5 JUMP JUMPDEST PUSH2 0x854 SWAP2 POP PUSH1 0x20 RETURNDATASIZE PUSH1 0x20 GT PUSH2 0x85A JUMPI JUMPDEST PUSH2 0x84C DUP2 DUP4 PUSH2 0x47B JUMP JUMPDEST DUP2 ADD SWAP1 PUSH2 0x595 JUMP JUMPDEST CODESIZE PUSH2 0x72F JUMP JUMPDEST POP RETURNDATASIZE PUSH2 0x842 JUMP JUMPDEST PUSH2 0x5C2 JUMP JUMPDEST ISZERO PUSH2 0x86D JUMPI JUMP JUMPDEST PUSH1 0x40 MLOAD PUSH3 0x461BCD PUSH1 0xE5 SHL DUP2 MSTORE PUSH1 0x20 PUSH1 0x4 DUP3 ADD MSTORE PUSH1 0x19 PUSH1 0x24 DUP3 ADD MSTORE PUSH32 0x416E7377657220616C72656164792064657465726D696E656400000000000000 PUSH1 0x44 DUP3 ADD MSTORE PUSH1 0x64 SWAP1 REVERT JUMPDEST SWAP1 PUSH2 0xFF00 SWAP1 PUSH1 0x8 SHL PUSH2 0x65E JUMP JUMPDEST SWAP1 PUSH2 0x8CF PUSH2 0xBC PUSH2 0x67F SWAP3 ISZERO ISZERO SWAP1 JUMP JUMPDEST DUP3 SLOAD PUSH2 0x8B2 JUMP JUMPDEST SWAP1 PUSH3 0xFF0000 SWAP1 PUSH1 0x10 SHL PUSH2 0x65E JUMP JUMPDEST SWAP1 PUSH2 0x8F4 PUSH2 0xBC PUSH2 0x67F SWAP3 ISZERO ISZERO SWAP1 JUMP JUMPDEST DUP3 SLOAD PUSH2 0x8D6 JUMP JUMPDEST PUSH32 0xB027D5B9823C9C8F39520F4B659B590E2597F7EF05DA0D4E47D35437418ACAA4 PUSH2 0x9A6 PUSH2 0x99C PUSH2 0x996 PUSH1 0x1 PUSH2 0x991 PUSH1 0x2 PUSH2 0x939 PUSH2 0xBC DUP10 DUP6 PUSH2 0x1C5 JUMP JUMPDEST ADD SWAP2 PUSH2 0x94F PUSH2 0x94A PUSH2 0x76B DUP6 PUSH2 0x225 JUMP JUMPDEST PUSH2 0x866 JUMP JUMPDEST PUSH2 0x98B PUSH2 0x960 PUSH2 0xBC DUP11 PUSH1 0x3 PUSH2 0x1C5 JUMP JUMPDEST PUSH2 0x96A DUP4 DUP7 PUSH2 0x668 JUMP JUMPDEST PUSH2 0x984 PUSH2 0x73D PUSH2 0xBC DUP6 PUSH2 0x97D DUP6 PUSH2 0x1E4 JUMP JUMPDEST SWAP5 ADD PUSH2 0x1E4 JUMP JUMPDEST GT DUP5 PUSH2 0x8BF JUMP JUMPDEST DUP3 PUSH2 0x8E4 JUMP JUMPDEST PUSH2 0x20F JUMP JUMPDEST SWAP4 PUSH2 0x1B8 JUMP JUMPDEST SWAP3 PUSH2 0x3D2 PUSH1 0x40 MLOAD SWAP1 JUMP JUMPDEST SUB SWAP1 LOG2 JUMP JUMPDEST SWAP1 PUSH2 0xA17 PUSH1 0x80 PUSH1 0x2 PUSH2 0x118 SWAP5 PUSH2 0x9CB PUSH2 0x9C5 PUSH1 0x0 DUP8 ADD MLOAD SWAP1 JUMP JUMPDEST DUP3 PUSH2 0x6B5 JUMP JUMPDEST PUSH2 0x9E2 PUSH2 0x9D9 PUSH1 0x20 DUP8 ADD MLOAD SWAP1 JUMP JUMPDEST PUSH1 0x1 DUP4 ADD PUSH2 0x6B5 JUMP JUMPDEST ADD SWAP3 PUSH2 0x9FA PUSH2 0x9F4 PUSH1 0x40 DUP4 ADD MLOAD ISZERO ISZERO SWAP1 JUMP JUMPDEST DUP6 PUSH2 0x668 JUMP JUMPDEST PUSH2 0xA10 PUSH2 0xA0A PUSH1 0x60 DUP4 ADD MLOAD ISZERO ISZERO SWAP1 JUMP JUMPDEST DUP6 PUSH2 0x8BF JUMP JUMPDEST ADD MLOAD ISZERO ISZERO SWAP1 JUMP JUMPDEST SWAP1 PUSH2 0x8E4 JUMP JUMPDEST SWAP1 PUSH2 0x118 SWAP2 PUSH2 0x9AB JUMP JUMPDEST PUSH2 0x9A6 PUSH2 0xA9C PUSH32 0xB9F6AE7E91AF5CF462672F7DB163810A3C68B9605216B3A540519EF79487D020 SWAP3 PUSH2 0x7D5 PUSH1 0x0 PUSH2 0xA8C PUSH2 0xA5F PUSH2 0x4B6 JUMP JUMPDEST SWAP2 PUSH2 0xA6A DUP6 DUP3 DUP6 ADD MSTORE JUMP JUMPDEST PUSH2 0xA75 DUP10 PUSH1 0x20 DUP6 ADD MSTORE JUMP JUMPDEST ISZERO ISZERO PUSH1 0x40 DUP4 ADD DUP2 SWAP1 MSTORE PUSH1 0x60 DUP4 ADD DUP2 SWAP1 MSTORE PUSH1 0x80 DUP4 ADD MSTORE JUMP JUMPDEST PUSH2 0xA97 DUP4 PUSH1 0x1 PUSH2 0x1C5 JUMP JUMPDEST PUSH2 0xA1D JUMP JUMPDEST SWAP3 PUSH2 0xAA6 PUSH1 0x40 MLOAD SWAP1 JUMP JUMPDEST SWAP2 DUP3 SWAP2 DUP3 SWAP1 DUP2 MSTORE PUSH1 0x20 ADD SWAP1 JUMP INVALID LOG2 PUSH5 0x6970667358 0x22 SLT KECCAK256 EQ DUP7 BLOBHASH PUSH14 0xFDD9CEF6F461D4AFD16D1E239EA4 JUMPDEST PUSH24 0x35B9905A005A7307BC806E2964736F6C6343000818003300 "},"methodIdentifiers":{"addQuestion(uint256,uint256)":"938cfd67","answers(uint256,address)":"7dfca71c","determineCorrectAnswer(uint256)":"8df75c7a","getQuestionOutcome(uint256)":"25aaf905","hasAnswered(uint256,address)":"e6b4eacf","questions(uint256)":"31b1b978","stakeContract()":"1a186227","submitAnswer(uint256,bool)":"7adb3eac"}}}}}