{"contracts/DecentralizedBetting.sol":{"DecentralizedBetting":{"abi":[{"inputs":[{"internalType":"address","name":"_socialOracleAddress","type":"address"},{"internalType":"address","name":"_matchNFTAddress","type":"address"}],"stateMutability":"nonpayable","type":"constructor"},{"inputs":[{"internalType":"uint256","name":"","type":"uint256"},{"internalType":"address","name":"","type":"address"}],"name":"bets","outputs":[{"internalType":"uint256","name":"amount","type":"uint256"},{"internalType":"bool","name":"prediction","type":"bool"}],"stateMutability":"view","type":"function"},{"inputs":[{"internalType":"uint256","name":"eventId","type":"uint256"}],"name":"claimWinnings","outputs":[],"stateMutability":"nonpayable","type":"function"},{"inputs":[{"internalType":"uint256","name":"timestamp","type":"uint256"}],"name":"createEvent","outputs":[],"stateMutability":"nonpayable","type":"function"},{"inputs":[{"internalType":"uint256","name":"","type":"uint256"}],"name":"events","outputs":[{"internalType":"uint256","name":"id","type":"uint256"},{"internalType":"uint256","name":"timestamp","type":"uint256"},{"internalType":"bool","name":"outcome","type":"bool"},{"internalType":"bool","name":"resolved","type":"bool"},{"internalType":"uint256","name":"totalPot","type":"uint256"},{"internalType":"uint256","name":"winningPot","type":"uint256"},{"internalType":"bool","name":"emergencyStop","type":"bool"}],"stateMutability":"view","type":"function"},{"inputs":[],"name":"matchNFTAddress","outputs":[{"internalType":"address","name":"","type":"address"}],"stateMutability":"view","type":"function"},{"inputs":[],"name":"owner","outputs":[{"internalType":"address","name":"","type":"address"}],"stateMutability":"view","type":"function"},{"inputs":[{"internalType":"uint256","name":"eventId","type":"uint256"},{"internalType":"bool","name":"prediction","type":"bool"}],"name":"placeBet","outputs":[],"stateMutability":"payable","type":"function"},{"inputs":[{"internalType":"uint256","name":"eventId","type":"uint256"}],"name":"resolveEvent","outputs":[],"stateMutability":"nonpayable","type":"function"},{"inputs":[],"name":"socialOracleAddress","outputs":[{"internalType":"address","name":"","type":"address"}],"stateMutability":"view","type":"function"},{"inputs":[{"internalType":"uint256","name":"eventId","type":"uint256"}],"name":"toggleEmergencyStop","outputs":[],"stateMutability":"nonpayable","type":"function"},{"inputs":[],"name":"withdraw","outputs":[],"stateMutability":"nonpayable","type":"function"}],"evm":{"bytecode":{"linkReferences":{},"object":"60806040523462000031576200001f62000018620000e5565b90620001a4565b604051610fba620001e48239610fba90f35b600080fd5b634e487b7160e01b600052604160045260246000fd5b90601f01601f191681019081106001600160401b038211176200006e57604052565b62000036565b906200008b6200008360405190565b92836200004c565b565b6001600160a01b031690565b90565b6001600160a01b038116036200003157565b905051906200008b826200009c565b9190604083820312620000315762000099906020620000dd8286620000ae565b9401620000ae565b620001086200119e80380380620000fc8162000074565b928339810190620000bd565b9091565b906001600160a01b03905b9181191691161790565b62000099906200008d906001600160a01b031682565b620000999062000121565b620000999062000137565b906200016162000099620001699262000142565b82546200010c565b9055565b6200009962000099620000999290565b906000199062000117565b906200019c6200009962000169926200016d565b82546200017d565b90620001db6200008b92620001bb3360006200014d565b620001d3620001cb60016200016d565b600162000188565b60046200014d565b60056200014d56fe6080604052600436101561001257600080fd5b60003560e01c80630b791430146100c257806330658198146100bd5780633ccfd60b146100b8578063677bd9ff146100b35780638822e6fd146100ae5780638da5cb5b146100a9578063977d996d146100a45780639a2e82401461009f5780639ed9c74d1461009a578063bed524d6146100955763f644b3bb036100d05761044e565b6103aa565b610396565b610343565b61031f565b610304565b6102e1565b6102c9565b6102ac565b610285565b6101fd565b805b036100d057565b600080fd5b905035906100e2826100c7565b565b906020828203126100d0576100f8916100d5565b90565b6100f86100f86100f89290565b90610112906100fb565b600052602052604060002090565b6100f89081565b6100f89054610120565b6100f8905b60ff1690565b6100f89054610131565b6100f89060081c610136565b6100f89054610146565b610167906002610108565b61017081610127565b9161017d60018301610127565b9161018a6002820161013c565b9161019760028301610152565b916101a460038201610127565b916100f860056101b660048501610127565b930161013c565b9052565b90815260e08101979695909490939092909160208601521515604085015215156060840152608083015260a082015260c0016100e29115159052565b346100d0576102316102186102133660046100e4565b61015c565b9361022897959793919360405190565b978897886101c1565b0390f35b60009103126100d057565b6100f8916008021c5b6001600160a01b031690565b906100f89154610240565b6100f860006004610255565b6101bd90610249565b6020810192916100e2919061026c565b346100d057610295366004610235565b6102316102a0610260565b60405191829182610275565b346100d0576102bc366004610235565b6102c461056c565b604051005b346100d0576102c46102dc3660046100e4565b610891565b346100d0576102c46102f43660046100e4565b6108fc565b6100f8600080610255565b346100d057610314366004610235565b6102316102a06102f9565b346100d0576102c46103323660046100e4565b610ab3565b6100f860006005610255565b346100d057610353366004610235565b6102316102a0610337565b8015156100c9565b905035906100e28261035e565b91906040838203126100d0576100f890602061038f82866100d5565b9401610366565b6102c46103a4366004610373565b90610d5d565b346100d0576102c46103bd3660046100e4565b610f7b565b6100c981610249565b905035906100e2826103c2565b91906040838203126100d0576100f89060206103f482866100d5565b94016103cb565b6100f890610249906001600160a01b031682565b6100f8906103fb565b6100f89061040f565b9061011290610418565b9061043a61043f926003610108565b610421565b906100f860016101b684610127565b346100d0576104676104613660046103d8565b9061042b565b9061023161047460405190565b92839283908152901515602082015260400190565b6100f890610249565b6100f89054610489565b156104a357565b60405162461bcd60e51b815260206004820152602260248201527f4f6e6c79206f776e65722063616e2063616c6c20746869732066756e6374696f604482015261371760f11b6064820152608490fd5b6105176105086105036000610492565b610249565b61051133610249565b1461049c565b6100e261052b565b6040513d6000823e3d90fd5b600080808061053930610418565b3161054e61054961054984610492565b610418565b828215610563575bf11561055e57565b61051f565b506108fc610556565b6100e26104f3565b1561057b57565b60405162461bcd60e51b815260206004820152601860248201527f4576656e7420686173206265656e207265736f6c7665642e00000000000000006044820152606490fd5b6100e2906105e86105e36105df60026105d98582610108565b01610152565b1590565b610574565b610775565b156105f457565b60405162461bcd60e51b815260206004820152601c60248201527f4576656e7420686173206e6f74206265656e207265736f6c7665642e000000006044820152606490fd5b1561064057565b60405162461bcd60e51b815260206004820152601960248201527f5573657220686173206e6f2062657420746f20636c61696d2e000000000000006044820152606490fd5b90600019905b9181191691161790565b906106a56100f86106ac926100fb565b8254610685565b9055565b634e487b7160e01b600052601160045260246000fd5b818102929181159184041417156106d957565b6106b0565b634e487b7160e01b600052601260045260246000fd5b906106fe565b9190565b908115610709570490565b6106de565b1561071557565b60405162461bcd60e51b815260206004820152603260248201527f496e73756666696369656e7420636f6e74726163742062616c616e636520746f604482015271103830bc9037baba103bb4b73734b733b99760711b6064820152608490fd5b600261078d610788826105d98582610108565b6105ed565b6107a56100f861079e846003610108565b3390610421565b6107ae81610127565b926107c76000946107c16106fa876100fb565b11610639565b6107d36001830161013c565b6107f86107f26107ed866107e78682610108565b0161013c565b151590565b91151590565b0361087a57826108586108488695946108438761083260046108268961082c6003610826879e9d889e610108565b01610127565b99610108565b92019461083e86610127565b6106c6565b6106f4565b91610852846100fb565b90610695565b61086e61086430610418565b829031101561070e565b61054e61054933610418565b5090508161088a6100e2936100fb565b9101610695565b6100e2906105c0565b6100e2906108ae6105086105036000610492565b6108d3565b9060ff9061068b565b906108cc6100f86106ac926107ed565b82546108b3565b6100e29060056108f66108ee6105df836107e7866002610108565b926002610108565b016108bc565b6100e29061089a565b6100e2906109196105086105036000610492565b610993565b60001981146106d95760010190565b634e487b7160e01b600052604160045260246000fd5b90601f01601f1916810190811067ffffffffffffffff82111761096557604052565b61092d565b9081526040810192916100e29160200152565b9081526040810192916100e2916020019061026c565b61099d6001610127565b906109b16109aa8361091e565b6001610695565b6109c88260006109c2826002610108565b01610695565b6109d98160016109c2856002610108565b6109e96105496105496004610492565b803b156100d057610a1e600092918392610a0260405190565b948593849283919063938cfd6760e01b8352896004840161096a565b03925af1801561055e57610a9d575b50610a3e6105496105496005610492565b803b156100d057610a74600092918392610a5760405190565b94859384928391906394bf804d60e01b835233906004840161097d565b03925af1801561055e57610a855750565b6100e2906000610a958183610943565b810190610235565b610aad906000610a958183610943565b38610a2d565b6100e290610905565b906100e291610ad66105e36105df60026105d98582610108565b610c76565b15610ae257565b60405162461bcd60e51b815260206004820152602160248201527f42657474696e672069732074656d706f726172696c792073757370656e6465646044820152601760f91b6064820152608490fd5b15610b3857565b60405162461bcd60e51b815260206004820152602260248201527f42657420616d6f756e74206d7573742062652067726561746572207468616e20604482015261181760f11b6064820152608490fd5b15610b8f57565b60405162461bcd60e51b815260206004820152601e60248201527f557365722068617320616c726561647920706c616365642061206265742e00006044820152606490fd5b15610bdb57565b60405162461bcd60e51b815260206004820152601160248201527024b73b30b634b21032bb32b73a1024a21760791b6044820152606490fd5b906100e2610c2160405190565b9283610943565b6100f86040610c14565b6001610c5860206100e294610c51610c4b600083015190565b86610695565b0151151590565b91016108bc565b906100e291610c32565b919082018092116106d957565b600291610c93610c8e6105df60056107e78688610108565b610adb565b610d466000610cab610ca4826100fb565b3411610b31565b610d28600391610cd7610cc58261082661079e8a88610108565b610cd16106fa846100fb565b14610b88565b610cfb610ce882610826898b610108565b610cf46106fa846100fb565b1415610bd4565b610d0e610d06610c28565b913490830152565b8415156020820152610d2361079e8785610108565b610c5f565b610d328486610108565b01610852610d3f82610127565b3490610c69565b610d4e575050565b610d326004916100e293610108565b906100e291610abc565b6100e290610d7b6105086105036000610492565b6100e290610d946105e36105df60026105d98582610108565b610e91565b15610da057565b60405162461bcd60e51b815260206004820152601b60248201527f4576656e7420686173206e6f74206f63637572726564207965742e00000000006044820152606490fd5b905051906100e28261035e565b91906040838203126100d0576100f8906020610e0e8286610de5565b9401610de5565b15610e1c57565b60405162461bcd60e51b8152602060048201526024808201527f5175657374696f6e206f7574636f6d65206e6f742064657465726d696e6564206044820152633cb2ba1760e11b6064820152608490fd5b9061ff009060081b61068b565b90610e8a6100f86106ac926107ed565b8254610e6d565b6002610eb2610ea560006108268585610108565b610cf46106fa60006100fb565b610ecf610ec76100f860016108268686610108565b421015610d99565b610edf6105496105496004610492565b906040610eeb60405190565b6325aaf90560e01b81526004810185905292839060249082905afa801561055e576100e293610f3a610f4092600195600080919092610f46575b50610f2f90610e15565b846108f68482610108565b82610108565b01610e7a565b610f2f9250610f6d915060403d604011610f74575b610f658183610943565b810190610df2565b9091610f25565b503d610f5b565b6100e290610d6756fea26469706673582212209c28f7c01aac02ba9936bda73d4815d9b547abd3e2ffd0a2183f469576d192d464736f6c63430008180033","opcodes":"PUSH1 0x80 PUSH1 0x40 MSTORE CALLVALUE PUSH3 0x31 JUMPI PUSH3 0x1F PUSH3 0x18 PUSH3 0xE5 JUMP JUMPDEST SWAP1 PUSH3 0x1A4 JUMP JUMPDEST PUSH1 0x40 MLOAD PUSH2 0xFBA PUSH3 0x1E4 DUP3 CODECOPY PUSH2 0xFBA SWAP1 RETURN JUMPDEST PUSH1 0x0 DUP1 REVERT JUMPDEST PUSH4 0x4E487B71 PUSH1 0xE0 SHL PUSH1 0x0 MSTORE PUSH1 0x41 PUSH1 0x4 MSTORE PUSH1 0x24 PUSH1 0x0 REVERT JUMPDEST SWAP1 PUSH1 0x1F ADD PUSH1 0x1F NOT AND DUP2 ADD SWAP1 DUP2 LT PUSH1 0x1 PUSH1 0x1 PUSH1 0x40 SHL SUB DUP3 GT OR PUSH3 0x6E JUMPI PUSH1 0x40 MSTORE JUMP JUMPDEST PUSH3 0x36 JUMP JUMPDEST SWAP1 PUSH3 0x8B PUSH3 0x83 PUSH1 0x40 MLOAD SWAP1 JUMP JUMPDEST SWAP3 DUP4 PUSH3 0x4C JUMP JUMPDEST JUMP JUMPDEST PUSH1 0x1 PUSH1 0x1 PUSH1 0xA0 SHL SUB AND SWAP1 JUMP JUMPDEST SWAP1 JUMP JUMPDEST PUSH1 0x1 PUSH1 0x1 PUSH1 0xA0 SHL SUB DUP2 AND SUB PUSH3 0x31 JUMPI JUMP JUMPDEST SWAP1 POP MLOAD SWAP1 PUSH3 0x8B DUP3 PUSH3 0x9C JUMP JUMPDEST SWAP2 SWAP1 PUSH1 0x40 DUP4 DUP3 SUB SLT PUSH3 0x31 JUMPI PUSH3 0x99 SWAP1 PUSH1 0x20 PUSH3 0xDD DUP3 DUP7 PUSH3 0xAE JUMP JUMPDEST SWAP5 ADD PUSH3 0xAE JUMP JUMPDEST PUSH3 0x108 PUSH3 0x119E DUP1 CODESIZE SUB DUP1 PUSH3 0xFC DUP2 PUSH3 0x74 JUMP JUMPDEST SWAP3 DUP4 CODECOPY DUP2 ADD SWAP1 PUSH3 0xBD JUMP JUMPDEST SWAP1 SWAP2 JUMP JUMPDEST SWAP1 PUSH1 0x1 PUSH1 0x1 PUSH1 0xA0 SHL SUB SWAP1 JUMPDEST SWAP2 DUP2 NOT AND SWAP2 AND OR SWAP1 JUMP JUMPDEST PUSH3 0x99 SWAP1 PUSH3 0x8D SWAP1 PUSH1 0x1 PUSH1 0x1 PUSH1 0xA0 SHL SUB AND DUP3 JUMP JUMPDEST PUSH3 0x99 SWAP1 PUSH3 0x121 JUMP JUMPDEST PUSH3 0x99 SWAP1 PUSH3 0x137 JUMP JUMPDEST SWAP1 PUSH3 0x161 PUSH3 0x99 PUSH3 0x169 SWAP3 PUSH3 0x142 JUMP JUMPDEST DUP3 SLOAD PUSH3 0x10C JUMP JUMPDEST SWAP1 SSTORE JUMP JUMPDEST PUSH3 0x99 PUSH3 0x99 PUSH3 0x99 SWAP3 SWAP1 JUMP JUMPDEST SWAP1 PUSH1 0x0 NOT SWAP1 PUSH3 0x117 JUMP JUMPDEST SWAP1 PUSH3 0x19C PUSH3 0x99 PUSH3 0x169 SWAP3 PUSH3 0x16D JUMP JUMPDEST DUP3 SLOAD PUSH3 0x17D JUMP JUMPDEST SWAP1 PUSH3 0x1DB PUSH3 0x8B SWAP3 PUSH3 0x1BB CALLER PUSH1 0x0 PUSH3 0x14D JUMP JUMPDEST PUSH3 0x1D3 PUSH3 0x1CB PUSH1 0x1 PUSH3 0x16D JUMP JUMPDEST PUSH1 0x1 PUSH3 0x188 JUMP JUMPDEST PUSH1 0x4 PUSH3 0x14D JUMP JUMPDEST PUSH1 0x5 PUSH3 0x14D JUMP INVALID PUSH1 0x80 PUSH1 0x40 MSTORE PUSH1 0x4 CALLDATASIZE LT ISZERO PUSH2 0x12 JUMPI PUSH1 0x0 DUP1 REVERT JUMPDEST PUSH1 0x0 CALLDATALOAD PUSH1 0xE0 SHR DUP1 PUSH4 0xB791430 EQ PUSH2 0xC2 JUMPI DUP1 PUSH4 0x30658198 EQ PUSH2 0xBD JUMPI DUP1 PUSH4 0x3CCFD60B EQ PUSH2 0xB8 JUMPI DUP1 PUSH4 0x677BD9FF EQ PUSH2 0xB3 JUMPI DUP1 PUSH4 0x8822E6FD EQ PUSH2 0xAE JUMPI DUP1 PUSH4 0x8DA5CB5B EQ PUSH2 0xA9 JUMPI DUP1 PUSH4 0x977D996D EQ PUSH2 0xA4 JUMPI DUP1 PUSH4 0x9A2E8240 EQ PUSH2 0x9F JUMPI DUP1 PUSH4 0x9ED9C74D EQ PUSH2 0x9A JUMPI DUP1 PUSH4 0xBED524D6 EQ PUSH2 0x95 JUMPI PUSH4 0xF644B3BB SUB PUSH2 0xD0 JUMPI PUSH2 0x44E JUMP JUMPDEST PUSH2 0x3AA JUMP JUMPDEST PUSH2 0x396 JUMP JUMPDEST PUSH2 0x343 JUMP JUMPDEST PUSH2 0x31F JUMP JUMPDEST PUSH2 0x304 JUMP JUMPDEST PUSH2 0x2E1 JUMP JUMPDEST PUSH2 0x2C9 JUMP JUMPDEST PUSH2 0x2AC JUMP JUMPDEST PUSH2 0x285 JUMP JUMPDEST PUSH2 0x1FD JUMP JUMPDEST DUP1 JUMPDEST SUB PUSH2 0xD0 JUMPI JUMP JUMPDEST PUSH1 0x0 DUP1 REVERT JUMPDEST SWAP1 POP CALLDATALOAD SWAP1 PUSH2 0xE2 DUP3 PUSH2 0xC7 JUMP JUMPDEST JUMP JUMPDEST SWAP1 PUSH1 0x20 DUP3 DUP3 SUB SLT PUSH2 0xD0 JUMPI PUSH2 0xF8 SWAP2 PUSH2 0xD5 JUMP JUMPDEST SWAP1 JUMP JUMPDEST PUSH2 0xF8 PUSH2 0xF8 PUSH2 0xF8 SWAP3 SWAP1 JUMP JUMPDEST SWAP1 PUSH2 0x112 SWAP1 PUSH2 0xFB JUMP JUMPDEST PUSH1 0x0 MSTORE PUSH1 0x20 MSTORE PUSH1 0x40 PUSH1 0x0 KECCAK256 SWAP1 JUMP JUMPDEST PUSH2 0xF8 SWAP1 DUP2 JUMP JUMPDEST PUSH2 0xF8 SWAP1 SLOAD PUSH2 0x120 JUMP JUMPDEST PUSH2 0xF8 SWAP1 JUMPDEST PUSH1 0xFF AND SWAP1 JUMP JUMPDEST PUSH2 0xF8 SWAP1 SLOAD PUSH2 0x131 JUMP JUMPDEST PUSH2 0xF8 SWAP1 PUSH1 0x8 SHR PUSH2 0x136 JUMP JUMPDEST PUSH2 0xF8 SWAP1 SLOAD PUSH2 0x146 JUMP JUMPDEST PUSH2 0x167 SWAP1 PUSH1 0x2 PUSH2 0x108 JUMP JUMPDEST PUSH2 0x170 DUP2 PUSH2 0x127 JUMP JUMPDEST SWAP2 PUSH2 0x17D PUSH1 0x1 DUP4 ADD PUSH2 0x127 JUMP JUMPDEST SWAP2 PUSH2 0x18A PUSH1 0x2 DUP3 ADD PUSH2 0x13C JUMP JUMPDEST SWAP2 PUSH2 0x197 PUSH1 0x2 DUP4 ADD PUSH2 0x152 JUMP JUMPDEST SWAP2 PUSH2 0x1A4 PUSH1 0x3 DUP3 ADD PUSH2 0x127 JUMP JUMPDEST SWAP2 PUSH2 0xF8 PUSH1 0x5 PUSH2 0x1B6 PUSH1 0x4 DUP6 ADD PUSH2 0x127 JUMP JUMPDEST SWAP4 ADD PUSH2 0x13C JUMP JUMPDEST SWAP1 MSTORE JUMP JUMPDEST SWAP1 DUP2 MSTORE PUSH1 0xE0 DUP2 ADD SWAP8 SWAP7 SWAP6 SWAP1 SWAP5 SWAP1 SWAP4 SWAP1 SWAP3 SWAP1 SWAP2 PUSH1 0x20 DUP7 ADD MSTORE ISZERO ISZERO PUSH1 0x40 DUP6 ADD MSTORE ISZERO ISZERO PUSH1 0x60 DUP5 ADD MSTORE PUSH1 0x80 DUP4 ADD MSTORE PUSH1 0xA0 DUP3 ADD MSTORE PUSH1 0xC0 ADD PUSH2 0xE2 SWAP2 ISZERO ISZERO SWAP1 MSTORE JUMP JUMPDEST CALLVALUE PUSH2 0xD0 JUMPI PUSH2 0x231 PUSH2 0x218 PUSH2 0x213 CALLDATASIZE PUSH1 0x4 PUSH2 0xE4 JUMP JUMPDEST PUSH2 0x15C JUMP JUMPDEST SWAP4 PUSH2 0x228 SWAP8 SWAP6 SWAP8 SWAP4 SWAP2 SWAP4 PUSH1 0x40 MLOAD SWAP1 JUMP JUMPDEST SWAP8 DUP9 SWAP8 DUP9 PUSH2 0x1C1 JUMP JUMPDEST SUB SWAP1 RETURN JUMPDEST PUSH1 0x0 SWAP2 SUB SLT PUSH2 0xD0 JUMPI JUMP JUMPDEST PUSH2 0xF8 SWAP2 PUSH1 0x8 MUL SHR JUMPDEST PUSH1 0x1 PUSH1 0x1 PUSH1 0xA0 SHL SUB AND SWAP1 JUMP JUMPDEST SWAP1 PUSH2 0xF8 SWAP2 SLOAD PUSH2 0x240 JUMP JUMPDEST PUSH2 0xF8 PUSH1 0x0 PUSH1 0x4 PUSH2 0x255 JUMP JUMPDEST PUSH2 0x1BD SWAP1 PUSH2 0x249 JUMP JUMPDEST PUSH1 0x20 DUP2 ADD SWAP3 SWAP2 PUSH2 0xE2 SWAP2 SWAP1 PUSH2 0x26C JUMP JUMPDEST CALLVALUE PUSH2 0xD0 JUMPI PUSH2 0x295 CALLDATASIZE PUSH1 0x4 PUSH2 0x235 JUMP JUMPDEST PUSH2 0x231 PUSH2 0x2A0 PUSH2 0x260 JUMP JUMPDEST PUSH1 0x40 MLOAD SWAP2 DUP3 SWAP2 DUP3 PUSH2 0x275 JUMP JUMPDEST CALLVALUE PUSH2 0xD0 JUMPI PUSH2 0x2BC CALLDATASIZE PUSH1 0x4 PUSH2 0x235 JUMP JUMPDEST PUSH2 0x2C4 PUSH2 0x56C JUMP JUMPDEST PUSH1 0x40 MLOAD STOP JUMPDEST CALLVALUE PUSH2 0xD0 JUMPI PUSH2 0x2C4 PUSH2 0x2DC CALLDATASIZE PUSH1 0x4 PUSH2 0xE4 JUMP JUMPDEST PUSH2 0x891 JUMP JUMPDEST CALLVALUE PUSH2 0xD0 JUMPI PUSH2 0x2C4 PUSH2 0x2F4 CALLDATASIZE PUSH1 0x4 PUSH2 0xE4 JUMP JUMPDEST PUSH2 0x8FC JUMP JUMPDEST PUSH2 0xF8 PUSH1 0x0 DUP1 PUSH2 0x255 JUMP JUMPDEST CALLVALUE PUSH2 0xD0 JUMPI PUSH2 0x314 CALLDATASIZE PUSH1 0x4 PUSH2 0x235 JUMP JUMPDEST PUSH2 0x231 PUSH2 0x2A0 PUSH2 0x2F9 JUMP JUMPDEST CALLVALUE PUSH2 0xD0 JUMPI PUSH2 0x2C4 PUSH2 0x332 CALLDATASIZE PUSH1 0x4 PUSH2 0xE4 JUMP JUMPDEST PUSH2 0xAB3 JUMP JUMPDEST PUSH2 0xF8 PUSH1 0x0 PUSH1 0x5 PUSH2 0x255 JUMP JUMPDEST CALLVALUE PUSH2 0xD0 JUMPI PUSH2 0x353 CALLDATASIZE PUSH1 0x4 PUSH2 0x235 JUMP JUMPDEST PUSH2 0x231 PUSH2 0x2A0 PUSH2 0x337 JUMP JUMPDEST DUP1 ISZERO ISZERO PUSH2 0xC9 JUMP JUMPDEST SWAP1 POP CALLDATALOAD SWAP1 PUSH2 0xE2 DUP3 PUSH2 0x35E JUMP JUMPDEST SWAP2 SWAP1 PUSH1 0x40 DUP4 DUP3 SUB SLT PUSH2 0xD0 JUMPI PUSH2 0xF8 SWAP1 PUSH1 0x20 PUSH2 0x38F DUP3 DUP7 PUSH2 0xD5 JUMP JUMPDEST SWAP5 ADD PUSH2 0x366 JUMP JUMPDEST PUSH2 0x2C4 PUSH2 0x3A4 CALLDATASIZE PUSH1 0x4 PUSH2 0x373 JUMP JUMPDEST SWAP1 PUSH2 0xD5D JUMP JUMPDEST CALLVALUE PUSH2 0xD0 JUMPI PUSH2 0x2C4 PUSH2 0x3BD CALLDATASIZE PUSH1 0x4 PUSH2 0xE4 JUMP JUMPDEST PUSH2 0xF7B JUMP JUMPDEST PUSH2 0xC9 DUP2 PUSH2 0x249 JUMP JUMPDEST SWAP1 POP CALLDATALOAD SWAP1 PUSH2 0xE2 DUP3 PUSH2 0x3C2 JUMP JUMPDEST SWAP2 SWAP1 PUSH1 0x40 DUP4 DUP3 SUB SLT PUSH2 0xD0 JUMPI PUSH2 0xF8 SWAP1 PUSH1 0x20 PUSH2 0x3F4 DUP3 DUP7 PUSH2 0xD5 JUMP JUMPDEST SWAP5 ADD PUSH2 0x3CB JUMP JUMPDEST PUSH2 0xF8 SWAP1 PUSH2 0x249 SWAP1 PUSH1 0x1 PUSH1 0x1 PUSH1 0xA0 SHL SUB AND DUP3 JUMP JUMPDEST PUSH2 0xF8 SWAP1 PUSH2 0x3FB JUMP JUMPDEST PUSH2 0xF8 SWAP1 PUSH2 0x40F JUMP JUMPDEST SWAP1 PUSH2 0x112 SWAP1 PUSH2 0x418 JUMP JUMPDEST SWAP1 PUSH2 0x43A PUSH2 0x43F SWAP3 PUSH1 0x3 PUSH2 0x108 JUMP JUMPDEST PUSH2 0x421 JUMP JUMPDEST SWAP1 PUSH2 0xF8 PUSH1 0x1 PUSH2 0x1B6 DUP5 PUSH2 0x127 JUMP JUMPDEST CALLVALUE PUSH2 0xD0 JUMPI PUSH2 0x467 PUSH2 0x461 CALLDATASIZE PUSH1 0x4 PUSH2 0x3D8 JUMP JUMPDEST SWAP1 PUSH2 0x42B JUMP JUMPDEST SWAP1 PUSH2 0x231 PUSH2 0x474 PUSH1 0x40 MLOAD SWAP1 JUMP JUMPDEST SWAP3 DUP4 SWAP3 DUP4 SWAP1 DUP2 MSTORE SWAP1 ISZERO ISZERO PUSH1 0x20 DUP3 ADD MSTORE PUSH1 0x40 ADD SWAP1 JUMP JUMPDEST PUSH2 0xF8 SWAP1 PUSH2 0x249 JUMP JUMPDEST PUSH2 0xF8 SWAP1 SLOAD PUSH2 0x489 JUMP JUMPDEST ISZERO PUSH2 0x4A3 JUMPI JUMP JUMPDEST PUSH1 0x40 MLOAD PUSH3 0x461BCD PUSH1 0xE5 SHL DUP2 MSTORE PUSH1 0x20 PUSH1 0x4 DUP3 ADD MSTORE PUSH1 0x22 PUSH1 0x24 DUP3 ADD MSTORE PUSH32 0x4F6E6C79206F776E65722063616E2063616C6C20746869732066756E6374696F PUSH1 0x44 DUP3 ADD MSTORE PUSH2 0x3717 PUSH1 0xF1 SHL PUSH1 0x64 DUP3 ADD MSTORE PUSH1 0x84 SWAP1 REVERT JUMPDEST PUSH2 0x517 PUSH2 0x508 PUSH2 0x503 PUSH1 0x0 PUSH2 0x492 JUMP JUMPDEST PUSH2 0x249 JUMP JUMPDEST PUSH2 0x511 CALLER PUSH2 0x249 JUMP JUMPDEST EQ PUSH2 0x49C JUMP JUMPDEST PUSH2 0xE2 PUSH2 0x52B JUMP JUMPDEST PUSH1 0x40 MLOAD RETURNDATASIZE PUSH1 0x0 DUP3 RETURNDATACOPY RETURNDATASIZE SWAP1 REVERT JUMPDEST PUSH1 0x0 DUP1 DUP1 DUP1 PUSH2 0x539 ADDRESS PUSH2 0x418 JUMP JUMPDEST BALANCE PUSH2 0x54E PUSH2 0x549 PUSH2 0x549 DUP5 PUSH2 0x492 JUMP JUMPDEST PUSH2 0x418 JUMP JUMPDEST DUP3 DUP3 ISZERO PUSH2 0x563 JUMPI JUMPDEST CALL ISZERO PUSH2 0x55E JUMPI JUMP JUMPDEST PUSH2 0x51F JUMP JUMPDEST POP PUSH2 0x8FC PUSH2 0x556 JUMP JUMPDEST PUSH2 0xE2 PUSH2 0x4F3 JUMP JUMPDEST ISZERO PUSH2 0x57B JUMPI JUMP JUMPDEST PUSH1 0x40 MLOAD PUSH3 0x461BCD PUSH1 0xE5 SHL DUP2 MSTORE PUSH1 0x20 PUSH1 0x4 DUP3 ADD MSTORE PUSH1 0x18 PUSH1 0x24 DUP3 ADD MSTORE PUSH32 0x4576656E7420686173206265656E207265736F6C7665642E0000000000000000 PUSH1 0x44 DUP3 ADD MSTORE PUSH1 0x64 SWAP1 REVERT JUMPDEST PUSH2 0xE2 SWAP1 PUSH2 0x5E8 PUSH2 0x5E3 PUSH2 0x5DF PUSH1 0x2 PUSH2 0x5D9 DUP6 DUP3 PUSH2 0x108 JUMP JUMPDEST ADD PUSH2 0x152 JUMP JUMPDEST ISZERO SWAP1 JUMP JUMPDEST PUSH2 0x574 JUMP JUMPDEST PUSH2 0x775 JUMP JUMPDEST ISZERO PUSH2 0x5F4 JUMPI JUMP JUMPDEST PUSH1 0x40 MLOAD PUSH3 0x461BCD PUSH1 0xE5 SHL DUP2 MSTORE PUSH1 0x20 PUSH1 0x4 DUP3 ADD MSTORE PUSH1 0x1C PUSH1 0x24 DUP3 ADD MSTORE PUSH32 0x4576656E7420686173206E6F74206265656E207265736F6C7665642E00000000 PUSH1 0x44 DUP3 ADD MSTORE PUSH1 0x64 SWAP1 REVERT JUMPDEST ISZERO PUSH2 0x640 JUMPI JUMP JUMPDEST PUSH1 0x40 MLOAD PUSH3 0x461BCD PUSH1 0xE5 SHL DUP2 MSTORE PUSH1 0x20 PUSH1 0x4 DUP3 ADD MSTORE PUSH1 0x19 PUSH1 0x24 DUP3 ADD MSTORE PUSH32 0x5573657220686173206E6F2062657420746F20636C61696D2E00000000000000 PUSH1 0x44 DUP3 ADD MSTORE PUSH1 0x64 SWAP1 REVERT JUMPDEST SWAP1 PUSH1 0x0 NOT SWAP1 JUMPDEST SWAP2 DUP2 NOT AND SWAP2 AND OR SWAP1 JUMP JUMPDEST SWAP1 PUSH2 0x6A5 PUSH2 0xF8 PUSH2 0x6AC SWAP3 PUSH2 0xFB JUMP JUMPDEST DUP3 SLOAD PUSH2 0x685 JUMP JUMPDEST SWAP1 SSTORE JUMP JUMPDEST PUSH4 0x4E487B71 PUSH1 0xE0 SHL PUSH1 0x0 MSTORE PUSH1 0x11 PUSH1 0x4 MSTORE PUSH1 0x24 PUSH1 0x0 REVERT JUMPDEST DUP2 DUP2 MUL SWAP3 SWAP2 DUP2 ISZERO SWAP2 DUP5 DIV EQ OR ISZERO PUSH2 0x6D9 JUMPI JUMP JUMPDEST PUSH2 0x6B0 JUMP JUMPDEST PUSH4 0x4E487B71 PUSH1 0xE0 SHL PUSH1 0x0 MSTORE PUSH1 0x12 PUSH1 0x4 MSTORE PUSH1 0x24 PUSH1 0x0 REVERT JUMPDEST SWAP1 PUSH2 0x6FE JUMP JUMPDEST SWAP2 SWAP1 JUMP JUMPDEST SWAP1 DUP2 ISZERO PUSH2 0x709 JUMPI DIV SWAP1 JUMP JUMPDEST PUSH2 0x6DE JUMP JUMPDEST ISZERO PUSH2 0x715 JUMPI JUMP JUMPDEST PUSH1 0x40 MLOAD PUSH3 0x461BCD PUSH1 0xE5 SHL DUP2 MSTORE PUSH1 0x20 PUSH1 0x4 DUP3 ADD MSTORE PUSH1 0x32 PUSH1 0x24 DUP3 ADD MSTORE PUSH32 0x496E73756666696369656E7420636F6E74726163742062616C616E636520746F PUSH1 0x44 DUP3 ADD MSTORE PUSH18 0x103830BC9037BABA103BB4B73734B733B997 PUSH1 0x71 SHL PUSH1 0x64 DUP3 ADD MSTORE PUSH1 0x84 SWAP1 REVERT JUMPDEST PUSH1 0x2 PUSH2 0x78D PUSH2 0x788 DUP3 PUSH2 0x5D9 DUP6 DUP3 PUSH2 0x108 JUMP JUMPDEST PUSH2 0x5ED JUMP JUMPDEST PUSH2 0x7A5 PUSH2 0xF8 PUSH2 0x79E DUP5 PUSH1 0x3 PUSH2 0x108 JUMP JUMPDEST CALLER SWAP1 PUSH2 0x421 JUMP JUMPDEST PUSH2 0x7AE DUP2 PUSH2 0x127 JUMP JUMPDEST SWAP3 PUSH2 0x7C7 PUSH1 0x0 SWAP5 PUSH2 0x7C1 PUSH2 0x6FA DUP8 PUSH2 0xFB JUMP JUMPDEST GT PUSH2 0x639 JUMP JUMPDEST PUSH2 0x7D3 PUSH1 0x1 DUP4 ADD PUSH2 0x13C JUMP JUMPDEST PUSH2 0x7F8 PUSH2 0x7F2 PUSH2 0x7ED DUP7 PUSH2 0x7E7 DUP7 DUP3 PUSH2 0x108 JUMP JUMPDEST ADD PUSH2 0x13C JUMP JUMPDEST ISZERO ISZERO SWAP1 JUMP JUMPDEST SWAP2 ISZERO ISZERO SWAP1 JUMP JUMPDEST SUB PUSH2 0x87A JUMPI DUP3 PUSH2 0x858 PUSH2 0x848 DUP7 SWAP6 SWAP5 PUSH2 0x843 DUP8 PUSH2 0x832 PUSH1 0x4 PUSH2 0x826 DUP10 PUSH2 0x82C PUSH1 0x3 PUSH2 0x826 DUP8 SWAP15 SWAP14 DUP9 SWAP15 PUSH2 0x108 JUMP JUMPDEST ADD PUSH2 0x127 JUMP JUMPDEST SWAP10 PUSH2 0x108 JUMP JUMPDEST SWAP3 ADD SWAP5 PUSH2 0x83E DUP7 PUSH2 0x127 JUMP JUMPDEST PUSH2 0x6C6 JUMP JUMPDEST PUSH2 0x6F4 JUMP JUMPDEST SWAP2 PUSH2 0x852 DUP5 PUSH2 0xFB JUMP JUMPDEST SWAP1 PUSH2 0x695 JUMP JUMPDEST PUSH2 0x86E PUSH2 0x864 ADDRESS PUSH2 0x418 JUMP JUMPDEST DUP3 SWAP1 BALANCE LT ISZERO PUSH2 0x70E JUMP JUMPDEST PUSH2 0x54E PUSH2 0x549 CALLER PUSH2 0x418 JUMP JUMPDEST POP SWAP1 POP DUP2 PUSH2 0x88A PUSH2 0xE2 SWAP4 PUSH2 0xFB JUMP JUMPDEST SWAP2 ADD PUSH2 0x695 JUMP JUMPDEST PUSH2 0xE2 SWAP1 PUSH2 0x5C0 JUMP JUMPDEST PUSH2 0xE2 SWAP1 PUSH2 0x8AE PUSH2 0x508 PUSH2 0x503 PUSH1 0x0 PUSH2 0x492 JUMP JUMPDEST PUSH2 0x8D3 JUMP JUMPDEST SWAP1 PUSH1 0xFF SWAP1 PUSH2 0x68B JUMP JUMPDEST SWAP1 PUSH2 0x8CC PUSH2 0xF8 PUSH2 0x6AC SWAP3 PUSH2 0x7ED JUMP JUMPDEST DUP3 SLOAD PUSH2 0x8B3 JUMP JUMPDEST PUSH2 0xE2 SWAP1 PUSH1 0x5 PUSH2 0x8F6 PUSH2 0x8EE PUSH2 0x5DF DUP4 PUSH2 0x7E7 DUP7 PUSH1 0x2 PUSH2 0x108 JUMP JUMPDEST SWAP3 PUSH1 0x2 PUSH2 0x108 JUMP JUMPDEST ADD PUSH2 0x8BC JUMP JUMPDEST PUSH2 0xE2 SWAP1 PUSH2 0x89A JUMP JUMPDEST PUSH2 0xE2 SWAP1 PUSH2 0x919 PUSH2 0x508 PUSH2 0x503 PUSH1 0x0 PUSH2 0x492 JUMP JUMPDEST PUSH2 0x993 JUMP JUMPDEST PUSH1 0x0 NOT DUP2 EQ PUSH2 0x6D9 JUMPI PUSH1 0x1 ADD SWAP1 JUMP JUMPDEST PUSH4 0x4E487B71 PUSH1 0xE0 SHL PUSH1 0x0 MSTORE PUSH1 0x41 PUSH1 0x4 MSTORE PUSH1 0x24 PUSH1 0x0 REVERT JUMPDEST SWAP1 PUSH1 0x1F ADD PUSH1 0x1F NOT AND DUP2 ADD SWAP1 DUP2 LT PUSH8 0xFFFFFFFFFFFFFFFF DUP3 GT OR PUSH2 0x965 JUMPI PUSH1 0x40 MSTORE JUMP JUMPDEST PUSH2 0x92D JUMP JUMPDEST SWAP1 DUP2 MSTORE PUSH1 0x40 DUP2 ADD SWAP3 SWAP2 PUSH2 0xE2 SWAP2 PUSH1 0x20 ADD MSTORE JUMP JUMPDEST SWAP1 DUP2 MSTORE PUSH1 0x40 DUP2 ADD SWAP3 SWAP2 PUSH2 0xE2 SWAP2 PUSH1 0x20 ADD SWAP1 PUSH2 0x26C JUMP JUMPDEST PUSH2 0x99D PUSH1 0x1 PUSH2 0x127 JUMP JUMPDEST SWAP1 PUSH2 0x9B1 PUSH2 0x9AA DUP4 PUSH2 0x91E JUMP JUMPDEST PUSH1 0x1 PUSH2 0x695 JUMP JUMPDEST PUSH2 0x9C8 DUP3 PUSH1 0x0 PUSH2 0x9C2 DUP3 PUSH1 0x2 PUSH2 0x108 JUMP JUMPDEST ADD PUSH2 0x695 JUMP JUMPDEST PUSH2 0x9D9 DUP2 PUSH1 0x1 PUSH2 0x9C2 DUP6 PUSH1 0x2 PUSH2 0x108 JUMP JUMPDEST PUSH2 0x9E9 PUSH2 0x549 PUSH2 0x549 PUSH1 0x4 PUSH2 0x492 JUMP JUMPDEST DUP1 EXTCODESIZE ISZERO PUSH2 0xD0 JUMPI PUSH2 0xA1E PUSH1 0x0 SWAP3 SWAP2 DUP4 SWAP3 PUSH2 0xA02 PUSH1 0x40 MLOAD SWAP1 JUMP JUMPDEST SWAP5 DUP6 SWAP4 DUP5 SWAP3 DUP4 SWAP2 SWAP1 PUSH4 0x938CFD67 PUSH1 0xE0 SHL DUP4 MSTORE DUP10 PUSH1 0x4 DUP5 ADD PUSH2 0x96A JUMP JUMPDEST SUB SWAP3 GAS CALL DUP1 ISZERO PUSH2 0x55E JUMPI PUSH2 0xA9D JUMPI JUMPDEST POP PUSH2 0xA3E PUSH2 0x549 PUSH2 0x549 PUSH1 0x5 PUSH2 0x492 JUMP JUMPDEST DUP1 EXTCODESIZE ISZERO PUSH2 0xD0 JUMPI PUSH2 0xA74 PUSH1 0x0 SWAP3 SWAP2 DUP4 SWAP3 PUSH2 0xA57 PUSH1 0x40 MLOAD SWAP1 JUMP JUMPDEST SWAP5 DUP6 SWAP4 DUP5 SWAP3 DUP4 SWAP2 SWAP1 PUSH4 0x94BF804D PUSH1 0xE0 SHL DUP4 MSTORE CALLER SWAP1 PUSH1 0x4 DUP5 ADD PUSH2 0x97D JUMP JUMPDEST SUB SWAP3 GAS CALL DUP1 ISZERO PUSH2 0x55E JUMPI PUSH2 0xA85 JUMPI POP JUMP JUMPDEST PUSH2 0xE2 SWAP1 PUSH1 0x0 PUSH2 0xA95 DUP2 DUP4 PUSH2 0x943 JUMP JUMPDEST DUP2 ADD SWAP1 PUSH2 0x235 JUMP JUMPDEST PUSH2 0xAAD SWAP1 PUSH1 0x0 PUSH2 0xA95 DUP2 DUP4 PUSH2 0x943 JUMP JUMPDEST CODESIZE PUSH2 0xA2D JUMP JUMPDEST PUSH2 0xE2 SWAP1 PUSH2 0x905 JUMP JUMPDEST SWAP1 PUSH2 0xE2 SWAP2 PUSH2 0xAD6 PUSH2 0x5E3 PUSH2 0x5DF PUSH1 0x2 PUSH2 0x5D9 DUP6 DUP3 PUSH2 0x108 JUMP JUMPDEST PUSH2 0xC76 JUMP JUMPDEST ISZERO PUSH2 0xAE2 JUMPI JUMP JUMPDEST PUSH1 0x40 MLOAD PUSH3 0x461BCD PUSH1 0xE5 SHL DUP2 MSTORE PUSH1 0x20 PUSH1 0x4 DUP3 ADD MSTORE PUSH1 0x21 PUSH1 0x24 DUP3 ADD MSTORE PUSH32 0x42657474696E672069732074656D706F726172696C792073757370656E646564 PUSH1 0x44 DUP3 ADD MSTORE PUSH1 0x17 PUSH1 0xF9 SHL PUSH1 0x64 DUP3 ADD MSTORE PUSH1 0x84 SWAP1 REVERT JUMPDEST ISZERO PUSH2 0xB38 JUMPI JUMP JUMPDEST PUSH1 0x40 MLOAD PUSH3 0x461BCD PUSH1 0xE5 SHL DUP2 MSTORE PUSH1 0x20 PUSH1 0x4 DUP3 ADD MSTORE PUSH1 0x22 PUSH1 0x24 DUP3 ADD MSTORE PUSH32 0x42657420616D6F756E74206D7573742062652067726561746572207468616E20 PUSH1 0x44 DUP3 ADD MSTORE PUSH2 0x1817 PUSH1 0xF1 SHL PUSH1 0x64 DUP3 ADD MSTORE PUSH1 0x84 SWAP1 REVERT JUMPDEST ISZERO PUSH2 0xB8F JUMPI JUMP JUMPDEST PUSH1 0x40 MLOAD PUSH3 0x461BCD PUSH1 0xE5 SHL DUP2 MSTORE PUSH1 0x20 PUSH1 0x4 DUP3 ADD MSTORE PUSH1 0x1E PUSH1 0x24 DUP3 ADD MSTORE PUSH32 0x557365722068617320616C726561647920706C616365642061206265742E0000 PUSH1 0x44 DUP3 ADD MSTORE PUSH1 0x64 SWAP1 REVERT JUMPDEST ISZERO PUSH2 0xBDB JUMPI JUMP JUMPDEST PUSH1 0x40 MLOAD PUSH3 0x461BCD PUSH1 0xE5 SHL DUP2 MSTORE PUSH1 0x20 PUSH1 0x4 DUP3 ADD MSTORE PUSH1 0x11 PUSH1 0x24 DUP3 ADD MSTORE PUSH17 0x24B73B30B634B21032BB32B73A1024A217 PUSH1 0x79 SHL PUSH1 0x44 DUP3 ADD MSTORE PUSH1 0x64 SWAP1 REVERT JUMPDEST SWAP1 PUSH2 0xE2 PUSH2 0xC21 PUSH1 0x40 MLOAD SWAP1 JUMP JUMPDEST SWAP3 DUP4 PUSH2 0x943 JUMP JUMPDEST PUSH2 0xF8 PUSH1 0x40 PUSH2 0xC14 JUMP JUMPDEST PUSH1 0x1 PUSH2 0xC58 PUSH1 0x20 PUSH2 0xE2 SWAP5 PUSH2 0xC51 PUSH2 0xC4B PUSH1 0x0 DUP4 ADD MLOAD SWAP1 JUMP JUMPDEST DUP7 PUSH2 0x695 JUMP JUMPDEST ADD MLOAD ISZERO ISZERO SWAP1 JUMP JUMPDEST SWAP2 ADD PUSH2 0x8BC JUMP JUMPDEST SWAP1 PUSH2 0xE2 SWAP2 PUSH2 0xC32 JUMP JUMPDEST SWAP2 SWAP1 DUP3 ADD DUP1 SWAP3 GT PUSH2 0x6D9 JUMPI JUMP JUMPDEST PUSH1 0x2 SWAP2 PUSH2 0xC93 PUSH2 0xC8E PUSH2 0x5DF PUSH1 0x5 PUSH2 0x7E7 DUP7 DUP9 PUSH2 0x108 JUMP JUMPDEST PUSH2 0xADB JUMP JUMPDEST PUSH2 0xD46 PUSH1 0x0 PUSH2 0xCAB PUSH2 0xCA4 DUP3 PUSH2 0xFB JUMP JUMPDEST CALLVALUE GT PUSH2 0xB31 JUMP JUMPDEST PUSH2 0xD28 PUSH1 0x3 SWAP2 PUSH2 0xCD7 PUSH2 0xCC5 DUP3 PUSH2 0x826 PUSH2 0x79E DUP11 DUP9 PUSH2 0x108 JUMP JUMPDEST PUSH2 0xCD1 PUSH2 0x6FA DUP5 PUSH2 0xFB JUMP JUMPDEST EQ PUSH2 0xB88 JUMP JUMPDEST PUSH2 0xCFB PUSH2 0xCE8 DUP3 PUSH2 0x826 DUP10 DUP12 PUSH2 0x108 JUMP JUMPDEST PUSH2 0xCF4 PUSH2 0x6FA DUP5 PUSH2 0xFB JUMP JUMPDEST EQ ISZERO PUSH2 0xBD4 JUMP JUMPDEST PUSH2 0xD0E PUSH2 0xD06 PUSH2 0xC28 JUMP JUMPDEST SWAP2 CALLVALUE SWAP1 DUP4 ADD MSTORE JUMP JUMPDEST DUP5 ISZERO ISZERO PUSH1 0x20 DUP3 ADD MSTORE PUSH2 0xD23 PUSH2 0x79E DUP8 DUP6 PUSH2 0x108 JUMP JUMPDEST PUSH2 0xC5F JUMP JUMPDEST PUSH2 0xD32 DUP5 DUP7 PUSH2 0x108 JUMP JUMPDEST ADD PUSH2 0x852 PUSH2 0xD3F DUP3 PUSH2 0x127 JUMP JUMPDEST CALLVALUE SWAP1 PUSH2 0xC69 JUMP JUMPDEST PUSH2 0xD4E JUMPI POP POP JUMP JUMPDEST PUSH2 0xD32 PUSH1 0x4 SWAP2 PUSH2 0xE2 SWAP4 PUSH2 0x108 JUMP JUMPDEST SWAP1 PUSH2 0xE2 SWAP2 PUSH2 0xABC JUMP JUMPDEST PUSH2 0xE2 SWAP1 PUSH2 0xD7B PUSH2 0x508 PUSH2 0x503 PUSH1 0x0 PUSH2 0x492 JUMP JUMPDEST PUSH2 0xE2 SWAP1 PUSH2 0xD94 PUSH2 0x5E3 PUSH2 0x5DF PUSH1 0x2 PUSH2 0x5D9 DUP6 DUP3 PUSH2 0x108 JUMP JUMPDEST PUSH2 0xE91 JUMP JUMPDEST ISZERO PUSH2 0xDA0 JUMPI JUMP JUMPDEST PUSH1 0x40 MLOAD PUSH3 0x461BCD PUSH1 0xE5 SHL DUP2 MSTORE PUSH1 0x20 PUSH1 0x4 DUP3 ADD MSTORE PUSH1 0x1B PUSH1 0x24 DUP3 ADD MSTORE PUSH32 0x4576656E7420686173206E6F74206F63637572726564207965742E0000000000 PUSH1 0x44 DUP3 ADD MSTORE PUSH1 0x64 SWAP1 REVERT JUMPDEST SWAP1 POP MLOAD SWAP1 PUSH2 0xE2 DUP3 PUSH2 0x35E JUMP JUMPDEST SWAP2 SWAP1 PUSH1 0x40 DUP4 DUP3 SUB SLT PUSH2 0xD0 JUMPI PUSH2 0xF8 SWAP1 PUSH1 0x20 PUSH2 0xE0E DUP3 DUP7 PUSH2 0xDE5 JUMP JUMPDEST SWAP5 ADD PUSH2 0xDE5 JUMP JUMPDEST ISZERO PUSH2 0xE1C JUMPI JUMP JUMPDEST PUSH1 0x40 MLOAD PUSH3 0x461BCD PUSH1 0xE5 SHL DUP2 MSTORE PUSH1 0x20 PUSH1 0x4 DUP3 ADD MSTORE PUSH1 0x24 DUP1 DUP3 ADD MSTORE PUSH32 0x5175657374696F6E206F7574636F6D65206E6F742064657465726D696E656420 PUSH1 0x44 DUP3 ADD MSTORE PUSH4 0x3CB2BA17 PUSH1 0xE1 SHL PUSH1 0x64 DUP3 ADD MSTORE PUSH1 0x84 SWAP1 REVERT JUMPDEST SWAP1 PUSH2 0xFF00 SWAP1 PUSH1 0x8 SHL PUSH2 0x68B JUMP JUMPDEST SWAP1 PUSH2 0xE8A PUSH2 0xF8 PUSH2 0x6AC SWAP3 PUSH2 0x7ED JUMP JUMPDEST DUP3 SLOAD PUSH2 0xE6D JUMP JUMPDEST PUSH1 0x2 PUSH2 0xEB2 PUSH2 0xEA5 PUSH1 0x0 PUSH2 0x826 DUP6 DUP6 PUSH2 0x108 JUMP JUMPDEST PUSH2 0xCF4 PUSH2 0x6FA PUSH1 0x0 PUSH2 0xFB JUMP JUMPDEST PUSH2 0xECF PUSH2 0xEC7 PUSH2 0xF8 PUSH1 0x1 PUSH2 0x826 DUP7 DUP7 PUSH2 0x108 JUMP JUMPDEST TIMESTAMP LT ISZERO PUSH2 0xD99 JUMP JUMPDEST PUSH2 0xEDF PUSH2 0x549 PUSH2 0x549 PUSH1 0x4 PUSH2 0x492 JUMP JUMPDEST SWAP1 PUSH1 0x40 PUSH2 0xEEB PUSH1 0x40 MLOAD SWAP1 JUMP JUMPDEST PUSH4 0x25AAF905 PUSH1 0xE0 SHL DUP2 MSTORE PUSH1 0x4 DUP2 ADD DUP6 SWAP1 MSTORE SWAP3 DUP4 SWAP1 PUSH1 0x24 SWAP1 DUP3 SWAP1 GAS STATICCALL DUP1 ISZERO PUSH2 0x55E JUMPI PUSH2 0xE2 SWAP4 PUSH2 0xF3A PUSH2 0xF40 SWAP3 PUSH1 0x1 SWAP6 PUSH1 0x0 DUP1 SWAP2 SWAP1 SWAP3 PUSH2 0xF46 JUMPI JUMPDEST POP PUSH2 0xF2F SWAP1 PUSH2 0xE15 JUMP JUMPDEST DUP5 PUSH2 0x8F6 DUP5 DUP3 PUSH2 0x108 JUMP JUMPDEST DUP3 PUSH2 0x108 JUMP JUMPDEST ADD PUSH2 0xE7A JUMP JUMPDEST PUSH2 0xF2F SWAP3 POP PUSH2 0xF6D SWAP2 POP PUSH1 0x40 RETURNDATASIZE PUSH1 0x40 GT PUSH2 0xF74 JUMPI JUMPDEST PUSH2 0xF65 DUP2 DUP4 PUSH2 0x943 JUMP JUMPDEST DUP2 ADD SWAP1 PUSH2 0xDF2 JUMP JUMPDEST SWAP1 SWAP2 PUSH2 0xF25 JUMP JUMPDEST POP RETURNDATASIZE PUSH2 0xF5B JUMP JUMPDEST PUSH2 0xE2 SWAP1 PUSH2 0xD67 JUMP INVALID LOG2 PUSH5 0x6970667358 0x22 SLT KECCAK256 SWAP13 0x28 0xF7 0xC0 BYTE 0xAC MUL 0xBA SWAP10 CALLDATASIZE 0xBD 0xA7 RETURNDATASIZE BASEFEE ISZERO 0xD9 0xB5 SELFBALANCE 0xAB 0xD3 0xE2 SELFDESTRUCT 0xD0 LOG2 XOR EXTCODEHASH CHAINID SWAP6 PUSH23 0xD192D464736F6C63430008180033000000000000000000 "},"methodIdentifiers":{"bets(uint256,address)":"f644b3bb","claimWinnings(uint256)":"677bd9ff","createEvent(uint256)":"977d996d","events(uint256)":"0b791430","matchNFTAddress()":"9a2e8240","owner()":"8da5cb5b","placeBet(uint256,bool)":"9ed9c74d","resolveEvent(uint256)":"bed524d6","socialOracleAddress()":"30658198","toggleEmergencyStop(uint256)":"8822e6fd","withdraw()":"3ccfd60b"}}}}}