{"contracts/BetStakingToken.sol":{"BetStakingToken":{"abi":[{"inputs":[],"stateMutability":"nonpayable","type":"constructor"},{"anonymous":false,"inputs":[{"indexed":true,"internalType":"address","name":"owner","type":"address"},{"indexed":true,"internalType":"address","name":"spender","type":"address"},{"indexed":false,"internalType":"uint256","name":"value","type":"uint256"}],"name":"Approval","type":"event"},{"anonymous":false,"inputs":[{"indexed":true,"internalType":"address","name":"previousOwner","type":"address"},{"indexed":true,"internalType":"address","name":"newOwner","type":"address"}],"name":"OwnershipTransferred","type":"event"},{"anonymous":false,"inputs":[{"indexed":true,"internalType":"address","name":"from","type":"address"},{"indexed":true,"internalType":"address","name":"to","type":"address"},{"indexed":false,"internalType":"uint256","name":"value","type":"uint256"}],"name":"Transfer","type":"event"},{"inputs":[{"internalType":"address","name":"owner","type":"address"},{"internalType":"address","name":"spender","type":"address"}],"name":"allowance","outputs":[{"internalType":"uint256","name":"","type":"uint256"}],"stateMutability":"view","type":"function"},{"inputs":[{"internalType":"address","name":"spender","type":"address"},{"internalType":"uint256","name":"amount","type":"uint256"}],"name":"approve","outputs":[{"internalType":"bool","name":"","type":"bool"}],"stateMutability":"nonpayable","type":"function"},{"inputs":[{"internalType":"address","name":"account","type":"address"}],"name":"balanceOf","outputs":[{"internalType":"uint256","name":"","type":"uint256"}],"stateMutability":"view","type":"function"},{"inputs":[{"internalType":"uint256","name":"amount","type":"uint256"}],"name":"burn","outputs":[],"stateMutability":"nonpayable","type":"function"},{"inputs":[{"internalType":"address","name":"account","type":"address"},{"internalType":"uint256","name":"amount","type":"uint256"}],"name":"burnFrom","outputs":[],"stateMutability":"nonpayable","type":"function"},{"inputs":[],"name":"decimals","outputs":[{"internalType":"uint8","name":"","type":"uint8"}],"stateMutability":"view","type":"function"},{"inputs":[{"internalType":"address","name":"spender","type":"address"},{"internalType":"uint256","name":"subtractedValue","type":"uint256"}],"name":"decreaseAllowance","outputs":[{"internalType":"bool","name":"","type":"bool"}],"stateMutability":"nonpayable","type":"function"},{"inputs":[{"internalType":"address","name":"spender","type":"address"},{"internalType":"uint256","name":"addedValue","type":"uint256"}],"name":"increaseAllowance","outputs":[{"internalType":"bool","name":"","type":"bool"}],"stateMutability":"nonpayable","type":"function"},{"inputs":[{"internalType":"address","name":"to","type":"address"},{"internalType":"uint256","name":"amount","type":"uint256"}],"name":"mint","outputs":[],"stateMutability":"nonpayable","type":"function"},{"inputs":[],"name":"name","outputs":[{"internalType":"string","name":"","type":"string"}],"stateMutability":"view","type":"function"},{"inputs":[],"name":"owner","outputs":[{"internalType":"address","name":"","type":"address"}],"stateMutability":"view","type":"function"},{"inputs":[],"name":"renounceOwnership","outputs":[],"stateMutability":"nonpayable","type":"function"},{"inputs":[],"name":"symbol","outputs":[{"internalType":"string","name":"","type":"string"}],"stateMutability":"view","type":"function"},{"inputs":[],"name":"totalSupply","outputs":[{"internalType":"uint256","name":"","type":"uint256"}],"stateMutability":"view","type":"function"},{"inputs":[{"internalType":"address","name":"to","type":"address"},{"internalType":"uint256","name":"amount","type":"uint256"}],"name":"transfer","outputs":[{"internalType":"bool","name":"","type":"bool"}],"stateMutability":"nonpayable","type":"function"},{"inputs":[{"internalType":"address","name":"from","type":"address"},{"internalType":"address","name":"to","type":"address"},{"internalType":"uint256","name":"amount","type":"uint256"}],"name":"transferFrom","outputs":[{"internalType":"bool","name":"","type":"bool"}],"stateMutability":"nonpayable","type":"function"},{"inputs":[{"internalType":"address","name":"newOwner","type":"address"}],"name":"transferOwnership","outputs":[],"stateMutability":"nonpayable","type":"function"}],"evm":{"bytecode":{"linkReferences":{},"object":"60806040523462000026576200001462000114565b604051610fc0620004408239610fc090f35b600080fd5b634e487b7160e01b600052604160045260246000fd5b90601f01601f191681019081106001600160401b038211176200006357604052565b6200002b565b90620000806200007860405190565b928362000041565b565b6001600160401b0381116200006357602090601f01601f19160190565b90620000b5620000af8362000082565b62000069565b918252565b620000c6600f6200009f565b6e2132ba29ba30b5b4b733aa37b5b2b760891b602082015290565b620000eb620000ba565b90565b620000fa60046200009f565b634253544b60e01b602082015290565b620000eb620000ee565b6200008062000122620000e1565b6200012c6200010a565b620001379162000142565b6200008033620003df565b9062000080916200034f565b634e487b7160e01b600052602260045260246000fd5b906001600283049216801562000187575b60208310146200018157565b6200014e565b91607f169162000175565b9160001960089290920291821b911b5b9181191691161790565b620000eb620000eb620000eb9290565b9190620001d1620000eb620001da93620001ac565b90835462000192565b9055565b6200008091600091620001bc565b818110620001f8575050565b80620002086000600193620001de565b01620001ec565b9190601f81116200021f57505050565b620002336200008093600052602060002090565b906020601f84018190048301931062000257575b6020601f909101040190620001ec565b909150819062000247565b906200026c815190565b906001600160401b038211620000635762000294826200028d855462000164565b856200020f565b602090601f8311600114620002d357620001da929160009183620002c7575b5050600019600883021c1916906002021790565b015190503880620002b3565b601f19831691620002e985600052602060002090565b9260005b8181106200032a5750916002939185600196941062000310575b50505002019055565b01516000196008601f8516021c1916905538808062000307565b91936020600181928787015181550195019201620002ed565b90620000809162000262565b90620003616200008092600362000343565b600462000343565b620000eb905b6001600160a01b031690565b620000eb905462000369565b906001600160a01b0390620001a2565b620000eb906200036f906001600160a01b031682565b620000eb9062000397565b620000eb90620003ad565b90620003d7620000eb620001da92620003b8565b825462000387565b6200040d62000406620003f360056200037b565b62000400846005620003c3565b620003b8565b91620003b8565b907f8be0079c531659141344cd1fd0a4f28419497f9722a3daafe3b4186f6b6457e06200043960405190565b600090a356fe6080604052600436101561001257600080fd5b60003560e01c806306fdde0314610122578063095ea7b31461011d57806318160ddd1461011857806323b872dd14610113578063313ce5671461010e578063395093511461010957806340c10f191461010457806342966c68146100ff57806370a08231146100fa578063715018a6146100f557806379cc6790146100f05780638da5cb5b146100eb57806395d89b41146100e6578063a457c2d7146100e1578063a9059cbb146100dc578063dd62ed3e146100d75763f2fde38b036101325761048f565b610473565b610434565b610418565b6103fd565b6103c8565b6103af565b610397565b61037c565b610350565b61031e565b610302565b6102d3565b6102b7565b610262565b610234565b6101a6565b600091031261013257565b600080fd5b60005b83811061014a5750506000910152565b818101518382015260200161013a565b61017b61018460209361018e9361016f815190565b80835293849260200190565b95869101610137565b601f01601f191690565b0190565b60208082526101a39291019061015a565b90565b34610132576101b6366004610127565b6101cd6101c16105dc565b60405191829182610192565b0390f35b6001600160a01b031690565b6001600160a01b0381165b0361013257565b905035906101fc826101dd565b565b806101e8565b905035906101fc826101fe565b9190604083820312610132576101a390602061022d82866101ef565b9401610204565b34610132576101cd61025061024a366004610211565b906105e6565b60405191829182901515815260200190565b3461013257610272366004610127565b6101cd61027d610607565b6040515b9182918290815260200190565b9091606082840312610132576101a36102a784846101ef565b93604061022d82602087016101ef565b34610132576101cd6102506102cd36600461028e565b91610611565b34610132576102e3366004610127565b6101cd6102ee61063b565b6040519182918260ff909116815260200190565b34610132576101cd610250610318366004610211565b9061066d565b3461013257610337610331366004610211565b906106a3565b604051005b90602082820312610132576101a391610204565b346101325761033761036336600461033c565b6106ad565b90602082820312610132576101a3916101ef565b34610132576101cd61027d610392366004610368565b6106fa565b34610132576103a7366004610127565b61033761074e565b34610132576103376103c2366004610211565b90610756565b34610132576103d8366004610127565b6101cd6103e3610778565b604051918291826001600160a01b03909116815260200190565b346101325761040d366004610127565b6101cd6101c1610782565b34610132576101cd61025061042e366004610211565b906107ea565b34610132576101cd61025061044a366004610211565b9061080e565b9190604083820312610132576101a390602061046c82866101ef565b94016101ef565b34610132576101cd61027d610489366004610450565b90610819565b34610132576103376104a2366004610368565b6108ca565b634e487b7160e01b600052602260045260246000fd5b90600160028304921680156104dd575b60208310146104d857565b6104a7565b91607f16916104cd565b805460009392916105046104fa836104bd565b8085529360200190565b9160018116908115610556575060011461051d57505050565b6105309192939450600052602060002090565b916000925b8184106105425750500190565b805484840152602090930192600101610535565b92949550505060ff1916825215156020020190565b906101a3916104e7565b634e487b7160e01b600052604160045260246000fd5b90601f01601f1916810190811067ffffffffffffffff8211176105ad57604052565b610575565b906101fc6105cc926105c360405190565b9384809261056b565b038361058b565b6101a3906105b2565b6101a360036105d3565b6105f19190336109ba565b600190565b6101a39081565b6101a390546105f6565b6101a360026105fd565b6105f192919061062383335b83610aa2565b610be7565b6106356101a36101a39290565b60ff1690565b6101a36012610628565b634e487b7160e01b600052601160045260246000fd5b9190820180921161066857565b610645565b6105f1919061068633926106818385610819565b61065b565b916109ba565b906101fc91610699610ce6565b906101fc91610d5c565b906101fc9161068c565b6101fc9033610e81565b610e81565b6101a3906101d1906001600160a01b031682565b6101a3906106bc565b6101a3906106d0565b906106ec906106d9565b600052602052604060002090565b6107116101a391610709600090565b5060006106e2565b6105fd565b61071e610ce6565b6101fc61073c565b6101d16101a36101a39290565b6101a390610726565b6101fc6107496000610733565b610f37565b6101fc610716565b6101fc91906106b7823361061d565b6101a3906101d1565b6101a39054610765565b6101a3600561076e565b6101a360046105d3565b1561079357565b60405162461bcd60e51b815260206004820152602560248201527f45524332303a2064656372656173656420616c6c6f77616e63652062656c6f77604482015264207a65726f60d81b6064820152608490fd5b0390fd5b6105f1919061068633926107fe8385610819565b61080a8282101561078c565b0390565b6105f1919033610be7565b6101a3916108346107119261082c600090565b5060016106e2565b6106e2565b6101fc90610845610ce6565b6108a5565b1561085157565b60405162461bcd60e51b815260206004820152602660248201527f4f776e61626c653a206e6577206f776e657220697320746865207a65726f206160448201526564647265737360d01b6064820152608490fd5b6101fc906107496108b96101d16000610733565b6001600160a01b038316141561084a565b6101fc90610839565b156108da57565b60405162461bcd60e51b8152602060048201526024808201527f45524332303a20617070726f76652066726f6d20746865207a65726f206164646044820152637265737360e01b6064820152608490fd5b1561093257565b60405162461bcd60e51b815260206004820152602260248201527f45524332303a20617070726f766520746f20746865207a65726f206164647265604482015261737360f01b6064820152608490fd5b90600019905b9181191691161790565b6101a36101a36101a39290565b906109af6101a36109b692610992565b8254610982565b9055565b610a51610a47610a417f8c5be1e5ebec7d5bd14f71427d1e84f3dd0314c0f7b2291e5b200ac8c7c3b92593610a24610a136109f56000610733565b6101d16001600160a01b0382166001600160a01b03861614156108d3565b6001600160a01b038816141561092b565b610a3c87610a37886108348560016106e2565b61099f565b6106d9565b936106d9565b9361028160405190565b0390a3565b15610a5d57565b60405162461bcd60e51b815260206004820152601d60248201527f45524332303a20696e73756666696369656e7420616c6c6f77616e63650000006044820152606490fd5b90610aad8183610819565b6000198103610abd575b50505050565b610ad1936106869161080a82821015610a56565b38808080610ab7565b15610ae157565b60405162461bcd60e51b815260206004820152602560248201527f45524332303a207472616e736665722066726f6d20746865207a65726f206164604482015264647265737360d81b6064820152608490fd5b15610b3b57565b60405162461bcd60e51b815260206004820152602360248201527f45524332303a207472616e7366657220746f20746865207a65726f206164647260448201526265737360e81b6064820152608490fd5b15610b9357565b60405162461bcd60e51b815260206004820152602660248201527f45524332303a207472616e7366657220616d6f756e7420657863656564732062604482015265616c616e636560d01b6064820152608490fd5b610a51610a47610a417fddf252ad1be2c89b69c2b068fc378daa952ba7f163c4a11628f55a4df523b3ef93610a3c610c83876000610c59610c48610c2a83610733565b6101d16001600160a01b0382166001600160a01b038a161415610ada565b6001600160a01b0384161415610b34565b610834610c798c610c6d61071189866106e2565b61080a82821015610b8c565b610a3787846106e2565b610c908961018e836105fd565b9061099f565b15610c9d57565b60405162461bcd60e51b8152806107e6600482016020808252818101527f4f776e61626c653a2063616c6c6572206973206e6f7420746865206f776e6572604082015260600190565b6101fc610cf1610778565b610d0a610cfd336101d1565b916001600160a01b031690565b14610c96565b15610d1757565b60405162461bcd60e51b815260206004820152601f60248201527f45524332303a206d696e7420746f20746865207a65726f2061646472657373006044820152606490fd5b7fddf252ad1be2c89b69c2b068fc378daa952ba7f163c4a11628f55a4df523b3ef610a51610a47610a41610d906000610733565b610dae6001600160a01b0382166001600160a01b0388161415610d10565b610dc6610dbf8861068160026105fd565b600261099f565b610a3c610c838760006106e2565b15610ddb57565b60405162461bcd60e51b815260206004820152602160248201527f45524332303a206275726e2066726f6d20746865207a65726f206164647265736044820152607360f81b6064820152608490fd5b15610e3157565b60405162461bcd60e51b815260206004820152602260248201527f45524332303a206275726e20616d6f756e7420657863656564732062616c616e604482015261636560f01b6064820152608490fd5b7fddf252ad1be2c89b69c2b068fc378daa952ba7f163c4a11628f55a4df523b3ef610a51610a47610a41600094610f00610eba87610733565b96610ed96001600160a01b0389166001600160a01b0385161415610dd4565b610a3783610efa8b610eee61071184876106e2565b61080a82821015610e2a565b926106e2565b610a3c610dbf8861080a60026105fd565b906001600160a01b0390610988565b90610f306101a36109b6926106d9565b8254610f11565b610f58610f52610f47600561076e565b610a3c846005610f20565b916106d9565b907f8be0079c531659141344cd1fd0a4f28419497f9722a3daafe3b4186f6b6457e0610f8360405190565b8080610a5156fea2646970667358221220d3cf914dafa8a06077e7852557ffaed88b19b284c76131abdca67c4334b0947b64736f6c63430008180033","opcodes":"PUSH1 0x80 PUSH1 0x40 MSTORE CALLVALUE PUSH3 0x26 JUMPI PUSH3 0x14 PUSH3 0x114 JUMP JUMPDEST PUSH1 0x40 MLOAD PUSH2 0xFC0 PUSH3 0x440 DUP3 CODECOPY PUSH2 0xFC0 SWAP1 RETURN JUMPDEST PUSH1 0x0 DUP1 REVERT JUMPDEST PUSH4 0x4E487B71 PUSH1 0xE0 SHL PUSH1 0x0 MSTORE PUSH1 0x41 PUSH1 0x4 MSTORE PUSH1 0x24 PUSH1 0x0 REVERT JUMPDEST SWAP1 PUSH1 0x1F ADD PUSH1 0x1F NOT AND DUP2 ADD SWAP1 DUP2 LT PUSH1 0x1 PUSH1 0x1 PUSH1 0x40 SHL SUB DUP3 GT OR PUSH3 0x63 JUMPI PUSH1 0x40 MSTORE JUMP JUMPDEST PUSH3 0x2B JUMP JUMPDEST SWAP1 PUSH3 0x80 PUSH3 0x78 PUSH1 0x40 MLOAD SWAP1 JUMP JUMPDEST SWAP3 DUP4 PUSH3 0x41 JUMP JUMPDEST JUMP JUMPDEST PUSH1 0x1 PUSH1 0x1 PUSH1 0x40 SHL SUB DUP2 GT PUSH3 0x63 JUMPI PUSH1 0x20 SWAP1 PUSH1 0x1F ADD PUSH1 0x1F NOT AND ADD SWAP1 JUMP JUMPDEST SWAP1 PUSH3 0xB5 PUSH3 0xAF DUP4 PUSH3 0x82 JUMP JUMPDEST PUSH3 0x69 JUMP JUMPDEST SWAP2 DUP3 MSTORE JUMP JUMPDEST PUSH3 0xC6 PUSH1 0xF PUSH3 0x9F JUMP JUMPDEST PUSH15 0x2132BA29BA30B5B4B733AA37B5B2B7 PUSH1 0x89 SHL PUSH1 0x20 DUP3 ADD MSTORE SWAP1 JUMP JUMPDEST PUSH3 0xEB PUSH3 0xBA JUMP JUMPDEST SWAP1 JUMP JUMPDEST PUSH3 0xFA PUSH1 0x4 PUSH3 0x9F JUMP JUMPDEST PUSH4 0x4253544B PUSH1 0xE0 SHL PUSH1 0x20 DUP3 ADD MSTORE SWAP1 JUMP JUMPDEST PUSH3 0xEB PUSH3 0xEE JUMP JUMPDEST PUSH3 0x80 PUSH3 0x122 PUSH3 0xE1 JUMP JUMPDEST PUSH3 0x12C PUSH3 0x10A JUMP JUMPDEST PUSH3 0x137 SWAP2 PUSH3 0x142 JUMP JUMPDEST PUSH3 0x80 CALLER PUSH3 0x3DF JUMP JUMPDEST SWAP1 PUSH3 0x80 SWAP2 PUSH3 0x34F JUMP JUMPDEST PUSH4 0x4E487B71 PUSH1 0xE0 SHL PUSH1 0x0 MSTORE PUSH1 0x22 PUSH1 0x4 MSTORE PUSH1 0x24 PUSH1 0x0 REVERT JUMPDEST SWAP1 PUSH1 0x1 PUSH1 0x2 DUP4 DIV SWAP3 AND DUP1 ISZERO PUSH3 0x187 JUMPI JUMPDEST PUSH1 0x20 DUP4 LT EQ PUSH3 0x181 JUMPI JUMP JUMPDEST PUSH3 0x14E JUMP JUMPDEST SWAP2 PUSH1 0x7F AND SWAP2 PUSH3 0x175 JUMP JUMPDEST SWAP2 PUSH1 0x0 NOT PUSH1 0x8 SWAP3 SWAP1 SWAP3 MUL SWAP2 DUP3 SHL SWAP2 SHL JUMPDEST SWAP2 DUP2 NOT AND SWAP2 AND OR SWAP1 JUMP JUMPDEST PUSH3 0xEB PUSH3 0xEB PUSH3 0xEB SWAP3 SWAP1 JUMP JUMPDEST SWAP2 SWAP1 PUSH3 0x1D1 PUSH3 0xEB PUSH3 0x1DA SWAP4 PUSH3 0x1AC JUMP JUMPDEST SWAP1 DUP4 SLOAD PUSH3 0x192 JUMP JUMPDEST SWAP1 SSTORE JUMP JUMPDEST PUSH3 0x80 SWAP2 PUSH1 0x0 SWAP2 PUSH3 0x1BC JUMP JUMPDEST DUP2 DUP2 LT PUSH3 0x1F8 JUMPI POP POP JUMP JUMPDEST DUP1 PUSH3 0x208 PUSH1 0x0 PUSH1 0x1 SWAP4 PUSH3 0x1DE JUMP JUMPDEST ADD PUSH3 0x1EC JUMP JUMPDEST SWAP2 SWAP1 PUSH1 0x1F DUP2 GT PUSH3 0x21F JUMPI POP POP POP JUMP JUMPDEST PUSH3 0x233 PUSH3 0x80 SWAP4 PUSH1 0x0 MSTORE PUSH1 0x20 PUSH1 0x0 KECCAK256 SWAP1 JUMP JUMPDEST SWAP1 PUSH1 0x20 PUSH1 0x1F DUP5 ADD DUP2 SWAP1 DIV DUP4 ADD SWAP4 LT PUSH3 0x257 JUMPI JUMPDEST PUSH1 0x20 PUSH1 0x1F SWAP1 SWAP2 ADD DIV ADD SWAP1 PUSH3 0x1EC JUMP JUMPDEST SWAP1 SWAP2 POP DUP2 SWAP1 PUSH3 0x247 JUMP JUMPDEST SWAP1 PUSH3 0x26C DUP2 MLOAD SWAP1 JUMP JUMPDEST SWAP1 PUSH1 0x1 PUSH1 0x1 PUSH1 0x40 SHL SUB DUP3 GT PUSH3 0x63 JUMPI PUSH3 0x294 DUP3 PUSH3 0x28D DUP6 SLOAD PUSH3 0x164 JUMP JUMPDEST DUP6 PUSH3 0x20F JUMP JUMPDEST PUSH1 0x20 SWAP1 PUSH1 0x1F DUP4 GT PUSH1 0x1 EQ PUSH3 0x2D3 JUMPI PUSH3 0x1DA SWAP3 SWAP2 PUSH1 0x0 SWAP2 DUP4 PUSH3 0x2C7 JUMPI JUMPDEST POP POP PUSH1 0x0 NOT PUSH1 0x8 DUP4 MUL SHR NOT AND SWAP1 PUSH1 0x2 MUL OR SWAP1 JUMP JUMPDEST ADD MLOAD SWAP1 POP CODESIZE DUP1 PUSH3 0x2B3 JUMP JUMPDEST PUSH1 0x1F NOT DUP4 AND SWAP2 PUSH3 0x2E9 DUP6 PUSH1 0x0 MSTORE PUSH1 0x20 PUSH1 0x0 KECCAK256 SWAP1 JUMP JUMPDEST SWAP3 PUSH1 0x0 JUMPDEST DUP2 DUP2 LT PUSH3 0x32A JUMPI POP SWAP2 PUSH1 0x2 SWAP4 SWAP2 DUP6 PUSH1 0x1 SWAP7 SWAP5 LT PUSH3 0x310 JUMPI JUMPDEST POP POP POP MUL ADD SWAP1 SSTORE JUMP JUMPDEST ADD MLOAD PUSH1 0x0 NOT PUSH1 0x8 PUSH1 0x1F DUP6 AND MUL SHR NOT AND SWAP1 SSTORE CODESIZE DUP1 DUP1 PUSH3 0x307 JUMP JUMPDEST SWAP2 SWAP4 PUSH1 0x20 PUSH1 0x1 DUP2 SWAP3 DUP8 DUP8 ADD MLOAD DUP2 SSTORE ADD SWAP6 ADD SWAP3 ADD PUSH3 0x2ED JUMP JUMPDEST SWAP1 PUSH3 0x80 SWAP2 PUSH3 0x262 JUMP JUMPDEST SWAP1 PUSH3 0x361 PUSH3 0x80 SWAP3 PUSH1 0x3 PUSH3 0x343 JUMP JUMPDEST PUSH1 0x4 PUSH3 0x343 JUMP JUMPDEST PUSH3 0xEB SWAP1 JUMPDEST PUSH1 0x1 PUSH1 0x1 PUSH1 0xA0 SHL SUB AND SWAP1 JUMP JUMPDEST PUSH3 0xEB SWAP1 SLOAD PUSH3 0x369 JUMP JUMPDEST SWAP1 PUSH1 0x1 PUSH1 0x1 PUSH1 0xA0 SHL SUB SWAP1 PUSH3 0x1A2 JUMP JUMPDEST PUSH3 0xEB SWAP1 PUSH3 0x36F SWAP1 PUSH1 0x1 PUSH1 0x1 PUSH1 0xA0 SHL SUB AND DUP3 JUMP JUMPDEST PUSH3 0xEB SWAP1 PUSH3 0x397 JUMP JUMPDEST PUSH3 0xEB SWAP1 PUSH3 0x3AD JUMP JUMPDEST SWAP1 PUSH3 0x3D7 PUSH3 0xEB PUSH3 0x1DA SWAP3 PUSH3 0x3B8 JUMP JUMPDEST DUP3 SLOAD PUSH3 0x387 JUMP JUMPDEST PUSH3 0x40D PUSH3 0x406 PUSH3 0x3F3 PUSH1 0x5 PUSH3 0x37B JUMP JUMPDEST PUSH3 0x400 DUP5 PUSH1 0x5 PUSH3 0x3C3 JUMP JUMPDEST PUSH3 0x3B8 JUMP JUMPDEST SWAP2 PUSH3 0x3B8 JUMP JUMPDEST SWAP1 PUSH32 0x8BE0079C531659141344CD1FD0A4F28419497F9722A3DAAFE3B4186F6B6457E0 PUSH3 0x439 PUSH1 0x40 MLOAD SWAP1 JUMP JUMPDEST PUSH1 0x0 SWAP1 LOG3 JUMP INVALID PUSH1 0x80 PUSH1 0x40 MSTORE PUSH1 0x4 CALLDATASIZE LT ISZERO PUSH2 0x12 JUMPI PUSH1 0x0 DUP1 REVERT JUMPDEST PUSH1 0x0 CALLDATALOAD PUSH1 0xE0 SHR DUP1 PUSH4 0x6FDDE03 EQ PUSH2 0x122 JUMPI DUP1 PUSH4 0x95EA7B3 EQ PUSH2 0x11D JUMPI DUP1 PUSH4 0x18160DDD EQ PUSH2 0x118 JUMPI DUP1 PUSH4 0x23B872DD EQ PUSH2 0x113 JUMPI DUP1 PUSH4 0x313CE567 EQ PUSH2 0x10E JUMPI DUP1 PUSH4 0x39509351 EQ PUSH2 0x109 JUMPI DUP1 PUSH4 0x40C10F19 EQ PUSH2 0x104 JUMPI DUP1 PUSH4 0x42966C68 EQ PUSH2 0xFF JUMPI DUP1 PUSH4 0x70A08231 EQ PUSH2 0xFA JUMPI DUP1 PUSH4 0x715018A6 EQ PUSH2 0xF5 JUMPI DUP1 PUSH4 0x79CC6790 EQ PUSH2 0xF0 JUMPI DUP1 PUSH4 0x8DA5CB5B EQ PUSH2 0xEB JUMPI DUP1 PUSH4 0x95D89B41 EQ PUSH2 0xE6 JUMPI DUP1 PUSH4 0xA457C2D7 EQ PUSH2 0xE1 JUMPI DUP1 PUSH4 0xA9059CBB EQ PUSH2 0xDC JUMPI DUP1 PUSH4 0xDD62ED3E EQ PUSH2 0xD7 JUMPI PUSH4 0xF2FDE38B SUB PUSH2 0x132 JUMPI PUSH2 0x48F JUMP JUMPDEST PUSH2 0x473 JUMP JUMPDEST PUSH2 0x434 JUMP JUMPDEST PUSH2 0x418 JUMP JUMPDEST PUSH2 0x3FD JUMP JUMPDEST PUSH2 0x3C8 JUMP JUMPDEST PUSH2 0x3AF JUMP JUMPDEST PUSH2 0x397 JUMP JUMPDEST PUSH2 0x37C JUMP JUMPDEST PUSH2 0x350 JUMP JUMPDEST PUSH2 0x31E JUMP JUMPDEST PUSH2 0x302 JUMP JUMPDEST PUSH2 0x2D3 JUMP JUMPDEST PUSH2 0x2B7 JUMP JUMPDEST PUSH2 0x262 JUMP JUMPDEST PUSH2 0x234 JUMP JUMPDEST PUSH2 0x1A6 JUMP JUMPDEST PUSH1 0x0 SWAP2 SUB SLT PUSH2 0x132 JUMPI JUMP JUMPDEST PUSH1 0x0 DUP1 REVERT JUMPDEST PUSH1 0x0 JUMPDEST DUP4 DUP2 LT PUSH2 0x14A JUMPI POP POP PUSH1 0x0 SWAP2 ADD MSTORE JUMP JUMPDEST DUP2 DUP2 ADD MLOAD DUP4 DUP3 ADD MSTORE PUSH1 0x20 ADD PUSH2 0x13A JUMP JUMPDEST PUSH2 0x17B PUSH2 0x184 PUSH1 0x20 SWAP4 PUSH2 0x18E SWAP4 PUSH2 0x16F DUP2 MLOAD SWAP1 JUMP JUMPDEST DUP1 DUP4 MSTORE SWAP4 DUP5 SWAP3 PUSH1 0x20 ADD SWAP1 JUMP JUMPDEST SWAP6 DUP7 SWAP2 ADD PUSH2 0x137 JUMP JUMPDEST PUSH1 0x1F ADD PUSH1 0x1F NOT AND SWAP1 JUMP JUMPDEST ADD SWAP1 JUMP JUMPDEST PUSH1 0x20 DUP1 DUP3 MSTORE PUSH2 0x1A3 SWAP3 SWAP2 ADD SWAP1 PUSH2 0x15A JUMP JUMPDEST SWAP1 JUMP JUMPDEST CALLVALUE PUSH2 0x132 JUMPI PUSH2 0x1B6 CALLDATASIZE PUSH1 0x4 PUSH2 0x127 JUMP JUMPDEST PUSH2 0x1CD PUSH2 0x1C1 PUSH2 0x5DC JUMP JUMPDEST PUSH1 0x40 MLOAD SWAP2 DUP3 SWAP2 DUP3 PUSH2 0x192 JUMP JUMPDEST SUB SWAP1 RETURN JUMPDEST PUSH1 0x1 PUSH1 0x1 PUSH1 0xA0 SHL SUB AND SWAP1 JUMP JUMPDEST PUSH1 0x1 PUSH1 0x1 PUSH1 0xA0 SHL SUB DUP2 AND JUMPDEST SUB PUSH2 0x132 JUMPI JUMP JUMPDEST SWAP1 POP CALLDATALOAD SWAP1 PUSH2 0x1FC DUP3 PUSH2 0x1DD JUMP JUMPDEST JUMP JUMPDEST DUP1 PUSH2 0x1E8 JUMP JUMPDEST SWAP1 POP CALLDATALOAD SWAP1 PUSH2 0x1FC DUP3 PUSH2 0x1FE JUMP JUMPDEST SWAP2 SWAP1 PUSH1 0x40 DUP4 DUP3 SUB SLT PUSH2 0x132 JUMPI PUSH2 0x1A3 SWAP1 PUSH1 0x20 PUSH2 0x22D DUP3 DUP7 PUSH2 0x1EF JUMP JUMPDEST SWAP5 ADD PUSH2 0x204 JUMP JUMPDEST CALLVALUE PUSH2 0x132 JUMPI PUSH2 0x1CD PUSH2 0x250 PUSH2 0x24A CALLDATASIZE PUSH1 0x4 PUSH2 0x211 JUMP JUMPDEST SWAP1 PUSH2 0x5E6 JUMP JUMPDEST PUSH1 0x40 MLOAD SWAP2 DUP3 SWAP2 DUP3 SWAP1 ISZERO ISZERO DUP2 MSTORE PUSH1 0x20 ADD SWAP1 JUMP JUMPDEST CALLVALUE PUSH2 0x132 JUMPI PUSH2 0x272 CALLDATASIZE PUSH1 0x4 PUSH2 0x127 JUMP JUMPDEST PUSH2 0x1CD PUSH2 0x27D PUSH2 0x607 JUMP JUMPDEST PUSH1 0x40 MLOAD JUMPDEST SWAP2 DUP3 SWAP2 DUP3 SWAP1 DUP2 MSTORE PUSH1 0x20 ADD SWAP1 JUMP JUMPDEST SWAP1 SWAP2 PUSH1 0x60 DUP3 DUP5 SUB SLT PUSH2 0x132 JUMPI PUSH2 0x1A3 PUSH2 0x2A7 DUP5 DUP5 PUSH2 0x1EF JUMP JUMPDEST SWAP4 PUSH1 0x40 PUSH2 0x22D DUP3 PUSH1 0x20 DUP8 ADD PUSH2 0x1EF JUMP JUMPDEST CALLVALUE PUSH2 0x132 JUMPI PUSH2 0x1CD PUSH2 0x250 PUSH2 0x2CD CALLDATASIZE PUSH1 0x4 PUSH2 0x28E JUMP JUMPDEST SWAP2 PUSH2 0x611 JUMP JUMPDEST CALLVALUE PUSH2 0x132 JUMPI PUSH2 0x2E3 CALLDATASIZE PUSH1 0x4 PUSH2 0x127 JUMP JUMPDEST PUSH2 0x1CD PUSH2 0x2EE PUSH2 0x63B JUMP JUMPDEST PUSH1 0x40 MLOAD SWAP2 DUP3 SWAP2 DUP3 PUSH1 0xFF SWAP1 SWAP2 AND DUP2 MSTORE PUSH1 0x20 ADD SWAP1 JUMP JUMPDEST CALLVALUE PUSH2 0x132 JUMPI PUSH2 0x1CD PUSH2 0x250 PUSH2 0x318 CALLDATASIZE PUSH1 0x4 PUSH2 0x211 JUMP JUMPDEST SWAP1 PUSH2 0x66D JUMP JUMPDEST CALLVALUE PUSH2 0x132 JUMPI PUSH2 0x337 PUSH2 0x331 CALLDATASIZE PUSH1 0x4 PUSH2 0x211 JUMP JUMPDEST SWAP1 PUSH2 0x6A3 JUMP JUMPDEST PUSH1 0x40 MLOAD STOP JUMPDEST SWAP1 PUSH1 0x20 DUP3 DUP3 SUB SLT PUSH2 0x132 JUMPI PUSH2 0x1A3 SWAP2 PUSH2 0x204 JUMP JUMPDEST CALLVALUE PUSH2 0x132 JUMPI PUSH2 0x337 PUSH2 0x363 CALLDATASIZE PUSH1 0x4 PUSH2 0x33C JUMP JUMPDEST PUSH2 0x6AD JUMP JUMPDEST SWAP1 PUSH1 0x20 DUP3 DUP3 SUB SLT PUSH2 0x132 JUMPI PUSH2 0x1A3 SWAP2 PUSH2 0x1EF JUMP JUMPDEST CALLVALUE PUSH2 0x132 JUMPI PUSH2 0x1CD PUSH2 0x27D PUSH2 0x392 CALLDATASIZE PUSH1 0x4 PUSH2 0x368 JUMP JUMPDEST PUSH2 0x6FA JUMP JUMPDEST CALLVALUE PUSH2 0x132 JUMPI PUSH2 0x3A7 CALLDATASIZE PUSH1 0x4 PUSH2 0x127 JUMP JUMPDEST PUSH2 0x337 PUSH2 0x74E JUMP JUMPDEST CALLVALUE PUSH2 0x132 JUMPI PUSH2 0x337 PUSH2 0x3C2 CALLDATASIZE PUSH1 0x4 PUSH2 0x211 JUMP JUMPDEST SWAP1 PUSH2 0x756 JUMP JUMPDEST CALLVALUE PUSH2 0x132 JUMPI PUSH2 0x3D8 CALLDATASIZE PUSH1 0x4 PUSH2 0x127 JUMP JUMPDEST PUSH2 0x1CD PUSH2 0x3E3 PUSH2 0x778 JUMP JUMPDEST PUSH1 0x40 MLOAD SWAP2 DUP3 SWAP2 DUP3 PUSH1 0x1 PUSH1 0x1 PUSH1 0xA0 SHL SUB SWAP1 SWAP2 AND DUP2 MSTORE PUSH1 0x20 ADD SWAP1 JUMP JUMPDEST CALLVALUE PUSH2 0x132 JUMPI PUSH2 0x40D CALLDATASIZE PUSH1 0x4 PUSH2 0x127 JUMP JUMPDEST PUSH2 0x1CD PUSH2 0x1C1 PUSH2 0x782 JUMP JUMPDEST CALLVALUE PUSH2 0x132 JUMPI PUSH2 0x1CD PUSH2 0x250 PUSH2 0x42E CALLDATASIZE PUSH1 0x4 PUSH2 0x211 JUMP JUMPDEST SWAP1 PUSH2 0x7EA JUMP JUMPDEST CALLVALUE PUSH2 0x132 JUMPI PUSH2 0x1CD PUSH2 0x250 PUSH2 0x44A CALLDATASIZE PUSH1 0x4 PUSH2 0x211 JUMP JUMPDEST SWAP1 PUSH2 0x80E JUMP JUMPDEST SWAP2 SWAP1 PUSH1 0x40 DUP4 DUP3 SUB SLT PUSH2 0x132 JUMPI PUSH2 0x1A3 SWAP1 PUSH1 0x20 PUSH2 0x46C DUP3 DUP7 PUSH2 0x1EF JUMP JUMPDEST SWAP5 ADD PUSH2 0x1EF JUMP JUMPDEST CALLVALUE PUSH2 0x132 JUMPI PUSH2 0x1CD PUSH2 0x27D PUSH2 0x489 CALLDATASIZE PUSH1 0x4 PUSH2 0x450 JUMP JUMPDEST SWAP1 PUSH2 0x819 JUMP JUMPDEST CALLVALUE PUSH2 0x132 JUMPI PUSH2 0x337 PUSH2 0x4A2 CALLDATASIZE PUSH1 0x4 PUSH2 0x368 JUMP JUMPDEST PUSH2 0x8CA JUMP JUMPDEST PUSH4 0x4E487B71 PUSH1 0xE0 SHL PUSH1 0x0 MSTORE PUSH1 0x22 PUSH1 0x4 MSTORE PUSH1 0x24 PUSH1 0x0 REVERT JUMPDEST SWAP1 PUSH1 0x1 PUSH1 0x2 DUP4 DIV SWAP3 AND DUP1 ISZERO PUSH2 0x4DD JUMPI JUMPDEST PUSH1 0x20 DUP4 LT EQ PUSH2 0x4D8 JUMPI JUMP JUMPDEST PUSH2 0x4A7 JUMP JUMPDEST SWAP2 PUSH1 0x7F AND SWAP2 PUSH2 0x4CD JUMP JUMPDEST DUP1 SLOAD PUSH1 0x0 SWAP4 SWAP3 SWAP2 PUSH2 0x504 PUSH2 0x4FA DUP4 PUSH2 0x4BD JUMP JUMPDEST DUP1 DUP6 MSTORE SWAP4 PUSH1 0x20 ADD SWAP1 JUMP JUMPDEST SWAP2 PUSH1 0x1 DUP2 AND SWAP1 DUP2 ISZERO PUSH2 0x556 JUMPI POP PUSH1 0x1 EQ PUSH2 0x51D JUMPI POP POP POP JUMP JUMPDEST PUSH2 0x530 SWAP2 SWAP3 SWAP4 SWAP5 POP PUSH1 0x0 MSTORE PUSH1 0x20 PUSH1 0x0 KECCAK256 SWAP1 JUMP JUMPDEST SWAP2 PUSH1 0x0 SWAP3 JUMPDEST DUP2 DUP5 LT PUSH2 0x542 JUMPI POP POP ADD SWAP1 JUMP JUMPDEST DUP1 SLOAD DUP5 DUP5 ADD MSTORE PUSH1 0x20 SWAP1 SWAP4 ADD SWAP3 PUSH1 0x1 ADD PUSH2 0x535 JUMP JUMPDEST SWAP3 SWAP5 SWAP6 POP POP POP PUSH1 0xFF NOT AND DUP3 MSTORE ISZERO ISZERO PUSH1 0x20 MUL ADD SWAP1 JUMP JUMPDEST SWAP1 PUSH2 0x1A3 SWAP2 PUSH2 0x4E7 JUMP JUMPDEST PUSH4 0x4E487B71 PUSH1 0xE0 SHL PUSH1 0x0 MSTORE PUSH1 0x41 PUSH1 0x4 MSTORE PUSH1 0x24 PUSH1 0x0 REVERT JUMPDEST SWAP1 PUSH1 0x1F ADD PUSH1 0x1F NOT AND DUP2 ADD SWAP1 DUP2 LT PUSH8 0xFFFFFFFFFFFFFFFF DUP3 GT OR PUSH2 0x5AD JUMPI PUSH1 0x40 MSTORE JUMP JUMPDEST PUSH2 0x575 JUMP JUMPDEST SWAP1 PUSH2 0x1FC PUSH2 0x5CC SWAP3 PUSH2 0x5C3 PUSH1 0x40 MLOAD SWAP1 JUMP JUMPDEST SWAP4 DUP5 DUP1 SWAP3 PUSH2 0x56B JUMP JUMPDEST SUB DUP4 PUSH2 0x58B JUMP JUMPDEST PUSH2 0x1A3 SWAP1 PUSH2 0x5B2 JUMP JUMPDEST PUSH2 0x1A3 PUSH1 0x3 PUSH2 0x5D3 JUMP JUMPDEST PUSH2 0x5F1 SWAP2 SWAP1 CALLER PUSH2 0x9BA JUMP JUMPDEST PUSH1 0x1 SWAP1 JUMP JUMPDEST PUSH2 0x1A3 SWAP1 DUP2 JUMP JUMPDEST PUSH2 0x1A3 SWAP1 SLOAD PUSH2 0x5F6 JUMP JUMPDEST PUSH2 0x1A3 PUSH1 0x2 PUSH2 0x5FD JUMP JUMPDEST PUSH2 0x5F1 SWAP3 SWAP2 SWAP1 PUSH2 0x623 DUP4 CALLER JUMPDEST DUP4 PUSH2 0xAA2 JUMP JUMPDEST PUSH2 0xBE7 JUMP JUMPDEST PUSH2 0x635 PUSH2 0x1A3 PUSH2 0x1A3 SWAP3 SWAP1 JUMP JUMPDEST PUSH1 0xFF AND SWAP1 JUMP JUMPDEST PUSH2 0x1A3 PUSH1 0x12 PUSH2 0x628 JUMP JUMPDEST PUSH4 0x4E487B71 PUSH1 0xE0 SHL PUSH1 0x0 MSTORE PUSH1 0x11 PUSH1 0x4 MSTORE PUSH1 0x24 PUSH1 0x0 REVERT JUMPDEST SWAP2 SWAP1 DUP3 ADD DUP1 SWAP3 GT PUSH2 0x668 JUMPI JUMP JUMPDEST PUSH2 0x645 JUMP JUMPDEST PUSH2 0x5F1 SWAP2 SWAP1 PUSH2 0x686 CALLER SWAP3 PUSH2 0x681 DUP4 DUP6 PUSH2 0x819 JUMP JUMPDEST PUSH2 0x65B JUMP JUMPDEST SWAP2 PUSH2 0x9BA JUMP JUMPDEST SWAP1 PUSH2 0x1FC SWAP2 PUSH2 0x699 PUSH2 0xCE6 JUMP JUMPDEST SWAP1 PUSH2 0x1FC SWAP2 PUSH2 0xD5C JUMP JUMPDEST SWAP1 PUSH2 0x1FC SWAP2 PUSH2 0x68C JUMP JUMPDEST PUSH2 0x1FC SWAP1 CALLER PUSH2 0xE81 JUMP JUMPDEST PUSH2 0xE81 JUMP JUMPDEST PUSH2 0x1A3 SWAP1 PUSH2 0x1D1 SWAP1 PUSH1 0x1 PUSH1 0x1 PUSH1 0xA0 SHL SUB AND DUP3 JUMP JUMPDEST PUSH2 0x1A3 SWAP1 PUSH2 0x6BC JUMP JUMPDEST PUSH2 0x1A3 SWAP1 PUSH2 0x6D0 JUMP JUMPDEST SWAP1 PUSH2 0x6EC SWAP1 PUSH2 0x6D9 JUMP JUMPDEST PUSH1 0x0 MSTORE PUSH1 0x20 MSTORE PUSH1 0x40 PUSH1 0x0 KECCAK256 SWAP1 JUMP JUMPDEST PUSH2 0x711 PUSH2 0x1A3 SWAP2 PUSH2 0x709 PUSH1 0x0 SWAP1 JUMP JUMPDEST POP PUSH1 0x0 PUSH2 0x6E2 JUMP JUMPDEST PUSH2 0x5FD JUMP JUMPDEST PUSH2 0x71E PUSH2 0xCE6 JUMP JUMPDEST PUSH2 0x1FC PUSH2 0x73C JUMP JUMPDEST PUSH2 0x1D1 PUSH2 0x1A3 PUSH2 0x1A3 SWAP3 SWAP1 JUMP JUMPDEST PUSH2 0x1A3 SWAP1 PUSH2 0x726 JUMP JUMPDEST PUSH2 0x1FC PUSH2 0x749 PUSH1 0x0 PUSH2 0x733 JUMP JUMPDEST PUSH2 0xF37 JUMP JUMPDEST PUSH2 0x1FC PUSH2 0x716 JUMP JUMPDEST PUSH2 0x1FC SWAP2 SWAP1 PUSH2 0x6B7 DUP3 CALLER PUSH2 0x61D JUMP JUMPDEST PUSH2 0x1A3 SWAP1 PUSH2 0x1D1 JUMP JUMPDEST PUSH2 0x1A3 SWAP1 SLOAD PUSH2 0x765 JUMP JUMPDEST PUSH2 0x1A3 PUSH1 0x5 PUSH2 0x76E JUMP JUMPDEST PUSH2 0x1A3 PUSH1 0x4 PUSH2 0x5D3 JUMP JUMPDEST ISZERO PUSH2 0x793 JUMPI JUMP JUMPDEST PUSH1 0x40 MLOAD PUSH3 0x461BCD PUSH1 0xE5 SHL DUP2 MSTORE PUSH1 0x20 PUSH1 0x4 DUP3 ADD MSTORE PUSH1 0x25 PUSH1 0x24 DUP3 ADD MSTORE PUSH32 0x45524332303A2064656372656173656420616C6C6F77616E63652062656C6F77 PUSH1 0x44 DUP3 ADD MSTORE PUSH5 0x207A65726F PUSH1 0xD8 SHL PUSH1 0x64 DUP3 ADD MSTORE PUSH1 0x84 SWAP1 REVERT JUMPDEST SUB SWAP1 REVERT JUMPDEST PUSH2 0x5F1 SWAP2 SWAP1 PUSH2 0x686 CALLER SWAP3 PUSH2 0x7FE DUP4 DUP6 PUSH2 0x819 JUMP JUMPDEST PUSH2 0x80A DUP3 DUP3 LT ISZERO PUSH2 0x78C JUMP JUMPDEST SUB SWAP1 JUMP JUMPDEST PUSH2 0x5F1 SWAP2 SWAP1 CALLER PUSH2 0xBE7 JUMP JUMPDEST PUSH2 0x1A3 SWAP2 PUSH2 0x834 PUSH2 0x711 SWAP3 PUSH2 0x82C PUSH1 0x0 SWAP1 JUMP JUMPDEST POP PUSH1 0x1 PUSH2 0x6E2 JUMP JUMPDEST PUSH2 0x6E2 JUMP JUMPDEST PUSH2 0x1FC SWAP1 PUSH2 0x845 PUSH2 0xCE6 JUMP JUMPDEST PUSH2 0x8A5 JUMP JUMPDEST ISZERO PUSH2 0x851 JUMPI JUMP JUMPDEST PUSH1 0x40 MLOAD PUSH3 0x461BCD PUSH1 0xE5 SHL DUP2 MSTORE PUSH1 0x20 PUSH1 0x4 DUP3 ADD MSTORE PUSH1 0x26 PUSH1 0x24 DUP3 ADD MSTORE PUSH32 0x4F776E61626C653A206E6577206F776E657220697320746865207A65726F2061 PUSH1 0x44 DUP3 ADD MSTORE PUSH6 0x646472657373 PUSH1 0xD0 SHL PUSH1 0x64 DUP3 ADD MSTORE PUSH1 0x84 SWAP1 REVERT JUMPDEST PUSH2 0x1FC SWAP1 PUSH2 0x749 PUSH2 0x8B9 PUSH2 0x1D1 PUSH1 0x0 PUSH2 0x733 JUMP JUMPDEST PUSH1 0x1 PUSH1 0x1 PUSH1 0xA0 SHL SUB DUP4 AND EQ ISZERO PUSH2 0x84A JUMP JUMPDEST PUSH2 0x1FC SWAP1 PUSH2 0x839 JUMP JUMPDEST ISZERO PUSH2 0x8DA JUMPI JUMP JUMPDEST PUSH1 0x40 MLOAD PUSH3 0x461BCD PUSH1 0xE5 SHL DUP2 MSTORE PUSH1 0x20 PUSH1 0x4 DUP3 ADD MSTORE PUSH1 0x24 DUP1 DUP3 ADD MSTORE PUSH32 0x45524332303A20617070726F76652066726F6D20746865207A65726F20616464 PUSH1 0x44 DUP3 ADD MSTORE PUSH4 0x72657373 PUSH1 0xE0 SHL PUSH1 0x64 DUP3 ADD MSTORE PUSH1 0x84 SWAP1 REVERT JUMPDEST ISZERO PUSH2 0x932 JUMPI JUMP JUMPDEST PUSH1 0x40 MLOAD PUSH3 0x461BCD PUSH1 0xE5 SHL DUP2 MSTORE PUSH1 0x20 PUSH1 0x4 DUP3 ADD MSTORE PUSH1 0x22 PUSH1 0x24 DUP3 ADD MSTORE PUSH32 0x45524332303A20617070726F766520746F20746865207A65726F206164647265 PUSH1 0x44 DUP3 ADD MSTORE PUSH2 0x7373 PUSH1 0xF0 SHL PUSH1 0x64 DUP3 ADD MSTORE PUSH1 0x84 SWAP1 REVERT JUMPDEST SWAP1 PUSH1 0x0 NOT SWAP1 JUMPDEST SWAP2 DUP2 NOT AND SWAP2 AND OR SWAP1 JUMP JUMPDEST PUSH2 0x1A3 PUSH2 0x1A3 PUSH2 0x1A3 SWAP3 SWAP1 JUMP JUMPDEST SWAP1 PUSH2 0x9AF PUSH2 0x1A3 PUSH2 0x9B6 SWAP3 PUSH2 0x992 JUMP JUMPDEST DUP3 SLOAD PUSH2 0x982 JUMP JUMPDEST SWAP1 SSTORE JUMP JUMPDEST PUSH2 0xA51 PUSH2 0xA47 PUSH2 0xA41 PUSH32 0x8C5BE1E5EBEC7D5BD14F71427D1E84F3DD0314C0F7B2291E5B200AC8C7C3B925 SWAP4 PUSH2 0xA24 PUSH2 0xA13 PUSH2 0x9F5 PUSH1 0x0 PUSH2 0x733 JUMP JUMPDEST PUSH2 0x1D1 PUSH1 0x1 PUSH1 0x1 PUSH1 0xA0 SHL SUB DUP3 AND PUSH1 0x1 PUSH1 0x1 PUSH1 0xA0 SHL SUB DUP7 AND EQ ISZERO PUSH2 0x8D3 JUMP JUMPDEST PUSH1 0x1 PUSH1 0x1 PUSH1 0xA0 SHL SUB DUP9 AND EQ ISZERO PUSH2 0x92B JUMP JUMPDEST PUSH2 0xA3C DUP8 PUSH2 0xA37 DUP9 PUSH2 0x834 DUP6 PUSH1 0x1 PUSH2 0x6E2 JUMP JUMPDEST PUSH2 0x99F JUMP JUMPDEST PUSH2 0x6D9 JUMP JUMPDEST SWAP4 PUSH2 0x6D9 JUMP JUMPDEST SWAP4 PUSH2 0x281 PUSH1 0x40 MLOAD SWAP1 JUMP JUMPDEST SUB SWAP1 LOG3 JUMP JUMPDEST ISZERO PUSH2 0xA5D JUMPI JUMP JUMPDEST PUSH1 0x40 MLOAD PUSH3 0x461BCD PUSH1 0xE5 SHL DUP2 MSTORE PUSH1 0x20 PUSH1 0x4 DUP3 ADD MSTORE PUSH1 0x1D PUSH1 0x24 DUP3 ADD MSTORE PUSH32 0x45524332303A20696E73756666696369656E7420616C6C6F77616E6365000000 PUSH1 0x44 DUP3 ADD MSTORE PUSH1 0x64 SWAP1 REVERT JUMPDEST SWAP1 PUSH2 0xAAD DUP2 DUP4 PUSH2 0x819 JUMP JUMPDEST PUSH1 0x0 NOT DUP2 SUB PUSH2 0xABD JUMPI JUMPDEST POP POP POP POP JUMP JUMPDEST PUSH2 0xAD1 SWAP4 PUSH2 0x686 SWAP2 PUSH2 0x80A DUP3 DUP3 LT ISZERO PUSH2 0xA56 JUMP JUMPDEST CODESIZE DUP1 DUP1 DUP1 PUSH2 0xAB7 JUMP JUMPDEST ISZERO PUSH2 0xAE1 JUMPI JUMP JUMPDEST PUSH1 0x40 MLOAD PUSH3 0x461BCD PUSH1 0xE5 SHL DUP2 MSTORE PUSH1 0x20 PUSH1 0x4 DUP3 ADD MSTORE PUSH1 0x25 PUSH1 0x24 DUP3 ADD MSTORE PUSH32 0x45524332303A207472616E736665722066726F6D20746865207A65726F206164 PUSH1 0x44 DUP3 ADD MSTORE PUSH5 0x6472657373 PUSH1 0xD8 SHL PUSH1 0x64 DUP3 ADD MSTORE PUSH1 0x84 SWAP1 REVERT JUMPDEST ISZERO PUSH2 0xB3B JUMPI JUMP JUMPDEST PUSH1 0x40 MLOAD PUSH3 0x461BCD PUSH1 0xE5 SHL DUP2 MSTORE PUSH1 0x20 PUSH1 0x4 DUP3 ADD MSTORE PUSH1 0x23 PUSH1 0x24 DUP3 ADD MSTORE PUSH32 0x45524332303A207472616E7366657220746F20746865207A65726F2061646472 PUSH1 0x44 DUP3 ADD MSTORE PUSH3 0x657373 PUSH1 0xE8 SHL PUSH1 0x64 DUP3 ADD MSTORE PUSH1 0x84 SWAP1 REVERT JUMPDEST ISZERO PUSH2 0xB93 JUMPI JUMP JUMPDEST PUSH1 0x40 MLOAD PUSH3 0x461BCD PUSH1 0xE5 SHL DUP2 MSTORE PUSH1 0x20 PUSH1 0x4 DUP3 ADD MSTORE PUSH1 0x26 PUSH1 0x24 DUP3 ADD MSTORE PUSH32 0x45524332303A207472616E7366657220616D6F756E7420657863656564732062 PUSH1 0x44 DUP3 ADD MSTORE PUSH6 0x616C616E6365 PUSH1 0xD0 SHL PUSH1 0x64 DUP3 ADD MSTORE PUSH1 0x84 SWAP1 REVERT JUMPDEST PUSH2 0xA51 PUSH2 0xA47 PUSH2 0xA41 PUSH32 0xDDF252AD1BE2C89B69C2B068FC378DAA952BA7F163C4A11628F55A4DF523B3EF SWAP4 PUSH2 0xA3C PUSH2 0xC83 DUP8 PUSH1 0x0 PUSH2 0xC59 PUSH2 0xC48 PUSH2 0xC2A DUP4 PUSH2 0x733 JUMP JUMPDEST PUSH2 0x1D1 PUSH1 0x1 PUSH1 0x1 PUSH1 0xA0 SHL SUB DUP3 AND PUSH1 0x1 PUSH1 0x1 PUSH1 0xA0 SHL SUB DUP11 AND EQ ISZERO PUSH2 0xADA JUMP JUMPDEST PUSH1 0x1 PUSH1 0x1 PUSH1 0xA0 SHL SUB DUP5 AND EQ ISZERO PUSH2 0xB34 JUMP JUMPDEST PUSH2 0x834 PUSH2 0xC79 DUP13 PUSH2 0xC6D PUSH2 0x711 DUP10 DUP7 PUSH2 0x6E2 JUMP JUMPDEST PUSH2 0x80A DUP3 DUP3 LT ISZERO PUSH2 0xB8C JUMP JUMPDEST PUSH2 0xA37 DUP8 DUP5 PUSH2 0x6E2 JUMP JUMPDEST PUSH2 0xC90 DUP10 PUSH2 0x18E DUP4 PUSH2 0x5FD JUMP JUMPDEST SWAP1 PUSH2 0x99F JUMP JUMPDEST ISZERO PUSH2 0xC9D JUMPI JUMP JUMPDEST PUSH1 0x40 MLOAD PUSH3 0x461BCD PUSH1 0xE5 SHL DUP2 MSTORE DUP1 PUSH2 0x7E6 PUSH1 0x4 DUP3 ADD PUSH1 0x20 DUP1 DUP3 MSTORE DUP2 DUP2 ADD MSTORE PUSH32 0x4F776E61626C653A2063616C6C6572206973206E6F7420746865206F776E6572 PUSH1 0x40 DUP3 ADD MSTORE PUSH1 0x60 ADD SWAP1 JUMP JUMPDEST PUSH2 0x1FC PUSH2 0xCF1 PUSH2 0x778 JUMP JUMPDEST PUSH2 0xD0A PUSH2 0xCFD CALLER PUSH2 0x1D1 JUMP JUMPDEST SWAP2 PUSH1 0x1 PUSH1 0x1 PUSH1 0xA0 SHL SUB AND SWAP1 JUMP JUMPDEST EQ PUSH2 0xC96 JUMP JUMPDEST ISZERO PUSH2 0xD17 JUMPI JUMP JUMPDEST PUSH1 0x40 MLOAD PUSH3 0x461BCD PUSH1 0xE5 SHL DUP2 MSTORE PUSH1 0x20 PUSH1 0x4 DUP3 ADD MSTORE PUSH1 0x1F PUSH1 0x24 DUP3 ADD MSTORE PUSH32 0x45524332303A206D696E7420746F20746865207A65726F206164647265737300 PUSH1 0x44 DUP3 ADD MSTORE PUSH1 0x64 SWAP1 REVERT JUMPDEST PUSH32 0xDDF252AD1BE2C89B69C2B068FC378DAA952BA7F163C4A11628F55A4DF523B3EF PUSH2 0xA51 PUSH2 0xA47 PUSH2 0xA41 PUSH2 0xD90 PUSH1 0x0 PUSH2 0x733 JUMP JUMPDEST PUSH2 0xDAE PUSH1 0x1 PUSH1 0x1 PUSH1 0xA0 SHL SUB DUP3 AND PUSH1 0x1 PUSH1 0x1 PUSH1 0xA0 SHL SUB DUP9 AND EQ ISZERO PUSH2 0xD10 JUMP JUMPDEST PUSH2 0xDC6 PUSH2 0xDBF DUP9 PUSH2 0x681 PUSH1 0x2 PUSH2 0x5FD JUMP JUMPDEST PUSH1 0x2 PUSH2 0x99F JUMP JUMPDEST PUSH2 0xA3C PUSH2 0xC83 DUP8 PUSH1 0x0 PUSH2 0x6E2 JUMP JUMPDEST ISZERO PUSH2 0xDDB JUMPI JUMP JUMPDEST PUSH1 0x40 MLOAD PUSH3 0x461BCD PUSH1 0xE5 SHL DUP2 MSTORE PUSH1 0x20 PUSH1 0x4 DUP3 ADD MSTORE PUSH1 0x21 PUSH1 0x24 DUP3 ADD MSTORE PUSH32 0x45524332303A206275726E2066726F6D20746865207A65726F20616464726573 PUSH1 0x44 DUP3 ADD MSTORE PUSH1 0x73 PUSH1 0xF8 SHL PUSH1 0x64 DUP3 ADD MSTORE PUSH1 0x84 SWAP1 REVERT JUMPDEST ISZERO PUSH2 0xE31 JUMPI JUMP JUMPDEST PUSH1 0x40 MLOAD PUSH3 0x461BCD PUSH1 0xE5 SHL DUP2 MSTORE PUSH1 0x20 PUSH1 0x4 DUP3 ADD MSTORE PUSH1 0x22 PUSH1 0x24 DUP3 ADD MSTORE PUSH32 0x45524332303A206275726E20616D6F756E7420657863656564732062616C616E PUSH1 0x44 DUP3 ADD MSTORE PUSH2 0x6365 PUSH1 0xF0 SHL PUSH1 0x64 DUP3 ADD MSTORE PUSH1 0x84 SWAP1 REVERT JUMPDEST PUSH32 0xDDF252AD1BE2C89B69C2B068FC378DAA952BA7F163C4A11628F55A4DF523B3EF PUSH2 0xA51 PUSH2 0xA47 PUSH2 0xA41 PUSH1 0x0 SWAP5 PUSH2 0xF00 PUSH2 0xEBA DUP8 PUSH2 0x733 JUMP JUMPDEST SWAP7 PUSH2 0xED9 PUSH1 0x1 PUSH1 0x1 PUSH1 0xA0 SHL SUB DUP10 AND PUSH1 0x1 PUSH1 0x1 PUSH1 0xA0 SHL SUB DUP6 AND EQ ISZERO PUSH2 0xDD4 JUMP JUMPDEST PUSH2 0xA37 DUP4 PUSH2 0xEFA DUP12 PUSH2 0xEEE PUSH2 0x711 DUP5 DUP8 PUSH2 0x6E2 JUMP JUMPDEST PUSH2 0x80A DUP3 DUP3 LT ISZERO PUSH2 0xE2A JUMP JUMPDEST SWAP3 PUSH2 0x6E2 JUMP JUMPDEST PUSH2 0xA3C PUSH2 0xDBF DUP9 PUSH2 0x80A PUSH1 0x2 PUSH2 0x5FD JUMP JUMPDEST SWAP1 PUSH1 0x1 PUSH1 0x1 PUSH1 0xA0 SHL SUB SWAP1 PUSH2 0x988 JUMP JUMPDEST SWAP1 PUSH2 0xF30 PUSH2 0x1A3 PUSH2 0x9B6 SWAP3 PUSH2 0x6D9 JUMP JUMPDEST DUP3 SLOAD PUSH2 0xF11 JUMP JUMPDEST PUSH2 0xF58 PUSH2 0xF52 PUSH2 0xF47 PUSH1 0x5 PUSH2 0x76E JUMP JUMPDEST PUSH2 0xA3C DUP5 PUSH1 0x5 PUSH2 0xF20 JUMP JUMPDEST SWAP2 PUSH2 0x6D9 JUMP JUMPDEST SWAP1 PUSH32 0x8BE0079C531659141344CD1FD0A4F28419497F9722A3DAAFE3B4186F6B6457E0 PUSH2 0xF83 PUSH1 0x40 MLOAD SWAP1 JUMP JUMPDEST DUP1 DUP1 PUSH2 0xA51 JUMP INVALID LOG2 PUSH5 0x6970667358 0x22 SLT KECCAK256 0xD3 0xCF SWAP2 0x4D 0xAF 0xA8 LOG0 PUSH1 0x77 0xE7 DUP6 0x25 JUMPI SELFDESTRUCT 0xAE 0xD8 DUP12 NOT 0xB2 DUP5 0xC7 PUSH2 0x31AB 0xDC 0xA6 PUSH29 0x4334B0947B64736F6C6343000818003300000000000000000000000000 "},"methodIdentifiers":{"allowance(address,address)":"dd62ed3e","approve(address,uint256)":"095ea7b3","balanceOf(address)":"70a08231","burn(uint256)":"42966c68","burnFrom(address,uint256)":"79cc6790","decimals()":"313ce567","decreaseAllowance(address,uint256)":"a457c2d7","increaseAllowance(address,uint256)":"39509351","mint(address,uint256)":"40c10f19","name()":"06fdde03","owner()":"8da5cb5b","renounceOwnership()":"715018a6","symbol()":"95d89b41","totalSupply()":"18160ddd","transfer(address,uint256)":"a9059cbb","transferFrom(address,address,uint256)":"23b872dd","transferOwnership(address)":"f2fde38b"}}}}}