{"contracts/Lock.sol":{"Lock":{"abi":[{"inputs":[{"internalType":"uint256","name":"_unlockTime","type":"uint256"}],"stateMutability":"payable","type":"constructor"},{"anonymous":false,"inputs":[{"indexed":false,"internalType":"uint256","name":"amount","type":"uint256"},{"indexed":false,"internalType":"uint256","name":"when","type":"uint256"}],"name":"Withdrawal","type":"event"},{"inputs":[],"name":"owner","outputs":[{"internalType":"address payable","name":"","type":"address"}],"stateMutability":"view","type":"function"},{"inputs":[],"name":"unlockTime","outputs":[{"internalType":"uint256","name":"","type":"uint256"}],"stateMutability":"view","type":"function"},{"inputs":[],"name":"withdraw","outputs":[],"stateMutability":"nonpayable","type":"function"}],"evm":{"bytecode":{"linkReferences":{},"object":"608060405261001461000f610099565b6101ae565b60405161032f6101d8823961032f90f35b634e487b7160e01b600052604160045260246000fd5b90601f01601f191681019081106001600160401b0382111761005c57604052565b610025565b9061007561006e60405190565b928361003b565b565b600080fd5b90505190565b90602082820312610077576100969161007c565b90565b610096610507803803806100ac81610061565b928339810190610082565b60208082526023908201527f556e6c6f636b2074696d652073686f756c6420626520696e207468652066757460408201526275726560e81b606082015260800190565b1561010157565b60405162461bcd60e51b81528061011a600482016100b7565b0390fd5b90600019905b9181191691161790565b6100966100966100969290565b9061014b6100966101529261012e565b825461011e565b9055565b6100969061016a906001600160a01b031682565b6001600160a01b031690565b61009690610156565b61009690610176565b906001600160a01b0390610124565b906101a76100966101529261017f565b8254610188565b6101c4906101bd8142106100fa565b600061013b565b6100756101d03361017f565b600161019756fe6080604052600436101561001257600080fd5b60003560e01c8063251c1aa3146100425780633ccfd60b1461003d57638da5cb5b0361005257610112565b6100b0565b610081565b600091031261005257565b600080fd5b610062916008021c81565b90565b906100629154610057565b610062600080610065565b9052565b565b3461005257610091366004610047565b6100ac61009c610070565b6040519182918290815260200190565b0390f35b34610052576100c0366004610047565b6100c8610244565b604051005b610062916008021c5b6001600160a01b031690565b9061006291546100cd565b610062600060016100e2565b61007b906100d6565b60208101929161007f91906100f9565b3461005257610122366004610047565b6100ac61012d6100ed565b60405191829182610102565b6100629081565b6100629054610139565b602080825260169082015275165bdd4818d85b89dd081dda5d1a191c985dc81e595d60521b604082015260600190565b1561018157565b60405162461bcd60e51b81528061019a6004820161014a565b0390fd5b610062906100d6565b610062905461019e565b610062906100d6906001600160a01b031682565b610062906101b1565b610062906101c5565b6020808252601490820152732cb7ba9030b932b713ba103a34329037bbb732b960611b604082015260600190565b1561020c57565b60405162461bcd60e51b81528061019a600482016101d7565b90815260408101929161007f9160200152565b6040513d6000823e3d90fd5b61025c6102546100626000610140565b42101561017a565b61028061027161026c60016101a7565b6101ce565b61027a336100d6565b14610205565b600080808061028e306101ce565b7fbf2ed60bd5b5965d685680c01195c9514e4382e28e3a5a2d2d5244bf59411b936102c882316102bd60405190565b918291429083610225565b0390a16102d861026c60016101a7565b9031908282156102f0575bf1156102eb57565b610238565b506108fc6102e356fea2646970667358221220d586c4996373bf1719306077716ebe2a5aded0dd341036afbab01a0d242a672164736f6c63430008180033","opcodes":"PUSH1 0x80 PUSH1 0x40 MSTORE PUSH2 0x14 PUSH2 0xF PUSH2 0x99 JUMP JUMPDEST PUSH2 0x1AE JUMP JUMPDEST PUSH1 0x40 MLOAD PUSH2 0x32F PUSH2 0x1D8 DUP3 CODECOPY PUSH2 0x32F SWAP1 RETURN JUMPDEST PUSH4 0x4E487B71 PUSH1 0xE0 SHL PUSH1 0x0 MSTORE PUSH1 0x41 PUSH1 0x4 MSTORE PUSH1 0x24 PUSH1 0x0 REVERT JUMPDEST SWAP1 PUSH1 0x1F ADD PUSH1 0x1F NOT AND DUP2 ADD SWAP1 DUP2 LT PUSH1 0x1 PUSH1 0x1 PUSH1 0x40 SHL SUB DUP3 GT OR PUSH2 0x5C JUMPI PUSH1 0x40 MSTORE JUMP JUMPDEST PUSH2 0x25 JUMP JUMPDEST SWAP1 PUSH2 0x75 PUSH2 0x6E PUSH1 0x40 MLOAD SWAP1 JUMP JUMPDEST SWAP3 DUP4 PUSH2 0x3B JUMP JUMPDEST JUMP JUMPDEST PUSH1 0x0 DUP1 REVERT JUMPDEST SWAP1 POP MLOAD SWAP1 JUMP JUMPDEST SWAP1 PUSH1 0x20 DUP3 DUP3 SUB SLT PUSH2 0x77 JUMPI PUSH2 0x96 SWAP2 PUSH2 0x7C JUMP JUMPDEST SWAP1 JUMP JUMPDEST PUSH2 0x96 PUSH2 0x507 DUP1 CODESIZE SUB DUP1 PUSH2 0xAC DUP2 PUSH2 0x61 JUMP JUMPDEST SWAP3 DUP4 CODECOPY DUP2 ADD SWAP1 PUSH2 0x82 JUMP JUMPDEST PUSH1 0x20 DUP1 DUP3 MSTORE PUSH1 0x23 SWAP1 DUP3 ADD MSTORE PUSH32 0x556E6C6F636B2074696D652073686F756C6420626520696E2074686520667574 PUSH1 0x40 DUP3 ADD MSTORE PUSH3 0x757265 PUSH1 0xE8 SHL PUSH1 0x60 DUP3 ADD MSTORE PUSH1 0x80 ADD SWAP1 JUMP JUMPDEST ISZERO PUSH2 0x101 JUMPI JUMP JUMPDEST PUSH1 0x40 MLOAD PUSH3 0x461BCD PUSH1 0xE5 SHL DUP2 MSTORE DUP1 PUSH2 0x11A PUSH1 0x4 DUP3 ADD PUSH2 0xB7 JUMP JUMPDEST SUB SWAP1 REVERT JUMPDEST SWAP1 PUSH1 0x0 NOT SWAP1 JUMPDEST SWAP2 DUP2 NOT AND SWAP2 AND OR SWAP1 JUMP JUMPDEST PUSH2 0x96 PUSH2 0x96 PUSH2 0x96 SWAP3 SWAP1 JUMP JUMPDEST SWAP1 PUSH2 0x14B PUSH2 0x96 PUSH2 0x152 SWAP3 PUSH2 0x12E JUMP JUMPDEST DUP3 SLOAD PUSH2 0x11E JUMP JUMPDEST SWAP1 SSTORE JUMP JUMPDEST PUSH2 0x96 SWAP1 PUSH2 0x16A SWAP1 PUSH1 0x1 PUSH1 0x1 PUSH1 0xA0 SHL SUB AND DUP3 JUMP JUMPDEST PUSH1 0x1 PUSH1 0x1 PUSH1 0xA0 SHL SUB AND SWAP1 JUMP JUMPDEST PUSH2 0x96 SWAP1 PUSH2 0x156 JUMP JUMPDEST PUSH2 0x96 SWAP1 PUSH2 0x176 JUMP JUMPDEST SWAP1 PUSH1 0x1 PUSH1 0x1 PUSH1 0xA0 SHL SUB SWAP1 PUSH2 0x124 JUMP JUMPDEST SWAP1 PUSH2 0x1A7 PUSH2 0x96 PUSH2 0x152 SWAP3 PUSH2 0x17F JUMP JUMPDEST DUP3 SLOAD PUSH2 0x188 JUMP JUMPDEST PUSH2 0x1C4 SWAP1 PUSH2 0x1BD DUP2 TIMESTAMP LT PUSH2 0xFA JUMP JUMPDEST PUSH1 0x0 PUSH2 0x13B JUMP JUMPDEST PUSH2 0x75 PUSH2 0x1D0 CALLER PUSH2 0x17F JUMP JUMPDEST PUSH1 0x1 PUSH2 0x197 JUMP INVALID PUSH1 0x80 PUSH1 0x40 MSTORE PUSH1 0x4 CALLDATASIZE LT ISZERO PUSH2 0x12 JUMPI PUSH1 0x0 DUP1 REVERT JUMPDEST PUSH1 0x0 CALLDATALOAD PUSH1 0xE0 SHR DUP1 PUSH4 0x251C1AA3 EQ PUSH2 0x42 JUMPI DUP1 PUSH4 0x3CCFD60B EQ PUSH2 0x3D JUMPI PUSH4 0x8DA5CB5B SUB PUSH2 0x52 JUMPI PUSH2 0x112 JUMP JUMPDEST PUSH2 0xB0 JUMP JUMPDEST PUSH2 0x81 JUMP JUMPDEST PUSH1 0x0 SWAP2 SUB SLT PUSH2 0x52 JUMPI JUMP JUMPDEST PUSH1 0x0 DUP1 REVERT JUMPDEST PUSH2 0x62 SWAP2 PUSH1 0x8 MUL SHR DUP2 JUMP JUMPDEST SWAP1 JUMP JUMPDEST SWAP1 PUSH2 0x62 SWAP2 SLOAD PUSH2 0x57 JUMP JUMPDEST PUSH2 0x62 PUSH1 0x0 DUP1 PUSH2 0x65 JUMP JUMPDEST SWAP1 MSTORE JUMP JUMPDEST JUMP JUMPDEST CALLVALUE PUSH2 0x52 JUMPI PUSH2 0x91 CALLDATASIZE PUSH1 0x4 PUSH2 0x47 JUMP JUMPDEST PUSH2 0xAC PUSH2 0x9C PUSH2 0x70 JUMP JUMPDEST PUSH1 0x40 MLOAD SWAP2 DUP3 SWAP2 DUP3 SWAP1 DUP2 MSTORE PUSH1 0x20 ADD SWAP1 JUMP JUMPDEST SUB SWAP1 RETURN JUMPDEST CALLVALUE PUSH2 0x52 JUMPI PUSH2 0xC0 CALLDATASIZE PUSH1 0x4 PUSH2 0x47 JUMP JUMPDEST PUSH2 0xC8 PUSH2 0x244 JUMP JUMPDEST PUSH1 0x40 MLOAD STOP JUMPDEST PUSH2 0x62 SWAP2 PUSH1 0x8 MUL SHR JUMPDEST PUSH1 0x1 PUSH1 0x1 PUSH1 0xA0 SHL SUB AND SWAP1 JUMP JUMPDEST SWAP1 PUSH2 0x62 SWAP2 SLOAD PUSH2 0xCD JUMP JUMPDEST PUSH2 0x62 PUSH1 0x0 PUSH1 0x1 PUSH2 0xE2 JUMP JUMPDEST PUSH2 0x7B SWAP1 PUSH2 0xD6 JUMP JUMPDEST PUSH1 0x20 DUP2 ADD SWAP3 SWAP2 PUSH2 0x7F SWAP2 SWAP1 PUSH2 0xF9 JUMP JUMPDEST CALLVALUE PUSH2 0x52 JUMPI PUSH2 0x122 CALLDATASIZE PUSH1 0x4 PUSH2 0x47 JUMP JUMPDEST PUSH2 0xAC PUSH2 0x12D PUSH2 0xED JUMP JUMPDEST PUSH1 0x40 MLOAD SWAP2 DUP3 SWAP2 DUP3 PUSH2 0x102 JUMP JUMPDEST PUSH2 0x62 SWAP1 DUP2 JUMP JUMPDEST PUSH2 0x62 SWAP1 SLOAD PUSH2 0x139 JUMP JUMPDEST PUSH1 0x20 DUP1 DUP3 MSTORE PUSH1 0x16 SWAP1 DUP3 ADD MSTORE PUSH22 0x165BDD4818D85B89DD081DDA5D1A191C985DC81E595D PUSH1 0x52 SHL PUSH1 0x40 DUP3 ADD MSTORE PUSH1 0x60 ADD SWAP1 JUMP JUMPDEST ISZERO PUSH2 0x181 JUMPI JUMP JUMPDEST PUSH1 0x40 MLOAD PUSH3 0x461BCD PUSH1 0xE5 SHL DUP2 MSTORE DUP1 PUSH2 0x19A PUSH1 0x4 DUP3 ADD PUSH2 0x14A JUMP JUMPDEST SUB SWAP1 REVERT JUMPDEST PUSH2 0x62 SWAP1 PUSH2 0xD6 JUMP JUMPDEST PUSH2 0x62 SWAP1 SLOAD PUSH2 0x19E JUMP JUMPDEST PUSH2 0x62 SWAP1 PUSH2 0xD6 SWAP1 PUSH1 0x1 PUSH1 0x1 PUSH1 0xA0 SHL SUB AND DUP3 JUMP JUMPDEST PUSH2 0x62 SWAP1 PUSH2 0x1B1 JUMP JUMPDEST PUSH2 0x62 SWAP1 PUSH2 0x1C5 JUMP JUMPDEST PUSH1 0x20 DUP1 DUP3 MSTORE PUSH1 0x14 SWAP1 DUP3 ADD MSTORE PUSH20 0x2CB7BA9030B932B713BA103A34329037BBB732B9 PUSH1 0x61 SHL PUSH1 0x40 DUP3 ADD MSTORE PUSH1 0x60 ADD SWAP1 JUMP JUMPDEST ISZERO PUSH2 0x20C JUMPI JUMP JUMPDEST PUSH1 0x40 MLOAD PUSH3 0x461BCD PUSH1 0xE5 SHL DUP2 MSTORE DUP1 PUSH2 0x19A PUSH1 0x4 DUP3 ADD PUSH2 0x1D7 JUMP JUMPDEST SWAP1 DUP2 MSTORE PUSH1 0x40 DUP2 ADD SWAP3 SWAP2 PUSH2 0x7F SWAP2 PUSH1 0x20 ADD MSTORE JUMP JUMPDEST PUSH1 0x40 MLOAD RETURNDATASIZE PUSH1 0x0 DUP3 RETURNDATACOPY RETURNDATASIZE SWAP1 REVERT JUMPDEST PUSH2 0x25C PUSH2 0x254 PUSH2 0x62 PUSH1 0x0 PUSH2 0x140 JUMP JUMPDEST TIMESTAMP LT ISZERO PUSH2 0x17A JUMP JUMPDEST PUSH2 0x280 PUSH2 0x271 PUSH2 0x26C PUSH1 0x1 PUSH2 0x1A7 JUMP JUMPDEST PUSH2 0x1CE JUMP JUMPDEST PUSH2 0x27A CALLER PUSH2 0xD6 JUMP JUMPDEST EQ PUSH2 0x205 JUMP JUMPDEST PUSH1 0x0 DUP1 DUP1 DUP1 PUSH2 0x28E ADDRESS PUSH2 0x1CE JUMP JUMPDEST PUSH32 0xBF2ED60BD5B5965D685680C01195C9514E4382E28E3A5A2D2D5244BF59411B93 PUSH2 0x2C8 DUP3 BALANCE PUSH2 0x2BD PUSH1 0x40 MLOAD SWAP1 JUMP JUMPDEST SWAP2 DUP3 SWAP2 TIMESTAMP SWAP1 DUP4 PUSH2 0x225 JUMP JUMPDEST SUB SWAP1 LOG1 PUSH2 0x2D8 PUSH2 0x26C PUSH1 0x1 PUSH2 0x1A7 JUMP JUMPDEST SWAP1 BALANCE SWAP1 DUP3 DUP3 ISZERO PUSH2 0x2F0 JUMPI JUMPDEST CALL ISZERO PUSH2 0x2EB JUMPI JUMP JUMPDEST PUSH2 0x238 JUMP JUMPDEST POP PUSH2 0x8FC PUSH2 0x2E3 JUMP INVALID LOG2 PUSH5 0x6970667358 0x22 SLT KECCAK256 0xD5 DUP7 0xC4 SWAP10 PUSH4 0x73BF1719 ADDRESS PUSH1 0x77 PUSH18 0x6EBE2A5ADED0DD341036AFBAB01A0D242A67 0x21 PUSH5 0x736F6C6343 STOP ADDMOD XOR STOP CALLER "},"methodIdentifiers":{"owner()":"8da5cb5b","unlockTime()":"251c1aa3","withdraw()":"3ccfd60b"}}}}}