{"contracts/DecentralizedBetting.sol":{"DecentralizedBetting":{"abi":[{"inputs":[{"internalType":"address","name":"_socialOracleAddress","type":"address"},{"internalType":"address","name":"_matchNFTAddress","type":"address"},{"internalType":"address","name":"_bettingTokenAddress","type":"address"}],"stateMutability":"nonpayable","type":"constructor"},{"inputs":[{"internalType":"uint256","name":"","type":"uint256"},{"internalType":"address","name":"","type":"address"}],"name":"bets","outputs":[{"internalType":"uint256","name":"amount","type":"uint256"},{"internalType":"bool","name":"prediction","type":"bool"}],"stateMutability":"view","type":"function"},{"inputs":[],"name":"bettingToken","outputs":[{"internalType":"contract IERC20","name":"","type":"address"}],"stateMutability":"view","type":"function"},{"inputs":[{"internalType":"uint256","name":"eventId","type":"uint256"}],"name":"claimWinnings","outputs":[],"stateMutability":"nonpayable","type":"function"},{"inputs":[{"internalType":"uint256","name":"timestamp","type":"uint256"}],"name":"createEvent","outputs":[],"stateMutability":"nonpayable","type":"function"},{"inputs":[{"internalType":"uint256","name":"","type":"uint256"}],"name":"events","outputs":[{"internalType":"uint256","name":"id","type":"uint256"},{"internalType":"uint256","name":"timestamp","type":"uint256"},{"internalType":"bool","name":"outcome","type":"bool"},{"internalType":"bool","name":"resolved","type":"bool"},{"internalType":"uint256","name":"totalPot","type":"uint256"},{"internalType":"uint256","name":"winningPot","type":"uint256"},{"internalType":"bool","name":"emergencyStop","type":"bool"}],"stateMutability":"view","type":"function"},{"inputs":[],"name":"matchNFTAddress","outputs":[{"internalType":"address","name":"","type":"address"}],"stateMutability":"view","type":"function"},{"inputs":[],"name":"owner","outputs":[{"internalType":"address","name":"","type":"address"}],"stateMutability":"view","type":"function"},{"inputs":[{"internalType":"uint256","name":"eventId","type":"uint256"},{"internalType":"bool","name":"prediction","type":"bool"},{"internalType":"uint256","name":"amount","type":"uint256"}],"name":"placeBet","outputs":[],"stateMutability":"nonpayable","type":"function"},{"inputs":[{"internalType":"uint256","name":"eventId","type":"uint256"}],"name":"resolveEvent","outputs":[],"stateMutability":"nonpayable","type":"function"},{"inputs":[],"name":"socialOracleAddress","outputs":[{"internalType":"address","name":"","type":"address"}],"stateMutability":"view","type":"function"},{"inputs":[{"internalType":"uint256","name":"eventId","type":"uint256"}],"name":"toggleEmergencyStop","outputs":[],"stateMutability":"nonpayable","type":"function"},{"inputs":[],"name":"withdraw","outputs":[],"stateMutability":"nonpayable","type":"function"}],"evm":{"bytecode":{"linkReferences":{},"object":"60806040523462000031576200001f62000018620000f4565b91620001b4565b6040516112a86200020b82396112a890f35b600080fd5b634e487b7160e01b600052604160045260246000fd5b90601f01601f191681019081106001600160401b038211176200006e57604052565b62000036565b906200008b6200008360405190565b92836200004c565b565b6001600160a01b031690565b90565b6001600160a01b038116036200003157565b905051906200008b826200009c565b9091606082840312620000315762000099620000da8484620000ae565b936040620000ec8260208701620000ae565b9401620000ae565b62000117620014b3803803806200010b8162000074565b928339810190620000bd565b909192565b906001600160a01b03905b9181191691161790565b62000099906200008d906001600160a01b031682565b620000999062000131565b620000999062000147565b906200017162000099620001799262000152565b82546200011c565b9055565b6200009962000099620000999290565b906000199062000127565b90620001ac6200009962000179926200017d565b82546200018d565b91620001fc6200020292620001f46200008b95620001d43360006200015d565b620001ec620001e460016200017d565b600162000198565b60056200015d565b60066200015d565b62000152565b60026200015d56fe6080604052600436101561001257600080fd5b60003560e01c80630b791430146100d25780631a38cac6146100cd57806330658198146100c85780633ccfd60b146100c357806343425e88146100be578063677bd9ff146100b95780638822e6fd146100b45780638da5cb5b146100af578063977d996d146100aa5780639a2e8240146100a5578063bed524d6146100a05763f644b3bb036100e0576104bc565b61043e565b610423565b6103ff565b6103e4565b6103c1565b6103a9565b610382565b61031f565b6102f8565b61028a565b61020d565b805b036100e057565b600080fd5b905035906100f2826100d7565b565b906020828203126100e057610108916100e5565b90565b6101086101086101089290565b906101229061010b565b600052602052604060002090565b6101089081565b6101089054610130565b610108905b60ff1690565b6101089054610141565b6101089060081c610146565b6101089054610156565b610177906003610118565b61018081610137565b9161018d60018301610137565b9161019a6002820161014c565b916101a760028301610162565b916101b460038201610137565b9161010860056101c660048501610137565b930161014c565b9052565b90815260e08101979695909490939092909160208601521515604085015215156060840152608083015260a082015260c0016100f29115159052565b346100e0576102416102286102233660046100f4565b61016c565b9361023897959793919360405190565b978897886101d1565b0390f35b8015156100d9565b905035906100f282610245565b90916060828403126100e05761010861027384846100e5565b936040610283826020870161024d565b94016100e5565b346100e0576102a361029d36600461025a565b916109be565b604051005b60009103126100e057565b610108916008021c5b6001600160a01b031690565b9061010891546102b3565b610108600060056102c8565b6101cd906102bc565b6020810192916100f291906102df565b346100e0576103083660046102a8565b6102416103136102d3565b604051918291826102e8565b346100e05761032f3660046102a8565b6102a3610bd8565b610108600060026102c8565b610108906102bc906001600160a01b031682565b61010890610343565b61010890610357565b6101cd90610360565b6020810192916100f29190610369565b346100e0576103923660046102a8565b61024161039d610337565b60405191829182610372565b346100e0576102a36103bc3660046100f4565b610d6e565b346100e0576102a36103d43660046100f4565b610f90565b6101086000806102c8565b346100e0576103f43660046102a8565b6102416103136103d9565b346100e0576102a36104123660046100f4565b610fd1565b610108600060066102c8565b346100e0576104333660046102a8565b610241610313610417565b346100e0576102a36104513660046100f4565b611269565b6100d9816102bc565b905035906100f282610456565b91906040838203126100e05761010890602061048882866100e5565b940161045f565b9061012290610360565b906104a86104ad926004610118565b61048f565b9061010860016101c684610137565b346100e0576104d56104cf36600461046c565b90610499565b906102416104e260405190565b92839283908152901515602082015260400190565b156104fe57565b60405162461bcd60e51b815260206004820152601860248201527f4576656e7420686173206265656e207265736f6c7665642e00000000000000006044820152606490fd5b906100f2929161056e610569610565600261055f856003610118565b01610162565b1590565b6104f7565b610819565b1561057a57565b60405162461bcd60e51b815260206004820152602160248201527f42657474696e672069732074656d706f726172696c792073757370656e6465646044820152601760f91b6064820152608490fd5b610108906102bc565b61010890546105c9565b634e487b7160e01b600052604160045260246000fd5b90601f01601f1916810190811067ffffffffffffffff82111761061457604052565b6105dc565b905051906100f282610245565b906020828203126100e05761010891610619565b6040906106646100f2949695939661065a606084019860008501906102df565b60208301906102df565b0152565b6040513d6000823e3d90fd5b1561067b57565b60405162461bcd60e51b815260206004820152601e60248201527f4661696c656420746f207472616e736665722062657420746f6b656e732e00006044820152606490fd5b156106c757565b60405162461bcd60e51b815260206004820152601e60248201527f557365722068617320616c726561647920706c616365642061206265742e00006044820152606490fd5b1561071357565b60405162461bcd60e51b815260206004820152601160248201527024b73b30b634b21032bb32b73a1024a21760791b6044820152606490fd5b906100f261075960405190565b92836105f2565b610108604061074c565b90600019905b9181191691161790565b9061078a6101086107919261010b565b825461076a565b9055565b9060ff90610770565b151590565b906107b361010861079192151590565b8254610795565b60016107e060206100f2946107d96107d3600083015190565b8661077a565b0151151590565b91016107a3565b906100f2916107ba565b634e487b7160e01b600052601160045260246000fd5b9190820180921161081457565b6107f1565b6003929161083d61083861056560056108328689610118565b0161014c565b610573565b61088960208461085561085060026105d2565b610360565b61085e30610360565b600061086960405190565b80968195829461087d6323b872dd60e01b90565b8452336004850161063a565b03925af180156109b9576108a59160009161098a575b50610674565b6004906108e16108ca60006108c46108bd8787610118565b339061048f565b01610137565b6108db6108d7600061010b565b9190565b146106c0565b6109076108f360006108c48689610118565b6109006108d7600061010b565b141561070c565b610934610912610760565b61091a868252565b821515602082015261092f6108bd8686610118565b6107e7565b61095b856109428582610118565b016109558661095083610137565b610807565b9061077a565b610966575b50505050565b6109766109559261098195610118565b019161095083610137565b38808080610960565b6109ac915060203d6020116109b2575b6109a481836105f2565b810190610626565b3861089f565b503d61099a565b610668565b906100f29291610543565b156109d057565b60405162461bcd60e51b815260206004820152602260248201527f4f6e6c79206f776e65722063616e2063616c6c20746869732066756e6374696f604482015261371760f11b6064820152608490fd5b610a44610a35610a3060006105d2565b6102bc565b610a3e336102bc565b146109c9565b6100f2610ad4565b905051906100f2826100d7565b906020828203126100e05761010891610a4c565b9160206100f2929493610664604082019660008301906102df565b15610a8f57565b60405162461bcd60e51b815260206004820152601a60248201527f4661696c656420746f207472616e7366657220746f6b656e732e0000000000006044820152606490fd5b610b146020610ae661085060026105d2565b610aef30610360565b90610af960405190565b938492839182916370a0823160e01b5b8352600483016102e8565b03915afa9081156109b957610b7091602091600091610bab575b50610b3c61085060026105d2565b610b4660006105d2565b6000610b5160405190565b809681958294610b6563a9059cbb60e01b90565b845260048401610a6d565b03925af180156109b9576100f291600091610b8c575b50610a88565b610ba5915060203d6020116109b2576109a481836105f2565b38610b86565b610bcb9150823d8411610bd1575b610bc381836105f2565b810190610a59565b38610b2e565b503d610bb9565b6100f2610a20565b15610be757565b60405162461bcd60e51b815260206004820152601c60248201527f4576656e7420686173206e6f74206265656e207265736f6c7665642e000000006044820152606490fd5b15610c3357565b60405162461bcd60e51b815260206004820152601960248201527f5573657220686173206e6f2062657420746f20636c61696d2e000000000000006044820152606490fd5b8181029291811591840414171561081457565b634e487b7160e01b600052601260045260246000fd5b8115610cab570490565b610c8b565b15610cb757565b60405162461bcd60e51b815260206004820152603860248201527f496e73756666696369656e7420636f6e747261637420746f6b656e2062616c6160448201527f6e636520746f20706179206f75742077696e6e696e67732e00000000000000006064820152608490fd5b15610d2957565b60405162461bcd60e51b815260206004820152601c60248201527f4661696c656420746f207472616e736665722077696e6e696e67732e000000006044820152606490fd5b600390610d88610d83600261055f8486610118565b610be0565b610d996101086108bd836004610118565b610da281610137565b92610dbb600094610db56108d78761010b565b11610c2c565b610dc48461010b565b92610dd16001840161014c565b610dec610de661079e60026108328688610118565b91151590565b03610f465790610e1460046108c484610e0e856108c4610e6a9a999882610118565b94610118565b90838211610f1b575b5050610e349084610e2d8161010b565b910161077a565b6020610e4361085060026105d2565b610e4c30610360565b90610e5660405190565b948592839182916370a0823160e01b610b09565b03915afa9081156109b957610e90610ec392602094600091610efe575b50821115610cb0565b610e9d61085060026105d2565b90610ea760405190565b948593849283919063a9059cbb60e01b83523360048401610a6d565b03925af180156109b9576100f291600091610edf575b50610d22565b610ef8915060203d6020116109b2576109a481836105f2565b38610ed9565b610f159150853d8711610bd157610bc381836105f2565b38610e87565b82935090610f39610f3e92610f3488610e349601610137565b610c78565b610ca1565b919038610e1d565b5050916100f2920161077a565b6100f290610f67610a35610a3060006105d2565b6100f2906005610f8a610f8261056583610832866003610118565b926003610118565b016107a3565b6100f290610f53565b60001981146108145760010190565b9081526040810192916100f29160200152565b9081526040810192916100f291602001906102df565b610fdb6001610137565b90610fef610fe883610f99565b600161077a565b611006826000611000826003610118565b0161077a565b611017816001611000856003610118565b61102761085061085060056105d2565b803b156100e05761105c60009291839261104060405190565b948593849283919063938cfd6760e01b83528960048401610fa8565b03925af180156109b9576110db575b5061107c61085061085060066105d2565b803b156100e0576110b260009291839261109560405190565b94859384928391906394bf804d60e01b8352339060048401610fbb565b03925af180156109b9576110c35750565b6100f29060006110d381836105f2565b8101906102a8565b6110eb9060006110d381836105f2565b3861106b565b6100f29061110b610569610565600261055f856003610118565b6111af565b91906040838203126100e05761010890602061112c8286610619565b9401610619565b1561113a57565b60405162461bcd60e51b8152602060048201526024808201527f5175657374696f6e206f7574636f6d65206e6f742064657465726d696e6564206044820152633cb2ba1760e11b6064820152608490fd5b9061ff009060081b610770565b906111a861010861079192151590565b825461118b565b60036111c36108f360006108c48585610118565b6111d361085061085060056105d2565b604080516325aaf90560e01b81526004810185905291829060249082905afa80156109b9576100f29360019361122961122e93600295600080919092611234575b5061121e90611133565b85610f8a8585610118565b610118565b01611198565b61121e925061125b915060403d604011611262575b61125381836105f2565b810190611110565b9091611214565b503d611249565b6100f2906110f156fea2646970667358221220fc6f360f3244a003ff60c916f780954552856a2d1c37cd81297df14bc616fa5964736f6c63430008180033","opcodes":"PUSH1 0x80 PUSH1 0x40 MSTORE CALLVALUE PUSH3 0x31 JUMPI PUSH3 0x1F PUSH3 0x18 PUSH3 0xF4 JUMP JUMPDEST SWAP2 PUSH3 0x1B4 JUMP JUMPDEST PUSH1 0x40 MLOAD PUSH2 0x12A8 PUSH3 0x20B DUP3 CODECOPY PUSH2 0x12A8 SWAP1 RETURN JUMPDEST PUSH1 0x0 DUP1 REVERT JUMPDEST PUSH4 0x4E487B71 PUSH1 0xE0 SHL PUSH1 0x0 MSTORE PUSH1 0x41 PUSH1 0x4 MSTORE PUSH1 0x24 PUSH1 0x0 REVERT JUMPDEST SWAP1 PUSH1 0x1F ADD PUSH1 0x1F NOT AND DUP2 ADD SWAP1 DUP2 LT PUSH1 0x1 PUSH1 0x1 PUSH1 0x40 SHL SUB DUP3 GT OR PUSH3 0x6E JUMPI PUSH1 0x40 MSTORE JUMP JUMPDEST PUSH3 0x36 JUMP JUMPDEST SWAP1 PUSH3 0x8B PUSH3 0x83 PUSH1 0x40 MLOAD SWAP1 JUMP JUMPDEST SWAP3 DUP4 PUSH3 0x4C JUMP JUMPDEST JUMP JUMPDEST PUSH1 0x1 PUSH1 0x1 PUSH1 0xA0 SHL SUB AND SWAP1 JUMP JUMPDEST SWAP1 JUMP JUMPDEST PUSH1 0x1 PUSH1 0x1 PUSH1 0xA0 SHL SUB DUP2 AND SUB PUSH3 0x31 JUMPI JUMP JUMPDEST SWAP1 POP MLOAD SWAP1 PUSH3 0x8B DUP3 PUSH3 0x9C JUMP JUMPDEST SWAP1 SWAP2 PUSH1 0x60 DUP3 DUP5 SUB SLT PUSH3 0x31 JUMPI PUSH3 0x99 PUSH3 0xDA DUP5 DUP5 PUSH3 0xAE JUMP JUMPDEST SWAP4 PUSH1 0x40 PUSH3 0xEC DUP3 PUSH1 0x20 DUP8 ADD PUSH3 0xAE JUMP JUMPDEST SWAP5 ADD PUSH3 0xAE JUMP JUMPDEST PUSH3 0x117 PUSH3 0x14B3 DUP1 CODESIZE SUB DUP1 PUSH3 0x10B DUP2 PUSH3 0x74 JUMP JUMPDEST SWAP3 DUP4 CODECOPY DUP2 ADD SWAP1 PUSH3 0xBD JUMP JUMPDEST SWAP1 SWAP2 SWAP3 JUMP JUMPDEST SWAP1 PUSH1 0x1 PUSH1 0x1 PUSH1 0xA0 SHL SUB SWAP1 JUMPDEST SWAP2 DUP2 NOT AND SWAP2 AND OR SWAP1 JUMP JUMPDEST PUSH3 0x99 SWAP1 PUSH3 0x8D SWAP1 PUSH1 0x1 PUSH1 0x1 PUSH1 0xA0 SHL SUB AND DUP3 JUMP JUMPDEST PUSH3 0x99 SWAP1 PUSH3 0x131 JUMP JUMPDEST PUSH3 0x99 SWAP1 PUSH3 0x147 JUMP JUMPDEST SWAP1 PUSH3 0x171 PUSH3 0x99 PUSH3 0x179 SWAP3 PUSH3 0x152 JUMP JUMPDEST DUP3 SLOAD PUSH3 0x11C JUMP JUMPDEST SWAP1 SSTORE JUMP JUMPDEST PUSH3 0x99 PUSH3 0x99 PUSH3 0x99 SWAP3 SWAP1 JUMP JUMPDEST SWAP1 PUSH1 0x0 NOT SWAP1 PUSH3 0x127 JUMP JUMPDEST SWAP1 PUSH3 0x1AC PUSH3 0x99 PUSH3 0x179 SWAP3 PUSH3 0x17D JUMP JUMPDEST DUP3 SLOAD PUSH3 0x18D JUMP JUMPDEST SWAP2 PUSH3 0x1FC PUSH3 0x202 SWAP3 PUSH3 0x1F4 PUSH3 0x8B SWAP6 PUSH3 0x1D4 CALLER PUSH1 0x0 PUSH3 0x15D JUMP JUMPDEST PUSH3 0x1EC PUSH3 0x1E4 PUSH1 0x1 PUSH3 0x17D JUMP JUMPDEST PUSH1 0x1 PUSH3 0x198 JUMP JUMPDEST PUSH1 0x5 PUSH3 0x15D JUMP JUMPDEST PUSH1 0x6 PUSH3 0x15D JUMP JUMPDEST PUSH3 0x152 JUMP JUMPDEST PUSH1 0x2 PUSH3 0x15D JUMP INVALID PUSH1 0x80 PUSH1 0x40 MSTORE PUSH1 0x4 CALLDATASIZE LT ISZERO PUSH2 0x12 JUMPI PUSH1 0x0 DUP1 REVERT JUMPDEST PUSH1 0x0 CALLDATALOAD PUSH1 0xE0 SHR DUP1 PUSH4 0xB791430 EQ PUSH2 0xD2 JUMPI DUP1 PUSH4 0x1A38CAC6 EQ PUSH2 0xCD JUMPI DUP1 PUSH4 0x30658198 EQ PUSH2 0xC8 JUMPI DUP1 PUSH4 0x3CCFD60B EQ PUSH2 0xC3 JUMPI DUP1 PUSH4 0x43425E88 EQ PUSH2 0xBE JUMPI DUP1 PUSH4 0x677BD9FF EQ PUSH2 0xB9 JUMPI DUP1 PUSH4 0x8822E6FD EQ PUSH2 0xB4 JUMPI DUP1 PUSH4 0x8DA5CB5B EQ PUSH2 0xAF JUMPI DUP1 PUSH4 0x977D996D EQ PUSH2 0xAA JUMPI DUP1 PUSH4 0x9A2E8240 EQ PUSH2 0xA5 JUMPI DUP1 PUSH4 0xBED524D6 EQ PUSH2 0xA0 JUMPI PUSH4 0xF644B3BB SUB PUSH2 0xE0 JUMPI PUSH2 0x4BC JUMP JUMPDEST PUSH2 0x43E JUMP JUMPDEST PUSH2 0x423 JUMP JUMPDEST PUSH2 0x3FF JUMP JUMPDEST PUSH2 0x3E4 JUMP JUMPDEST PUSH2 0x3C1 JUMP JUMPDEST PUSH2 0x3A9 JUMP JUMPDEST PUSH2 0x382 JUMP JUMPDEST PUSH2 0x31F JUMP JUMPDEST PUSH2 0x2F8 JUMP JUMPDEST PUSH2 0x28A JUMP JUMPDEST PUSH2 0x20D JUMP JUMPDEST DUP1 JUMPDEST SUB PUSH2 0xE0 JUMPI JUMP JUMPDEST PUSH1 0x0 DUP1 REVERT JUMPDEST SWAP1 POP CALLDATALOAD SWAP1 PUSH2 0xF2 DUP3 PUSH2 0xD7 JUMP JUMPDEST JUMP JUMPDEST SWAP1 PUSH1 0x20 DUP3 DUP3 SUB SLT PUSH2 0xE0 JUMPI PUSH2 0x108 SWAP2 PUSH2 0xE5 JUMP JUMPDEST SWAP1 JUMP JUMPDEST PUSH2 0x108 PUSH2 0x108 PUSH2 0x108 SWAP3 SWAP1 JUMP JUMPDEST SWAP1 PUSH2 0x122 SWAP1 PUSH2 0x10B JUMP JUMPDEST PUSH1 0x0 MSTORE PUSH1 0x20 MSTORE PUSH1 0x40 PUSH1 0x0 KECCAK256 SWAP1 JUMP JUMPDEST PUSH2 0x108 SWAP1 DUP2 JUMP JUMPDEST PUSH2 0x108 SWAP1 SLOAD PUSH2 0x130 JUMP JUMPDEST PUSH2 0x108 SWAP1 JUMPDEST PUSH1 0xFF AND SWAP1 JUMP JUMPDEST PUSH2 0x108 SWAP1 SLOAD PUSH2 0x141 JUMP JUMPDEST PUSH2 0x108 SWAP1 PUSH1 0x8 SHR PUSH2 0x146 JUMP JUMPDEST PUSH2 0x108 SWAP1 SLOAD PUSH2 0x156 JUMP JUMPDEST PUSH2 0x177 SWAP1 PUSH1 0x3 PUSH2 0x118 JUMP JUMPDEST PUSH2 0x180 DUP2 PUSH2 0x137 JUMP JUMPDEST SWAP2 PUSH2 0x18D PUSH1 0x1 DUP4 ADD PUSH2 0x137 JUMP JUMPDEST SWAP2 PUSH2 0x19A PUSH1 0x2 DUP3 ADD PUSH2 0x14C JUMP JUMPDEST SWAP2 PUSH2 0x1A7 PUSH1 0x2 DUP4 ADD PUSH2 0x162 JUMP JUMPDEST SWAP2 PUSH2 0x1B4 PUSH1 0x3 DUP3 ADD PUSH2 0x137 JUMP JUMPDEST SWAP2 PUSH2 0x108 PUSH1 0x5 PUSH2 0x1C6 PUSH1 0x4 DUP6 ADD PUSH2 0x137 JUMP JUMPDEST SWAP4 ADD PUSH2 0x14C JUMP JUMPDEST SWAP1 MSTORE JUMP JUMPDEST SWAP1 DUP2 MSTORE PUSH1 0xE0 DUP2 ADD SWAP8 SWAP7 SWAP6 SWAP1 SWAP5 SWAP1 SWAP4 SWAP1 SWAP3 SWAP1 SWAP2 PUSH1 0x20 DUP7 ADD MSTORE ISZERO ISZERO PUSH1 0x40 DUP6 ADD MSTORE ISZERO ISZERO PUSH1 0x60 DUP5 ADD MSTORE PUSH1 0x80 DUP4 ADD MSTORE PUSH1 0xA0 DUP3 ADD MSTORE PUSH1 0xC0 ADD PUSH2 0xF2 SWAP2 ISZERO ISZERO SWAP1 MSTORE JUMP JUMPDEST CALLVALUE PUSH2 0xE0 JUMPI PUSH2 0x241 PUSH2 0x228 PUSH2 0x223 CALLDATASIZE PUSH1 0x4 PUSH2 0xF4 JUMP JUMPDEST PUSH2 0x16C JUMP JUMPDEST SWAP4 PUSH2 0x238 SWAP8 SWAP6 SWAP8 SWAP4 SWAP2 SWAP4 PUSH1 0x40 MLOAD SWAP1 JUMP JUMPDEST SWAP8 DUP9 SWAP8 DUP9 PUSH2 0x1D1 JUMP JUMPDEST SUB SWAP1 RETURN JUMPDEST DUP1 ISZERO ISZERO PUSH2 0xD9 JUMP JUMPDEST SWAP1 POP CALLDATALOAD SWAP1 PUSH2 0xF2 DUP3 PUSH2 0x245 JUMP JUMPDEST SWAP1 SWAP2 PUSH1 0x60 DUP3 DUP5 SUB SLT PUSH2 0xE0 JUMPI PUSH2 0x108 PUSH2 0x273 DUP5 DUP5 PUSH2 0xE5 JUMP JUMPDEST SWAP4 PUSH1 0x40 PUSH2 0x283 DUP3 PUSH1 0x20 DUP8 ADD PUSH2 0x24D JUMP JUMPDEST SWAP5 ADD PUSH2 0xE5 JUMP JUMPDEST CALLVALUE PUSH2 0xE0 JUMPI PUSH2 0x2A3 PUSH2 0x29D CALLDATASIZE PUSH1 0x4 PUSH2 0x25A JUMP JUMPDEST SWAP2 PUSH2 0x9BE JUMP JUMPDEST PUSH1 0x40 MLOAD STOP JUMPDEST PUSH1 0x0 SWAP2 SUB SLT PUSH2 0xE0 JUMPI JUMP JUMPDEST PUSH2 0x108 SWAP2 PUSH1 0x8 MUL SHR JUMPDEST PUSH1 0x1 PUSH1 0x1 PUSH1 0xA0 SHL SUB AND SWAP1 JUMP JUMPDEST SWAP1 PUSH2 0x108 SWAP2 SLOAD PUSH2 0x2B3 JUMP JUMPDEST PUSH2 0x108 PUSH1 0x0 PUSH1 0x5 PUSH2 0x2C8 JUMP JUMPDEST PUSH2 0x1CD SWAP1 PUSH2 0x2BC JUMP JUMPDEST PUSH1 0x20 DUP2 ADD SWAP3 SWAP2 PUSH2 0xF2 SWAP2 SWAP1 PUSH2 0x2DF JUMP JUMPDEST CALLVALUE PUSH2 0xE0 JUMPI PUSH2 0x308 CALLDATASIZE PUSH1 0x4 PUSH2 0x2A8 JUMP JUMPDEST PUSH2 0x241 PUSH2 0x313 PUSH2 0x2D3 JUMP JUMPDEST PUSH1 0x40 MLOAD SWAP2 DUP3 SWAP2 DUP3 PUSH2 0x2E8 JUMP JUMPDEST CALLVALUE PUSH2 0xE0 JUMPI PUSH2 0x32F CALLDATASIZE PUSH1 0x4 PUSH2 0x2A8 JUMP JUMPDEST PUSH2 0x2A3 PUSH2 0xBD8 JUMP JUMPDEST PUSH2 0x108 PUSH1 0x0 PUSH1 0x2 PUSH2 0x2C8 JUMP JUMPDEST PUSH2 0x108 SWAP1 PUSH2 0x2BC SWAP1 PUSH1 0x1 PUSH1 0x1 PUSH1 0xA0 SHL SUB AND DUP3 JUMP JUMPDEST PUSH2 0x108 SWAP1 PUSH2 0x343 JUMP JUMPDEST PUSH2 0x108 SWAP1 PUSH2 0x357 JUMP JUMPDEST PUSH2 0x1CD SWAP1 PUSH2 0x360 JUMP JUMPDEST PUSH1 0x20 DUP2 ADD SWAP3 SWAP2 PUSH2 0xF2 SWAP2 SWAP1 PUSH2 0x369 JUMP JUMPDEST CALLVALUE PUSH2 0xE0 JUMPI PUSH2 0x392 CALLDATASIZE PUSH1 0x4 PUSH2 0x2A8 JUMP JUMPDEST PUSH2 0x241 PUSH2 0x39D PUSH2 0x337 JUMP JUMPDEST PUSH1 0x40 MLOAD SWAP2 DUP3 SWAP2 DUP3 PUSH2 0x372 JUMP JUMPDEST CALLVALUE PUSH2 0xE0 JUMPI PUSH2 0x2A3 PUSH2 0x3BC CALLDATASIZE PUSH1 0x4 PUSH2 0xF4 JUMP JUMPDEST PUSH2 0xD6E JUMP JUMPDEST CALLVALUE PUSH2 0xE0 JUMPI PUSH2 0x2A3 PUSH2 0x3D4 CALLDATASIZE PUSH1 0x4 PUSH2 0xF4 JUMP JUMPDEST PUSH2 0xF90 JUMP JUMPDEST PUSH2 0x108 PUSH1 0x0 DUP1 PUSH2 0x2C8 JUMP JUMPDEST CALLVALUE PUSH2 0xE0 JUMPI PUSH2 0x3F4 CALLDATASIZE PUSH1 0x4 PUSH2 0x2A8 JUMP JUMPDEST PUSH2 0x241 PUSH2 0x313 PUSH2 0x3D9 JUMP JUMPDEST CALLVALUE PUSH2 0xE0 JUMPI PUSH2 0x2A3 PUSH2 0x412 CALLDATASIZE PUSH1 0x4 PUSH2 0xF4 JUMP JUMPDEST PUSH2 0xFD1 JUMP JUMPDEST PUSH2 0x108 PUSH1 0x0 PUSH1 0x6 PUSH2 0x2C8 JUMP JUMPDEST CALLVALUE PUSH2 0xE0 JUMPI PUSH2 0x433 CALLDATASIZE PUSH1 0x4 PUSH2 0x2A8 JUMP JUMPDEST PUSH2 0x241 PUSH2 0x313 PUSH2 0x417 JUMP JUMPDEST CALLVALUE PUSH2 0xE0 JUMPI PUSH2 0x2A3 PUSH2 0x451 CALLDATASIZE PUSH1 0x4 PUSH2 0xF4 JUMP JUMPDEST PUSH2 0x1269 JUMP JUMPDEST PUSH2 0xD9 DUP2 PUSH2 0x2BC JUMP JUMPDEST SWAP1 POP CALLDATALOAD SWAP1 PUSH2 0xF2 DUP3 PUSH2 0x456 JUMP JUMPDEST SWAP2 SWAP1 PUSH1 0x40 DUP4 DUP3 SUB SLT PUSH2 0xE0 JUMPI PUSH2 0x108 SWAP1 PUSH1 0x20 PUSH2 0x488 DUP3 DUP7 PUSH2 0xE5 JUMP JUMPDEST SWAP5 ADD PUSH2 0x45F JUMP JUMPDEST SWAP1 PUSH2 0x122 SWAP1 PUSH2 0x360 JUMP JUMPDEST SWAP1 PUSH2 0x4A8 PUSH2 0x4AD SWAP3 PUSH1 0x4 PUSH2 0x118 JUMP JUMPDEST PUSH2 0x48F JUMP JUMPDEST SWAP1 PUSH2 0x108 PUSH1 0x1 PUSH2 0x1C6 DUP5 PUSH2 0x137 JUMP JUMPDEST CALLVALUE PUSH2 0xE0 JUMPI PUSH2 0x4D5 PUSH2 0x4CF CALLDATASIZE PUSH1 0x4 PUSH2 0x46C JUMP JUMPDEST SWAP1 PUSH2 0x499 JUMP JUMPDEST SWAP1 PUSH2 0x241 PUSH2 0x4E2 PUSH1 0x40 MLOAD SWAP1 JUMP JUMPDEST SWAP3 DUP4 SWAP3 DUP4 SWAP1 DUP2 MSTORE SWAP1 ISZERO ISZERO PUSH1 0x20 DUP3 ADD MSTORE PUSH1 0x40 ADD SWAP1 JUMP JUMPDEST ISZERO PUSH2 0x4FE JUMPI JUMP JUMPDEST PUSH1 0x40 MLOAD PUSH3 0x461BCD PUSH1 0xE5 SHL DUP2 MSTORE PUSH1 0x20 PUSH1 0x4 DUP3 ADD MSTORE PUSH1 0x18 PUSH1 0x24 DUP3 ADD MSTORE PUSH32 0x4576656E7420686173206265656E207265736F6C7665642E0000000000000000 PUSH1 0x44 DUP3 ADD MSTORE PUSH1 0x64 SWAP1 REVERT JUMPDEST SWAP1 PUSH2 0xF2 SWAP3 SWAP2 PUSH2 0x56E PUSH2 0x569 PUSH2 0x565 PUSH1 0x2 PUSH2 0x55F DUP6 PUSH1 0x3 PUSH2 0x118 JUMP JUMPDEST ADD PUSH2 0x162 JUMP JUMPDEST ISZERO SWAP1 JUMP JUMPDEST PUSH2 0x4F7 JUMP JUMPDEST PUSH2 0x819 JUMP JUMPDEST ISZERO PUSH2 0x57A JUMPI JUMP JUMPDEST PUSH1 0x40 MLOAD PUSH3 0x461BCD PUSH1 0xE5 SHL DUP2 MSTORE PUSH1 0x20 PUSH1 0x4 DUP3 ADD MSTORE PUSH1 0x21 PUSH1 0x24 DUP3 ADD MSTORE PUSH32 0x42657474696E672069732074656D706F726172696C792073757370656E646564 PUSH1 0x44 DUP3 ADD MSTORE PUSH1 0x17 PUSH1 0xF9 SHL PUSH1 0x64 DUP3 ADD MSTORE PUSH1 0x84 SWAP1 REVERT JUMPDEST PUSH2 0x108 SWAP1 PUSH2 0x2BC JUMP JUMPDEST PUSH2 0x108 SWAP1 SLOAD PUSH2 0x5C9 JUMP JUMPDEST PUSH4 0x4E487B71 PUSH1 0xE0 SHL PUSH1 0x0 MSTORE PUSH1 0x41 PUSH1 0x4 MSTORE PUSH1 0x24 PUSH1 0x0 REVERT JUMPDEST SWAP1 PUSH1 0x1F ADD PUSH1 0x1F NOT AND DUP2 ADD SWAP1 DUP2 LT PUSH8 0xFFFFFFFFFFFFFFFF DUP3 GT OR PUSH2 0x614 JUMPI PUSH1 0x40 MSTORE JUMP JUMPDEST PUSH2 0x5DC JUMP JUMPDEST SWAP1 POP MLOAD SWAP1 PUSH2 0xF2 DUP3 PUSH2 0x245 JUMP JUMPDEST SWAP1 PUSH1 0x20 DUP3 DUP3 SUB SLT PUSH2 0xE0 JUMPI PUSH2 0x108 SWAP2 PUSH2 0x619 JUMP JUMPDEST PUSH1 0x40 SWAP1 PUSH2 0x664 PUSH2 0xF2 SWAP5 SWAP7 SWAP6 SWAP4 SWAP7 PUSH2 0x65A PUSH1 0x60 DUP5 ADD SWAP9 PUSH1 0x0 DUP6 ADD SWAP1 PUSH2 0x2DF JUMP JUMPDEST PUSH1 0x20 DUP4 ADD SWAP1 PUSH2 0x2DF JUMP JUMPDEST ADD MSTORE JUMP JUMPDEST PUSH1 0x40 MLOAD RETURNDATASIZE PUSH1 0x0 DUP3 RETURNDATACOPY RETURNDATASIZE SWAP1 REVERT JUMPDEST ISZERO PUSH2 0x67B JUMPI JUMP JUMPDEST PUSH1 0x40 MLOAD PUSH3 0x461BCD PUSH1 0xE5 SHL DUP2 MSTORE PUSH1 0x20 PUSH1 0x4 DUP3 ADD MSTORE PUSH1 0x1E PUSH1 0x24 DUP3 ADD MSTORE PUSH32 0x4661696C656420746F207472616E736665722062657420746F6B656E732E0000 PUSH1 0x44 DUP3 ADD MSTORE PUSH1 0x64 SWAP1 REVERT JUMPDEST ISZERO PUSH2 0x6C7 JUMPI JUMP JUMPDEST PUSH1 0x40 MLOAD PUSH3 0x461BCD PUSH1 0xE5 SHL DUP2 MSTORE PUSH1 0x20 PUSH1 0x4 DUP3 ADD MSTORE PUSH1 0x1E PUSH1 0x24 DUP3 ADD MSTORE PUSH32 0x557365722068617320616C726561647920706C616365642061206265742E0000 PUSH1 0x44 DUP3 ADD MSTORE PUSH1 0x64 SWAP1 REVERT JUMPDEST ISZERO PUSH2 0x713 JUMPI JUMP JUMPDEST PUSH1 0x40 MLOAD PUSH3 0x461BCD PUSH1 0xE5 SHL DUP2 MSTORE PUSH1 0x20 PUSH1 0x4 DUP3 ADD MSTORE PUSH1 0x11 PUSH1 0x24 DUP3 ADD MSTORE PUSH17 0x24B73B30B634B21032BB32B73A1024A217 PUSH1 0x79 SHL PUSH1 0x44 DUP3 ADD MSTORE PUSH1 0x64 SWAP1 REVERT JUMPDEST SWAP1 PUSH2 0xF2 PUSH2 0x759 PUSH1 0x40 MLOAD SWAP1 JUMP JUMPDEST SWAP3 DUP4 PUSH2 0x5F2 JUMP JUMPDEST PUSH2 0x108 PUSH1 0x40 PUSH2 0x74C JUMP JUMPDEST SWAP1 PUSH1 0x0 NOT SWAP1 JUMPDEST SWAP2 DUP2 NOT AND SWAP2 AND OR SWAP1 JUMP JUMPDEST SWAP1 PUSH2 0x78A PUSH2 0x108 PUSH2 0x791 SWAP3 PUSH2 0x10B JUMP JUMPDEST DUP3 SLOAD PUSH2 0x76A JUMP JUMPDEST SWAP1 SSTORE JUMP JUMPDEST SWAP1 PUSH1 0xFF SWAP1 PUSH2 0x770 JUMP JUMPDEST ISZERO ISZERO SWAP1 JUMP JUMPDEST SWAP1 PUSH2 0x7B3 PUSH2 0x108 PUSH2 0x791 SWAP3 ISZERO ISZERO SWAP1 JUMP JUMPDEST DUP3 SLOAD PUSH2 0x795 JUMP JUMPDEST PUSH1 0x1 PUSH2 0x7E0 PUSH1 0x20 PUSH2 0xF2 SWAP5 PUSH2 0x7D9 PUSH2 0x7D3 PUSH1 0x0 DUP4 ADD MLOAD SWAP1 JUMP JUMPDEST DUP7 PUSH2 0x77A JUMP JUMPDEST ADD MLOAD ISZERO ISZERO SWAP1 JUMP JUMPDEST SWAP2 ADD PUSH2 0x7A3 JUMP JUMPDEST SWAP1 PUSH2 0xF2 SWAP2 PUSH2 0x7BA JUMP JUMPDEST PUSH4 0x4E487B71 PUSH1 0xE0 SHL PUSH1 0x0 MSTORE PUSH1 0x11 PUSH1 0x4 MSTORE PUSH1 0x24 PUSH1 0x0 REVERT JUMPDEST SWAP2 SWAP1 DUP3 ADD DUP1 SWAP3 GT PUSH2 0x814 JUMPI JUMP JUMPDEST PUSH2 0x7F1 JUMP JUMPDEST PUSH1 0x3 SWAP3 SWAP2 PUSH2 0x83D PUSH2 0x838 PUSH2 0x565 PUSH1 0x5 PUSH2 0x832 DUP7 DUP10 PUSH2 0x118 JUMP JUMPDEST ADD PUSH2 0x14C JUMP JUMPDEST PUSH2 0x573 JUMP JUMPDEST PUSH2 0x889 PUSH1 0x20 DUP5 PUSH2 0x855 PUSH2 0x850 PUSH1 0x2 PUSH2 0x5D2 JUMP JUMPDEST PUSH2 0x360 JUMP JUMPDEST PUSH2 0x85E ADDRESS PUSH2 0x360 JUMP JUMPDEST PUSH1 0x0 PUSH2 0x869 PUSH1 0x40 MLOAD SWAP1 JUMP JUMPDEST DUP1 SWAP7 DUP2 SWAP6 DUP3 SWAP5 PUSH2 0x87D PUSH4 0x23B872DD PUSH1 0xE0 SHL SWAP1 JUMP JUMPDEST DUP5 MSTORE CALLER PUSH1 0x4 DUP6 ADD PUSH2 0x63A JUMP JUMPDEST SUB SWAP3 GAS CALL DUP1 ISZERO PUSH2 0x9B9 JUMPI PUSH2 0x8A5 SWAP2 PUSH1 0x0 SWAP2 PUSH2 0x98A JUMPI JUMPDEST POP PUSH2 0x674 JUMP JUMPDEST PUSH1 0x4 SWAP1 PUSH2 0x8E1 PUSH2 0x8CA PUSH1 0x0 PUSH2 0x8C4 PUSH2 0x8BD DUP8 DUP8 PUSH2 0x118 JUMP JUMPDEST CALLER SWAP1 PUSH2 0x48F JUMP JUMPDEST ADD PUSH2 0x137 JUMP JUMPDEST PUSH2 0x8DB PUSH2 0x8D7 PUSH1 0x0 PUSH2 0x10B JUMP JUMPDEST SWAP2 SWAP1 JUMP JUMPDEST EQ PUSH2 0x6C0 JUMP JUMPDEST PUSH2 0x907 PUSH2 0x8F3 PUSH1 0x0 PUSH2 0x8C4 DUP7 DUP10 PUSH2 0x118 JUMP JUMPDEST PUSH2 0x900 PUSH2 0x8D7 PUSH1 0x0 PUSH2 0x10B JUMP JUMPDEST EQ ISZERO PUSH2 0x70C JUMP JUMPDEST PUSH2 0x934 PUSH2 0x912 PUSH2 0x760 JUMP JUMPDEST PUSH2 0x91A DUP7 DUP3 MSTORE JUMP JUMPDEST DUP3 ISZERO ISZERO PUSH1 0x20 DUP3 ADD MSTORE PUSH2 0x92F PUSH2 0x8BD DUP7 DUP7 PUSH2 0x118 JUMP JUMPDEST PUSH2 0x7E7 JUMP JUMPDEST PUSH2 0x95B DUP6 PUSH2 0x942 DUP6 DUP3 PUSH2 0x118 JUMP JUMPDEST ADD PUSH2 0x955 DUP7 PUSH2 0x950 DUP4 PUSH2 0x137 JUMP JUMPDEST PUSH2 0x807 JUMP JUMPDEST SWAP1 PUSH2 0x77A JUMP JUMPDEST PUSH2 0x966 JUMPI JUMPDEST POP POP POP POP JUMP JUMPDEST PUSH2 0x976 PUSH2 0x955 SWAP3 PUSH2 0x981 SWAP6 PUSH2 0x118 JUMP JUMPDEST ADD SWAP2 PUSH2 0x950 DUP4 PUSH2 0x137 JUMP JUMPDEST CODESIZE DUP1 DUP1 DUP1 PUSH2 0x960 JUMP JUMPDEST PUSH2 0x9AC SWAP2 POP PUSH1 0x20 RETURNDATASIZE PUSH1 0x20 GT PUSH2 0x9B2 JUMPI JUMPDEST PUSH2 0x9A4 DUP2 DUP4 PUSH2 0x5F2 JUMP JUMPDEST DUP2 ADD SWAP1 PUSH2 0x626 JUMP JUMPDEST CODESIZE PUSH2 0x89F JUMP JUMPDEST POP RETURNDATASIZE PUSH2 0x99A JUMP JUMPDEST PUSH2 0x668 JUMP JUMPDEST SWAP1 PUSH2 0xF2 SWAP3 SWAP2 PUSH2 0x543 JUMP JUMPDEST ISZERO PUSH2 0x9D0 JUMPI JUMP JUMPDEST PUSH1 0x40 MLOAD PUSH3 0x461BCD PUSH1 0xE5 SHL DUP2 MSTORE PUSH1 0x20 PUSH1 0x4 DUP3 ADD MSTORE PUSH1 0x22 PUSH1 0x24 DUP3 ADD MSTORE PUSH32 0x4F6E6C79206F776E65722063616E2063616C6C20746869732066756E6374696F PUSH1 0x44 DUP3 ADD MSTORE PUSH2 0x3717 PUSH1 0xF1 SHL PUSH1 0x64 DUP3 ADD MSTORE PUSH1 0x84 SWAP1 REVERT JUMPDEST PUSH2 0xA44 PUSH2 0xA35 PUSH2 0xA30 PUSH1 0x0 PUSH2 0x5D2 JUMP JUMPDEST PUSH2 0x2BC JUMP JUMPDEST PUSH2 0xA3E CALLER PUSH2 0x2BC JUMP JUMPDEST EQ PUSH2 0x9C9 JUMP JUMPDEST PUSH2 0xF2 PUSH2 0xAD4 JUMP JUMPDEST SWAP1 POP MLOAD SWAP1 PUSH2 0xF2 DUP3 PUSH2 0xD7 JUMP JUMPDEST SWAP1 PUSH1 0x20 DUP3 DUP3 SUB SLT PUSH2 0xE0 JUMPI PUSH2 0x108 SWAP2 PUSH2 0xA4C JUMP JUMPDEST SWAP2 PUSH1 0x20 PUSH2 0xF2 SWAP3 SWAP5 SWAP4 PUSH2 0x664 PUSH1 0x40 DUP3 ADD SWAP7 PUSH1 0x0 DUP4 ADD SWAP1 PUSH2 0x2DF JUMP JUMPDEST ISZERO PUSH2 0xA8F JUMPI JUMP JUMPDEST PUSH1 0x40 MLOAD PUSH3 0x461BCD PUSH1 0xE5 SHL DUP2 MSTORE PUSH1 0x20 PUSH1 0x4 DUP3 ADD MSTORE PUSH1 0x1A PUSH1 0x24 DUP3 ADD MSTORE PUSH32 0x4661696C656420746F207472616E7366657220746F6B656E732E000000000000 PUSH1 0x44 DUP3 ADD MSTORE PUSH1 0x64 SWAP1 REVERT JUMPDEST PUSH2 0xB14 PUSH1 0x20 PUSH2 0xAE6 PUSH2 0x850 PUSH1 0x2 PUSH2 0x5D2 JUMP JUMPDEST PUSH2 0xAEF ADDRESS PUSH2 0x360 JUMP JUMPDEST SWAP1 PUSH2 0xAF9 PUSH1 0x40 MLOAD SWAP1 JUMP JUMPDEST SWAP4 DUP5 SWAP3 DUP4 SWAP2 DUP3 SWAP2 PUSH4 0x70A08231 PUSH1 0xE0 SHL JUMPDEST DUP4 MSTORE PUSH1 0x4 DUP4 ADD PUSH2 0x2E8 JUMP JUMPDEST SUB SWAP2 GAS STATICCALL SWAP1 DUP2 ISZERO PUSH2 0x9B9 JUMPI PUSH2 0xB70 SWAP2 PUSH1 0x20 SWAP2 PUSH1 0x0 SWAP2 PUSH2 0xBAB JUMPI JUMPDEST POP PUSH2 0xB3C PUSH2 0x850 PUSH1 0x2 PUSH2 0x5D2 JUMP JUMPDEST PUSH2 0xB46 PUSH1 0x0 PUSH2 0x5D2 JUMP JUMPDEST PUSH1 0x0 PUSH2 0xB51 PUSH1 0x40 MLOAD SWAP1 JUMP JUMPDEST DUP1 SWAP7 DUP2 SWAP6 DUP3 SWAP5 PUSH2 0xB65 PUSH4 0xA9059CBB PUSH1 0xE0 SHL SWAP1 JUMP JUMPDEST DUP5 MSTORE PUSH1 0x4 DUP5 ADD PUSH2 0xA6D JUMP JUMPDEST SUB SWAP3 GAS CALL DUP1 ISZERO PUSH2 0x9B9 JUMPI PUSH2 0xF2 SWAP2 PUSH1 0x0 SWAP2 PUSH2 0xB8C JUMPI JUMPDEST POP PUSH2 0xA88 JUMP JUMPDEST PUSH2 0xBA5 SWAP2 POP PUSH1 0x20 RETURNDATASIZE PUSH1 0x20 GT PUSH2 0x9B2 JUMPI PUSH2 0x9A4 DUP2 DUP4 PUSH2 0x5F2 JUMP JUMPDEST CODESIZE PUSH2 0xB86 JUMP JUMPDEST PUSH2 0xBCB SWAP2 POP DUP3 RETURNDATASIZE DUP5 GT PUSH2 0xBD1 JUMPI JUMPDEST PUSH2 0xBC3 DUP2 DUP4 PUSH2 0x5F2 JUMP JUMPDEST DUP2 ADD SWAP1 PUSH2 0xA59 JUMP JUMPDEST CODESIZE PUSH2 0xB2E JUMP JUMPDEST POP RETURNDATASIZE PUSH2 0xBB9 JUMP JUMPDEST PUSH2 0xF2 PUSH2 0xA20 JUMP JUMPDEST ISZERO PUSH2 0xBE7 JUMPI JUMP JUMPDEST PUSH1 0x40 MLOAD PUSH3 0x461BCD PUSH1 0xE5 SHL DUP2 MSTORE PUSH1 0x20 PUSH1 0x4 DUP3 ADD MSTORE PUSH1 0x1C PUSH1 0x24 DUP3 ADD MSTORE PUSH32 0x4576656E7420686173206E6F74206265656E207265736F6C7665642E00000000 PUSH1 0x44 DUP3 ADD MSTORE PUSH1 0x64 SWAP1 REVERT JUMPDEST ISZERO PUSH2 0xC33 JUMPI JUMP JUMPDEST PUSH1 0x40 MLOAD PUSH3 0x461BCD PUSH1 0xE5 SHL DUP2 MSTORE PUSH1 0x20 PUSH1 0x4 DUP3 ADD MSTORE PUSH1 0x19 PUSH1 0x24 DUP3 ADD MSTORE PUSH32 0x5573657220686173206E6F2062657420746F20636C61696D2E00000000000000 PUSH1 0x44 DUP3 ADD MSTORE PUSH1 0x64 SWAP1 REVERT JUMPDEST DUP2 DUP2 MUL SWAP3 SWAP2 DUP2 ISZERO SWAP2 DUP5 DIV EQ OR ISZERO PUSH2 0x814 JUMPI JUMP JUMPDEST PUSH4 0x4E487B71 PUSH1 0xE0 SHL PUSH1 0x0 MSTORE PUSH1 0x12 PUSH1 0x4 MSTORE PUSH1 0x24 PUSH1 0x0 REVERT JUMPDEST DUP2 ISZERO PUSH2 0xCAB JUMPI DIV SWAP1 JUMP JUMPDEST PUSH2 0xC8B JUMP JUMPDEST ISZERO PUSH2 0xCB7 JUMPI JUMP JUMPDEST PUSH1 0x40 MLOAD PUSH3 0x461BCD PUSH1 0xE5 SHL DUP2 MSTORE PUSH1 0x20 PUSH1 0x4 DUP3 ADD MSTORE PUSH1 0x38 PUSH1 0x24 DUP3 ADD MSTORE PUSH32 0x496E73756666696369656E7420636F6E747261637420746F6B656E2062616C61 PUSH1 0x44 DUP3 ADD MSTORE PUSH32 0x6E636520746F20706179206F75742077696E6E696E67732E0000000000000000 PUSH1 0x64 DUP3 ADD MSTORE PUSH1 0x84 SWAP1 REVERT JUMPDEST ISZERO PUSH2 0xD29 JUMPI JUMP JUMPDEST PUSH1 0x40 MLOAD PUSH3 0x461BCD PUSH1 0xE5 SHL DUP2 MSTORE PUSH1 0x20 PUSH1 0x4 DUP3 ADD MSTORE PUSH1 0x1C PUSH1 0x24 DUP3 ADD MSTORE PUSH32 0x4661696C656420746F207472616E736665722077696E6E696E67732E00000000 PUSH1 0x44 DUP3 ADD MSTORE PUSH1 0x64 SWAP1 REVERT JUMPDEST PUSH1 0x3 SWAP1 PUSH2 0xD88 PUSH2 0xD83 PUSH1 0x2 PUSH2 0x55F DUP5 DUP7 PUSH2 0x118 JUMP JUMPDEST PUSH2 0xBE0 JUMP JUMPDEST PUSH2 0xD99 PUSH2 0x108 PUSH2 0x8BD DUP4 PUSH1 0x4 PUSH2 0x118 JUMP JUMPDEST PUSH2 0xDA2 DUP2 PUSH2 0x137 JUMP JUMPDEST SWAP3 PUSH2 0xDBB PUSH1 0x0 SWAP5 PUSH2 0xDB5 PUSH2 0x8D7 DUP8 PUSH2 0x10B JUMP JUMPDEST GT PUSH2 0xC2C JUMP JUMPDEST PUSH2 0xDC4 DUP5 PUSH2 0x10B JUMP JUMPDEST SWAP3 PUSH2 0xDD1 PUSH1 0x1 DUP5 ADD PUSH2 0x14C JUMP JUMPDEST PUSH2 0xDEC PUSH2 0xDE6 PUSH2 0x79E PUSH1 0x2 PUSH2 0x832 DUP7 DUP9 PUSH2 0x118 JUMP JUMPDEST SWAP2 ISZERO ISZERO SWAP1 JUMP JUMPDEST SUB PUSH2 0xF46 JUMPI SWAP1 PUSH2 0xE14 PUSH1 0x4 PUSH2 0x8C4 DUP5 PUSH2 0xE0E DUP6 PUSH2 0x8C4 PUSH2 0xE6A SWAP11 SWAP10 SWAP9 DUP3 PUSH2 0x118 JUMP JUMPDEST SWAP5 PUSH2 0x118 JUMP JUMPDEST SWAP1 DUP4 DUP3 GT PUSH2 0xF1B JUMPI JUMPDEST POP POP PUSH2 0xE34 SWAP1 DUP5 PUSH2 0xE2D DUP2 PUSH2 0x10B JUMP JUMPDEST SWAP2 ADD PUSH2 0x77A JUMP JUMPDEST PUSH1 0x20 PUSH2 0xE43 PUSH2 0x850 PUSH1 0x2 PUSH2 0x5D2 JUMP JUMPDEST PUSH2 0xE4C ADDRESS PUSH2 0x360 JUMP JUMPDEST SWAP1 PUSH2 0xE56 PUSH1 0x40 MLOAD SWAP1 JUMP JUMPDEST SWAP5 DUP6 SWAP3 DUP4 SWAP2 DUP3 SWAP2 PUSH4 0x70A08231 PUSH1 0xE0 SHL PUSH2 0xB09 JUMP JUMPDEST SUB SWAP2 GAS STATICCALL SWAP1 DUP2 ISZERO PUSH2 0x9B9 JUMPI PUSH2 0xE90 PUSH2 0xEC3 SWAP3 PUSH1 0x20 SWAP5 PUSH1 0x0 SWAP2 PUSH2 0xEFE JUMPI JUMPDEST POP DUP3 GT ISZERO PUSH2 0xCB0 JUMP JUMPDEST PUSH2 0xE9D PUSH2 0x850 PUSH1 0x2 PUSH2 0x5D2 JUMP JUMPDEST SWAP1 PUSH2 0xEA7 PUSH1 0x40 MLOAD SWAP1 JUMP JUMPDEST SWAP5 DUP6 SWAP4 DUP5 SWAP3 DUP4 SWAP2 SWAP1 PUSH4 0xA9059CBB PUSH1 0xE0 SHL DUP4 MSTORE CALLER PUSH1 0x4 DUP5 ADD PUSH2 0xA6D JUMP JUMPDEST SUB SWAP3 GAS CALL DUP1 ISZERO PUSH2 0x9B9 JUMPI PUSH2 0xF2 SWAP2 PUSH1 0x0 SWAP2 PUSH2 0xEDF JUMPI JUMPDEST POP PUSH2 0xD22 JUMP JUMPDEST PUSH2 0xEF8 SWAP2 POP PUSH1 0x20 RETURNDATASIZE PUSH1 0x20 GT PUSH2 0x9B2 JUMPI PUSH2 0x9A4 DUP2 DUP4 PUSH2 0x5F2 JUMP JUMPDEST CODESIZE PUSH2 0xED9 JUMP JUMPDEST PUSH2 0xF15 SWAP2 POP DUP6 RETURNDATASIZE DUP8 GT PUSH2 0xBD1 JUMPI PUSH2 0xBC3 DUP2 DUP4 PUSH2 0x5F2 JUMP JUMPDEST CODESIZE PUSH2 0xE87 JUMP JUMPDEST DUP3 SWAP4 POP SWAP1 PUSH2 0xF39 PUSH2 0xF3E SWAP3 PUSH2 0xF34 DUP9 PUSH2 0xE34 SWAP7 ADD PUSH2 0x137 JUMP JUMPDEST PUSH2 0xC78 JUMP JUMPDEST PUSH2 0xCA1 JUMP JUMPDEST SWAP2 SWAP1 CODESIZE PUSH2 0xE1D JUMP JUMPDEST POP POP SWAP2 PUSH2 0xF2 SWAP3 ADD PUSH2 0x77A JUMP JUMPDEST PUSH2 0xF2 SWAP1 PUSH2 0xF67 PUSH2 0xA35 PUSH2 0xA30 PUSH1 0x0 PUSH2 0x5D2 JUMP JUMPDEST PUSH2 0xF2 SWAP1 PUSH1 0x5 PUSH2 0xF8A PUSH2 0xF82 PUSH2 0x565 DUP4 PUSH2 0x832 DUP7 PUSH1 0x3 PUSH2 0x118 JUMP JUMPDEST SWAP3 PUSH1 0x3 PUSH2 0x118 JUMP JUMPDEST ADD PUSH2 0x7A3 JUMP JUMPDEST PUSH2 0xF2 SWAP1 PUSH2 0xF53 JUMP JUMPDEST PUSH1 0x0 NOT DUP2 EQ PUSH2 0x814 JUMPI PUSH1 0x1 ADD SWAP1 JUMP JUMPDEST SWAP1 DUP2 MSTORE PUSH1 0x40 DUP2 ADD SWAP3 SWAP2 PUSH2 0xF2 SWAP2 PUSH1 0x20 ADD MSTORE JUMP JUMPDEST SWAP1 DUP2 MSTORE PUSH1 0x40 DUP2 ADD SWAP3 SWAP2 PUSH2 0xF2 SWAP2 PUSH1 0x20 ADD SWAP1 PUSH2 0x2DF JUMP JUMPDEST PUSH2 0xFDB PUSH1 0x1 PUSH2 0x137 JUMP JUMPDEST SWAP1 PUSH2 0xFEF PUSH2 0xFE8 DUP4 PUSH2 0xF99 JUMP JUMPDEST PUSH1 0x1 PUSH2 0x77A JUMP JUMPDEST PUSH2 0x1006 DUP3 PUSH1 0x0 PUSH2 0x1000 DUP3 PUSH1 0x3 PUSH2 0x118 JUMP JUMPDEST ADD PUSH2 0x77A JUMP JUMPDEST PUSH2 0x1017 DUP2 PUSH1 0x1 PUSH2 0x1000 DUP6 PUSH1 0x3 PUSH2 0x118 JUMP JUMPDEST PUSH2 0x1027 PUSH2 0x850 PUSH2 0x850 PUSH1 0x5 PUSH2 0x5D2 JUMP JUMPDEST DUP1 EXTCODESIZE ISZERO PUSH2 0xE0 JUMPI PUSH2 0x105C PUSH1 0x0 SWAP3 SWAP2 DUP4 SWAP3 PUSH2 0x1040 PUSH1 0x40 MLOAD SWAP1 JUMP JUMPDEST SWAP5 DUP6 SWAP4 DUP5 SWAP3 DUP4 SWAP2 SWAP1 PUSH4 0x938CFD67 PUSH1 0xE0 SHL DUP4 MSTORE DUP10 PUSH1 0x4 DUP5 ADD PUSH2 0xFA8 JUMP JUMPDEST SUB SWAP3 GAS CALL DUP1 ISZERO PUSH2 0x9B9 JUMPI PUSH2 0x10DB JUMPI JUMPDEST POP PUSH2 0x107C PUSH2 0x850 PUSH2 0x850 PUSH1 0x6 PUSH2 0x5D2 JUMP JUMPDEST DUP1 EXTCODESIZE ISZERO PUSH2 0xE0 JUMPI PUSH2 0x10B2 PUSH1 0x0 SWAP3 SWAP2 DUP4 SWAP3 PUSH2 0x1095 PUSH1 0x40 MLOAD SWAP1 JUMP JUMPDEST SWAP5 DUP6 SWAP4 DUP5 SWAP3 DUP4 SWAP2 SWAP1 PUSH4 0x94BF804D PUSH1 0xE0 SHL DUP4 MSTORE CALLER SWAP1 PUSH1 0x4 DUP5 ADD PUSH2 0xFBB JUMP JUMPDEST SUB SWAP3 GAS CALL DUP1 ISZERO PUSH2 0x9B9 JUMPI PUSH2 0x10C3 JUMPI POP JUMP JUMPDEST PUSH2 0xF2 SWAP1 PUSH1 0x0 PUSH2 0x10D3 DUP2 DUP4 PUSH2 0x5F2 JUMP JUMPDEST DUP2 ADD SWAP1 PUSH2 0x2A8 JUMP JUMPDEST PUSH2 0x10EB SWAP1 PUSH1 0x0 PUSH2 0x10D3 DUP2 DUP4 PUSH2 0x5F2 JUMP JUMPDEST CODESIZE PUSH2 0x106B JUMP JUMPDEST PUSH2 0xF2 SWAP1 PUSH2 0x110B PUSH2 0x569 PUSH2 0x565 PUSH1 0x2 PUSH2 0x55F DUP6 PUSH1 0x3 PUSH2 0x118 JUMP JUMPDEST PUSH2 0x11AF JUMP JUMPDEST SWAP2 SWAP1 PUSH1 0x40 DUP4 DUP3 SUB SLT PUSH2 0xE0 JUMPI PUSH2 0x108 SWAP1 PUSH1 0x20 PUSH2 0x112C DUP3 DUP7 PUSH2 0x619 JUMP JUMPDEST SWAP5 ADD PUSH2 0x619 JUMP JUMPDEST ISZERO PUSH2 0x113A JUMPI JUMP JUMPDEST PUSH1 0x40 MLOAD PUSH3 0x461BCD PUSH1 0xE5 SHL DUP2 MSTORE PUSH1 0x20 PUSH1 0x4 DUP3 ADD MSTORE PUSH1 0x24 DUP1 DUP3 ADD MSTORE PUSH32 0x5175657374696F6E206F7574636F6D65206E6F742064657465726D696E656420 PUSH1 0x44 DUP3 ADD MSTORE PUSH4 0x3CB2BA17 PUSH1 0xE1 SHL PUSH1 0x64 DUP3 ADD MSTORE PUSH1 0x84 SWAP1 REVERT JUMPDEST SWAP1 PUSH2 0xFF00 SWAP1 PUSH1 0x8 SHL PUSH2 0x770 JUMP JUMPDEST SWAP1 PUSH2 0x11A8 PUSH2 0x108 PUSH2 0x791 SWAP3 ISZERO ISZERO SWAP1 JUMP JUMPDEST DUP3 SLOAD PUSH2 0x118B JUMP JUMPDEST PUSH1 0x3 PUSH2 0x11C3 PUSH2 0x8F3 PUSH1 0x0 PUSH2 0x8C4 DUP6 DUP6 PUSH2 0x118 JUMP JUMPDEST PUSH2 0x11D3 PUSH2 0x850 PUSH2 0x850 PUSH1 0x5 PUSH2 0x5D2 JUMP JUMPDEST PUSH1 0x40 DUP1 MLOAD PUSH4 0x25AAF905 PUSH1 0xE0 SHL DUP2 MSTORE PUSH1 0x4 DUP2 ADD DUP6 SWAP1 MSTORE SWAP2 DUP3 SWAP1 PUSH1 0x24 SWAP1 DUP3 SWAP1 GAS STATICCALL DUP1 ISZERO PUSH2 0x9B9 JUMPI PUSH2 0xF2 SWAP4 PUSH1 0x1 SWAP4 PUSH2 0x1229 PUSH2 0x122E SWAP4 PUSH1 0x2 SWAP6 PUSH1 0x0 DUP1 SWAP2 SWAP1 SWAP3 PUSH2 0x1234 JUMPI JUMPDEST POP PUSH2 0x121E SWAP1 PUSH2 0x1133 JUMP JUMPDEST DUP6 PUSH2 0xF8A DUP6 DUP6 PUSH2 0x118 JUMP JUMPDEST PUSH2 0x118 JUMP JUMPDEST ADD PUSH2 0x1198 JUMP JUMPDEST PUSH2 0x121E SWAP3 POP PUSH2 0x125B SWAP2 POP PUSH1 0x40 RETURNDATASIZE PUSH1 0x40 GT PUSH2 0x1262 JUMPI JUMPDEST PUSH2 0x1253 DUP2 DUP4 PUSH2 0x5F2 JUMP JUMPDEST DUP2 ADD SWAP1 PUSH2 0x1110 JUMP JUMPDEST SWAP1 SWAP2 PUSH2 0x1214 JUMP JUMPDEST POP RETURNDATASIZE PUSH2 0x1249 JUMP JUMPDEST PUSH2 0xF2 SWAP1 PUSH2 0x10F1 JUMP INVALID LOG2 PUSH5 0x6970667358 0x22 SLT KECCAK256 0xFC PUSH16 0x360F3244A003FF60C916F78095455285 PUSH11 0x2D1C37CD81297DF14BC616 STATICCALL MSIZE PUSH5 0x736F6C6343 STOP ADDMOD XOR STOP CALLER "},"methodIdentifiers":{"bets(uint256,address)":"f644b3bb","bettingToken()":"43425e88","claimWinnings(uint256)":"677bd9ff","createEvent(uint256)":"977d996d","events(uint256)":"0b791430","matchNFTAddress()":"9a2e8240","owner()":"8da5cb5b","placeBet(uint256,bool,uint256)":"1a38cac6","resolveEvent(uint256)":"bed524d6","socialOracleAddress()":"30658198","toggleEmergencyStop(uint256)":"8822e6fd","withdraw()":"3ccfd60b"}}}}}