{"contracts/StakeContract.sol":{"StakeContract":{"abi":[{"inputs":[{"internalType":"address","name":"_betStakingToken","type":"address"},{"internalType":"address","name":"_liquidityTokenAddress","type":"address"},{"internalType":"address","name":"_stakingTokenAddress","type":"address"},{"internalType":"address","name":"_treasuryAddress","type":"address"},{"internalType":"uint256","name":"_penaltyRate","type":"uint256"}],"stateMutability":"nonpayable","type":"constructor"},{"anonymous":false,"inputs":[{"indexed":true,"internalType":"address","name":"previousOwner","type":"address"},{"indexed":true,"internalType":"address","name":"newOwner","type":"address"}],"name":"OwnershipTransferred","type":"event"},{"anonymous":false,"inputs":[{"indexed":true,"internalType":"address","name":"user","type":"address"},{"indexed":false,"internalType":"uint256","name":"penaltyAmount","type":"uint256"}],"name":"Penalized","type":"event"},{"anonymous":false,"inputs":[{"indexed":true,"internalType":"address","name":"user","type":"address"},{"indexed":false,"internalType":"uint256","name":"stakeAmount","type":"uint256"},{"indexed":false,"internalType":"uint256","name":"liquidityAmount","type":"uint256"}],"name":"Staked","type":"event"},{"anonymous":false,"inputs":[{"indexed":true,"internalType":"address","name":"user","type":"address"},{"indexed":false,"internalType":"uint256","name":"stakeAmount","type":"uint256"},{"indexed":false,"internalType":"uint256","name":"liquidityAmount","type":"uint256"}],"name":"Withdrawn","type":"event"},{"inputs":[],"name":"betStakingToken","outputs":[{"internalType":"contract BetStakingToken","name":"","type":"address"}],"stateMutability":"view","type":"function"},{"inputs":[{"internalType":"address","name":"user","type":"address"}],"name":"getStakeAmount","outputs":[{"internalType":"uint256","name":"","type":"uint256"}],"stateMutability":"view","type":"function"},{"inputs":[],"name":"liquidityToken","outputs":[{"internalType":"contract IERC20","name":"","type":"address"}],"stateMutability":"view","type":"function"},{"inputs":[],"name":"owner","outputs":[{"internalType":"address","name":"","type":"address"}],"stateMutability":"view","type":"function"},{"inputs":[{"internalType":"address","name":"user","type":"address"}],"name":"penalize","outputs":[],"stateMutability":"nonpayable","type":"function"},{"inputs":[],"name":"penaltyRate","outputs":[{"internalType":"uint256","name":"","type":"uint256"}],"stateMutability":"view","type":"function"},{"inputs":[],"name":"renounceOwnership","outputs":[],"stateMutability":"nonpayable","type":"function"},{"inputs":[{"internalType":"uint256","name":"stakeAmount","type":"uint256"},{"internalType":"uint256","name":"liquidityAmount","type":"uint256"}],"name":"stake","outputs":[],"stateMutability":"nonpayable","type":"function"},{"inputs":[],"name":"stakingToken","outputs":[{"internalType":"contract IERC20","name":"","type":"address"}],"stateMutability":"view","type":"function"},{"inputs":[],"name":"totalStaked","outputs":[{"internalType":"uint256","name":"","type":"uint256"}],"stateMutability":"view","type":"function"},{"inputs":[{"internalType":"address","name":"newOwner","type":"address"}],"name":"transferOwnership","outputs":[],"stateMutability":"nonpayable","type":"function"},{"inputs":[],"name":"treasuryAddress","outputs":[{"internalType":"address","name":"","type":"address"}],"stateMutability":"view","type":"function"},{"inputs":[{"internalType":"uint256","name":"stakeAmount","type":"uint256"}],"name":"withdraw","outputs":[],"stateMutability":"nonpayable","type":"function"}],"evm":{"bytecode":{"linkReferences":{},"object":"608060405234620000345762000022620000186200012e565b93929092620001f0565b604051610d3a620002ca8239610d3a90f35b600080fd5b634e487b7160e01b600052604160045260246000fd5b90601f01601f191681019081106001600160401b038211176200007157604052565b62000039565b906200008e6200008660405190565b92836200004f565b565b6001600160a01b031690565b90565b6001600160a01b0381165b036200003457565b905051906200008e826200009f565b80620000aa565b905051906200008e82620000c1565b919060a0838203126200003457620000f08184620000b2565b92620001008260208301620000b2565b926200009c620001148460408501620000b2565b936080620001268260608701620000b2565b9401620000c8565b620001516200100480380380620001458162000077565b928339810190620000d7565b9091929394565b6200009c9062000090906001600160a01b031682565b6200009c9062000158565b6200009c906200016e565b906001600160a01b03905b9181191691161790565b90620001ad6200009c620001b59262000179565b825462000184565b9055565b90600019906200018f565b6200009c6200009c6200009c9290565b90620001e86200009c620001b592620001c4565b8254620001b9565b620002356200023d916200021f6200022d6200008e9897956200021f6200022562000245996200021f6200024d565b62000179565b600162000199565b600262000199565b600362000199565b600462000199565b6006620001d4565b6200008e336200026f565b6200009c9062000090565b6200009c905462000258565b620002976200029062000283600062000263565b6200021f84600062000199565b9162000179565b907f8be0079c531659141344cd1fd0a4f28419497f9722a3daafe3b4186f6b6457e0620002c360405190565b600090a356fe6080604052600436101561001257600080fd5b60003560e01c80630c2eb403146100e257806314795cef146100dd5780632e1a7d4d146100d857806343cd8f7e146100d3578063715018a6146100ce57806372f702f3146100c957806378d97c94146100c45780637b0472f0146100bf578063817b1cd2146100ba5780638da5cb5b146100b5578063c5f956af146100b0578063d6b7494f146100ab5763f2fde38b03610108576103be565b6103a3565b61037c565b61033b565b610320565b6102e5565b6102aa565b61028f565b61026b565b610250565b610227565b6101d9565b610134565b6001600160a01b031690565b90565b6001600160a01b0381165b0361010857565b600080fd5b9050359061011a826100f6565b565b90602082820312610108576100f39161010d565b9052565b346101085761016061014f61014a36600461011c565b610453565b6040515b9182918290815260200190565b0390f35b600091031261010857565b6100f3916008021c6001600160a01b031690565b906100f3915461016f565b6100f360006003610183565b6100f3906100e7906001600160a01b031682565b6100f39061019a565b6100f3906101ae565b610130906101b7565b60208101929161011a91906101c0565b34610108576101e9366004610164565b6101606101f461018e565b604051918291826101c9565b80610101565b9050359061011a82610200565b90602082820312610108576100f391610206565b346101085761023f61023a366004610213565b6105a5565b604051005b6100f360006002610183565b3461010857610260366004610164565b6101606101f4610244565b346101085761027b366004610164565b61023f610725565b6100f360006001610183565b346101085761029f366004610164565b6101606101f4610283565b346101085761023f6102bd36600461011c565b6108d1565b9190604083820312610108576100f39060206102de8286610206565b9401610206565b346101085761023f6102f83660046102c2565b90610995565b6100f3916008021c81565b906100f391546102fe565b6100f360006005610309565b3461010857610330366004610164565b61016061014f610314565b346101085761034b366004610164565b610160610356610b6e565b604051918291826001600160a01b03909116815260200190565b6100f360006004610183565b346101085761038c366004610164565b610160610356610370565b6100f360006006610309565b34610108576103b3366004610164565b61016061014f610397565b346101085761023f6103d136600461011c565b610c09565b6100f3906100e7565b6100f390546103d6565b634e487b7160e01b600052604160045260246000fd5b90601f01601f1916810190811067ffffffffffffffff82111761042157604052565b6103e9565b9050519061011a82610200565b90602082820312610108576100f391610426565b6040513d6000823e3d90fd5b602061049f91610461600090565b5061047461046f60036103df565b6101b7565b604051938492839182916370a0823160e01b8352600483016001600160a01b03909116815260200190565b03915afa9081156104de576000916104b5575090565b6100f3915060203d6020116104d7575b6104cf81836103ff565b810190610433565b503d6104c5565b610447565b6100f36100f36100f39290565b156104f757565b60405162461bcd60e51b815260206004820152601d60248201527f416d6f756e74206d7573742062652067726561746572207468616e20300000006044820152606490fd5b0390fd5b6001600160a01b03909116815260408101929161011a9160200152565b801515610101565b9050519061011a8261055d565b90602082820312610108576100f391610565565b610130906104e3565b90815260408101929161011a9160200190610586565b60006105ba6105b3826104e3565b83116104f0565b6105c761046f60036103df565b803b1561010857816105d860405190565b91829063079cc67960e41b82528183816105f6893360048401610540565b03925af180156104de576106c1575b5061061361046f60016103df565b90602061061f60405190565b92839063a9059cbb60e01b825281848161063d893360048401610540565b03925af19182156104de577f92ccf450a286a957af52509bc1c9939d1a6a481783e142e41e2499f0bb66ebc692610694575b50610679336101b7565b9261068f61068660405190565b9283928361058f565b0390a2565b6106b59060203d6020116106ba575b6106ad81836103ff565b810190610572565b61066f565b503d6106a3565b6106e090823d84116106e6575b6106d881836103ff565b810190610164565b38610605565b503d6106ce565b6106f5610c62565b61011a610713565b6100e76100f36100f39290565b6100f3906106fd565b61011a610720600061070a565b610cb2565b61011a6106ed565b61011a90610739610c62565b6107a2565b6100f39081565b6100f3905461073e565b634e487b7160e01b600052601160045260246000fd5b8181029291811591840414171561077857565b61074f565b634e487b7160e01b600052601260045260246000fd5b811561079d570490565b61077d565b6107af61046f60036103df565b60206107ba60405190565b6370a0823160e01b81526001600160a01b038416600482015291829060249082905afa9081156104de5761081591610805916000916108b2575b506107ff6006610745565b90610765565b61080f60646104e3565b90610793565b9061082361046f60036103df565b803b1561010857600061083560405190565b91829063079cc67960e41b8252818381610853898960048401610540565b03925af180156104de577fce6324a0bfd5e264b9b4039aeeab1620f460c269fa080cbd889681a37aaadc659261068f926108929261089c575b506101b7565b9261015360405190565b6108ac9060006106d881836103ff565b3861088c565b6108cb915060203d6020116104d7576104cf81836103ff565b386107f4565b61011a9061072d565b156108e157565b60405162461bcd60e51b815260206004820152601e60248201527f416d6f756e7473206d7573742062652067726561746572207468616e203000006044820152606490fd5b6001600160a01b0391821681529116602082015260608101929161011a9160400152565b9190820180921161077857565b90600019905b9181191691161790565b906109776100f361097e926104e3565b8254610957565b9055565b90815260408101929161011a9160200152565b906000906109a2826104e3565b831180610b58575b6109b3906108da565b6109fb6109c361046f60016103df565b6020856323b872dd926109d5306101b7565b876109df60405190565b8097819582946109ef8a60e01b90565b84523360048501610926565b03925af19081156104de578392602092610b3d575b50610a1e61046f60026103df565b6109ef86610a2c60046103df565b93610a46610a3960405190565b9788968795869460e01b90565b03925af180156104de57610b20575b50610a6361046f60036103df565b91823b156101085780610a7560405190565b9384906340c10f1960e01b8252818381610a938a3360048401610540565b03925af19283156104de577f1449c6dd7851abc30abf37f57715f492010519147cc2652fbc38202c18a6ee9093610b03575b5050610ae4610add84610ad86005610745565b61094a565b6005610967565b610aed336101b7565b9261068f610afa60405190565b92839283610982565b81610b1992903d106106e6576106d881836103ff565b3880610ac5565b610b389060203d6020116106ba576106ad81836103ff565b610a55565b610b5390833d85116106ba576106ad81836103ff565b610a10565b506109b3610b65836104e3565b821190506109aa565b6100f360006103df565b61011a90610b84610c62565b610be4565b15610b9057565b60405162461bcd60e51b815260206004820152602660248201527f4f776e61626c653a206e6577206f776e657220697320746865207a65726f206160448201526564647265737360d01b6064820152608490fd5b61011a90610720610bf86100e7600061070a565b6001600160a01b0383161415610b89565b61011a90610b78565b15610c1957565b60405162461bcd60e51b81528061053c600482016020808252818101527f4f776e61626c653a2063616c6c6572206973206e6f7420746865206f776e6572604082015260600190565b61011a610c6d610b6e565b610c86610c79336100e7565b916001600160a01b031690565b14610c12565b906001600160a01b039061095d565b90610cab6100f361097e926101b7565b8254610c8c565b610cd3610ccd610cc260006103df565b61046f846000610c9b565b916101b7565b907f8be0079c531659141344cd1fd0a4f28419497f9722a3daafe3b4186f6b6457e0610cfe60405190565b600090a356fea2646970667358221220de9ba224c48afb1dad0a807a735dd9f8bb6ab67b16479ea9497d053457827e5064736f6c63430008180033","opcodes":"PUSH1 0x80 PUSH1 0x40 MSTORE CALLVALUE PUSH3 0x34 JUMPI PUSH3 0x22 PUSH3 0x18 PUSH3 0x12E JUMP JUMPDEST SWAP4 SWAP3 SWAP1 SWAP3 PUSH3 0x1F0 JUMP JUMPDEST PUSH1 0x40 MLOAD PUSH2 0xD3A PUSH3 0x2CA DUP3 CODECOPY PUSH2 0xD3A SWAP1 RETURN JUMPDEST PUSH1 0x0 DUP1 REVERT JUMPDEST PUSH4 0x4E487B71 PUSH1 0xE0 SHL PUSH1 0x0 MSTORE PUSH1 0x41 PUSH1 0x4 MSTORE PUSH1 0x24 PUSH1 0x0 REVERT JUMPDEST SWAP1 PUSH1 0x1F ADD PUSH1 0x1F NOT AND DUP2 ADD SWAP1 DUP2 LT PUSH1 0x1 PUSH1 0x1 PUSH1 0x40 SHL SUB DUP3 GT OR PUSH3 0x71 JUMPI PUSH1 0x40 MSTORE JUMP JUMPDEST PUSH3 0x39 JUMP JUMPDEST SWAP1 PUSH3 0x8E PUSH3 0x86 PUSH1 0x40 MLOAD SWAP1 JUMP JUMPDEST SWAP3 DUP4 PUSH3 0x4F JUMP JUMPDEST JUMP JUMPDEST PUSH1 0x1 PUSH1 0x1 PUSH1 0xA0 SHL SUB AND SWAP1 JUMP JUMPDEST SWAP1 JUMP JUMPDEST PUSH1 0x1 PUSH1 0x1 PUSH1 0xA0 SHL SUB DUP2 AND JUMPDEST SUB PUSH3 0x34 JUMPI JUMP JUMPDEST SWAP1 POP MLOAD SWAP1 PUSH3 0x8E DUP3 PUSH3 0x9F JUMP JUMPDEST DUP1 PUSH3 0xAA JUMP JUMPDEST SWAP1 POP MLOAD SWAP1 PUSH3 0x8E DUP3 PUSH3 0xC1 JUMP JUMPDEST SWAP2 SWAP1 PUSH1 0xA0 DUP4 DUP3 SUB SLT PUSH3 0x34 JUMPI PUSH3 0xF0 DUP2 DUP5 PUSH3 0xB2 JUMP JUMPDEST SWAP3 PUSH3 0x100 DUP3 PUSH1 0x20 DUP4 ADD PUSH3 0xB2 JUMP JUMPDEST SWAP3 PUSH3 0x9C PUSH3 0x114 DUP5 PUSH1 0x40 DUP6 ADD PUSH3 0xB2 JUMP JUMPDEST SWAP4 PUSH1 0x80 PUSH3 0x126 DUP3 PUSH1 0x60 DUP8 ADD PUSH3 0xB2 JUMP JUMPDEST SWAP5 ADD PUSH3 0xC8 JUMP JUMPDEST PUSH3 0x151 PUSH3 0x1004 DUP1 CODESIZE SUB DUP1 PUSH3 0x145 DUP2 PUSH3 0x77 JUMP JUMPDEST SWAP3 DUP4 CODECOPY DUP2 ADD SWAP1 PUSH3 0xD7 JUMP JUMPDEST SWAP1 SWAP2 SWAP3 SWAP4 SWAP5 JUMP JUMPDEST PUSH3 0x9C SWAP1 PUSH3 0x90 SWAP1 PUSH1 0x1 PUSH1 0x1 PUSH1 0xA0 SHL SUB AND DUP3 JUMP JUMPDEST PUSH3 0x9C SWAP1 PUSH3 0x158 JUMP JUMPDEST PUSH3 0x9C SWAP1 PUSH3 0x16E JUMP JUMPDEST SWAP1 PUSH1 0x1 PUSH1 0x1 PUSH1 0xA0 SHL SUB SWAP1 JUMPDEST SWAP2 DUP2 NOT AND SWAP2 AND OR SWAP1 JUMP JUMPDEST SWAP1 PUSH3 0x1AD PUSH3 0x9C PUSH3 0x1B5 SWAP3 PUSH3 0x179 JUMP JUMPDEST DUP3 SLOAD PUSH3 0x184 JUMP JUMPDEST SWAP1 SSTORE JUMP JUMPDEST SWAP1 PUSH1 0x0 NOT SWAP1 PUSH3 0x18F JUMP JUMPDEST PUSH3 0x9C PUSH3 0x9C PUSH3 0x9C SWAP3 SWAP1 JUMP JUMPDEST SWAP1 PUSH3 0x1E8 PUSH3 0x9C PUSH3 0x1B5 SWAP3 PUSH3 0x1C4 JUMP JUMPDEST DUP3 SLOAD PUSH3 0x1B9 JUMP JUMPDEST PUSH3 0x235 PUSH3 0x23D SWAP2 PUSH3 0x21F PUSH3 0x22D PUSH3 0x8E SWAP9 SWAP8 SWAP6 PUSH3 0x21F PUSH3 0x225 PUSH3 0x245 SWAP10 PUSH3 0x21F PUSH3 0x24D JUMP JUMPDEST PUSH3 0x179 JUMP JUMPDEST PUSH1 0x1 PUSH3 0x199 JUMP JUMPDEST PUSH1 0x2 PUSH3 0x199 JUMP JUMPDEST PUSH1 0x3 PUSH3 0x199 JUMP JUMPDEST PUSH1 0x4 PUSH3 0x199 JUMP JUMPDEST PUSH1 0x6 PUSH3 0x1D4 JUMP JUMPDEST PUSH3 0x8E CALLER PUSH3 0x26F JUMP JUMPDEST PUSH3 0x9C SWAP1 PUSH3 0x90 JUMP JUMPDEST PUSH3 0x9C SWAP1 SLOAD PUSH3 0x258 JUMP JUMPDEST PUSH3 0x297 PUSH3 0x290 PUSH3 0x283 PUSH1 0x0 PUSH3 0x263 JUMP JUMPDEST PUSH3 0x21F DUP5 PUSH1 0x0 PUSH3 0x199 JUMP JUMPDEST SWAP2 PUSH3 0x179 JUMP JUMPDEST SWAP1 PUSH32 0x8BE0079C531659141344CD1FD0A4F28419497F9722A3DAAFE3B4186F6B6457E0 PUSH3 0x2C3 PUSH1 0x40 MLOAD SWAP1 JUMP JUMPDEST PUSH1 0x0 SWAP1 LOG3 JUMP INVALID PUSH1 0x80 PUSH1 0x40 MSTORE PUSH1 0x4 CALLDATASIZE LT ISZERO PUSH2 0x12 JUMPI PUSH1 0x0 DUP1 REVERT JUMPDEST PUSH1 0x0 CALLDATALOAD PUSH1 0xE0 SHR DUP1 PUSH4 0xC2EB403 EQ PUSH2 0xE2 JUMPI DUP1 PUSH4 0x14795CEF EQ PUSH2 0xDD JUMPI DUP1 PUSH4 0x2E1A7D4D EQ PUSH2 0xD8 JUMPI DUP1 PUSH4 0x43CD8F7E EQ PUSH2 0xD3 JUMPI DUP1 PUSH4 0x715018A6 EQ PUSH2 0xCE JUMPI DUP1 PUSH4 0x72F702F3 EQ PUSH2 0xC9 JUMPI DUP1 PUSH4 0x78D97C94 EQ PUSH2 0xC4 JUMPI DUP1 PUSH4 0x7B0472F0 EQ PUSH2 0xBF JUMPI DUP1 PUSH4 0x817B1CD2 EQ PUSH2 0xBA JUMPI DUP1 PUSH4 0x8DA5CB5B EQ PUSH2 0xB5 JUMPI DUP1 PUSH4 0xC5F956AF EQ PUSH2 0xB0 JUMPI DUP1 PUSH4 0xD6B7494F EQ PUSH2 0xAB JUMPI PUSH4 0xF2FDE38B SUB PUSH2 0x108 JUMPI PUSH2 0x3BE JUMP JUMPDEST PUSH2 0x3A3 JUMP JUMPDEST PUSH2 0x37C JUMP JUMPDEST PUSH2 0x33B JUMP JUMPDEST PUSH2 0x320 JUMP JUMPDEST PUSH2 0x2E5 JUMP JUMPDEST PUSH2 0x2AA JUMP JUMPDEST PUSH2 0x28F JUMP JUMPDEST PUSH2 0x26B JUMP JUMPDEST PUSH2 0x250 JUMP JUMPDEST PUSH2 0x227 JUMP JUMPDEST PUSH2 0x1D9 JUMP JUMPDEST PUSH2 0x134 JUMP JUMPDEST PUSH1 0x1 PUSH1 0x1 PUSH1 0xA0 SHL SUB AND SWAP1 JUMP JUMPDEST SWAP1 JUMP JUMPDEST PUSH1 0x1 PUSH1 0x1 PUSH1 0xA0 SHL SUB DUP2 AND JUMPDEST SUB PUSH2 0x108 JUMPI JUMP JUMPDEST PUSH1 0x0 DUP1 REVERT JUMPDEST SWAP1 POP CALLDATALOAD SWAP1 PUSH2 0x11A DUP3 PUSH2 0xF6 JUMP JUMPDEST JUMP JUMPDEST SWAP1 PUSH1 0x20 DUP3 DUP3 SUB SLT PUSH2 0x108 JUMPI PUSH2 0xF3 SWAP2 PUSH2 0x10D JUMP JUMPDEST SWAP1 MSTORE JUMP JUMPDEST CALLVALUE PUSH2 0x108 JUMPI PUSH2 0x160 PUSH2 0x14F PUSH2 0x14A CALLDATASIZE PUSH1 0x4 PUSH2 0x11C JUMP JUMPDEST PUSH2 0x453 JUMP JUMPDEST PUSH1 0x40 MLOAD JUMPDEST SWAP2 DUP3 SWAP2 DUP3 SWAP1 DUP2 MSTORE PUSH1 0x20 ADD SWAP1 JUMP JUMPDEST SUB SWAP1 RETURN JUMPDEST PUSH1 0x0 SWAP2 SUB SLT PUSH2 0x108 JUMPI JUMP JUMPDEST PUSH2 0xF3 SWAP2 PUSH1 0x8 MUL SHR PUSH1 0x1 PUSH1 0x1 PUSH1 0xA0 SHL SUB AND SWAP1 JUMP JUMPDEST SWAP1 PUSH2 0xF3 SWAP2 SLOAD PUSH2 0x16F JUMP JUMPDEST PUSH2 0xF3 PUSH1 0x0 PUSH1 0x3 PUSH2 0x183 JUMP JUMPDEST PUSH2 0xF3 SWAP1 PUSH2 0xE7 SWAP1 PUSH1 0x1 PUSH1 0x1 PUSH1 0xA0 SHL SUB AND DUP3 JUMP JUMPDEST PUSH2 0xF3 SWAP1 PUSH2 0x19A JUMP JUMPDEST PUSH2 0xF3 SWAP1 PUSH2 0x1AE JUMP JUMPDEST PUSH2 0x130 SWAP1 PUSH2 0x1B7 JUMP JUMPDEST PUSH1 0x20 DUP2 ADD SWAP3 SWAP2 PUSH2 0x11A SWAP2 SWAP1 PUSH2 0x1C0 JUMP JUMPDEST CALLVALUE PUSH2 0x108 JUMPI PUSH2 0x1E9 CALLDATASIZE PUSH1 0x4 PUSH2 0x164 JUMP JUMPDEST PUSH2 0x160 PUSH2 0x1F4 PUSH2 0x18E JUMP JUMPDEST PUSH1 0x40 MLOAD SWAP2 DUP3 SWAP2 DUP3 PUSH2 0x1C9 JUMP JUMPDEST DUP1 PUSH2 0x101 JUMP JUMPDEST SWAP1 POP CALLDATALOAD SWAP1 PUSH2 0x11A DUP3 PUSH2 0x200 JUMP JUMPDEST SWAP1 PUSH1 0x20 DUP3 DUP3 SUB SLT PUSH2 0x108 JUMPI PUSH2 0xF3 SWAP2 PUSH2 0x206 JUMP JUMPDEST CALLVALUE PUSH2 0x108 JUMPI PUSH2 0x23F PUSH2 0x23A CALLDATASIZE PUSH1 0x4 PUSH2 0x213 JUMP JUMPDEST PUSH2 0x5A5 JUMP JUMPDEST PUSH1 0x40 MLOAD STOP JUMPDEST PUSH2 0xF3 PUSH1 0x0 PUSH1 0x2 PUSH2 0x183 JUMP JUMPDEST CALLVALUE PUSH2 0x108 JUMPI PUSH2 0x260 CALLDATASIZE PUSH1 0x4 PUSH2 0x164 JUMP JUMPDEST PUSH2 0x160 PUSH2 0x1F4 PUSH2 0x244 JUMP JUMPDEST CALLVALUE PUSH2 0x108 JUMPI PUSH2 0x27B CALLDATASIZE PUSH1 0x4 PUSH2 0x164 JUMP JUMPDEST PUSH2 0x23F PUSH2 0x725 JUMP JUMPDEST PUSH2 0xF3 PUSH1 0x0 PUSH1 0x1 PUSH2 0x183 JUMP JUMPDEST CALLVALUE PUSH2 0x108 JUMPI PUSH2 0x29F CALLDATASIZE PUSH1 0x4 PUSH2 0x164 JUMP JUMPDEST PUSH2 0x160 PUSH2 0x1F4 PUSH2 0x283 JUMP JUMPDEST CALLVALUE PUSH2 0x108 JUMPI PUSH2 0x23F PUSH2 0x2BD CALLDATASIZE PUSH1 0x4 PUSH2 0x11C JUMP JUMPDEST PUSH2 0x8D1 JUMP JUMPDEST SWAP2 SWAP1 PUSH1 0x40 DUP4 DUP3 SUB SLT PUSH2 0x108 JUMPI PUSH2 0xF3 SWAP1 PUSH1 0x20 PUSH2 0x2DE DUP3 DUP7 PUSH2 0x206 JUMP JUMPDEST SWAP5 ADD PUSH2 0x206 JUMP JUMPDEST CALLVALUE PUSH2 0x108 JUMPI PUSH2 0x23F PUSH2 0x2F8 CALLDATASIZE PUSH1 0x4 PUSH2 0x2C2 JUMP JUMPDEST SWAP1 PUSH2 0x995 JUMP JUMPDEST PUSH2 0xF3 SWAP2 PUSH1 0x8 MUL SHR DUP2 JUMP JUMPDEST SWAP1 PUSH2 0xF3 SWAP2 SLOAD PUSH2 0x2FE JUMP JUMPDEST PUSH2 0xF3 PUSH1 0x0 PUSH1 0x5 PUSH2 0x309 JUMP JUMPDEST CALLVALUE PUSH2 0x108 JUMPI PUSH2 0x330 CALLDATASIZE PUSH1 0x4 PUSH2 0x164 JUMP JUMPDEST PUSH2 0x160 PUSH2 0x14F PUSH2 0x314 JUMP JUMPDEST CALLVALUE PUSH2 0x108 JUMPI PUSH2 0x34B CALLDATASIZE PUSH1 0x4 PUSH2 0x164 JUMP JUMPDEST PUSH2 0x160 PUSH2 0x356 PUSH2 0xB6E JUMP JUMPDEST PUSH1 0x40 MLOAD SWAP2 DUP3 SWAP2 DUP3 PUSH1 0x1 PUSH1 0x1 PUSH1 0xA0 SHL SUB SWAP1 SWAP2 AND DUP2 MSTORE PUSH1 0x20 ADD SWAP1 JUMP JUMPDEST PUSH2 0xF3 PUSH1 0x0 PUSH1 0x4 PUSH2 0x183 JUMP JUMPDEST CALLVALUE PUSH2 0x108 JUMPI PUSH2 0x38C CALLDATASIZE PUSH1 0x4 PUSH2 0x164 JUMP JUMPDEST PUSH2 0x160 PUSH2 0x356 PUSH2 0x370 JUMP JUMPDEST PUSH2 0xF3 PUSH1 0x0 PUSH1 0x6 PUSH2 0x309 JUMP JUMPDEST CALLVALUE PUSH2 0x108 JUMPI PUSH2 0x3B3 CALLDATASIZE PUSH1 0x4 PUSH2 0x164 JUMP JUMPDEST PUSH2 0x160 PUSH2 0x14F PUSH2 0x397 JUMP JUMPDEST CALLVALUE PUSH2 0x108 JUMPI PUSH2 0x23F PUSH2 0x3D1 CALLDATASIZE PUSH1 0x4 PUSH2 0x11C JUMP JUMPDEST PUSH2 0xC09 JUMP JUMPDEST PUSH2 0xF3 SWAP1 PUSH2 0xE7 JUMP JUMPDEST PUSH2 0xF3 SWAP1 SLOAD PUSH2 0x3D6 JUMP JUMPDEST PUSH4 0x4E487B71 PUSH1 0xE0 SHL PUSH1 0x0 MSTORE PUSH1 0x41 PUSH1 0x4 MSTORE PUSH1 0x24 PUSH1 0x0 REVERT JUMPDEST SWAP1 PUSH1 0x1F ADD PUSH1 0x1F NOT AND DUP2 ADD SWAP1 DUP2 LT PUSH8 0xFFFFFFFFFFFFFFFF DUP3 GT OR PUSH2 0x421 JUMPI PUSH1 0x40 MSTORE JUMP JUMPDEST PUSH2 0x3E9 JUMP JUMPDEST SWAP1 POP MLOAD SWAP1 PUSH2 0x11A DUP3 PUSH2 0x200 JUMP JUMPDEST SWAP1 PUSH1 0x20 DUP3 DUP3 SUB SLT PUSH2 0x108 JUMPI PUSH2 0xF3 SWAP2 PUSH2 0x426 JUMP JUMPDEST PUSH1 0x40 MLOAD RETURNDATASIZE PUSH1 0x0 DUP3 RETURNDATACOPY RETURNDATASIZE SWAP1 REVERT JUMPDEST PUSH1 0x20 PUSH2 0x49F SWAP2 PUSH2 0x461 PUSH1 0x0 SWAP1 JUMP JUMPDEST POP PUSH2 0x474 PUSH2 0x46F PUSH1 0x3 PUSH2 0x3DF JUMP JUMPDEST PUSH2 0x1B7 JUMP JUMPDEST PUSH1 0x40 MLOAD SWAP4 DUP5 SWAP3 DUP4 SWAP2 DUP3 SWAP2 PUSH4 0x70A08231 PUSH1 0xE0 SHL DUP4 MSTORE PUSH1 0x4 DUP4 ADD PUSH1 0x1 PUSH1 0x1 PUSH1 0xA0 SHL SUB SWAP1 SWAP2 AND DUP2 MSTORE PUSH1 0x20 ADD SWAP1 JUMP JUMPDEST SUB SWAP2 GAS STATICCALL SWAP1 DUP2 ISZERO PUSH2 0x4DE JUMPI PUSH1 0x0 SWAP2 PUSH2 0x4B5 JUMPI POP SWAP1 JUMP JUMPDEST PUSH2 0xF3 SWAP2 POP PUSH1 0x20 RETURNDATASIZE PUSH1 0x20 GT PUSH2 0x4D7 JUMPI JUMPDEST PUSH2 0x4CF DUP2 DUP4 PUSH2 0x3FF JUMP JUMPDEST DUP2 ADD SWAP1 PUSH2 0x433 JUMP JUMPDEST POP RETURNDATASIZE PUSH2 0x4C5 JUMP JUMPDEST PUSH2 0x447 JUMP JUMPDEST PUSH2 0xF3 PUSH2 0xF3 PUSH2 0xF3 SWAP3 SWAP1 JUMP JUMPDEST ISZERO PUSH2 0x4F7 JUMPI JUMP JUMPDEST PUSH1 0x40 MLOAD PUSH3 0x461BCD PUSH1 0xE5 SHL DUP2 MSTORE PUSH1 0x20 PUSH1 0x4 DUP3 ADD MSTORE PUSH1 0x1D PUSH1 0x24 DUP3 ADD MSTORE PUSH32 0x416D6F756E74206D7573742062652067726561746572207468616E2030000000 PUSH1 0x44 DUP3 ADD MSTORE PUSH1 0x64 SWAP1 REVERT JUMPDEST SUB SWAP1 REVERT JUMPDEST PUSH1 0x1 PUSH1 0x1 PUSH1 0xA0 SHL SUB SWAP1 SWAP2 AND DUP2 MSTORE PUSH1 0x40 DUP2 ADD SWAP3 SWAP2 PUSH2 0x11A SWAP2 PUSH1 0x20 ADD MSTORE JUMP JUMPDEST DUP1 ISZERO ISZERO PUSH2 0x101 JUMP JUMPDEST SWAP1 POP MLOAD SWAP1 PUSH2 0x11A DUP3 PUSH2 0x55D JUMP JUMPDEST SWAP1 PUSH1 0x20 DUP3 DUP3 SUB SLT PUSH2 0x108 JUMPI PUSH2 0xF3 SWAP2 PUSH2 0x565 JUMP JUMPDEST PUSH2 0x130 SWAP1 PUSH2 0x4E3 JUMP JUMPDEST SWAP1 DUP2 MSTORE PUSH1 0x40 DUP2 ADD SWAP3 SWAP2 PUSH2 0x11A SWAP2 PUSH1 0x20 ADD SWAP1 PUSH2 0x586 JUMP JUMPDEST PUSH1 0x0 PUSH2 0x5BA PUSH2 0x5B3 DUP3 PUSH2 0x4E3 JUMP JUMPDEST DUP4 GT PUSH2 0x4F0 JUMP JUMPDEST PUSH2 0x5C7 PUSH2 0x46F PUSH1 0x3 PUSH2 0x3DF JUMP JUMPDEST DUP1 EXTCODESIZE ISZERO PUSH2 0x108 JUMPI DUP2 PUSH2 0x5D8 PUSH1 0x40 MLOAD SWAP1 JUMP JUMPDEST SWAP2 DUP3 SWAP1 PUSH4 0x79CC679 PUSH1 0xE4 SHL DUP3 MSTORE DUP2 DUP4 DUP2 PUSH2 0x5F6 DUP10 CALLER PUSH1 0x4 DUP5 ADD PUSH2 0x540 JUMP JUMPDEST SUB SWAP3 GAS CALL DUP1 ISZERO PUSH2 0x4DE JUMPI PUSH2 0x6C1 JUMPI JUMPDEST POP PUSH2 0x613 PUSH2 0x46F PUSH1 0x1 PUSH2 0x3DF JUMP JUMPDEST SWAP1 PUSH1 0x20 PUSH2 0x61F PUSH1 0x40 MLOAD SWAP1 JUMP JUMPDEST SWAP3 DUP4 SWAP1 PUSH4 0xA9059CBB PUSH1 0xE0 SHL DUP3 MSTORE DUP2 DUP5 DUP2 PUSH2 0x63D DUP10 CALLER PUSH1 0x4 DUP5 ADD PUSH2 0x540 JUMP JUMPDEST SUB SWAP3 GAS CALL SWAP2 DUP3 ISZERO PUSH2 0x4DE JUMPI PUSH32 0x92CCF450A286A957AF52509BC1C9939D1A6A481783E142E41E2499F0BB66EBC6 SWAP3 PUSH2 0x694 JUMPI JUMPDEST POP PUSH2 0x679 CALLER PUSH2 0x1B7 JUMP JUMPDEST SWAP3 PUSH2 0x68F PUSH2 0x686 PUSH1 0x40 MLOAD SWAP1 JUMP JUMPDEST SWAP3 DUP4 SWAP3 DUP4 PUSH2 0x58F JUMP JUMPDEST SUB SWAP1 LOG2 JUMP JUMPDEST PUSH2 0x6B5 SWAP1 PUSH1 0x20 RETURNDATASIZE PUSH1 0x20 GT PUSH2 0x6BA JUMPI JUMPDEST PUSH2 0x6AD DUP2 DUP4 PUSH2 0x3FF JUMP JUMPDEST DUP2 ADD SWAP1 PUSH2 0x572 JUMP JUMPDEST PUSH2 0x66F JUMP JUMPDEST POP RETURNDATASIZE PUSH2 0x6A3 JUMP JUMPDEST PUSH2 0x6E0 SWAP1 DUP3 RETURNDATASIZE DUP5 GT PUSH2 0x6E6 JUMPI JUMPDEST PUSH2 0x6D8 DUP2 DUP4 PUSH2 0x3FF JUMP JUMPDEST DUP2 ADD SWAP1 PUSH2 0x164 JUMP JUMPDEST CODESIZE PUSH2 0x605 JUMP JUMPDEST POP RETURNDATASIZE PUSH2 0x6CE JUMP JUMPDEST PUSH2 0x6F5 PUSH2 0xC62 JUMP JUMPDEST PUSH2 0x11A PUSH2 0x713 JUMP JUMPDEST PUSH2 0xE7 PUSH2 0xF3 PUSH2 0xF3 SWAP3 SWAP1 JUMP JUMPDEST PUSH2 0xF3 SWAP1 PUSH2 0x6FD JUMP JUMPDEST PUSH2 0x11A PUSH2 0x720 PUSH1 0x0 PUSH2 0x70A JUMP JUMPDEST PUSH2 0xCB2 JUMP JUMPDEST PUSH2 0x11A PUSH2 0x6ED JUMP JUMPDEST PUSH2 0x11A SWAP1 PUSH2 0x739 PUSH2 0xC62 JUMP JUMPDEST PUSH2 0x7A2 JUMP JUMPDEST PUSH2 0xF3 SWAP1 DUP2 JUMP JUMPDEST PUSH2 0xF3 SWAP1 SLOAD PUSH2 0x73E JUMP JUMPDEST PUSH4 0x4E487B71 PUSH1 0xE0 SHL PUSH1 0x0 MSTORE PUSH1 0x11 PUSH1 0x4 MSTORE PUSH1 0x24 PUSH1 0x0 REVERT JUMPDEST DUP2 DUP2 MUL SWAP3 SWAP2 DUP2 ISZERO SWAP2 DUP5 DIV EQ OR ISZERO PUSH2 0x778 JUMPI JUMP JUMPDEST PUSH2 0x74F JUMP JUMPDEST PUSH4 0x4E487B71 PUSH1 0xE0 SHL PUSH1 0x0 MSTORE PUSH1 0x12 PUSH1 0x4 MSTORE PUSH1 0x24 PUSH1 0x0 REVERT JUMPDEST DUP2 ISZERO PUSH2 0x79D JUMPI DIV SWAP1 JUMP JUMPDEST PUSH2 0x77D JUMP JUMPDEST PUSH2 0x7AF PUSH2 0x46F PUSH1 0x3 PUSH2 0x3DF JUMP JUMPDEST PUSH1 0x20 PUSH2 0x7BA PUSH1 0x40 MLOAD SWAP1 JUMP JUMPDEST PUSH4 0x70A08231 PUSH1 0xE0 SHL DUP2 MSTORE PUSH1 0x1 PUSH1 0x1 PUSH1 0xA0 SHL SUB DUP5 AND PUSH1 0x4 DUP3 ADD MSTORE SWAP2 DUP3 SWAP1 PUSH1 0x24 SWAP1 DUP3 SWAP1 GAS STATICCALL SWAP1 DUP2 ISZERO PUSH2 0x4DE JUMPI PUSH2 0x815 SWAP2 PUSH2 0x805 SWAP2 PUSH1 0x0 SWAP2 PUSH2 0x8B2 JUMPI JUMPDEST POP PUSH2 0x7FF PUSH1 0x6 PUSH2 0x745 JUMP JUMPDEST SWAP1 PUSH2 0x765 JUMP JUMPDEST PUSH2 0x80F PUSH1 0x64 PUSH2 0x4E3 JUMP JUMPDEST SWAP1 PUSH2 0x793 JUMP JUMPDEST SWAP1 PUSH2 0x823 PUSH2 0x46F PUSH1 0x3 PUSH2 0x3DF JUMP JUMPDEST DUP1 EXTCODESIZE ISZERO PUSH2 0x108 JUMPI PUSH1 0x0 PUSH2 0x835 PUSH1 0x40 MLOAD SWAP1 JUMP JUMPDEST SWAP2 DUP3 SWAP1 PUSH4 0x79CC679 PUSH1 0xE4 SHL DUP3 MSTORE DUP2 DUP4 DUP2 PUSH2 0x853 DUP10 DUP10 PUSH1 0x4 DUP5 ADD PUSH2 0x540 JUMP JUMPDEST SUB SWAP3 GAS CALL DUP1 ISZERO PUSH2 0x4DE JUMPI PUSH32 0xCE6324A0BFD5E264B9B4039AEEAB1620F460C269FA080CBD889681A37AAADC65 SWAP3 PUSH2 0x68F SWAP3 PUSH2 0x892 SWAP3 PUSH2 0x89C JUMPI JUMPDEST POP PUSH2 0x1B7 JUMP JUMPDEST SWAP3 PUSH2 0x153 PUSH1 0x40 MLOAD SWAP1 JUMP JUMPDEST PUSH2 0x8AC SWAP1 PUSH1 0x0 PUSH2 0x6D8 DUP2 DUP4 PUSH2 0x3FF JUMP JUMPDEST CODESIZE PUSH2 0x88C JUMP JUMPDEST PUSH2 0x8CB SWAP2 POP PUSH1 0x20 RETURNDATASIZE PUSH1 0x20 GT PUSH2 0x4D7 JUMPI PUSH2 0x4CF DUP2 DUP4 PUSH2 0x3FF JUMP JUMPDEST CODESIZE PUSH2 0x7F4 JUMP JUMPDEST PUSH2 0x11A SWAP1 PUSH2 0x72D JUMP JUMPDEST ISZERO PUSH2 0x8E1 JUMPI JUMP JUMPDEST PUSH1 0x40 MLOAD PUSH3 0x461BCD PUSH1 0xE5 SHL DUP2 MSTORE PUSH1 0x20 PUSH1 0x4 DUP3 ADD MSTORE PUSH1 0x1E PUSH1 0x24 DUP3 ADD MSTORE PUSH32 0x416D6F756E7473206D7573742062652067726561746572207468616E20300000 PUSH1 0x44 DUP3 ADD MSTORE PUSH1 0x64 SWAP1 REVERT JUMPDEST PUSH1 0x1 PUSH1 0x1 PUSH1 0xA0 SHL SUB SWAP2 DUP3 AND DUP2 MSTORE SWAP2 AND PUSH1 0x20 DUP3 ADD MSTORE PUSH1 0x60 DUP2 ADD SWAP3 SWAP2 PUSH2 0x11A SWAP2 PUSH1 0x40 ADD MSTORE JUMP JUMPDEST SWAP2 SWAP1 DUP3 ADD DUP1 SWAP3 GT PUSH2 0x778 JUMPI JUMP JUMPDEST SWAP1 PUSH1 0x0 NOT SWAP1 JUMPDEST SWAP2 DUP2 NOT AND SWAP2 AND OR SWAP1 JUMP JUMPDEST SWAP1 PUSH2 0x977 PUSH2 0xF3 PUSH2 0x97E SWAP3 PUSH2 0x4E3 JUMP JUMPDEST DUP3 SLOAD PUSH2 0x957 JUMP JUMPDEST SWAP1 SSTORE JUMP JUMPDEST SWAP1 DUP2 MSTORE PUSH1 0x40 DUP2 ADD SWAP3 SWAP2 PUSH2 0x11A SWAP2 PUSH1 0x20 ADD MSTORE JUMP JUMPDEST SWAP1 PUSH1 0x0 SWAP1 PUSH2 0x9A2 DUP3 PUSH2 0x4E3 JUMP JUMPDEST DUP4 GT DUP1 PUSH2 0xB58 JUMPI JUMPDEST PUSH2 0x9B3 SWAP1 PUSH2 0x8DA JUMP JUMPDEST PUSH2 0x9FB PUSH2 0x9C3 PUSH2 0x46F PUSH1 0x1 PUSH2 0x3DF JUMP JUMPDEST PUSH1 0x20 DUP6 PUSH4 0x23B872DD SWAP3 PUSH2 0x9D5 ADDRESS PUSH2 0x1B7 JUMP JUMPDEST DUP8 PUSH2 0x9DF PUSH1 0x40 MLOAD SWAP1 JUMP JUMPDEST DUP1 SWAP8 DUP2 SWAP6 DUP3 SWAP5 PUSH2 0x9EF DUP11 PUSH1 0xE0 SHL SWAP1 JUMP JUMPDEST DUP5 MSTORE CALLER PUSH1 0x4 DUP6 ADD PUSH2 0x926 JUMP JUMPDEST SUB SWAP3 GAS CALL SWAP1 DUP2 ISZERO PUSH2 0x4DE JUMPI DUP4 SWAP3 PUSH1 0x20 SWAP3 PUSH2 0xB3D JUMPI JUMPDEST POP PUSH2 0xA1E PUSH2 0x46F PUSH1 0x2 PUSH2 0x3DF JUMP JUMPDEST PUSH2 0x9EF DUP7 PUSH2 0xA2C PUSH1 0x4 PUSH2 0x3DF JUMP JUMPDEST SWAP4 PUSH2 0xA46 PUSH2 0xA39 PUSH1 0x40 MLOAD SWAP1 JUMP JUMPDEST SWAP8 DUP9 SWAP7 DUP8 SWAP6 DUP7 SWAP5 PUSH1 0xE0 SHL SWAP1 JUMP JUMPDEST SUB SWAP3 GAS CALL DUP1 ISZERO PUSH2 0x4DE JUMPI PUSH2 0xB20 JUMPI JUMPDEST POP PUSH2 0xA63 PUSH2 0x46F PUSH1 0x3 PUSH2 0x3DF JUMP JUMPDEST SWAP2 DUP3 EXTCODESIZE ISZERO PUSH2 0x108 JUMPI DUP1 PUSH2 0xA75 PUSH1 0x40 MLOAD SWAP1 JUMP JUMPDEST SWAP4 DUP5 SWAP1 PUSH4 0x40C10F19 PUSH1 0xE0 SHL DUP3 MSTORE DUP2 DUP4 DUP2 PUSH2 0xA93 DUP11 CALLER PUSH1 0x4 DUP5 ADD PUSH2 0x540 JUMP JUMPDEST SUB SWAP3 GAS CALL SWAP3 DUP4 ISZERO PUSH2 0x4DE JUMPI PUSH32 0x1449C6DD7851ABC30ABF37F57715F492010519147CC2652FBC38202C18A6EE90 SWAP4 PUSH2 0xB03 JUMPI JUMPDEST POP POP PUSH2 0xAE4 PUSH2 0xADD DUP5 PUSH2 0xAD8 PUSH1 0x5 PUSH2 0x745 JUMP JUMPDEST PUSH2 0x94A JUMP JUMPDEST PUSH1 0x5 PUSH2 0x967 JUMP JUMPDEST PUSH2 0xAED CALLER PUSH2 0x1B7 JUMP JUMPDEST SWAP3 PUSH2 0x68F PUSH2 0xAFA PUSH1 0x40 MLOAD SWAP1 JUMP JUMPDEST SWAP3 DUP4 SWAP3 DUP4 PUSH2 0x982 JUMP JUMPDEST DUP2 PUSH2 0xB19 SWAP3 SWAP1 RETURNDATASIZE LT PUSH2 0x6E6 JUMPI PUSH2 0x6D8 DUP2 DUP4 PUSH2 0x3FF JUMP JUMPDEST CODESIZE DUP1 PUSH2 0xAC5 JUMP JUMPDEST PUSH2 0xB38 SWAP1 PUSH1 0x20 RETURNDATASIZE PUSH1 0x20 GT PUSH2 0x6BA JUMPI PUSH2 0x6AD DUP2 DUP4 PUSH2 0x3FF JUMP JUMPDEST PUSH2 0xA55 JUMP JUMPDEST PUSH2 0xB53 SWAP1 DUP4 RETURNDATASIZE DUP6 GT PUSH2 0x6BA JUMPI PUSH2 0x6AD DUP2 DUP4 PUSH2 0x3FF JUMP JUMPDEST PUSH2 0xA10 JUMP JUMPDEST POP PUSH2 0x9B3 PUSH2 0xB65 DUP4 PUSH2 0x4E3 JUMP JUMPDEST DUP3 GT SWAP1 POP PUSH2 0x9AA JUMP JUMPDEST PUSH2 0xF3 PUSH1 0x0 PUSH2 0x3DF JUMP JUMPDEST PUSH2 0x11A SWAP1 PUSH2 0xB84 PUSH2 0xC62 JUMP JUMPDEST PUSH2 0xBE4 JUMP JUMPDEST ISZERO PUSH2 0xB90 JUMPI JUMP JUMPDEST PUSH1 0x40 MLOAD PUSH3 0x461BCD PUSH1 0xE5 SHL DUP2 MSTORE PUSH1 0x20 PUSH1 0x4 DUP3 ADD MSTORE PUSH1 0x26 PUSH1 0x24 DUP3 ADD MSTORE PUSH32 0x4F776E61626C653A206E6577206F776E657220697320746865207A65726F2061 PUSH1 0x44 DUP3 ADD MSTORE PUSH6 0x646472657373 PUSH1 0xD0 SHL PUSH1 0x64 DUP3 ADD MSTORE PUSH1 0x84 SWAP1 REVERT JUMPDEST PUSH2 0x11A SWAP1 PUSH2 0x720 PUSH2 0xBF8 PUSH2 0xE7 PUSH1 0x0 PUSH2 0x70A JUMP JUMPDEST PUSH1 0x1 PUSH1 0x1 PUSH1 0xA0 SHL SUB DUP4 AND EQ ISZERO PUSH2 0xB89 JUMP JUMPDEST PUSH2 0x11A SWAP1 PUSH2 0xB78 JUMP JUMPDEST ISZERO PUSH2 0xC19 JUMPI JUMP JUMPDEST PUSH1 0x40 MLOAD PUSH3 0x461BCD PUSH1 0xE5 SHL DUP2 MSTORE DUP1 PUSH2 0x53C PUSH1 0x4 DUP3 ADD PUSH1 0x20 DUP1 DUP3 MSTORE DUP2 DUP2 ADD MSTORE PUSH32 0x4F776E61626C653A2063616C6C6572206973206E6F7420746865206F776E6572 PUSH1 0x40 DUP3 ADD MSTORE PUSH1 0x60 ADD SWAP1 JUMP JUMPDEST PUSH2 0x11A PUSH2 0xC6D PUSH2 0xB6E JUMP JUMPDEST PUSH2 0xC86 PUSH2 0xC79 CALLER PUSH2 0xE7 JUMP JUMPDEST SWAP2 PUSH1 0x1 PUSH1 0x1 PUSH1 0xA0 SHL SUB AND SWAP1 JUMP JUMPDEST EQ PUSH2 0xC12 JUMP JUMPDEST SWAP1 PUSH1 0x1 PUSH1 0x1 PUSH1 0xA0 SHL SUB SWAP1 PUSH2 0x95D JUMP JUMPDEST SWAP1 PUSH2 0xCAB PUSH2 0xF3 PUSH2 0x97E SWAP3 PUSH2 0x1B7 JUMP JUMPDEST DUP3 SLOAD PUSH2 0xC8C JUMP JUMPDEST PUSH2 0xCD3 PUSH2 0xCCD PUSH2 0xCC2 PUSH1 0x0 PUSH2 0x3DF JUMP JUMPDEST PUSH2 0x46F DUP5 PUSH1 0x0 PUSH2 0xC9B JUMP JUMPDEST SWAP2 PUSH2 0x1B7 JUMP JUMPDEST SWAP1 PUSH32 0x8BE0079C531659141344CD1FD0A4F28419497F9722A3DAAFE3B4186F6B6457E0 PUSH2 0xCFE PUSH1 0x40 MLOAD SWAP1 JUMP JUMPDEST PUSH1 0x0 SWAP1 LOG3 JUMP INVALID LOG2 PUSH5 0x6970667358 0x22 SLT KECCAK256 0xDE SWAP12 LOG2 0x24 0xC4 DUP11 0xFB SAR 0xAD EXP DUP1 PUSH27 0x735DD9F8BB6AB67B16479EA9497D053457827E5064736F6C634300 ADDMOD XOR STOP CALLER "},"methodIdentifiers":{"betStakingToken()":"14795cef","getStakeAmount(address)":"0c2eb403","liquidityToken()":"43cd8f7e","owner()":"8da5cb5b","penalize(address)":"78d97c94","penaltyRate()":"d6b7494f","renounceOwnership()":"715018a6","stake(uint256,uint256)":"7b0472f0","stakingToken()":"72f702f3","totalStaked()":"817b1cd2","transferOwnership(address)":"f2fde38b","treasuryAddress()":"c5f956af","withdraw(uint256)":"2e1a7d4d"}}}}}