{"contracts/MatchNFT.sol":{"MatchNFT":{"abi":[{"inputs":[{"internalType":"string","name":"_baseURI","type":"string"}],"stateMutability":"nonpayable","type":"constructor"},{"anonymous":false,"inputs":[{"indexed":true,"internalType":"address","name":"owner","type":"address"},{"indexed":true,"internalType":"address","name":"approved","type":"address"},{"indexed":true,"internalType":"uint256","name":"tokenId","type":"uint256"}],"name":"Approval","type":"event"},{"anonymous":false,"inputs":[{"indexed":true,"internalType":"address","name":"owner","type":"address"},{"indexed":true,"internalType":"address","name":"operator","type":"address"},{"indexed":false,"internalType":"bool","name":"approved","type":"bool"}],"name":"ApprovalForAll","type":"event"},{"anonymous":false,"inputs":[{"indexed":true,"internalType":"address","name":"from","type":"address"},{"indexed":true,"internalType":"address","name":"to","type":"address"},{"indexed":true,"internalType":"uint256","name":"tokenId","type":"uint256"}],"name":"Transfer","type":"event"},{"inputs":[{"internalType":"address","name":"to","type":"address"},{"internalType":"uint256","name":"tokenId","type":"uint256"}],"name":"approve","outputs":[],"stateMutability":"nonpayable","type":"function"},{"inputs":[{"internalType":"address","name":"owner","type":"address"}],"name":"balanceOf","outputs":[{"internalType":"uint256","name":"","type":"uint256"}],"stateMutability":"view","type":"function"},{"inputs":[{"internalType":"uint256","name":"tokenId","type":"uint256"}],"name":"getApproved","outputs":[{"internalType":"address","name":"","type":"address"}],"stateMutability":"view","type":"function"},{"inputs":[{"internalType":"address","name":"owner","type":"address"},{"internalType":"address","name":"operator","type":"address"}],"name":"isApprovedForAll","outputs":[{"internalType":"bool","name":"","type":"bool"}],"stateMutability":"view","type":"function"},{"inputs":[{"internalType":"uint256","name":"eventId","type":"uint256"},{"internalType":"address","name":"to","type":"address"}],"name":"mint","outputs":[],"stateMutability":"nonpayable","type":"function"},{"inputs":[],"name":"name","outputs":[{"internalType":"string","name":"","type":"string"}],"stateMutability":"view","type":"function"},{"inputs":[{"internalType":"uint256","name":"tokenId","type":"uint256"}],"name":"ownerOf","outputs":[{"internalType":"address","name":"","type":"address"}],"stateMutability":"view","type":"function"},{"inputs":[{"internalType":"address","name":"from","type":"address"},{"internalType":"address","name":"to","type":"address"},{"internalType":"uint256","name":"tokenId","type":"uint256"}],"name":"safeTransferFrom","outputs":[],"stateMutability":"nonpayable","type":"function"},{"inputs":[{"internalType":"address","name":"from","type":"address"},{"internalType":"address","name":"to","type":"address"},{"internalType":"uint256","name":"tokenId","type":"uint256"},{"internalType":"bytes","name":"data","type":"bytes"}],"name":"safeTransferFrom","outputs":[],"stateMutability":"nonpayable","type":"function"},{"inputs":[{"internalType":"address","name":"operator","type":"address"},{"internalType":"bool","name":"approved","type":"bool"}],"name":"setApprovalForAll","outputs":[],"stateMutability":"nonpayable","type":"function"},{"inputs":[{"internalType":"string","name":"_baseURI","type":"string"}],"name":"setBaseURI","outputs":[],"stateMutability":"nonpayable","type":"function"},{"inputs":[{"internalType":"bytes4","name":"interfaceId","type":"bytes4"}],"name":"supportsInterface","outputs":[{"internalType":"bool","name":"","type":"bool"}],"stateMutability":"view","type":"function"},{"inputs":[],"name":"symbol","outputs":[{"internalType":"string","name":"","type":"string"}],"stateMutability":"view","type":"function"},{"inputs":[{"internalType":"uint256","name":"tokenId","type":"uint256"}],"name":"tokenURI","outputs":[{"internalType":"string","name":"","type":"string"}],"stateMutability":"view","type":"function"},{"inputs":[{"internalType":"address","name":"from","type":"address"},{"internalType":"address","name":"to","type":"address"},{"internalType":"uint256","name":"tokenId","type":"uint256"}],"name":"transferFrom","outputs":[],"stateMutability":"nonpayable","type":"function"}],"evm":{"bytecode":{"linkReferences":{},"object":"60806040523462000030576200001e620000186200014d565b620003cb565b6040516118b16200041282396118b190f35b600080fd5b634e487b7160e01b600052604160045260246000fd5b90601f01601f191681019081106001600160401b038211176200006d57604052565b62000035565b906200008a6200008260405190565b92836200004b565b565b6001600160401b0381116200006d57602090601f01601f19160190565b60005b838110620000bd5750506000910152565b8181015183820152602001620000ac565b90929192620000e7620000e1826200008c565b62000073565b938185528183011162000030576200008a916020850190620000a9565b9080601f83011215620000305781516200012192602001620000ce565b90565b90602082820312620000305781516001600160401b038111620000305762000121920162000104565b6200012162001cc380380380620001648162000073565b92833981019062000124565b9062000180620000e1836200008c565b918252565b62000191600862000170565b6713585d18da13919560c21b602082015290565b6200012162000185565b620001bb600462000170565b631353919560e21b602082015290565b62000121620001af565b634e487b7160e01b600052602260045260246000fd5b90600160028304921680156200020e575b60208310146200020857565b620001d5565b91607f1691620001fc565b6200012162000121620001219290565b91906200023e62000121620002569362000219565b90835460001960089290920291821b191691901b1790565b9055565b6200008a9160009162000229565b81811062000274575050565b806200028460006001936200025a565b0162000268565b9190601f81116200029b57505050565b620002af6200008a93600052602060002090565b906020601f840181900483019310620002d3575b6020601f90910104019062000268565b9091508190620002c3565b90620002e8815190565b906001600160401b0382116200006d576200031082620003098554620001eb565b856200028b565b602090601f83116001146200034f576200025692916000918362000343575b5050600019600883021c1916906002021790565b0151905038806200032f565b601f198316916200036585600052602060002090565b9260005b818110620003a6575091600293918560019694106200038c575b50505002019055565b01516000196008601f8516021c1916905538808062000383565b9193602060018192878701518155019501920162000369565b906200008a91620002de565b6200008a90620003ef620003de620001a5565b620003e8620001cb565b90620003f7565b6006620003bf565b90620004096200008a926000620003bf565b6001620003bf56fe6080604052600436101561001257600080fd5b60003560e01c806301ffc9a71461010257806306fdde03146100fd578063081812fc146100f8578063095ea7b3146100f357806323b872dd146100ee57806342842e0e146100e957806355f804b3146100e45780636352211e146100df57806370a08231146100da57806394bf804d146100d557806395d89b41146100d0578063a22cb465146100cb578063b88d4fde146100c6578063c87b56dd146100c15763e985e9c50361011a576105dc565b6105a5565b610589565b610520565b6104cd565b6104b4565b610466565b610437565b61041f565b61031c565b610303565b6102bc565b610248565b6101ee565b610145565b6001600160e01b031981165b0361011a57565b600080fd5b9050359061012c82610107565b565b9060208282031261011a576101429161011f565b90565b3461011a5761017361016061015b36600461012e565b6105f8565b6040515b91829182901515815260200190565b0390f35b600091031261011a57565b60005b8381106101955750506000910152565b8181015183820152602001610185565b6101c66101cf6020936101d9936101ba815190565b80835293849260200190565b95869101610182565b601f01601f191690565b0190565b6020808252610142929101906101a5565b3461011a576101fe366004610177565b61017361020961073b565b604051918291826101dd565b80610113565b9050359061012c82610215565b9060208282031261011a576101429161021b565b6001600160a01b031690565b3461011a5761017361026361025e366004610228565b61076a565b604051918291826001600160a01b03909116815260200190565b6001600160a01b038116610113565b9050359061012c8261027d565b919060408382031261011a576101429060206102b5828661028c565b940161021b565b3461011a576102d56102cf366004610299565b90610863565b604051005b909160608284031261011a576101426102f3848461028c565b9360406102b5826020870161028c565b3461011a576102d56103163660046102da565b91610926565b3461011a576102d561032f3660046102da565b91610967565b634e487b7160e01b600052604160045260246000fd5b90601f01601f1916810190811067ffffffffffffffff82111761036d57604052565b610335565b9061012c61037f60405190565b928361034b565b67ffffffffffffffff811161036d57602090601f01601f19160190565b90826000939282370152565b909291926103c46103bf82610386565b610372565b938185528183011161011a5761012c9160208501906103a3565b9080601f8301121561011a57816020610142933591016103af565b9060208282031261011a57813567ffffffffffffffff811161011a5761014292016103de565b3461011a576102d56104323660046103f9565b610b07565b3461011a5761017361026361044d366004610228565b610b74565b9060208282031261011a576101429161028c565b3461011a5761017361048161047c366004610452565b610c41565b6040519182918290815260200190565b919060408382031261011a576101429060206104ad828661021b565b940161028c565b3461011a576102d56104c7366004610491565b90610cea565b3461011a576104dd366004610177565b610173610209610d2c565b801515610113565b9050359061012c826104e8565b919060408382031261011a57610142906020610519828661028c565b94016104f0565b3461011a576102d56105333660046104fd565b90610d36565b9060808282031261011a5761054e818361028c565b9261055c826020850161028c565b9261056a836040830161021b565b92606082013567ffffffffffffffff811161011a5761014292016103de565b3461011a576102d561059c366004610539565b92919091610d41565b3461011a576101736102096105bb366004610228565b610e6e565b919060408382031261011a576101429060206104ad828661028c565b3461011a576101736101606105f23660046105c0565b90610ebe565b6380ac58cd60e01b6001600160e01b0319821614908115610628575b811561061e575090565b6101429150610ede565b6001600160e01b03198116635b5e139f60e01b149150610614565b634e487b7160e01b600052602260045260246000fd5b9060016002830492168015610679575b602083101461067457565b610643565b91607f1691610669565b805460009392916106a061069683610659565b8085529360200190565b91600181169081156106f257506001146106b957505050565b6106cc9192939450600052602060002090565b916000925b8184106106de5750500190565b8054848401526020909301926001016106d1565b92949550505060ff1916825215156020020190565b9061014291610683565b9061012c61072b9261072260405190565b93848092610707565b038361034b565b61014290610711565b6101426000610732565b6101426101426101429290565b9061075c90610745565b600052602052604060002090565b61078a61014291610779600090565b5061078381610efc565b6004610752565b546001600160a01b031690565b1561079e57565b60405162461bcd60e51b815260206004820152602160248201527f4552433732313a20617070726f76616c20746f2063757272656e74206f776e656044820152603960f91b6064820152608490fd5b0390fd5b156107f857565b60405162461bcd60e51b815260206004820152603d60248201527f4552433732313a20617070726f76652063616c6c6572206973206e6f7420746f60448201527f6b656e206f776e6572206f7220617070726f76656420666f7220616c6c0000006064820152608490fd5b9061012c916108ae61087483610b74565b6108926001600160a01b0382166001600160a01b0385161415610797565b336001600160a01b03821681149182156108b3575b50506107f1565b610f33565b6108bd9250610ebe565b38806108a7565b156108cb57565b60405162461bcd60e51b815260206004820152602d60248201527f4552433732313a2063616c6c6572206973206e6f7420746f6b656e206f776e6560448201526c1c881bdc88185c1c1c9bdd9959609a1b6064820152608490fd5b61012c92919061093e6109398433610f9c565b6108c4565b611120565b906109506103bf83610386565b918252565b6101426000610943565b610142610955565b909161012c9261097561095f565b92610d41565b9160001960089290920291821b911b5b9181191691161790565b91906109a66101426109ae93610745565b90835461097b565b9055565b61012c91600091610995565b8181106109c9575050565b806109d760006001936109b2565b016109be565b9190601f81116109ec57505050565b6109fe61012c93600052602060002090565b906020601f840181900483019310610a20575b6020601f9091010401906109be565b9091508190610a11565b90610a33815190565b9067ffffffffffffffff821161036d57610a5782610a518554610659565b856109dd565b602090601f8311600114610a92576109ae929160009183610a87575b5050600019600883021c1916906002021790565b015190503880610a73565b601f19831691610aa785600052602060002090565b9260005b818110610ae557509160029391856001969410610acc575b50505002019055565b01516000196008601f8516021c19169055388080610ac3565b91936020600181928787015181550195019201610aab565b9061012c91610a2a565b61012c906006610afd565b61023c6101426101429290565b61014290610b12565b15610b2f57565b60405162461bcd60e51b815260206004820152601860248201527f4552433732313a20696e76616c696420746f6b656e20494400000000000000006044820152606490fd5b610b819060005b50611217565b610142610b9161023c6000610b1f565b6001600160a01b0383161415610b28565b15610ba957565b60405162461bcd60e51b815260206004820152602960248201527f4552433732313a2061646472657373207a65726f206973206e6f7420612076616044820152683634b21037bbb732b960b91b6064820152608490fd5b6101429061023c906001600160a01b031682565b61014290610c00565b61014290610c14565b9061075c90610c1d565b6101429081565b6101429054610c30565b610c7961014291610c50600090565b50610c72610c6161023c6000610b1f565b6001600160a01b0383161415610ba2565b6003610c26565b610c37565b15610c8557565b60405162461bcd60e51b815260206004820152601f60248201527f4e465420666f72206576656e7420494420616c7265616479206d696e746564006044820152606490fd5b9060ff9061098b565b90610ce36101426109ae92151590565b8254610cca565b61012c91610d12610d0d610d09610d02856007610752565b5460ff1690565b1590565b610c7e565b610d276001610d22846007610752565b610cd3565b6112ca565b6101426001610732565b61012c919033611378565b61012c93929190610d556109398433610f9c565b611451565b15610d6157565b60405162461bcd60e51b815260206004820152602f60248201527f4552433732314d657461646174613a2055524920717565727920666f72206e6f60448201526e3732bc34b9ba32b73a103a37b5b2b760891b6064820152608490fd5b80546000939291610dd5610dd183610659565b9390565b9160018116908115610e265750600114610dee57505050565b610e019192939450600052602060002090565b6000905b838210610e125750500190565b600181602092548486015201910190610e05565b60ff191683525050811515909102019150565b6101d9610e5192602092610e4b815190565b94859290565b93849101610182565b610e68906101429392610dbe565b90610e39565b610e9461014291610e7d606090565b50610e8f610e8a82611470565b610d5a565b6114e8565b610142610ea060405190565b8092610eb26020830191600683610e5a565b9081038252038261034b565b61014291610ed9610d0292610ed1600090565b506005610c26565b610c26565b610ef86301ffc9a760e01b5b916001600160e01b03191690565b1490565b610f0861012c91611470565b610b28565b906001600160a01b039061098b565b90610f2c6101426109ae92610c1d565b8254610f0d565b90610f4882610f43836004610752565b610f1c565b610f6b610f65610f5f610f5a84610b74565b610c1d565b93610c1d565b91610745565b917f8c5be1e5ebec7d5bd14f71427d1e84f3dd0314c0f7b2291e5b200ac8c7c3b925610f9660405190565b600090a4565b610fa582610b74565b916001600160a01b0383166001600160a01b03831614928315610ffb575b508215610fcf57505090565b610ef8919250610fe1610fee9161076a565b926001600160a01b031690565b916001600160a01b031690565b6110089193508290610ebe565b9138610fc3565b1561101657565b60405162461bcd60e51b815260206004820152602560248201527f4552433732313a207472616e736665722066726f6d20696e636f72726563742060448201526437bbb732b960d91b6064820152608490fd5b1561107057565b60405162461bcd60e51b8152602060048201526024808201527f4552433732313a207472616e7366657220746f20746865207a65726f206164646044820152637265737360e01b6064820152608490fd5b916001600160a01b0360089290920291821b911b61098b565b91906110eb6101426109ae93610c1d565b9083546110c1565b61012c916000916110da565b906000199061098b565b906111196101426109ae92610745565b82546110ff565b610f65610f5f6111ec9294939461115161113986610b74565b61114b6001600160a01b038416610fee565b1461100f565b61117261116161023c6000610b1f565b6001600160a01b0388161415611069565b61117e61113986610b74565b611193600061118e876004610752565b6110f3565b6111dd6111a06001610745565b6111c56111ae846003610c26565b6111bf836111bb83610c37565b0390565b90611109565b6111bf6111d3896003610c26565b916101d983610c37565b610f5a86610f43876002610752565b917fddf252ad1be2c89b69c2b068fc378daa952ba7f163c4a11628f55a4df523b3ef610f9660405190565b61078a61014291611226600090565b506002610752565b1561123557565b60405162461bcd60e51b8152806107ed600482016020808252818101527f4552433732313a206d696e7420746f20746865207a65726f2061646472657373604082015260600190565b1561128557565b60405162461bcd60e51b815260206004820152601c60248201527f4552433732313a20746f6b656e20616c7265616479206d696e746564000000006044820152606490fd5b906111ec610f65610f5f6112de6000610b1f565b6112fc6001600160a01b0382166001600160a01b038816141561122e565b61131061130b610d0987611470565b61127e565b61131f61130b610d0987611470565b6111dd6111c56001610745565b1561133357565b60405162461bcd60e51b815260206004820152601960248201527f4552433732313a20617070726f766520746f2063616c6c6572000000000000006044820152606490fd5b6113e46113da610f5f7f17307eab39ab6107e8899845ad3d59bd9653f200f220920489ca2b5937696c31936113c76113b6876001600160a01b031690565b6001600160a01b038316141561132c565b610f5a87610d2288610ed9856005610c26565b9361016460405190565b0390a3565b156113f057565b6040515b62461bcd60e51b815260206004820152603260248201527f4552433732313a207472616e7366657220746f206e6f6e20455243373231526560448201527131b2b4bb32b91034b6b83632b6b2b73a32b960711b6064820152608490fd5b9161012c939161146b93611466838383611120565b6115ec565b6113e9565b61147b906000610b7b565b61148b610fee61023c6000610b1f565b141590565b369037565b9061012c6114ab6114a584610943565b93610386565b601f190160208401611490565b634e487b7160e01b600052601260045260246000fd5b906114d8565b9190565b9081156114e3570490565b6114b8565b6114f1816116c7565b906115026001926101d96001610745565b918061150d84611495565b936020018401905b611520575b50505090565b81156115765761155a9060001901926f181899199a1a9b1b9c1cb0b131b232b360811b600a82061a8453611554600a610745565b906114ce565b90816115696114d46000610745565b1461157657909181611515565b61151a565b9050519061012c82610107565b9060208282031261011a576101429161157b565b6001600160a01b039182168152911660208201526040810191909152608060608201819052610142929101906101a5565b3d156115e7576115dc3d610943565b903d6000602084013e565b606090565b6000949392916115fb81611869565b156116bd5790611610610f5a60209493610c1d565b9060003361163a61162060405190565b97889687958694630a85bd0160e11b86526004860161159c565b03925af16000918161168c575b5061167957506116556115cd565b80516116646114d46000610745565b03611671576040516113f4565b805190602001fd5b909150610ef8630a85bd0160e11b610eea565b6116af91925060203d6020116116b6575b6116a7818361034b565b810190611588565b9038611647565b503d61169d565b5060019450505050565b6116d16000610745565b907a184f03e93ff9f4daa797ed6e38ed64bf6a1f0100000000000000006116f781610745565b821015611847575b506d04ee2d6d415b85acef810000000061171881610745565b821015611825575b50662386f26fc1000061173281610745565b821015611803575b506305f5e10061174981610745565b8210156117e1575b5061271061175e81610745565b8210156117bf575b506117716064610745565b81101561179d575b6117866114d4600a610745565b101561178f5790565b610142906101d96001610745565b6117ae6117b9916115546064610745565b916101d96002610745565b90611779565b6117da916115546117cf92610745565b916101d96004610745565b9038611766565b6117fc916115546117f192610745565b916101d96008610745565b9038611751565b61181e9161155461181392610745565b916101d96010610745565b903861173a565b6118409161155461183592610745565b916101d96020610745565b9038611720565b6118629161155461185792610745565b916101d96040610745565b90386116ff565b3b6118776114d46000610745565b119056fea2646970667358221220969debb2e3c1f7369e074eb182cf117dfa0d00f0bc567f492a014c2346ba3ff864736f6c63430008180033","opcodes":"PUSH1 0x80 PUSH1 0x40 MSTORE CALLVALUE PUSH3 0x30 JUMPI PUSH3 0x1E PUSH3 0x18 PUSH3 0x14D JUMP JUMPDEST PUSH3 0x3CB JUMP JUMPDEST PUSH1 0x40 MLOAD PUSH2 0x18B1 PUSH3 0x412 DUP3 CODECOPY PUSH2 0x18B1 SWAP1 RETURN JUMPDEST PUSH1 0x0 DUP1 REVERT JUMPDEST PUSH4 0x4E487B71 PUSH1 0xE0 SHL PUSH1 0x0 MSTORE PUSH1 0x41 PUSH1 0x4 MSTORE PUSH1 0x24 PUSH1 0x0 REVERT JUMPDEST SWAP1 PUSH1 0x1F ADD PUSH1 0x1F NOT AND DUP2 ADD SWAP1 DUP2 LT PUSH1 0x1 PUSH1 0x1 PUSH1 0x40 SHL SUB DUP3 GT OR PUSH3 0x6D JUMPI PUSH1 0x40 MSTORE JUMP JUMPDEST PUSH3 0x35 JUMP JUMPDEST SWAP1 PUSH3 0x8A PUSH3 0x82 PUSH1 0x40 MLOAD SWAP1 JUMP JUMPDEST SWAP3 DUP4 PUSH3 0x4B JUMP JUMPDEST JUMP JUMPDEST PUSH1 0x1 PUSH1 0x1 PUSH1 0x40 SHL SUB DUP2 GT PUSH3 0x6D JUMPI PUSH1 0x20 SWAP1 PUSH1 0x1F ADD PUSH1 0x1F NOT AND ADD SWAP1 JUMP JUMPDEST PUSH1 0x0 JUMPDEST DUP4 DUP2 LT PUSH3 0xBD JUMPI POP POP PUSH1 0x0 SWAP2 ADD MSTORE JUMP JUMPDEST DUP2 DUP2 ADD MLOAD DUP4 DUP3 ADD MSTORE PUSH1 0x20 ADD PUSH3 0xAC JUMP JUMPDEST SWAP1 SWAP3 SWAP2 SWAP3 PUSH3 0xE7 PUSH3 0xE1 DUP3 PUSH3 0x8C JUMP JUMPDEST PUSH3 0x73 JUMP JUMPDEST SWAP4 DUP2 DUP6 MSTORE DUP2 DUP4 ADD GT PUSH3 0x30 JUMPI PUSH3 0x8A SWAP2 PUSH1 0x20 DUP6 ADD SWAP1 PUSH3 0xA9 JUMP JUMPDEST SWAP1 DUP1 PUSH1 0x1F DUP4 ADD SLT ISZERO PUSH3 0x30 JUMPI DUP2 MLOAD PUSH3 0x121 SWAP3 PUSH1 0x20 ADD PUSH3 0xCE JUMP JUMPDEST SWAP1 JUMP JUMPDEST SWAP1 PUSH1 0x20 DUP3 DUP3 SUB SLT PUSH3 0x30 JUMPI DUP2 MLOAD PUSH1 0x1 PUSH1 0x1 PUSH1 0x40 SHL SUB DUP2 GT PUSH3 0x30 JUMPI PUSH3 0x121 SWAP3 ADD PUSH3 0x104 JUMP JUMPDEST PUSH3 0x121 PUSH3 0x1CC3 DUP1 CODESIZE SUB DUP1 PUSH3 0x164 DUP2 PUSH3 0x73 JUMP JUMPDEST SWAP3 DUP4 CODECOPY DUP2 ADD SWAP1 PUSH3 0x124 JUMP JUMPDEST SWAP1 PUSH3 0x180 PUSH3 0xE1 DUP4 PUSH3 0x8C JUMP JUMPDEST SWAP2 DUP3 MSTORE JUMP JUMPDEST PUSH3 0x191 PUSH1 0x8 PUSH3 0x170 JUMP JUMPDEST PUSH8 0x13585D18DA139195 PUSH1 0xC2 SHL PUSH1 0x20 DUP3 ADD MSTORE SWAP1 JUMP JUMPDEST PUSH3 0x121 PUSH3 0x185 JUMP JUMPDEST PUSH3 0x1BB PUSH1 0x4 PUSH3 0x170 JUMP JUMPDEST PUSH4 0x13539195 PUSH1 0xE2 SHL PUSH1 0x20 DUP3 ADD MSTORE SWAP1 JUMP JUMPDEST PUSH3 0x121 PUSH3 0x1AF JUMP JUMPDEST PUSH4 0x4E487B71 PUSH1 0xE0 SHL PUSH1 0x0 MSTORE PUSH1 0x22 PUSH1 0x4 MSTORE PUSH1 0x24 PUSH1 0x0 REVERT JUMPDEST SWAP1 PUSH1 0x1 PUSH1 0x2 DUP4 DIV SWAP3 AND DUP1 ISZERO PUSH3 0x20E JUMPI JUMPDEST PUSH1 0x20 DUP4 LT EQ PUSH3 0x208 JUMPI JUMP JUMPDEST PUSH3 0x1D5 JUMP JUMPDEST SWAP2 PUSH1 0x7F AND SWAP2 PUSH3 0x1FC JUMP JUMPDEST PUSH3 0x121 PUSH3 0x121 PUSH3 0x121 SWAP3 SWAP1 JUMP JUMPDEST SWAP2 SWAP1 PUSH3 0x23E PUSH3 0x121 PUSH3 0x256 SWAP4 PUSH3 0x219 JUMP JUMPDEST SWAP1 DUP4 SLOAD PUSH1 0x0 NOT PUSH1 0x8 SWAP3 SWAP1 SWAP3 MUL SWAP2 DUP3 SHL NOT AND SWAP2 SWAP1 SHL OR SWAP1 JUMP JUMPDEST SWAP1 SSTORE JUMP JUMPDEST PUSH3 0x8A SWAP2 PUSH1 0x0 SWAP2 PUSH3 0x229 JUMP JUMPDEST DUP2 DUP2 LT PUSH3 0x274 JUMPI POP POP JUMP JUMPDEST DUP1 PUSH3 0x284 PUSH1 0x0 PUSH1 0x1 SWAP4 PUSH3 0x25A JUMP JUMPDEST ADD PUSH3 0x268 JUMP JUMPDEST SWAP2 SWAP1 PUSH1 0x1F DUP2 GT PUSH3 0x29B JUMPI POP POP POP JUMP JUMPDEST PUSH3 0x2AF PUSH3 0x8A SWAP4 PUSH1 0x0 MSTORE PUSH1 0x20 PUSH1 0x0 KECCAK256 SWAP1 JUMP JUMPDEST SWAP1 PUSH1 0x20 PUSH1 0x1F DUP5 ADD DUP2 SWAP1 DIV DUP4 ADD SWAP4 LT PUSH3 0x2D3 JUMPI JUMPDEST PUSH1 0x20 PUSH1 0x1F SWAP1 SWAP2 ADD DIV ADD SWAP1 PUSH3 0x268 JUMP JUMPDEST SWAP1 SWAP2 POP DUP2 SWAP1 PUSH3 0x2C3 JUMP JUMPDEST SWAP1 PUSH3 0x2E8 DUP2 MLOAD SWAP1 JUMP JUMPDEST SWAP1 PUSH1 0x1 PUSH1 0x1 PUSH1 0x40 SHL SUB DUP3 GT PUSH3 0x6D JUMPI PUSH3 0x310 DUP3 PUSH3 0x309 DUP6 SLOAD PUSH3 0x1EB JUMP JUMPDEST DUP6 PUSH3 0x28B JUMP JUMPDEST PUSH1 0x20 SWAP1 PUSH1 0x1F DUP4 GT PUSH1 0x1 EQ PUSH3 0x34F JUMPI PUSH3 0x256 SWAP3 SWAP2 PUSH1 0x0 SWAP2 DUP4 PUSH3 0x343 JUMPI JUMPDEST POP POP PUSH1 0x0 NOT PUSH1 0x8 DUP4 MUL SHR NOT AND SWAP1 PUSH1 0x2 MUL OR SWAP1 JUMP JUMPDEST ADD MLOAD SWAP1 POP CODESIZE DUP1 PUSH3 0x32F JUMP JUMPDEST PUSH1 0x1F NOT DUP4 AND SWAP2 PUSH3 0x365 DUP6 PUSH1 0x0 MSTORE PUSH1 0x20 PUSH1 0x0 KECCAK256 SWAP1 JUMP JUMPDEST SWAP3 PUSH1 0x0 JUMPDEST DUP2 DUP2 LT PUSH3 0x3A6 JUMPI POP SWAP2 PUSH1 0x2 SWAP4 SWAP2 DUP6 PUSH1 0x1 SWAP7 SWAP5 LT PUSH3 0x38C JUMPI JUMPDEST POP POP POP MUL ADD SWAP1 SSTORE JUMP JUMPDEST ADD MLOAD PUSH1 0x0 NOT PUSH1 0x8 PUSH1 0x1F DUP6 AND MUL SHR NOT AND SWAP1 SSTORE CODESIZE DUP1 DUP1 PUSH3 0x383 JUMP JUMPDEST SWAP2 SWAP4 PUSH1 0x20 PUSH1 0x1 DUP2 SWAP3 DUP8 DUP8 ADD MLOAD DUP2 SSTORE ADD SWAP6 ADD SWAP3 ADD PUSH3 0x369 JUMP JUMPDEST SWAP1 PUSH3 0x8A SWAP2 PUSH3 0x2DE JUMP JUMPDEST PUSH3 0x8A SWAP1 PUSH3 0x3EF PUSH3 0x3DE PUSH3 0x1A5 JUMP JUMPDEST PUSH3 0x3E8 PUSH3 0x1CB JUMP JUMPDEST SWAP1 PUSH3 0x3F7 JUMP JUMPDEST PUSH1 0x6 PUSH3 0x3BF JUMP JUMPDEST SWAP1 PUSH3 0x409 PUSH3 0x8A SWAP3 PUSH1 0x0 PUSH3 0x3BF JUMP JUMPDEST PUSH1 0x1 PUSH3 0x3BF JUMP INVALID PUSH1 0x80 PUSH1 0x40 MSTORE PUSH1 0x4 CALLDATASIZE LT ISZERO PUSH2 0x12 JUMPI PUSH1 0x0 DUP1 REVERT JUMPDEST PUSH1 0x0 CALLDATALOAD PUSH1 0xE0 SHR DUP1 PUSH4 0x1FFC9A7 EQ PUSH2 0x102 JUMPI DUP1 PUSH4 0x6FDDE03 EQ PUSH2 0xFD JUMPI DUP1 PUSH4 0x81812FC EQ PUSH2 0xF8 JUMPI DUP1 PUSH4 0x95EA7B3 EQ PUSH2 0xF3 JUMPI DUP1 PUSH4 0x23B872DD EQ PUSH2 0xEE JUMPI DUP1 PUSH4 0x42842E0E EQ PUSH2 0xE9 JUMPI DUP1 PUSH4 0x55F804B3 EQ PUSH2 0xE4 JUMPI DUP1 PUSH4 0x6352211E EQ PUSH2 0xDF JUMPI DUP1 PUSH4 0x70A08231 EQ PUSH2 0xDA JUMPI DUP1 PUSH4 0x94BF804D EQ PUSH2 0xD5 JUMPI DUP1 PUSH4 0x95D89B41 EQ PUSH2 0xD0 JUMPI DUP1 PUSH4 0xA22CB465 EQ PUSH2 0xCB JUMPI DUP1 PUSH4 0xB88D4FDE EQ PUSH2 0xC6 JUMPI DUP1 PUSH4 0xC87B56DD EQ PUSH2 0xC1 JUMPI PUSH4 0xE985E9C5 SUB PUSH2 0x11A JUMPI PUSH2 0x5DC JUMP JUMPDEST PUSH2 0x5A5 JUMP JUMPDEST PUSH2 0x589 JUMP JUMPDEST PUSH2 0x520 JUMP JUMPDEST PUSH2 0x4CD JUMP JUMPDEST PUSH2 0x4B4 JUMP JUMPDEST PUSH2 0x466 JUMP JUMPDEST PUSH2 0x437 JUMP JUMPDEST PUSH2 0x41F JUMP JUMPDEST PUSH2 0x31C JUMP JUMPDEST PUSH2 0x303 JUMP JUMPDEST PUSH2 0x2BC JUMP JUMPDEST PUSH2 0x248 JUMP JUMPDEST PUSH2 0x1EE JUMP JUMPDEST PUSH2 0x145 JUMP JUMPDEST PUSH1 0x1 PUSH1 0x1 PUSH1 0xE0 SHL SUB NOT DUP2 AND JUMPDEST SUB PUSH2 0x11A JUMPI JUMP JUMPDEST PUSH1 0x0 DUP1 REVERT JUMPDEST SWAP1 POP CALLDATALOAD SWAP1 PUSH2 0x12C DUP3 PUSH2 0x107 JUMP JUMPDEST JUMP JUMPDEST SWAP1 PUSH1 0x20 DUP3 DUP3 SUB SLT PUSH2 0x11A JUMPI PUSH2 0x142 SWAP2 PUSH2 0x11F JUMP JUMPDEST SWAP1 JUMP JUMPDEST CALLVALUE PUSH2 0x11A JUMPI PUSH2 0x173 PUSH2 0x160 PUSH2 0x15B CALLDATASIZE PUSH1 0x4 PUSH2 0x12E JUMP JUMPDEST PUSH2 0x5F8 JUMP JUMPDEST PUSH1 0x40 MLOAD JUMPDEST SWAP2 DUP3 SWAP2 DUP3 SWAP1 ISZERO ISZERO DUP2 MSTORE PUSH1 0x20 ADD SWAP1 JUMP JUMPDEST SUB SWAP1 RETURN JUMPDEST PUSH1 0x0 SWAP2 SUB SLT PUSH2 0x11A JUMPI JUMP JUMPDEST PUSH1 0x0 JUMPDEST DUP4 DUP2 LT PUSH2 0x195 JUMPI POP POP PUSH1 0x0 SWAP2 ADD MSTORE JUMP JUMPDEST DUP2 DUP2 ADD MLOAD DUP4 DUP3 ADD MSTORE PUSH1 0x20 ADD PUSH2 0x185 JUMP JUMPDEST PUSH2 0x1C6 PUSH2 0x1CF PUSH1 0x20 SWAP4 PUSH2 0x1D9 SWAP4 PUSH2 0x1BA DUP2 MLOAD SWAP1 JUMP JUMPDEST DUP1 DUP4 MSTORE SWAP4 DUP5 SWAP3 PUSH1 0x20 ADD SWAP1 JUMP JUMPDEST SWAP6 DUP7 SWAP2 ADD PUSH2 0x182 JUMP JUMPDEST PUSH1 0x1F ADD PUSH1 0x1F NOT AND SWAP1 JUMP JUMPDEST ADD SWAP1 JUMP JUMPDEST PUSH1 0x20 DUP1 DUP3 MSTORE PUSH2 0x142 SWAP3 SWAP2 ADD SWAP1 PUSH2 0x1A5 JUMP JUMPDEST CALLVALUE PUSH2 0x11A JUMPI PUSH2 0x1FE CALLDATASIZE PUSH1 0x4 PUSH2 0x177 JUMP JUMPDEST PUSH2 0x173 PUSH2 0x209 PUSH2 0x73B JUMP JUMPDEST PUSH1 0x40 MLOAD SWAP2 DUP3 SWAP2 DUP3 PUSH2 0x1DD JUMP JUMPDEST DUP1 PUSH2 0x113 JUMP JUMPDEST SWAP1 POP CALLDATALOAD SWAP1 PUSH2 0x12C DUP3 PUSH2 0x215 JUMP JUMPDEST SWAP1 PUSH1 0x20 DUP3 DUP3 SUB SLT PUSH2 0x11A JUMPI PUSH2 0x142 SWAP2 PUSH2 0x21B JUMP JUMPDEST PUSH1 0x1 PUSH1 0x1 PUSH1 0xA0 SHL SUB AND SWAP1 JUMP JUMPDEST CALLVALUE PUSH2 0x11A JUMPI PUSH2 0x173 PUSH2 0x263 PUSH2 0x25E CALLDATASIZE PUSH1 0x4 PUSH2 0x228 JUMP JUMPDEST PUSH2 0x76A JUMP JUMPDEST PUSH1 0x40 MLOAD SWAP2 DUP3 SWAP2 DUP3 PUSH1 0x1 PUSH1 0x1 PUSH1 0xA0 SHL SUB SWAP1 SWAP2 AND DUP2 MSTORE PUSH1 0x20 ADD SWAP1 JUMP JUMPDEST PUSH1 0x1 PUSH1 0x1 PUSH1 0xA0 SHL SUB DUP2 AND PUSH2 0x113 JUMP JUMPDEST SWAP1 POP CALLDATALOAD SWAP1 PUSH2 0x12C DUP3 PUSH2 0x27D JUMP JUMPDEST SWAP2 SWAP1 PUSH1 0x40 DUP4 DUP3 SUB SLT PUSH2 0x11A JUMPI PUSH2 0x142 SWAP1 PUSH1 0x20 PUSH2 0x2B5 DUP3 DUP7 PUSH2 0x28C JUMP JUMPDEST SWAP5 ADD PUSH2 0x21B JUMP JUMPDEST CALLVALUE PUSH2 0x11A JUMPI PUSH2 0x2D5 PUSH2 0x2CF CALLDATASIZE PUSH1 0x4 PUSH2 0x299 JUMP JUMPDEST SWAP1 PUSH2 0x863 JUMP JUMPDEST PUSH1 0x40 MLOAD STOP JUMPDEST SWAP1 SWAP2 PUSH1 0x60 DUP3 DUP5 SUB SLT PUSH2 0x11A JUMPI PUSH2 0x142 PUSH2 0x2F3 DUP5 DUP5 PUSH2 0x28C JUMP JUMPDEST SWAP4 PUSH1 0x40 PUSH2 0x2B5 DUP3 PUSH1 0x20 DUP8 ADD PUSH2 0x28C JUMP JUMPDEST CALLVALUE PUSH2 0x11A JUMPI PUSH2 0x2D5 PUSH2 0x316 CALLDATASIZE PUSH1 0x4 PUSH2 0x2DA JUMP JUMPDEST SWAP2 PUSH2 0x926 JUMP JUMPDEST CALLVALUE PUSH2 0x11A JUMPI PUSH2 0x2D5 PUSH2 0x32F CALLDATASIZE PUSH1 0x4 PUSH2 0x2DA JUMP JUMPDEST SWAP2 PUSH2 0x967 JUMP JUMPDEST PUSH4 0x4E487B71 PUSH1 0xE0 SHL PUSH1 0x0 MSTORE PUSH1 0x41 PUSH1 0x4 MSTORE PUSH1 0x24 PUSH1 0x0 REVERT JUMPDEST SWAP1 PUSH1 0x1F ADD PUSH1 0x1F NOT AND DUP2 ADD SWAP1 DUP2 LT PUSH8 0xFFFFFFFFFFFFFFFF DUP3 GT OR PUSH2 0x36D JUMPI PUSH1 0x40 MSTORE JUMP JUMPDEST PUSH2 0x335 JUMP JUMPDEST SWAP1 PUSH2 0x12C PUSH2 0x37F PUSH1 0x40 MLOAD SWAP1 JUMP JUMPDEST SWAP3 DUP4 PUSH2 0x34B JUMP JUMPDEST PUSH8 0xFFFFFFFFFFFFFFFF DUP2 GT PUSH2 0x36D JUMPI PUSH1 0x20 SWAP1 PUSH1 0x1F ADD PUSH1 0x1F NOT AND ADD SWAP1 JUMP JUMPDEST SWAP1 DUP3 PUSH1 0x0 SWAP4 SWAP3 DUP3 CALLDATACOPY ADD MSTORE JUMP JUMPDEST SWAP1 SWAP3 SWAP2 SWAP3 PUSH2 0x3C4 PUSH2 0x3BF DUP3 PUSH2 0x386 JUMP JUMPDEST PUSH2 0x372 JUMP JUMPDEST SWAP4 DUP2 DUP6 MSTORE DUP2 DUP4 ADD GT PUSH2 0x11A JUMPI PUSH2 0x12C SWAP2 PUSH1 0x20 DUP6 ADD SWAP1 PUSH2 0x3A3 JUMP JUMPDEST SWAP1 DUP1 PUSH1 0x1F DUP4 ADD SLT ISZERO PUSH2 0x11A JUMPI DUP2 PUSH1 0x20 PUSH2 0x142 SWAP4 CALLDATALOAD SWAP2 ADD PUSH2 0x3AF JUMP JUMPDEST SWAP1 PUSH1 0x20 DUP3 DUP3 SUB SLT PUSH2 0x11A JUMPI DUP2 CALLDATALOAD PUSH8 0xFFFFFFFFFFFFFFFF DUP2 GT PUSH2 0x11A JUMPI PUSH2 0x142 SWAP3 ADD PUSH2 0x3DE JUMP JUMPDEST CALLVALUE PUSH2 0x11A JUMPI PUSH2 0x2D5 PUSH2 0x432 CALLDATASIZE PUSH1 0x4 PUSH2 0x3F9 JUMP JUMPDEST PUSH2 0xB07 JUMP JUMPDEST CALLVALUE PUSH2 0x11A JUMPI PUSH2 0x173 PUSH2 0x263 PUSH2 0x44D CALLDATASIZE PUSH1 0x4 PUSH2 0x228 JUMP JUMPDEST PUSH2 0xB74 JUMP JUMPDEST SWAP1 PUSH1 0x20 DUP3 DUP3 SUB SLT PUSH2 0x11A JUMPI PUSH2 0x142 SWAP2 PUSH2 0x28C JUMP JUMPDEST CALLVALUE PUSH2 0x11A JUMPI PUSH2 0x173 PUSH2 0x481 PUSH2 0x47C CALLDATASIZE PUSH1 0x4 PUSH2 0x452 JUMP JUMPDEST PUSH2 0xC41 JUMP JUMPDEST PUSH1 0x40 MLOAD SWAP2 DUP3 SWAP2 DUP3 SWAP1 DUP2 MSTORE PUSH1 0x20 ADD SWAP1 JUMP JUMPDEST SWAP2 SWAP1 PUSH1 0x40 DUP4 DUP3 SUB SLT PUSH2 0x11A JUMPI PUSH2 0x142 SWAP1 PUSH1 0x20 PUSH2 0x4AD DUP3 DUP7 PUSH2 0x21B JUMP JUMPDEST SWAP5 ADD PUSH2 0x28C JUMP JUMPDEST CALLVALUE PUSH2 0x11A JUMPI PUSH2 0x2D5 PUSH2 0x4C7 CALLDATASIZE PUSH1 0x4 PUSH2 0x491 JUMP JUMPDEST SWAP1 PUSH2 0xCEA JUMP JUMPDEST CALLVALUE PUSH2 0x11A JUMPI PUSH2 0x4DD CALLDATASIZE PUSH1 0x4 PUSH2 0x177 JUMP JUMPDEST PUSH2 0x173 PUSH2 0x209 PUSH2 0xD2C JUMP JUMPDEST DUP1 ISZERO ISZERO PUSH2 0x113 JUMP JUMPDEST SWAP1 POP CALLDATALOAD SWAP1 PUSH2 0x12C DUP3 PUSH2 0x4E8 JUMP JUMPDEST SWAP2 SWAP1 PUSH1 0x40 DUP4 DUP3 SUB SLT PUSH2 0x11A JUMPI PUSH2 0x142 SWAP1 PUSH1 0x20 PUSH2 0x519 DUP3 DUP7 PUSH2 0x28C JUMP JUMPDEST SWAP5 ADD PUSH2 0x4F0 JUMP JUMPDEST CALLVALUE PUSH2 0x11A JUMPI PUSH2 0x2D5 PUSH2 0x533 CALLDATASIZE PUSH1 0x4 PUSH2 0x4FD JUMP JUMPDEST SWAP1 PUSH2 0xD36 JUMP JUMPDEST SWAP1 PUSH1 0x80 DUP3 DUP3 SUB SLT PUSH2 0x11A JUMPI PUSH2 0x54E DUP2 DUP4 PUSH2 0x28C JUMP JUMPDEST SWAP3 PUSH2 0x55C DUP3 PUSH1 0x20 DUP6 ADD PUSH2 0x28C JUMP JUMPDEST SWAP3 PUSH2 0x56A DUP4 PUSH1 0x40 DUP4 ADD PUSH2 0x21B JUMP JUMPDEST SWAP3 PUSH1 0x60 DUP3 ADD CALLDATALOAD PUSH8 0xFFFFFFFFFFFFFFFF DUP2 GT PUSH2 0x11A JUMPI PUSH2 0x142 SWAP3 ADD PUSH2 0x3DE JUMP JUMPDEST CALLVALUE PUSH2 0x11A JUMPI PUSH2 0x2D5 PUSH2 0x59C CALLDATASIZE PUSH1 0x4 PUSH2 0x539 JUMP JUMPDEST SWAP3 SWAP2 SWAP1 SWAP2 PUSH2 0xD41 JUMP JUMPDEST CALLVALUE PUSH2 0x11A JUMPI PUSH2 0x173 PUSH2 0x209 PUSH2 0x5BB CALLDATASIZE PUSH1 0x4 PUSH2 0x228 JUMP JUMPDEST PUSH2 0xE6E JUMP JUMPDEST SWAP2 SWAP1 PUSH1 0x40 DUP4 DUP3 SUB SLT PUSH2 0x11A JUMPI PUSH2 0x142 SWAP1 PUSH1 0x20 PUSH2 0x4AD DUP3 DUP7 PUSH2 0x28C JUMP JUMPDEST CALLVALUE PUSH2 0x11A JUMPI PUSH2 0x173 PUSH2 0x160 PUSH2 0x5F2 CALLDATASIZE PUSH1 0x4 PUSH2 0x5C0 JUMP JUMPDEST SWAP1 PUSH2 0xEBE JUMP JUMPDEST PUSH4 0x80AC58CD PUSH1 0xE0 SHL PUSH1 0x1 PUSH1 0x1 PUSH1 0xE0 SHL SUB NOT DUP3 AND EQ SWAP1 DUP2 ISZERO PUSH2 0x628 JUMPI JUMPDEST DUP2 ISZERO PUSH2 0x61E JUMPI POP SWAP1 JUMP JUMPDEST PUSH2 0x142 SWAP2 POP PUSH2 0xEDE JUMP JUMPDEST PUSH1 0x1 PUSH1 0x1 PUSH1 0xE0 SHL SUB NOT DUP2 AND PUSH4 0x5B5E139F PUSH1 0xE0 SHL EQ SWAP2 POP PUSH2 0x614 JUMP JUMPDEST PUSH4 0x4E487B71 PUSH1 0xE0 SHL PUSH1 0x0 MSTORE PUSH1 0x22 PUSH1 0x4 MSTORE PUSH1 0x24 PUSH1 0x0 REVERT JUMPDEST SWAP1 PUSH1 0x1 PUSH1 0x2 DUP4 DIV SWAP3 AND DUP1 ISZERO PUSH2 0x679 JUMPI JUMPDEST PUSH1 0x20 DUP4 LT EQ PUSH2 0x674 JUMPI JUMP JUMPDEST PUSH2 0x643 JUMP JUMPDEST SWAP2 PUSH1 0x7F AND SWAP2 PUSH2 0x669 JUMP JUMPDEST DUP1 SLOAD PUSH1 0x0 SWAP4 SWAP3 SWAP2 PUSH2 0x6A0 PUSH2 0x696 DUP4 PUSH2 0x659 JUMP JUMPDEST DUP1 DUP6 MSTORE SWAP4 PUSH1 0x20 ADD SWAP1 JUMP JUMPDEST SWAP2 PUSH1 0x1 DUP2 AND SWAP1 DUP2 ISZERO PUSH2 0x6F2 JUMPI POP PUSH1 0x1 EQ PUSH2 0x6B9 JUMPI POP POP POP JUMP JUMPDEST PUSH2 0x6CC SWAP2 SWAP3 SWAP4 SWAP5 POP PUSH1 0x0 MSTORE PUSH1 0x20 PUSH1 0x0 KECCAK256 SWAP1 JUMP JUMPDEST SWAP2 PUSH1 0x0 SWAP3 JUMPDEST DUP2 DUP5 LT PUSH2 0x6DE JUMPI POP POP ADD SWAP1 JUMP JUMPDEST DUP1 SLOAD DUP5 DUP5 ADD MSTORE PUSH1 0x20 SWAP1 SWAP4 ADD SWAP3 PUSH1 0x1 ADD PUSH2 0x6D1 JUMP JUMPDEST SWAP3 SWAP5 SWAP6 POP POP POP PUSH1 0xFF NOT AND DUP3 MSTORE ISZERO ISZERO PUSH1 0x20 MUL ADD SWAP1 JUMP JUMPDEST SWAP1 PUSH2 0x142 SWAP2 PUSH2 0x683 JUMP JUMPDEST SWAP1 PUSH2 0x12C PUSH2 0x72B SWAP3 PUSH2 0x722 PUSH1 0x40 MLOAD SWAP1 JUMP JUMPDEST SWAP4 DUP5 DUP1 SWAP3 PUSH2 0x707 JUMP JUMPDEST SUB DUP4 PUSH2 0x34B JUMP JUMPDEST PUSH2 0x142 SWAP1 PUSH2 0x711 JUMP JUMPDEST PUSH2 0x142 PUSH1 0x0 PUSH2 0x732 JUMP JUMPDEST PUSH2 0x142 PUSH2 0x142 PUSH2 0x142 SWAP3 SWAP1 JUMP JUMPDEST SWAP1 PUSH2 0x75C SWAP1 PUSH2 0x745 JUMP JUMPDEST PUSH1 0x0 MSTORE PUSH1 0x20 MSTORE PUSH1 0x40 PUSH1 0x0 KECCAK256 SWAP1 JUMP JUMPDEST PUSH2 0x78A PUSH2 0x142 SWAP2 PUSH2 0x779 PUSH1 0x0 SWAP1 JUMP JUMPDEST POP PUSH2 0x783 DUP2 PUSH2 0xEFC JUMP JUMPDEST PUSH1 0x4 PUSH2 0x752 JUMP JUMPDEST SLOAD PUSH1 0x1 PUSH1 0x1 PUSH1 0xA0 SHL SUB AND SWAP1 JUMP JUMPDEST ISZERO PUSH2 0x79E JUMPI JUMP JUMPDEST PUSH1 0x40 MLOAD PUSH3 0x461BCD PUSH1 0xE5 SHL DUP2 MSTORE PUSH1 0x20 PUSH1 0x4 DUP3 ADD MSTORE PUSH1 0x21 PUSH1 0x24 DUP3 ADD MSTORE PUSH32 0x4552433732313A20617070726F76616C20746F2063757272656E74206F776E65 PUSH1 0x44 DUP3 ADD MSTORE PUSH1 0x39 PUSH1 0xF9 SHL PUSH1 0x64 DUP3 ADD MSTORE PUSH1 0x84 SWAP1 REVERT JUMPDEST SUB SWAP1 REVERT JUMPDEST ISZERO PUSH2 0x7F8 JUMPI JUMP JUMPDEST PUSH1 0x40 MLOAD PUSH3 0x461BCD PUSH1 0xE5 SHL DUP2 MSTORE PUSH1 0x20 PUSH1 0x4 DUP3 ADD MSTORE PUSH1 0x3D PUSH1 0x24 DUP3 ADD MSTORE PUSH32 0x4552433732313A20617070726F76652063616C6C6572206973206E6F7420746F PUSH1 0x44 DUP3 ADD MSTORE PUSH32 0x6B656E206F776E6572206F7220617070726F76656420666F7220616C6C000000 PUSH1 0x64 DUP3 ADD MSTORE PUSH1 0x84 SWAP1 REVERT JUMPDEST SWAP1 PUSH2 0x12C SWAP2 PUSH2 0x8AE PUSH2 0x874 DUP4 PUSH2 0xB74 JUMP JUMPDEST PUSH2 0x892 PUSH1 0x1 PUSH1 0x1 PUSH1 0xA0 SHL SUB DUP3 AND PUSH1 0x1 PUSH1 0x1 PUSH1 0xA0 SHL SUB DUP6 AND EQ ISZERO PUSH2 0x797 JUMP JUMPDEST CALLER PUSH1 0x1 PUSH1 0x1 PUSH1 0xA0 SHL SUB DUP3 AND DUP2 EQ SWAP2 DUP3 ISZERO PUSH2 0x8B3 JUMPI JUMPDEST POP POP PUSH2 0x7F1 JUMP JUMPDEST PUSH2 0xF33 JUMP JUMPDEST PUSH2 0x8BD SWAP3 POP PUSH2 0xEBE JUMP JUMPDEST CODESIZE DUP1 PUSH2 0x8A7 JUMP JUMPDEST ISZERO PUSH2 0x8CB JUMPI JUMP JUMPDEST PUSH1 0x40 MLOAD PUSH3 0x461BCD PUSH1 0xE5 SHL DUP2 MSTORE PUSH1 0x20 PUSH1 0x4 DUP3 ADD MSTORE PUSH1 0x2D PUSH1 0x24 DUP3 ADD MSTORE PUSH32 0x4552433732313A2063616C6C6572206973206E6F7420746F6B656E206F776E65 PUSH1 0x44 DUP3 ADD MSTORE PUSH13 0x1C881BDC88185C1C1C9BDD9959 PUSH1 0x9A SHL PUSH1 0x64 DUP3 ADD MSTORE PUSH1 0x84 SWAP1 REVERT JUMPDEST PUSH2 0x12C SWAP3 SWAP2 SWAP1 PUSH2 0x93E PUSH2 0x939 DUP5 CALLER PUSH2 0xF9C JUMP JUMPDEST PUSH2 0x8C4 JUMP JUMPDEST PUSH2 0x1120 JUMP JUMPDEST SWAP1 PUSH2 0x950 PUSH2 0x3BF DUP4 PUSH2 0x386 JUMP JUMPDEST SWAP2 DUP3 MSTORE JUMP JUMPDEST PUSH2 0x142 PUSH1 0x0 PUSH2 0x943 JUMP JUMPDEST PUSH2 0x142 PUSH2 0x955 JUMP JUMPDEST SWAP1 SWAP2 PUSH2 0x12C SWAP3 PUSH2 0x975 PUSH2 0x95F JUMP JUMPDEST SWAP3 PUSH2 0xD41 JUMP JUMPDEST SWAP2 PUSH1 0x0 NOT PUSH1 0x8 SWAP3 SWAP1 SWAP3 MUL SWAP2 DUP3 SHL SWAP2 SHL JUMPDEST SWAP2 DUP2 NOT AND SWAP2 AND OR SWAP1 JUMP JUMPDEST SWAP2 SWAP1 PUSH2 0x9A6 PUSH2 0x142 PUSH2 0x9AE SWAP4 PUSH2 0x745 JUMP JUMPDEST SWAP1 DUP4 SLOAD PUSH2 0x97B JUMP JUMPDEST SWAP1 SSTORE JUMP JUMPDEST PUSH2 0x12C SWAP2 PUSH1 0x0 SWAP2 PUSH2 0x995 JUMP JUMPDEST DUP2 DUP2 LT PUSH2 0x9C9 JUMPI POP POP JUMP JUMPDEST DUP1 PUSH2 0x9D7 PUSH1 0x0 PUSH1 0x1 SWAP4 PUSH2 0x9B2 JUMP JUMPDEST ADD PUSH2 0x9BE JUMP JUMPDEST SWAP2 SWAP1 PUSH1 0x1F DUP2 GT PUSH2 0x9EC JUMPI POP POP POP JUMP JUMPDEST PUSH2 0x9FE PUSH2 0x12C SWAP4 PUSH1 0x0 MSTORE PUSH1 0x20 PUSH1 0x0 KECCAK256 SWAP1 JUMP JUMPDEST SWAP1 PUSH1 0x20 PUSH1 0x1F DUP5 ADD DUP2 SWAP1 DIV DUP4 ADD SWAP4 LT PUSH2 0xA20 JUMPI JUMPDEST PUSH1 0x20 PUSH1 0x1F SWAP1 SWAP2 ADD DIV ADD SWAP1 PUSH2 0x9BE JUMP JUMPDEST SWAP1 SWAP2 POP DUP2 SWAP1 PUSH2 0xA11 JUMP JUMPDEST SWAP1 PUSH2 0xA33 DUP2 MLOAD SWAP1 JUMP JUMPDEST SWAP1 PUSH8 0xFFFFFFFFFFFFFFFF DUP3 GT PUSH2 0x36D JUMPI PUSH2 0xA57 DUP3 PUSH2 0xA51 DUP6 SLOAD PUSH2 0x659 JUMP JUMPDEST DUP6 PUSH2 0x9DD JUMP JUMPDEST PUSH1 0x20 SWAP1 PUSH1 0x1F DUP4 GT PUSH1 0x1 EQ PUSH2 0xA92 JUMPI PUSH2 0x9AE SWAP3 SWAP2 PUSH1 0x0 SWAP2 DUP4 PUSH2 0xA87 JUMPI JUMPDEST POP POP PUSH1 0x0 NOT PUSH1 0x8 DUP4 MUL SHR NOT AND SWAP1 PUSH1 0x2 MUL OR SWAP1 JUMP JUMPDEST ADD MLOAD SWAP1 POP CODESIZE DUP1 PUSH2 0xA73 JUMP JUMPDEST PUSH1 0x1F NOT DUP4 AND SWAP2 PUSH2 0xAA7 DUP6 PUSH1 0x0 MSTORE PUSH1 0x20 PUSH1 0x0 KECCAK256 SWAP1 JUMP JUMPDEST SWAP3 PUSH1 0x0 JUMPDEST DUP2 DUP2 LT PUSH2 0xAE5 JUMPI POP SWAP2 PUSH1 0x2 SWAP4 SWAP2 DUP6 PUSH1 0x1 SWAP7 SWAP5 LT PUSH2 0xACC JUMPI JUMPDEST POP POP POP MUL ADD SWAP1 SSTORE JUMP JUMPDEST ADD MLOAD PUSH1 0x0 NOT PUSH1 0x8 PUSH1 0x1F DUP6 AND MUL SHR NOT AND SWAP1 SSTORE CODESIZE DUP1 DUP1 PUSH2 0xAC3 JUMP JUMPDEST SWAP2 SWAP4 PUSH1 0x20 PUSH1 0x1 DUP2 SWAP3 DUP8 DUP8 ADD MLOAD DUP2 SSTORE ADD SWAP6 ADD SWAP3 ADD PUSH2 0xAAB JUMP JUMPDEST SWAP1 PUSH2 0x12C SWAP2 PUSH2 0xA2A JUMP JUMPDEST PUSH2 0x12C SWAP1 PUSH1 0x6 PUSH2 0xAFD JUMP JUMPDEST PUSH2 0x23C PUSH2 0x142 PUSH2 0x142 SWAP3 SWAP1 JUMP JUMPDEST PUSH2 0x142 SWAP1 PUSH2 0xB12 JUMP JUMPDEST ISZERO PUSH2 0xB2F JUMPI JUMP JUMPDEST PUSH1 0x40 MLOAD PUSH3 0x461BCD PUSH1 0xE5 SHL DUP2 MSTORE PUSH1 0x20 PUSH1 0x4 DUP3 ADD MSTORE PUSH1 0x18 PUSH1 0x24 DUP3 ADD MSTORE PUSH32 0x4552433732313A20696E76616C696420746F6B656E2049440000000000000000 PUSH1 0x44 DUP3 ADD MSTORE PUSH1 0x64 SWAP1 REVERT JUMPDEST PUSH2 0xB81 SWAP1 PUSH1 0x0 JUMPDEST POP PUSH2 0x1217 JUMP JUMPDEST PUSH2 0x142 PUSH2 0xB91 PUSH2 0x23C PUSH1 0x0 PUSH2 0xB1F JUMP JUMPDEST PUSH1 0x1 PUSH1 0x1 PUSH1 0xA0 SHL SUB DUP4 AND EQ ISZERO PUSH2 0xB28 JUMP JUMPDEST ISZERO PUSH2 0xBA9 JUMPI JUMP JUMPDEST PUSH1 0x40 MLOAD PUSH3 0x461BCD PUSH1 0xE5 SHL DUP2 MSTORE PUSH1 0x20 PUSH1 0x4 DUP3 ADD MSTORE PUSH1 0x29 PUSH1 0x24 DUP3 ADD MSTORE PUSH32 0x4552433732313A2061646472657373207A65726F206973206E6F742061207661 PUSH1 0x44 DUP3 ADD MSTORE PUSH9 0x3634B21037BBB732B9 PUSH1 0xB9 SHL PUSH1 0x64 DUP3 ADD MSTORE PUSH1 0x84 SWAP1 REVERT JUMPDEST PUSH2 0x142 SWAP1 PUSH2 0x23C SWAP1 PUSH1 0x1 PUSH1 0x1 PUSH1 0xA0 SHL SUB AND DUP3 JUMP JUMPDEST PUSH2 0x142 SWAP1 PUSH2 0xC00 JUMP JUMPDEST PUSH2 0x142 SWAP1 PUSH2 0xC14 JUMP JUMPDEST SWAP1 PUSH2 0x75C SWAP1 PUSH2 0xC1D JUMP JUMPDEST PUSH2 0x142 SWAP1 DUP2 JUMP JUMPDEST PUSH2 0x142 SWAP1 SLOAD PUSH2 0xC30 JUMP JUMPDEST PUSH2 0xC79 PUSH2 0x142 SWAP2 PUSH2 0xC50 PUSH1 0x0 SWAP1 JUMP JUMPDEST POP PUSH2 0xC72 PUSH2 0xC61 PUSH2 0x23C PUSH1 0x0 PUSH2 0xB1F JUMP JUMPDEST PUSH1 0x1 PUSH1 0x1 PUSH1 0xA0 SHL SUB DUP4 AND EQ ISZERO PUSH2 0xBA2 JUMP JUMPDEST PUSH1 0x3 PUSH2 0xC26 JUMP JUMPDEST PUSH2 0xC37 JUMP JUMPDEST ISZERO PUSH2 0xC85 JUMPI JUMP JUMPDEST PUSH1 0x40 MLOAD PUSH3 0x461BCD PUSH1 0xE5 SHL DUP2 MSTORE PUSH1 0x20 PUSH1 0x4 DUP3 ADD MSTORE PUSH1 0x1F PUSH1 0x24 DUP3 ADD MSTORE PUSH32 0x4E465420666F72206576656E7420494420616C7265616479206D696E74656400 PUSH1 0x44 DUP3 ADD MSTORE PUSH1 0x64 SWAP1 REVERT JUMPDEST SWAP1 PUSH1 0xFF SWAP1 PUSH2 0x98B JUMP JUMPDEST SWAP1 PUSH2 0xCE3 PUSH2 0x142 PUSH2 0x9AE SWAP3 ISZERO ISZERO SWAP1 JUMP JUMPDEST DUP3 SLOAD PUSH2 0xCCA JUMP JUMPDEST PUSH2 0x12C SWAP2 PUSH2 0xD12 PUSH2 0xD0D PUSH2 0xD09 PUSH2 0xD02 DUP6 PUSH1 0x7 PUSH2 0x752 JUMP JUMPDEST SLOAD PUSH1 0xFF AND SWAP1 JUMP JUMPDEST ISZERO SWAP1 JUMP JUMPDEST PUSH2 0xC7E JUMP JUMPDEST PUSH2 0xD27 PUSH1 0x1 PUSH2 0xD22 DUP5 PUSH1 0x7 PUSH2 0x752 JUMP JUMPDEST PUSH2 0xCD3 JUMP JUMPDEST PUSH2 0x12CA JUMP JUMPDEST PUSH2 0x142 PUSH1 0x1 PUSH2 0x732 JUMP JUMPDEST PUSH2 0x12C SWAP2 SWAP1 CALLER PUSH2 0x1378 JUMP JUMPDEST PUSH2 0x12C SWAP4 SWAP3 SWAP2 SWAP1 PUSH2 0xD55 PUSH2 0x939 DUP5 CALLER PUSH2 0xF9C JUMP JUMPDEST PUSH2 0x1451 JUMP JUMPDEST ISZERO PUSH2 0xD61 JUMPI JUMP JUMPDEST PUSH1 0x40 MLOAD PUSH3 0x461BCD PUSH1 0xE5 SHL DUP2 MSTORE PUSH1 0x20 PUSH1 0x4 DUP3 ADD MSTORE PUSH1 0x2F PUSH1 0x24 DUP3 ADD MSTORE PUSH32 0x4552433732314D657461646174613A2055524920717565727920666F72206E6F PUSH1 0x44 DUP3 ADD MSTORE PUSH15 0x3732BC34B9BA32B73A103A37B5B2B7 PUSH1 0x89 SHL PUSH1 0x64 DUP3 ADD MSTORE PUSH1 0x84 SWAP1 REVERT JUMPDEST DUP1 SLOAD PUSH1 0x0 SWAP4 SWAP3 SWAP2 PUSH2 0xDD5 PUSH2 0xDD1 DUP4 PUSH2 0x659 JUMP JUMPDEST SWAP4 SWAP1 JUMP JUMPDEST SWAP2 PUSH1 0x1 DUP2 AND SWAP1 DUP2 ISZERO PUSH2 0xE26 JUMPI POP PUSH1 0x1 EQ PUSH2 0xDEE JUMPI POP POP POP JUMP JUMPDEST PUSH2 0xE01 SWAP2 SWAP3 SWAP4 SWAP5 POP PUSH1 0x0 MSTORE PUSH1 0x20 PUSH1 0x0 KECCAK256 SWAP1 JUMP JUMPDEST PUSH1 0x0 SWAP1 JUMPDEST DUP4 DUP3 LT PUSH2 0xE12 JUMPI POP POP ADD SWAP1 JUMP JUMPDEST PUSH1 0x1 DUP2 PUSH1 0x20 SWAP3 SLOAD DUP5 DUP7 ADD MSTORE ADD SWAP2 ADD SWAP1 PUSH2 0xE05 JUMP JUMPDEST PUSH1 0xFF NOT AND DUP4 MSTORE POP POP DUP2 ISZERO ISZERO SWAP1 SWAP2 MUL ADD SWAP2 POP JUMP JUMPDEST PUSH2 0x1D9 PUSH2 0xE51 SWAP3 PUSH1 0x20 SWAP3 PUSH2 0xE4B DUP2 MLOAD SWAP1 JUMP JUMPDEST SWAP5 DUP6 SWAP3 SWAP1 JUMP JUMPDEST SWAP4 DUP5 SWAP2 ADD PUSH2 0x182 JUMP JUMPDEST PUSH2 0xE68 SWAP1 PUSH2 0x142 SWAP4 SWAP3 PUSH2 0xDBE JUMP JUMPDEST SWAP1 PUSH2 0xE39 JUMP JUMPDEST PUSH2 0xE94 PUSH2 0x142 SWAP2 PUSH2 0xE7D PUSH1 0x60 SWAP1 JUMP JUMPDEST POP PUSH2 0xE8F PUSH2 0xE8A DUP3 PUSH2 0x1470 JUMP JUMPDEST PUSH2 0xD5A JUMP JUMPDEST PUSH2 0x14E8 JUMP JUMPDEST PUSH2 0x142 PUSH2 0xEA0 PUSH1 0x40 MLOAD SWAP1 JUMP JUMPDEST DUP1 SWAP3 PUSH2 0xEB2 PUSH1 0x20 DUP4 ADD SWAP2 PUSH1 0x6 DUP4 PUSH2 0xE5A JUMP JUMPDEST SWAP1 DUP2 SUB DUP3 MSTORE SUB DUP3 PUSH2 0x34B JUMP JUMPDEST PUSH2 0x142 SWAP2 PUSH2 0xED9 PUSH2 0xD02 SWAP3 PUSH2 0xED1 PUSH1 0x0 SWAP1 JUMP JUMPDEST POP PUSH1 0x5 PUSH2 0xC26 JUMP JUMPDEST PUSH2 0xC26 JUMP JUMPDEST PUSH2 0xEF8 PUSH4 0x1FFC9A7 PUSH1 0xE0 SHL JUMPDEST SWAP2 PUSH1 0x1 PUSH1 0x1 PUSH1 0xE0 SHL SUB NOT AND SWAP1 JUMP JUMPDEST EQ SWAP1 JUMP JUMPDEST PUSH2 0xF08 PUSH2 0x12C SWAP2 PUSH2 0x1470 JUMP JUMPDEST PUSH2 0xB28 JUMP JUMPDEST SWAP1 PUSH1 0x1 PUSH1 0x1 PUSH1 0xA0 SHL SUB SWAP1 PUSH2 0x98B JUMP JUMPDEST SWAP1 PUSH2 0xF2C PUSH2 0x142 PUSH2 0x9AE SWAP3 PUSH2 0xC1D JUMP JUMPDEST DUP3 SLOAD PUSH2 0xF0D JUMP JUMPDEST SWAP1 PUSH2 0xF48 DUP3 PUSH2 0xF43 DUP4 PUSH1 0x4 PUSH2 0x752 JUMP JUMPDEST PUSH2 0xF1C JUMP JUMPDEST PUSH2 0xF6B PUSH2 0xF65 PUSH2 0xF5F PUSH2 0xF5A DUP5 PUSH2 0xB74 JUMP JUMPDEST PUSH2 0xC1D JUMP JUMPDEST SWAP4 PUSH2 0xC1D JUMP JUMPDEST SWAP2 PUSH2 0x745 JUMP JUMPDEST SWAP2 PUSH32 0x8C5BE1E5EBEC7D5BD14F71427D1E84F3DD0314C0F7B2291E5B200AC8C7C3B925 PUSH2 0xF96 PUSH1 0x40 MLOAD SWAP1 JUMP JUMPDEST PUSH1 0x0 SWAP1 LOG4 JUMP JUMPDEST PUSH2 0xFA5 DUP3 PUSH2 0xB74 JUMP JUMPDEST SWAP2 PUSH1 0x1 PUSH1 0x1 PUSH1 0xA0 SHL SUB DUP4 AND PUSH1 0x1 PUSH1 0x1 PUSH1 0xA0 SHL SUB DUP4 AND EQ SWAP3 DUP4 ISZERO PUSH2 0xFFB JUMPI JUMPDEST POP DUP3 ISZERO PUSH2 0xFCF JUMPI POP POP SWAP1 JUMP JUMPDEST PUSH2 0xEF8 SWAP2 SWAP3 POP PUSH2 0xFE1 PUSH2 0xFEE SWAP2 PUSH2 0x76A JUMP JUMPDEST SWAP3 PUSH1 0x1 PUSH1 0x1 PUSH1 0xA0 SHL SUB AND SWAP1 JUMP JUMPDEST SWAP2 PUSH1 0x1 PUSH1 0x1 PUSH1 0xA0 SHL SUB AND SWAP1 JUMP JUMPDEST PUSH2 0x1008 SWAP2 SWAP4 POP DUP3 SWAP1 PUSH2 0xEBE JUMP JUMPDEST SWAP2 CODESIZE PUSH2 0xFC3 JUMP JUMPDEST ISZERO PUSH2 0x1016 JUMPI JUMP JUMPDEST PUSH1 0x40 MLOAD PUSH3 0x461BCD PUSH1 0xE5 SHL DUP2 MSTORE PUSH1 0x20 PUSH1 0x4 DUP3 ADD MSTORE PUSH1 0x25 PUSH1 0x24 DUP3 ADD MSTORE PUSH32 0x4552433732313A207472616E736665722066726F6D20696E636F727265637420 PUSH1 0x44 DUP3 ADD MSTORE PUSH5 0x37BBB732B9 PUSH1 0xD9 SHL PUSH1 0x64 DUP3 ADD MSTORE PUSH1 0x84 SWAP1 REVERT JUMPDEST ISZERO PUSH2 0x1070 JUMPI JUMP JUMPDEST PUSH1 0x40 MLOAD PUSH3 0x461BCD PUSH1 0xE5 SHL DUP2 MSTORE PUSH1 0x20 PUSH1 0x4 DUP3 ADD MSTORE PUSH1 0x24 DUP1 DUP3 ADD MSTORE PUSH32 0x4552433732313A207472616E7366657220746F20746865207A65726F20616464 PUSH1 0x44 DUP3 ADD MSTORE PUSH4 0x72657373 PUSH1 0xE0 SHL PUSH1 0x64 DUP3 ADD MSTORE PUSH1 0x84 SWAP1 REVERT JUMPDEST SWAP2 PUSH1 0x1 PUSH1 0x1 PUSH1 0xA0 SHL SUB PUSH1 0x8 SWAP3 SWAP1 SWAP3 MUL SWAP2 DUP3 SHL SWAP2 SHL PUSH2 0x98B JUMP JUMPDEST SWAP2 SWAP1 PUSH2 0x10EB PUSH2 0x142 PUSH2 0x9AE SWAP4 PUSH2 0xC1D JUMP JUMPDEST SWAP1 DUP4 SLOAD PUSH2 0x10C1 JUMP JUMPDEST PUSH2 0x12C SWAP2 PUSH1 0x0 SWAP2 PUSH2 0x10DA JUMP JUMPDEST SWAP1 PUSH1 0x0 NOT SWAP1 PUSH2 0x98B JUMP JUMPDEST SWAP1 PUSH2 0x1119 PUSH2 0x142 PUSH2 0x9AE SWAP3 PUSH2 0x745 JUMP JUMPDEST DUP3 SLOAD PUSH2 0x10FF JUMP JUMPDEST PUSH2 0xF65 PUSH2 0xF5F PUSH2 0x11EC SWAP3 SWAP5 SWAP4 SWAP5 PUSH2 0x1151 PUSH2 0x1139 DUP7 PUSH2 0xB74 JUMP JUMPDEST PUSH2 0x114B PUSH1 0x1 PUSH1 0x1 PUSH1 0xA0 SHL SUB DUP5 AND PUSH2 0xFEE JUMP JUMPDEST EQ PUSH2 0x100F JUMP JUMPDEST PUSH2 0x1172 PUSH2 0x1161 PUSH2 0x23C PUSH1 0x0 PUSH2 0xB1F JUMP JUMPDEST PUSH1 0x1 PUSH1 0x1 PUSH1 0xA0 SHL SUB DUP9 AND EQ ISZERO PUSH2 0x1069 JUMP JUMPDEST PUSH2 0x117E PUSH2 0x1139 DUP7 PUSH2 0xB74 JUMP JUMPDEST PUSH2 0x1193 PUSH1 0x0 PUSH2 0x118E DUP8 PUSH1 0x4 PUSH2 0x752 JUMP JUMPDEST PUSH2 0x10F3 JUMP JUMPDEST PUSH2 0x11DD PUSH2 0x11A0 PUSH1 0x1 PUSH2 0x745 JUMP JUMPDEST PUSH2 0x11C5 PUSH2 0x11AE DUP5 PUSH1 0x3 PUSH2 0xC26 JUMP JUMPDEST PUSH2 0x11BF DUP4 PUSH2 0x11BB DUP4 PUSH2 0xC37 JUMP JUMPDEST SUB SWAP1 JUMP JUMPDEST SWAP1 PUSH2 0x1109 JUMP JUMPDEST PUSH2 0x11BF PUSH2 0x11D3 DUP10 PUSH1 0x3 PUSH2 0xC26 JUMP JUMPDEST SWAP2 PUSH2 0x1D9 DUP4 PUSH2 0xC37 JUMP JUMPDEST PUSH2 0xF5A DUP7 PUSH2 0xF43 DUP8 PUSH1 0x2 PUSH2 0x752 JUMP JUMPDEST SWAP2 PUSH32 0xDDF252AD1BE2C89B69C2B068FC378DAA952BA7F163C4A11628F55A4DF523B3EF PUSH2 0xF96 PUSH1 0x40 MLOAD SWAP1 JUMP JUMPDEST PUSH2 0x78A PUSH2 0x142 SWAP2 PUSH2 0x1226 PUSH1 0x0 SWAP1 JUMP JUMPDEST POP PUSH1 0x2 PUSH2 0x752 JUMP JUMPDEST ISZERO PUSH2 0x1235 JUMPI JUMP JUMPDEST PUSH1 0x40 MLOAD PUSH3 0x461BCD PUSH1 0xE5 SHL DUP2 MSTORE DUP1 PUSH2 0x7ED PUSH1 0x4 DUP3 ADD PUSH1 0x20 DUP1 DUP3 MSTORE DUP2 DUP2 ADD MSTORE PUSH32 0x4552433732313A206D696E7420746F20746865207A65726F2061646472657373 PUSH1 0x40 DUP3 ADD MSTORE PUSH1 0x60 ADD SWAP1 JUMP JUMPDEST ISZERO PUSH2 0x1285 JUMPI JUMP JUMPDEST PUSH1 0x40 MLOAD PUSH3 0x461BCD PUSH1 0xE5 SHL DUP2 MSTORE PUSH1 0x20 PUSH1 0x4 DUP3 ADD MSTORE PUSH1 0x1C PUSH1 0x24 DUP3 ADD MSTORE PUSH32 0x4552433732313A20746F6B656E20616C7265616479206D696E74656400000000 PUSH1 0x44 DUP3 ADD MSTORE PUSH1 0x64 SWAP1 REVERT JUMPDEST SWAP1 PUSH2 0x11EC PUSH2 0xF65 PUSH2 0xF5F PUSH2 0x12DE PUSH1 0x0 PUSH2 0xB1F JUMP JUMPDEST PUSH2 0x12FC PUSH1 0x1 PUSH1 0x1 PUSH1 0xA0 SHL SUB DUP3 AND PUSH1 0x1 PUSH1 0x1 PUSH1 0xA0 SHL SUB DUP9 AND EQ ISZERO PUSH2 0x122E JUMP JUMPDEST PUSH2 0x1310 PUSH2 0x130B PUSH2 0xD09 DUP8 PUSH2 0x1470 JUMP JUMPDEST PUSH2 0x127E JUMP JUMPDEST PUSH2 0x131F PUSH2 0x130B PUSH2 0xD09 DUP8 PUSH2 0x1470 JUMP JUMPDEST PUSH2 0x11DD PUSH2 0x11C5 PUSH1 0x1 PUSH2 0x745 JUMP JUMPDEST ISZERO PUSH2 0x1333 JUMPI JUMP JUMPDEST PUSH1 0x40 MLOAD PUSH3 0x461BCD PUSH1 0xE5 SHL DUP2 MSTORE PUSH1 0x20 PUSH1 0x4 DUP3 ADD MSTORE PUSH1 0x19 PUSH1 0x24 DUP3 ADD MSTORE PUSH32 0x4552433732313A20617070726F766520746F2063616C6C657200000000000000 PUSH1 0x44 DUP3 ADD MSTORE PUSH1 0x64 SWAP1 REVERT JUMPDEST PUSH2 0x13E4 PUSH2 0x13DA PUSH2 0xF5F PUSH32 0x17307EAB39AB6107E8899845AD3D59BD9653F200F220920489CA2B5937696C31 SWAP4 PUSH2 0x13C7 PUSH2 0x13B6 DUP8 PUSH1 0x1 PUSH1 0x1 PUSH1 0xA0 SHL SUB AND SWAP1 JUMP JUMPDEST PUSH1 0x1 PUSH1 0x1 PUSH1 0xA0 SHL SUB DUP4 AND EQ ISZERO PUSH2 0x132C JUMP JUMPDEST PUSH2 0xF5A DUP8 PUSH2 0xD22 DUP9 PUSH2 0xED9 DUP6 PUSH1 0x5 PUSH2 0xC26 JUMP JUMPDEST SWAP4 PUSH2 0x164 PUSH1 0x40 MLOAD SWAP1 JUMP JUMPDEST SUB SWAP1 LOG3 JUMP JUMPDEST ISZERO PUSH2 0x13F0 JUMPI JUMP JUMPDEST PUSH1 0x40 MLOAD JUMPDEST PUSH3 0x461BCD PUSH1 0xE5 SHL DUP2 MSTORE PUSH1 0x20 PUSH1 0x4 DUP3 ADD MSTORE PUSH1 0x32 PUSH1 0x24 DUP3 ADD MSTORE PUSH32 0x4552433732313A207472616E7366657220746F206E6F6E204552433732315265 PUSH1 0x44 DUP3 ADD MSTORE PUSH18 0x31B2B4BB32B91034B6B83632B6B2B73A32B9 PUSH1 0x71 SHL PUSH1 0x64 DUP3 ADD MSTORE PUSH1 0x84 SWAP1 REVERT JUMPDEST SWAP2 PUSH2 0x12C SWAP4 SWAP2 PUSH2 0x146B SWAP4 PUSH2 0x1466 DUP4 DUP4 DUP4 PUSH2 0x1120 JUMP JUMPDEST PUSH2 0x15EC JUMP JUMPDEST PUSH2 0x13E9 JUMP JUMPDEST PUSH2 0x147B SWAP1 PUSH1 0x0 PUSH2 0xB7B JUMP JUMPDEST PUSH2 0x148B PUSH2 0xFEE PUSH2 0x23C PUSH1 0x0 PUSH2 0xB1F JUMP JUMPDEST EQ ISZERO SWAP1 JUMP JUMPDEST CALLDATASIZE SWAP1 CALLDATACOPY JUMP JUMPDEST SWAP1 PUSH2 0x12C PUSH2 0x14AB PUSH2 0x14A5 DUP5 PUSH2 0x943 JUMP JUMPDEST SWAP4 PUSH2 0x386 JUMP JUMPDEST PUSH1 0x1F NOT ADD PUSH1 0x20 DUP5 ADD PUSH2 0x1490 JUMP JUMPDEST PUSH4 0x4E487B71 PUSH1 0xE0 SHL PUSH1 0x0 MSTORE PUSH1 0x12 PUSH1 0x4 MSTORE PUSH1 0x24 PUSH1 0x0 REVERT JUMPDEST SWAP1 PUSH2 0x14D8 JUMP JUMPDEST SWAP2 SWAP1 JUMP JUMPDEST SWAP1 DUP2 ISZERO PUSH2 0x14E3 JUMPI DIV SWAP1 JUMP JUMPDEST PUSH2 0x14B8 JUMP JUMPDEST PUSH2 0x14F1 DUP2 PUSH2 0x16C7 JUMP JUMPDEST SWAP1 PUSH2 0x1502 PUSH1 0x1 SWAP3 PUSH2 0x1D9 PUSH1 0x1 PUSH2 0x745 JUMP JUMPDEST SWAP2 DUP1 PUSH2 0x150D DUP5 PUSH2 0x1495 JUMP JUMPDEST SWAP4 PUSH1 0x20 ADD DUP5 ADD SWAP1 JUMPDEST PUSH2 0x1520 JUMPI JUMPDEST POP POP POP SWAP1 JUMP JUMPDEST DUP2 ISZERO PUSH2 0x1576 JUMPI PUSH2 0x155A SWAP1 PUSH1 0x0 NOT ADD SWAP3 PUSH16 0x181899199A1A9B1B9C1CB0B131B232B3 PUSH1 0x81 SHL PUSH1 0xA DUP3 MOD BYTE DUP5 MSTORE8 PUSH2 0x1554 PUSH1 0xA PUSH2 0x745 JUMP JUMPDEST SWAP1 PUSH2 0x14CE JUMP JUMPDEST SWAP1 DUP2 PUSH2 0x1569 PUSH2 0x14D4 PUSH1 0x0 PUSH2 0x745 JUMP JUMPDEST EQ PUSH2 0x1576 JUMPI SWAP1 SWAP2 DUP2 PUSH2 0x1515 JUMP JUMPDEST PUSH2 0x151A JUMP JUMPDEST SWAP1 POP MLOAD SWAP1 PUSH2 0x12C DUP3 PUSH2 0x107 JUMP JUMPDEST SWAP1 PUSH1 0x20 DUP3 DUP3 SUB SLT PUSH2 0x11A JUMPI PUSH2 0x142 SWAP2 PUSH2 0x157B JUMP JUMPDEST PUSH1 0x1 PUSH1 0x1 PUSH1 0xA0 SHL SUB SWAP2 DUP3 AND DUP2 MSTORE SWAP2 AND PUSH1 0x20 DUP3 ADD MSTORE PUSH1 0x40 DUP2 ADD SWAP2 SWAP1 SWAP2 MSTORE PUSH1 0x80 PUSH1 0x60 DUP3 ADD DUP2 SWAP1 MSTORE PUSH2 0x142 SWAP3 SWAP2 ADD SWAP1 PUSH2 0x1A5 JUMP JUMPDEST RETURNDATASIZE ISZERO PUSH2 0x15E7 JUMPI PUSH2 0x15DC RETURNDATASIZE PUSH2 0x943 JUMP JUMPDEST SWAP1 RETURNDATASIZE PUSH1 0x0 PUSH1 0x20 DUP5 ADD RETURNDATACOPY JUMP JUMPDEST PUSH1 0x60 SWAP1 JUMP JUMPDEST PUSH1 0x0 SWAP5 SWAP4 SWAP3 SWAP2 PUSH2 0x15FB DUP2 PUSH2 0x1869 JUMP JUMPDEST ISZERO PUSH2 0x16BD JUMPI SWAP1 PUSH2 0x1610 PUSH2 0xF5A PUSH1 0x20 SWAP5 SWAP4 PUSH2 0xC1D JUMP JUMPDEST SWAP1 PUSH1 0x0 CALLER PUSH2 0x163A PUSH2 0x1620 PUSH1 0x40 MLOAD SWAP1 JUMP JUMPDEST SWAP8 DUP9 SWAP7 DUP8 SWAP6 DUP7 SWAP5 PUSH4 0xA85BD01 PUSH1 0xE1 SHL DUP7 MSTORE PUSH1 0x4 DUP7 ADD PUSH2 0x159C JUMP JUMPDEST SUB SWAP3 GAS CALL PUSH1 0x0 SWAP2 DUP2 PUSH2 0x168C JUMPI JUMPDEST POP PUSH2 0x1679 JUMPI POP PUSH2 0x1655 PUSH2 0x15CD JUMP JUMPDEST DUP1 MLOAD PUSH2 0x1664 PUSH2 0x14D4 PUSH1 0x0 PUSH2 0x745 JUMP JUMPDEST SUB PUSH2 0x1671 JUMPI PUSH1 0x40 MLOAD PUSH2 0x13F4 JUMP JUMPDEST DUP1 MLOAD SWAP1 PUSH1 0x20 ADD REVERT JUMPDEST SWAP1 SWAP2 POP PUSH2 0xEF8 PUSH4 0xA85BD01 PUSH1 0xE1 SHL PUSH2 0xEEA JUMP JUMPDEST PUSH2 0x16AF SWAP2 SWAP3 POP PUSH1 0x20 RETURNDATASIZE PUSH1 0x20 GT PUSH2 0x16B6 JUMPI JUMPDEST PUSH2 0x16A7 DUP2 DUP4 PUSH2 0x34B JUMP JUMPDEST DUP2 ADD SWAP1 PUSH2 0x1588 JUMP JUMPDEST SWAP1 CODESIZE PUSH2 0x1647 JUMP JUMPDEST POP RETURNDATASIZE PUSH2 0x169D JUMP JUMPDEST POP PUSH1 0x1 SWAP5 POP POP POP POP JUMP JUMPDEST PUSH2 0x16D1 PUSH1 0x0 PUSH2 0x745 JUMP JUMPDEST SWAP1 PUSH27 0x184F03E93FF9F4DAA797ED6E38ED64BF6A1F010000000000000000 PUSH2 0x16F7 DUP2 PUSH2 0x745 JUMP JUMPDEST DUP3 LT ISZERO PUSH2 0x1847 JUMPI JUMPDEST POP PUSH14 0x4EE2D6D415B85ACEF8100000000 PUSH2 0x1718 DUP2 PUSH2 0x745 JUMP JUMPDEST DUP3 LT ISZERO PUSH2 0x1825 JUMPI JUMPDEST POP PUSH7 0x2386F26FC10000 PUSH2 0x1732 DUP2 PUSH2 0x745 JUMP JUMPDEST DUP3 LT ISZERO PUSH2 0x1803 JUMPI JUMPDEST POP PUSH4 0x5F5E100 PUSH2 0x1749 DUP2 PUSH2 0x745 JUMP JUMPDEST DUP3 LT ISZERO PUSH2 0x17E1 JUMPI JUMPDEST POP PUSH2 0x2710 PUSH2 0x175E DUP2 PUSH2 0x745 JUMP JUMPDEST DUP3 LT ISZERO PUSH2 0x17BF JUMPI JUMPDEST POP PUSH2 0x1771 PUSH1 0x64 PUSH2 0x745 JUMP JUMPDEST DUP2 LT ISZERO PUSH2 0x179D JUMPI JUMPDEST PUSH2 0x1786 PUSH2 0x14D4 PUSH1 0xA PUSH2 0x745 JUMP JUMPDEST LT ISZERO PUSH2 0x178F JUMPI SWAP1 JUMP JUMPDEST PUSH2 0x142 SWAP1 PUSH2 0x1D9 PUSH1 0x1 PUSH2 0x745 JUMP JUMPDEST PUSH2 0x17AE PUSH2 0x17B9 SWAP2 PUSH2 0x1554 PUSH1 0x64 PUSH2 0x745 JUMP JUMPDEST SWAP2 PUSH2 0x1D9 PUSH1 0x2 PUSH2 0x745 JUMP JUMPDEST SWAP1 PUSH2 0x1779 JUMP JUMPDEST PUSH2 0x17DA SWAP2 PUSH2 0x1554 PUSH2 0x17CF SWAP3 PUSH2 0x745 JUMP JUMPDEST SWAP2 PUSH2 0x1D9 PUSH1 0x4 PUSH2 0x745 JUMP JUMPDEST SWAP1 CODESIZE PUSH2 0x1766 JUMP JUMPDEST PUSH2 0x17FC SWAP2 PUSH2 0x1554 PUSH2 0x17F1 SWAP3 PUSH2 0x745 JUMP JUMPDEST SWAP2 PUSH2 0x1D9 PUSH1 0x8 PUSH2 0x745 JUMP JUMPDEST SWAP1 CODESIZE PUSH2 0x1751 JUMP JUMPDEST PUSH2 0x181E SWAP2 PUSH2 0x1554 PUSH2 0x1813 SWAP3 PUSH2 0x745 JUMP JUMPDEST SWAP2 PUSH2 0x1D9 PUSH1 0x10 PUSH2 0x745 JUMP JUMPDEST SWAP1 CODESIZE PUSH2 0x173A JUMP JUMPDEST PUSH2 0x1840 SWAP2 PUSH2 0x1554 PUSH2 0x1835 SWAP3 PUSH2 0x745 JUMP JUMPDEST SWAP2 PUSH2 0x1D9 PUSH1 0x20 PUSH2 0x745 JUMP JUMPDEST SWAP1 CODESIZE PUSH2 0x1720 JUMP JUMPDEST PUSH2 0x1862 SWAP2 PUSH2 0x1554 PUSH2 0x1857 SWAP3 PUSH2 0x745 JUMP JUMPDEST SWAP2 PUSH2 0x1D9 PUSH1 0x40 PUSH2 0x745 JUMP JUMPDEST SWAP1 CODESIZE PUSH2 0x16FF JUMP JUMPDEST EXTCODESIZE PUSH2 0x1877 PUSH2 0x14D4 PUSH1 0x0 PUSH2 0x745 JUMP JUMPDEST GT SWAP1 JUMP INVALID LOG2 PUSH5 0x6970667358 0x22 SLT KECCAK256 SWAP7 SWAP14 0xEB 0xB2 0xE3 0xC1 0xF7 CALLDATASIZE SWAP15 SMOD 0x4E 0xB1 DUP3 0xCF GT PUSH30 0xFA0D00F0BC567F492A014C2346BA3FF864736F6C63430008180033000000 "},"methodIdentifiers":{"approve(address,uint256)":"095ea7b3","balanceOf(address)":"70a08231","getApproved(uint256)":"081812fc","isApprovedForAll(address,address)":"e985e9c5","mint(uint256,address)":"94bf804d","name()":"06fdde03","ownerOf(uint256)":"6352211e","safeTransferFrom(address,address,uint256)":"42842e0e","safeTransferFrom(address,address,uint256,bytes)":"b88d4fde","setApprovalForAll(address,bool)":"a22cb465","setBaseURI(string)":"55f804b3","supportsInterface(bytes4)":"01ffc9a7","symbol()":"95d89b41","tokenURI(uint256)":"c87b56dd","transferFrom(address,address,uint256)":"23b872dd"}}}}}