{"contracts/SocialOracle.sol":{"SocialOracle":{"abi":[{"inputs":[{"internalType":"address","name":"_stakeContractAddress","type":"address"}],"stateMutability":"nonpayable","type":"constructor"},{"anonymous":false,"inputs":[{"indexed":true,"internalType":"uint256","name":"questionId","type":"uint256"},{"indexed":true,"internalType":"address","name":"user","type":"address"},{"indexed":false,"internalType":"bool","name":"answer","type":"bool"}],"name":"AnswerSubmitted","type":"event"},{"anonymous":false,"inputs":[{"indexed":true,"internalType":"uint256","name":"id","type":"uint256"},{"indexed":false,"internalType":"bool","name":"correctAnswer","type":"bool"}],"name":"QuestionAnswered","type":"event"},{"anonymous":false,"inputs":[{"indexed":true,"internalType":"uint256","name":"id","type":"uint256"},{"indexed":false,"internalType":"uint256","name":"deadline","type":"uint256"}],"name":"QuestionCreated","type":"event"},{"inputs":[{"internalType":"uint256","name":"_id","type":"uint256"},{"internalType":"uint256","name":"_deadline","type":"uint256"}],"name":"addQuestion","outputs":[],"stateMutability":"nonpayable","type":"function"},{"inputs":[{"internalType":"uint256","name":"","type":"uint256"},{"internalType":"address","name":"","type":"address"}],"name":"answers","outputs":[{"internalType":"bool","name":"","type":"bool"}],"stateMutability":"view","type":"function"},{"inputs":[{"internalType":"uint256","name":"_questionId","type":"uint256"}],"name":"determineCorrectAnswer","outputs":[],"stateMutability":"nonpayable","type":"function"},{"inputs":[{"internalType":"uint256","name":"_questionId","type":"uint256"}],"name":"getQuestionOutcome","outputs":[{"internalType":"bool","name":"outcome","type":"bool"},{"internalType":"bool","name":"determined","type":"bool"}],"stateMutability":"view","type":"function"},{"inputs":[{"internalType":"uint256","name":"","type":"uint256"},{"internalType":"address","name":"","type":"address"}],"name":"hasAnswered","outputs":[{"internalType":"bool","name":"","type":"bool"}],"stateMutability":"view","type":"function"},{"inputs":[{"internalType":"uint256","name":"","type":"uint256"}],"name":"questions","outputs":[{"internalType":"uint256","name":"id","type":"uint256"},{"internalType":"uint256","name":"deadline","type":"uint256"},{"internalType":"bool","name":"isAnswered","type":"bool"},{"internalType":"bool","name":"correctAnswer","type":"bool"},{"internalType":"bool","name":"answerDetermined","type":"bool"}],"stateMutability":"view","type":"function"},{"inputs":[],"name":"stakeContract","outputs":[{"internalType":"contract IStakeContract","name":"","type":"address"}],"stateMutability":"view","type":"function"},{"inputs":[{"internalType":"uint256","name":"_questionId","type":"uint256"},{"internalType":"bool","name":"_answer","type":"bool"}],"name":"submitAnswer","outputs":[],"stateMutability":"nonpayable","type":"function"}],"evm":{"bytecode":{"linkReferences":{},"object":"60806040523462000030576200001e62000018620000d3565b62000156565b604051610b476200016e8239610b4790f35b600080fd5b634e487b7160e01b600052604160045260246000fd5b90601f01601f191681019081106001600160401b038211176200006d57604052565b62000035565b906200008a6200008260405190565b92836200004b565b565b6001600160a01b031690565b90565b6001600160a01b038116036200003057565b905051906200008a826200009b565b9060208282031262000030576200009891620000ad565b6200009862000cb580380380620000ea8162000073565b928339810190620000bc565b62000098906200008c906001600160a01b031682565b6200009890620000f6565b62000098906200010c565b906200013662000098620001529262000117565b82546001600160a01b0319166001600160a01b03919091161790565b9055565b620001656200008a9162000117565b60006200012256fe6080604052600436101561001257600080fd5b60003560e01c80631a1862271461009257806325aaf9051461008d57806331b1b978146100885780637adb3eac146100835780637dfca71c1461007e5780638df75c7a14610079578063938cfd67146100745763e6b4eacf036100a257610449565b61041c565b6103e1565b6103b2565b61031b565b6102b2565b61018a565b61011a565b60009103126100a257565b600080fd5b6100bc916008021c5b6001600160a01b031690565b90565b906100bc91546100a7565b6100bc6000806100bf565b6100bc906100b0906001600160a01b031682565b6100bc906100d5565b6100bc906100e9565b610104906100f2565b9052565b60208101929161011891906100fb565b565b346100a25761012a366004610097565b6101416101356100ca565b60405191829182610108565b0390f35b805b036100a257565b9050359061011882610145565b906020828203126100a2576100bc9161014e565b9015158152604081019291610118916020905b019015159052565b346100a2576101a261019d36600461015b565b61053e565b906101416101af60405190565b9283928361016f565b6100bc6100bc6100bc9290565b906101cf906101b8565b600052602052604060002090565b6100bc9081565b6100bc90546101dd565b6100bc905b60ff1690565b6100bc90546101ee565b6100bc9060081c6101f3565b6100bc9054610203565b6100bc9060101c6101f3565b6100bc9054610219565b61023a9060016101c5565b610243816101e4565b91610250600183016101e4565b9161025d600282016101f9565b916100bc600261026e81850161020f565b9301610225565b90959492610118946102a9610182926102a060809661029960a088019c6000890152565b6020870152565b15156040850152565b15156060830152565b346100a2576101416102cd6102c836600461015b565b61022f565b916102da95939560405190565b95869586610275565b801515610147565b90503590610118826102e3565b91906040838203126100a2576100bc906020610314828661014e565b94016102eb565b346100a25761033461032e3660046102f8565b9061070e565b604051005b610147816100b0565b9050359061011882610339565b91906040838203126100a2576100bc90602061036b828661014e565b9401610342565b906101cf906100f2565b6100bc916008021c6101f3565b906100bc915461037c565b6103ad6100bc926103a860009360026101c5565b610372565b610389565b346100a2576101416103ce6103c836600461034f565b90610394565b6040515b91829182901515815260200190565b346100a2576103346103f436600461015b565b610959565b91906040838203126100a2576100bc906020610415828661014e565b940161014e565b346100a25761033461042f3660046103f9565b90610a85565b6103ad6100bc926103a860009360046101c5565b346100a2576101416103ce61045f36600461034f565b90610435565b634e487b7160e01b600052604160045260246000fd5b90601f01601f1916810190811067ffffffffffffffff82111761049d57604052565b610465565b906101186104af60405190565b928361047b565b6100bc60a06104a2565b9061011861052c60026104d16104b6565b946104e26104de826101e4565b8752565b6104f86104f1600183016101e4565b6020880152565b61050f6105068383016101f9565b15156040880152565b61052661051d83830161020f565b15156060880152565b01610225565b15156080840152565b6100bc906104c0565b61055561055a9161054d600090565b5060016101c5565b610535565b906100bc608061056d6060850151151590565b930151151590565b1561057c57565b60405162461bcd60e51b8152602060048201526013602482015272111958591b1a5b99481a185cc81c185cdcd959606a1b6044820152606490fd5b6100bc906100b0565b6100bc90546105b7565b9050519061011882610145565b906020828203126100a2576100bc916105ca565b610104906100b0565b60208101929161011891906105eb565b6040513d6000823e3d90fd5b1561061757565b60405162461bcd60e51b815260206004820152601860248201527f4e6f7420656e6f75676820746f6b656e73207374616b656400000000000000006044820152606490fd5b1561066357565b60405162461bcd60e51b815260206004820152601060248201526f105b1c9958591e48185b9cddd95c995960821b6044820152606490fd5b9060ff905b9181191691161790565b906106ba6100bc6106c192151590565b825461069b565b9055565b634e487b7160e01b600052601160045260246000fd5b919082018092116106e857565b6106c5565b90600019906106a0565b906107076100bc6106c1926101b8565b82546106ed565b60019061073c61072b836107256100bc85836101c5565b016101e4565b4290610736565b9190565b11610575565b61074e61074960006105c0565b6100f2565b91602061075a60405190565b938490630c2eb40360e01b8252818061077633600483016105f4565b03915afa9283156108bf57610838936107a691600091610890575b5061079f61073260646101b8565b1015610610565b6107d26107cd6107c96107c46107bd8660046101c5565b3390610372565b6101f9565b1590565b61065c565b6107e9846107e46107bd8560026101c5565b6106aa565b6107fb816107e46107bd8560046101c5565b83156108745761080d610833916101b8565b61082d600061081d8560036101c5565b0191610828836101e4565b6106db565b906106f7565b6101b8565b7fe741e062b6b4247ee65c6f00e6b8f8f81a561c471498ab4eb5d3ab8cad5b6eea61086f610865336100f2565b936103d260405190565b0390a3565b8061082d610884610833936101b8565b9161081d8560036101c5565b6108b2915060203d6020116108b8575b6108aa818361047b565b8101906105d7565b38610791565b503d6108a0565b610604565b156108cb57565b60405162461bcd60e51b815260206004820152601960248201527f416e7377657220616c72656164792064657465726d696e6564000000000000006044820152606490fd5b9061ff009060081b6106a0565b9061092d6100bc6106c192151590565b8254610910565b9062ff00009060101b6106a0565b906109526100bc6106c192151590565b8254610934565b7fb027d5b9823c9c8f39520f4b659b590e2597f7ef05da0d4e47d35437418acaa4610a046109fa6109f460016109ef60026109976100bc89856101c5565b01916109ad6109a86107c985610225565b6108c4565b6109e96109be6100bc8a60036101c5565b6109c883866106aa565b6109e26107326100bc856109db856101e4565b94016101e4565b118461091d565b82610942565b61020f565b936101b8565b926103d260405190565b0390a2565b90610a756080600261011894610a29610a23600087015190565b826106f7565b610a40610a37602087015190565b600183016106f7565b0192610a58610a526040830151151590565b856106aa565b610a6e610a686060830151151590565b8561091d565b0151151590565b90610942565b9061011891610a09565b610a04610afa7fb9f6ae7e91af5cf462672f7db163810a3c68b9605216b3a540519ef79487d020926108336000610aea610abd6104b6565b91610ac88582850152565b610ad3896020850152565b151560408301819052606083018190526080830152565b610af58360016101c5565b610a7b565b92610b0460405190565b918291829081526020019056fea2646970667358221220d8883376805e4b6fde290891e747e08a9a9740eddc5c07273efb24b05c468d2a64736f6c63430008180033","opcodes":"PUSH1 0x80 PUSH1 0x40 MSTORE CALLVALUE PUSH3 0x30 JUMPI PUSH3 0x1E PUSH3 0x18 PUSH3 0xD3 JUMP JUMPDEST PUSH3 0x156 JUMP JUMPDEST PUSH1 0x40 MLOAD PUSH2 0xB47 PUSH3 0x16E DUP3 CODECOPY PUSH2 0xB47 SWAP1 RETURN JUMPDEST PUSH1 0x0 DUP1 REVERT JUMPDEST PUSH4 0x4E487B71 PUSH1 0xE0 SHL PUSH1 0x0 MSTORE PUSH1 0x41 PUSH1 0x4 MSTORE PUSH1 0x24 PUSH1 0x0 REVERT JUMPDEST SWAP1 PUSH1 0x1F ADD PUSH1 0x1F NOT AND DUP2 ADD SWAP1 DUP2 LT PUSH1 0x1 PUSH1 0x1 PUSH1 0x40 SHL SUB DUP3 GT OR PUSH3 0x6D JUMPI PUSH1 0x40 MSTORE JUMP JUMPDEST PUSH3 0x35 JUMP JUMPDEST SWAP1 PUSH3 0x8A PUSH3 0x82 PUSH1 0x40 MLOAD SWAP1 JUMP JUMPDEST SWAP3 DUP4 PUSH3 0x4B JUMP JUMPDEST JUMP JUMPDEST PUSH1 0x1 PUSH1 0x1 PUSH1 0xA0 SHL SUB AND SWAP1 JUMP JUMPDEST SWAP1 JUMP JUMPDEST PUSH1 0x1 PUSH1 0x1 PUSH1 0xA0 SHL SUB DUP2 AND SUB PUSH3 0x30 JUMPI JUMP JUMPDEST SWAP1 POP MLOAD SWAP1 PUSH3 0x8A DUP3 PUSH3 0x9B JUMP JUMPDEST SWAP1 PUSH1 0x20 DUP3 DUP3 SUB SLT PUSH3 0x30 JUMPI PUSH3 0x98 SWAP2 PUSH3 0xAD JUMP JUMPDEST PUSH3 0x98 PUSH3 0xCB5 DUP1 CODESIZE SUB DUP1 PUSH3 0xEA DUP2 PUSH3 0x73 JUMP JUMPDEST SWAP3 DUP4 CODECOPY DUP2 ADD SWAP1 PUSH3 0xBC JUMP JUMPDEST PUSH3 0x98 SWAP1 PUSH3 0x8C SWAP1 PUSH1 0x1 PUSH1 0x1 PUSH1 0xA0 SHL SUB AND DUP3 JUMP JUMPDEST PUSH3 0x98 SWAP1 PUSH3 0xF6 JUMP JUMPDEST PUSH3 0x98 SWAP1 PUSH3 0x10C JUMP JUMPDEST SWAP1 PUSH3 0x136 PUSH3 0x98 PUSH3 0x152 SWAP3 PUSH3 0x117 JUMP JUMPDEST DUP3 SLOAD PUSH1 0x1 PUSH1 0x1 PUSH1 0xA0 SHL SUB NOT AND PUSH1 0x1 PUSH1 0x1 PUSH1 0xA0 SHL SUB SWAP2 SWAP1 SWAP2 AND OR SWAP1 JUMP JUMPDEST SWAP1 SSTORE JUMP JUMPDEST PUSH3 0x165 PUSH3 0x8A SWAP2 PUSH3 0x117 JUMP JUMPDEST PUSH1 0x0 PUSH3 0x122 JUMP INVALID PUSH1 0x80 PUSH1 0x40 MSTORE PUSH1 0x4 CALLDATASIZE LT ISZERO PUSH2 0x12 JUMPI PUSH1 0x0 DUP1 REVERT JUMPDEST PUSH1 0x0 CALLDATALOAD PUSH1 0xE0 SHR DUP1 PUSH4 0x1A186227 EQ PUSH2 0x92 JUMPI DUP1 PUSH4 0x25AAF905 EQ PUSH2 0x8D JUMPI DUP1 PUSH4 0x31B1B978 EQ PUSH2 0x88 JUMPI DUP1 PUSH4 0x7ADB3EAC EQ PUSH2 0x83 JUMPI DUP1 PUSH4 0x7DFCA71C EQ PUSH2 0x7E JUMPI DUP1 PUSH4 0x8DF75C7A EQ PUSH2 0x79 JUMPI DUP1 PUSH4 0x938CFD67 EQ PUSH2 0x74 JUMPI PUSH4 0xE6B4EACF SUB PUSH2 0xA2 JUMPI PUSH2 0x449 JUMP JUMPDEST PUSH2 0x41C JUMP JUMPDEST PUSH2 0x3E1 JUMP JUMPDEST PUSH2 0x3B2 JUMP JUMPDEST PUSH2 0x31B JUMP JUMPDEST PUSH2 0x2B2 JUMP JUMPDEST PUSH2 0x18A JUMP JUMPDEST PUSH2 0x11A JUMP JUMPDEST PUSH1 0x0 SWAP2 SUB SLT PUSH2 0xA2 JUMPI JUMP JUMPDEST PUSH1 0x0 DUP1 REVERT JUMPDEST PUSH2 0xBC SWAP2 PUSH1 0x8 MUL SHR JUMPDEST PUSH1 0x1 PUSH1 0x1 PUSH1 0xA0 SHL SUB AND SWAP1 JUMP JUMPDEST SWAP1 JUMP JUMPDEST SWAP1 PUSH2 0xBC SWAP2 SLOAD PUSH2 0xA7 JUMP JUMPDEST PUSH2 0xBC PUSH1 0x0 DUP1 PUSH2 0xBF JUMP JUMPDEST PUSH2 0xBC SWAP1 PUSH2 0xB0 SWAP1 PUSH1 0x1 PUSH1 0x1 PUSH1 0xA0 SHL SUB AND DUP3 JUMP JUMPDEST PUSH2 0xBC SWAP1 PUSH2 0xD5 JUMP JUMPDEST PUSH2 0xBC SWAP1 PUSH2 0xE9 JUMP JUMPDEST PUSH2 0x104 SWAP1 PUSH2 0xF2 JUMP JUMPDEST SWAP1 MSTORE JUMP JUMPDEST PUSH1 0x20 DUP2 ADD SWAP3 SWAP2 PUSH2 0x118 SWAP2 SWAP1 PUSH2 0xFB JUMP JUMPDEST JUMP JUMPDEST CALLVALUE PUSH2 0xA2 JUMPI PUSH2 0x12A CALLDATASIZE PUSH1 0x4 PUSH2 0x97 JUMP JUMPDEST PUSH2 0x141 PUSH2 0x135 PUSH2 0xCA JUMP JUMPDEST PUSH1 0x40 MLOAD SWAP2 DUP3 SWAP2 DUP3 PUSH2 0x108 JUMP JUMPDEST SUB SWAP1 RETURN JUMPDEST DUP1 JUMPDEST SUB PUSH2 0xA2 JUMPI JUMP JUMPDEST SWAP1 POP CALLDATALOAD SWAP1 PUSH2 0x118 DUP3 PUSH2 0x145 JUMP JUMPDEST SWAP1 PUSH1 0x20 DUP3 DUP3 SUB SLT PUSH2 0xA2 JUMPI PUSH2 0xBC SWAP2 PUSH2 0x14E JUMP JUMPDEST SWAP1 ISZERO ISZERO DUP2 MSTORE PUSH1 0x40 DUP2 ADD SWAP3 SWAP2 PUSH2 0x118 SWAP2 PUSH1 0x20 SWAP1 JUMPDEST ADD SWAP1 ISZERO ISZERO SWAP1 MSTORE JUMP JUMPDEST CALLVALUE PUSH2 0xA2 JUMPI PUSH2 0x1A2 PUSH2 0x19D CALLDATASIZE PUSH1 0x4 PUSH2 0x15B JUMP JUMPDEST PUSH2 0x53E JUMP JUMPDEST SWAP1 PUSH2 0x141 PUSH2 0x1AF PUSH1 0x40 MLOAD SWAP1 JUMP JUMPDEST SWAP3 DUP4 SWAP3 DUP4 PUSH2 0x16F JUMP JUMPDEST PUSH2 0xBC PUSH2 0xBC PUSH2 0xBC SWAP3 SWAP1 JUMP JUMPDEST SWAP1 PUSH2 0x1CF SWAP1 PUSH2 0x1B8 JUMP JUMPDEST PUSH1 0x0 MSTORE PUSH1 0x20 MSTORE PUSH1 0x40 PUSH1 0x0 KECCAK256 SWAP1 JUMP JUMPDEST PUSH2 0xBC SWAP1 DUP2 JUMP JUMPDEST PUSH2 0xBC SWAP1 SLOAD PUSH2 0x1DD JUMP JUMPDEST PUSH2 0xBC SWAP1 JUMPDEST PUSH1 0xFF AND SWAP1 JUMP JUMPDEST PUSH2 0xBC SWAP1 SLOAD PUSH2 0x1EE JUMP JUMPDEST PUSH2 0xBC SWAP1 PUSH1 0x8 SHR PUSH2 0x1F3 JUMP JUMPDEST PUSH2 0xBC SWAP1 SLOAD PUSH2 0x203 JUMP JUMPDEST PUSH2 0xBC SWAP1 PUSH1 0x10 SHR PUSH2 0x1F3 JUMP JUMPDEST PUSH2 0xBC SWAP1 SLOAD PUSH2 0x219 JUMP JUMPDEST PUSH2 0x23A SWAP1 PUSH1 0x1 PUSH2 0x1C5 JUMP JUMPDEST PUSH2 0x243 DUP2 PUSH2 0x1E4 JUMP JUMPDEST SWAP2 PUSH2 0x250 PUSH1 0x1 DUP4 ADD PUSH2 0x1E4 JUMP JUMPDEST SWAP2 PUSH2 0x25D PUSH1 0x2 DUP3 ADD PUSH2 0x1F9 JUMP JUMPDEST SWAP2 PUSH2 0xBC PUSH1 0x2 PUSH2 0x26E DUP2 DUP6 ADD PUSH2 0x20F JUMP JUMPDEST SWAP4 ADD PUSH2 0x225 JUMP JUMPDEST SWAP1 SWAP6 SWAP5 SWAP3 PUSH2 0x118 SWAP5 PUSH2 0x2A9 PUSH2 0x182 SWAP3 PUSH2 0x2A0 PUSH1 0x80 SWAP7 PUSH2 0x299 PUSH1 0xA0 DUP9 ADD SWAP13 PUSH1 0x0 DUP10 ADD MSTORE JUMP JUMPDEST PUSH1 0x20 DUP8 ADD MSTORE JUMP JUMPDEST ISZERO ISZERO PUSH1 0x40 DUP6 ADD MSTORE JUMP JUMPDEST ISZERO ISZERO PUSH1 0x60 DUP4 ADD MSTORE JUMP JUMPDEST CALLVALUE PUSH2 0xA2 JUMPI PUSH2 0x141 PUSH2 0x2CD PUSH2 0x2C8 CALLDATASIZE PUSH1 0x4 PUSH2 0x15B JUMP JUMPDEST PUSH2 0x22F JUMP JUMPDEST SWAP2 PUSH2 0x2DA SWAP6 SWAP4 SWAP6 PUSH1 0x40 MLOAD SWAP1 JUMP JUMPDEST SWAP6 DUP7 SWAP6 DUP7 PUSH2 0x275 JUMP JUMPDEST DUP1 ISZERO ISZERO PUSH2 0x147 JUMP JUMPDEST SWAP1 POP CALLDATALOAD SWAP1 PUSH2 0x118 DUP3 PUSH2 0x2E3 JUMP JUMPDEST SWAP2 SWAP1 PUSH1 0x40 DUP4 DUP3 SUB SLT PUSH2 0xA2 JUMPI PUSH2 0xBC SWAP1 PUSH1 0x20 PUSH2 0x314 DUP3 DUP7 PUSH2 0x14E JUMP JUMPDEST SWAP5 ADD PUSH2 0x2EB JUMP JUMPDEST CALLVALUE PUSH2 0xA2 JUMPI PUSH2 0x334 PUSH2 0x32E CALLDATASIZE PUSH1 0x4 PUSH2 0x2F8 JUMP JUMPDEST SWAP1 PUSH2 0x70E JUMP JUMPDEST PUSH1 0x40 MLOAD STOP JUMPDEST PUSH2 0x147 DUP2 PUSH2 0xB0 JUMP JUMPDEST SWAP1 POP CALLDATALOAD SWAP1 PUSH2 0x118 DUP3 PUSH2 0x339 JUMP JUMPDEST SWAP2 SWAP1 PUSH1 0x40 DUP4 DUP3 SUB SLT PUSH2 0xA2 JUMPI PUSH2 0xBC SWAP1 PUSH1 0x20 PUSH2 0x36B DUP3 DUP7 PUSH2 0x14E JUMP JUMPDEST SWAP5 ADD PUSH2 0x342 JUMP JUMPDEST SWAP1 PUSH2 0x1CF SWAP1 PUSH2 0xF2 JUMP JUMPDEST PUSH2 0xBC SWAP2 PUSH1 0x8 MUL SHR PUSH2 0x1F3 JUMP JUMPDEST SWAP1 PUSH2 0xBC SWAP2 SLOAD PUSH2 0x37C JUMP JUMPDEST PUSH2 0x3AD PUSH2 0xBC SWAP3 PUSH2 0x3A8 PUSH1 0x0 SWAP4 PUSH1 0x2 PUSH2 0x1C5 JUMP JUMPDEST PUSH2 0x372 JUMP JUMPDEST PUSH2 0x389 JUMP JUMPDEST CALLVALUE PUSH2 0xA2 JUMPI PUSH2 0x141 PUSH2 0x3CE PUSH2 0x3C8 CALLDATASIZE PUSH1 0x4 PUSH2 0x34F JUMP JUMPDEST SWAP1 PUSH2 0x394 JUMP JUMPDEST PUSH1 0x40 MLOAD JUMPDEST SWAP2 DUP3 SWAP2 DUP3 SWAP1 ISZERO ISZERO DUP2 MSTORE PUSH1 0x20 ADD SWAP1 JUMP JUMPDEST CALLVALUE PUSH2 0xA2 JUMPI PUSH2 0x334 PUSH2 0x3F4 CALLDATASIZE PUSH1 0x4 PUSH2 0x15B JUMP JUMPDEST PUSH2 0x959 JUMP JUMPDEST SWAP2 SWAP1 PUSH1 0x40 DUP4 DUP3 SUB SLT PUSH2 0xA2 JUMPI PUSH2 0xBC SWAP1 PUSH1 0x20 PUSH2 0x415 DUP3 DUP7 PUSH2 0x14E JUMP JUMPDEST SWAP5 ADD PUSH2 0x14E JUMP JUMPDEST CALLVALUE PUSH2 0xA2 JUMPI PUSH2 0x334 PUSH2 0x42F CALLDATASIZE PUSH1 0x4 PUSH2 0x3F9 JUMP JUMPDEST SWAP1 PUSH2 0xA85 JUMP JUMPDEST PUSH2 0x3AD PUSH2 0xBC SWAP3 PUSH2 0x3A8 PUSH1 0x0 SWAP4 PUSH1 0x4 PUSH2 0x1C5 JUMP JUMPDEST CALLVALUE PUSH2 0xA2 JUMPI PUSH2 0x141 PUSH2 0x3CE PUSH2 0x45F CALLDATASIZE PUSH1 0x4 PUSH2 0x34F JUMP JUMPDEST SWAP1 PUSH2 0x435 JUMP JUMPDEST PUSH4 0x4E487B71 PUSH1 0xE0 SHL PUSH1 0x0 MSTORE PUSH1 0x41 PUSH1 0x4 MSTORE PUSH1 0x24 PUSH1 0x0 REVERT JUMPDEST SWAP1 PUSH1 0x1F ADD PUSH1 0x1F NOT AND DUP2 ADD SWAP1 DUP2 LT PUSH8 0xFFFFFFFFFFFFFFFF DUP3 GT OR PUSH2 0x49D JUMPI PUSH1 0x40 MSTORE JUMP JUMPDEST PUSH2 0x465 JUMP JUMPDEST SWAP1 PUSH2 0x118 PUSH2 0x4AF PUSH1 0x40 MLOAD SWAP1 JUMP JUMPDEST SWAP3 DUP4 PUSH2 0x47B JUMP JUMPDEST PUSH2 0xBC PUSH1 0xA0 PUSH2 0x4A2 JUMP JUMPDEST SWAP1 PUSH2 0x118 PUSH2 0x52C PUSH1 0x2 PUSH2 0x4D1 PUSH2 0x4B6 JUMP JUMPDEST SWAP5 PUSH2 0x4E2 PUSH2 0x4DE DUP3 PUSH2 0x1E4 JUMP JUMPDEST DUP8 MSTORE JUMP JUMPDEST PUSH2 0x4F8 PUSH2 0x4F1 PUSH1 0x1 DUP4 ADD PUSH2 0x1E4 JUMP JUMPDEST PUSH1 0x20 DUP9 ADD MSTORE JUMP JUMPDEST PUSH2 0x50F PUSH2 0x506 DUP4 DUP4 ADD PUSH2 0x1F9 JUMP JUMPDEST ISZERO ISZERO PUSH1 0x40 DUP9 ADD MSTORE JUMP JUMPDEST PUSH2 0x526 PUSH2 0x51D DUP4 DUP4 ADD PUSH2 0x20F JUMP JUMPDEST ISZERO ISZERO PUSH1 0x60 DUP9 ADD MSTORE JUMP JUMPDEST ADD PUSH2 0x225 JUMP JUMPDEST ISZERO ISZERO PUSH1 0x80 DUP5 ADD MSTORE JUMP JUMPDEST PUSH2 0xBC SWAP1 PUSH2 0x4C0 JUMP JUMPDEST PUSH2 0x555 PUSH2 0x55A SWAP2 PUSH2 0x54D PUSH1 0x0 SWAP1 JUMP JUMPDEST POP PUSH1 0x1 PUSH2 0x1C5 JUMP JUMPDEST PUSH2 0x535 JUMP JUMPDEST SWAP1 PUSH2 0xBC PUSH1 0x80 PUSH2 0x56D PUSH1 0x60 DUP6 ADD MLOAD ISZERO ISZERO SWAP1 JUMP JUMPDEST SWAP4 ADD MLOAD ISZERO ISZERO SWAP1 JUMP JUMPDEST ISZERO PUSH2 0x57C JUMPI JUMP JUMPDEST PUSH1 0x40 MLOAD PUSH3 0x461BCD PUSH1 0xE5 SHL DUP2 MSTORE PUSH1 0x20 PUSH1 0x4 DUP3 ADD MSTORE PUSH1 0x13 PUSH1 0x24 DUP3 ADD MSTORE PUSH19 0x111958591B1A5B99481A185CC81C185CDCD959 PUSH1 0x6A SHL PUSH1 0x44 DUP3 ADD MSTORE PUSH1 0x64 SWAP1 REVERT JUMPDEST PUSH2 0xBC SWAP1 PUSH2 0xB0 JUMP JUMPDEST PUSH2 0xBC SWAP1 SLOAD PUSH2 0x5B7 JUMP JUMPDEST SWAP1 POP MLOAD SWAP1 PUSH2 0x118 DUP3 PUSH2 0x145 JUMP JUMPDEST SWAP1 PUSH1 0x20 DUP3 DUP3 SUB SLT PUSH2 0xA2 JUMPI PUSH2 0xBC SWAP2 PUSH2 0x5CA JUMP JUMPDEST PUSH2 0x104 SWAP1 PUSH2 0xB0 JUMP JUMPDEST PUSH1 0x20 DUP2 ADD SWAP3 SWAP2 PUSH2 0x118 SWAP2 SWAP1 PUSH2 0x5EB JUMP JUMPDEST PUSH1 0x40 MLOAD RETURNDATASIZE PUSH1 0x0 DUP3 RETURNDATACOPY RETURNDATASIZE SWAP1 REVERT JUMPDEST ISZERO PUSH2 0x617 JUMPI JUMP JUMPDEST PUSH1 0x40 MLOAD PUSH3 0x461BCD PUSH1 0xE5 SHL DUP2 MSTORE PUSH1 0x20 PUSH1 0x4 DUP3 ADD MSTORE PUSH1 0x18 PUSH1 0x24 DUP3 ADD MSTORE PUSH32 0x4E6F7420656E6F75676820746F6B656E73207374616B65640000000000000000 PUSH1 0x44 DUP3 ADD MSTORE PUSH1 0x64 SWAP1 REVERT JUMPDEST ISZERO PUSH2 0x663 JUMPI JUMP JUMPDEST PUSH1 0x40 MLOAD PUSH3 0x461BCD PUSH1 0xE5 SHL DUP2 MSTORE PUSH1 0x20 PUSH1 0x4 DUP3 ADD MSTORE PUSH1 0x10 PUSH1 0x24 DUP3 ADD MSTORE PUSH16 0x105B1C9958591E48185B9CDDD95C9959 PUSH1 0x82 SHL PUSH1 0x44 DUP3 ADD MSTORE PUSH1 0x64 SWAP1 REVERT JUMPDEST SWAP1 PUSH1 0xFF SWAP1 JUMPDEST SWAP2 DUP2 NOT AND SWAP2 AND OR SWAP1 JUMP JUMPDEST SWAP1 PUSH2 0x6BA PUSH2 0xBC PUSH2 0x6C1 SWAP3 ISZERO ISZERO SWAP1 JUMP JUMPDEST DUP3 SLOAD PUSH2 0x69B JUMP JUMPDEST SWAP1 SSTORE JUMP JUMPDEST PUSH4 0x4E487B71 PUSH1 0xE0 SHL PUSH1 0x0 MSTORE PUSH1 0x11 PUSH1 0x4 MSTORE PUSH1 0x24 PUSH1 0x0 REVERT JUMPDEST SWAP2 SWAP1 DUP3 ADD DUP1 SWAP3 GT PUSH2 0x6E8 JUMPI JUMP JUMPDEST PUSH2 0x6C5 JUMP JUMPDEST SWAP1 PUSH1 0x0 NOT SWAP1 PUSH2 0x6A0 JUMP JUMPDEST SWAP1 PUSH2 0x707 PUSH2 0xBC PUSH2 0x6C1 SWAP3 PUSH2 0x1B8 JUMP JUMPDEST DUP3 SLOAD PUSH2 0x6ED JUMP JUMPDEST PUSH1 0x1 SWAP1 PUSH2 0x73C PUSH2 0x72B DUP4 PUSH2 0x725 PUSH2 0xBC DUP6 DUP4 PUSH2 0x1C5 JUMP JUMPDEST ADD PUSH2 0x1E4 JUMP JUMPDEST TIMESTAMP SWAP1 PUSH2 0x736 JUMP JUMPDEST SWAP2 SWAP1 JUMP JUMPDEST GT PUSH2 0x575 JUMP JUMPDEST PUSH2 0x74E PUSH2 0x749 PUSH1 0x0 PUSH2 0x5C0 JUMP JUMPDEST PUSH2 0xF2 JUMP JUMPDEST SWAP2 PUSH1 0x20 PUSH2 0x75A PUSH1 0x40 MLOAD SWAP1 JUMP JUMPDEST SWAP4 DUP5 SWAP1 PUSH4 0xC2EB403 PUSH1 0xE0 SHL DUP3 MSTORE DUP2 DUP1 PUSH2 0x776 CALLER PUSH1 0x4 DUP4 ADD PUSH2 0x5F4 JUMP JUMPDEST SUB SWAP2 GAS STATICCALL SWAP3 DUP4 ISZERO PUSH2 0x8BF JUMPI PUSH2 0x838 SWAP4 PUSH2 0x7A6 SWAP2 PUSH1 0x0 SWAP2 PUSH2 0x890 JUMPI JUMPDEST POP PUSH2 0x79F PUSH2 0x732 PUSH1 0x64 PUSH2 0x1B8 JUMP JUMPDEST LT ISZERO PUSH2 0x610 JUMP JUMPDEST PUSH2 0x7D2 PUSH2 0x7CD PUSH2 0x7C9 PUSH2 0x7C4 PUSH2 0x7BD DUP7 PUSH1 0x4 PUSH2 0x1C5 JUMP JUMPDEST CALLER SWAP1 PUSH2 0x372 JUMP JUMPDEST PUSH2 0x1F9 JUMP JUMPDEST ISZERO SWAP1 JUMP JUMPDEST PUSH2 0x65C JUMP JUMPDEST PUSH2 0x7E9 DUP5 PUSH2 0x7E4 PUSH2 0x7BD DUP6 PUSH1 0x2 PUSH2 0x1C5 JUMP JUMPDEST PUSH2 0x6AA JUMP JUMPDEST PUSH2 0x7FB DUP2 PUSH2 0x7E4 PUSH2 0x7BD DUP6 PUSH1 0x4 PUSH2 0x1C5 JUMP JUMPDEST DUP4 ISZERO PUSH2 0x874 JUMPI PUSH2 0x80D PUSH2 0x833 SWAP2 PUSH2 0x1B8 JUMP JUMPDEST PUSH2 0x82D PUSH1 0x0 PUSH2 0x81D DUP6 PUSH1 0x3 PUSH2 0x1C5 JUMP JUMPDEST ADD SWAP2 PUSH2 0x828 DUP4 PUSH2 0x1E4 JUMP JUMPDEST PUSH2 0x6DB JUMP JUMPDEST SWAP1 PUSH2 0x6F7 JUMP JUMPDEST PUSH2 0x1B8 JUMP JUMPDEST PUSH32 0xE741E062B6B4247EE65C6F00E6B8F8F81A561C471498AB4EB5D3AB8CAD5B6EEA PUSH2 0x86F PUSH2 0x865 CALLER PUSH2 0xF2 JUMP JUMPDEST SWAP4 PUSH2 0x3D2 PUSH1 0x40 MLOAD SWAP1 JUMP JUMPDEST SUB SWAP1 LOG3 JUMP JUMPDEST DUP1 PUSH2 0x82D PUSH2 0x884 PUSH2 0x833 SWAP4 PUSH2 0x1B8 JUMP JUMPDEST SWAP2 PUSH2 0x81D DUP6 PUSH1 0x3 PUSH2 0x1C5 JUMP JUMPDEST PUSH2 0x8B2 SWAP2 POP PUSH1 0x20 RETURNDATASIZE PUSH1 0x20 GT PUSH2 0x8B8 JUMPI JUMPDEST PUSH2 0x8AA DUP2 DUP4 PUSH2 0x47B JUMP JUMPDEST DUP2 ADD SWAP1 PUSH2 0x5D7 JUMP JUMPDEST CODESIZE PUSH2 0x791 JUMP JUMPDEST POP RETURNDATASIZE PUSH2 0x8A0 JUMP JUMPDEST PUSH2 0x604 JUMP JUMPDEST ISZERO PUSH2 0x8CB JUMPI JUMP JUMPDEST PUSH1 0x40 MLOAD PUSH3 0x461BCD PUSH1 0xE5 SHL DUP2 MSTORE PUSH1 0x20 PUSH1 0x4 DUP3 ADD MSTORE PUSH1 0x19 PUSH1 0x24 DUP3 ADD MSTORE PUSH32 0x416E7377657220616C72656164792064657465726D696E656400000000000000 PUSH1 0x44 DUP3 ADD MSTORE PUSH1 0x64 SWAP1 REVERT JUMPDEST SWAP1 PUSH2 0xFF00 SWAP1 PUSH1 0x8 SHL PUSH2 0x6A0 JUMP JUMPDEST SWAP1 PUSH2 0x92D PUSH2 0xBC PUSH2 0x6C1 SWAP3 ISZERO ISZERO SWAP1 JUMP JUMPDEST DUP3 SLOAD PUSH2 0x910 JUMP JUMPDEST SWAP1 PUSH3 0xFF0000 SWAP1 PUSH1 0x10 SHL PUSH2 0x6A0 JUMP JUMPDEST SWAP1 PUSH2 0x952 PUSH2 0xBC PUSH2 0x6C1 SWAP3 ISZERO ISZERO SWAP1 JUMP JUMPDEST DUP3 SLOAD PUSH2 0x934 JUMP JUMPDEST PUSH32 0xB027D5B9823C9C8F39520F4B659B590E2597F7EF05DA0D4E47D35437418ACAA4 PUSH2 0xA04 PUSH2 0x9FA PUSH2 0x9F4 PUSH1 0x1 PUSH2 0x9EF PUSH1 0x2 PUSH2 0x997 PUSH2 0xBC DUP10 DUP6 PUSH2 0x1C5 JUMP JUMPDEST ADD SWAP2 PUSH2 0x9AD PUSH2 0x9A8 PUSH2 0x7C9 DUP6 PUSH2 0x225 JUMP JUMPDEST PUSH2 0x8C4 JUMP JUMPDEST PUSH2 0x9E9 PUSH2 0x9BE PUSH2 0xBC DUP11 PUSH1 0x3 PUSH2 0x1C5 JUMP JUMPDEST PUSH2 0x9C8 DUP4 DUP7 PUSH2 0x6AA JUMP JUMPDEST PUSH2 0x9E2 PUSH2 0x732 PUSH2 0xBC DUP6 PUSH2 0x9DB DUP6 PUSH2 0x1E4 JUMP JUMPDEST SWAP5 ADD PUSH2 0x1E4 JUMP JUMPDEST GT DUP5 PUSH2 0x91D JUMP JUMPDEST DUP3 PUSH2 0x942 JUMP JUMPDEST PUSH2 0x20F JUMP JUMPDEST SWAP4 PUSH2 0x1B8 JUMP JUMPDEST SWAP3 PUSH2 0x3D2 PUSH1 0x40 MLOAD SWAP1 JUMP JUMPDEST SUB SWAP1 LOG2 JUMP JUMPDEST SWAP1 PUSH2 0xA75 PUSH1 0x80 PUSH1 0x2 PUSH2 0x118 SWAP5 PUSH2 0xA29 PUSH2 0xA23 PUSH1 0x0 DUP8 ADD MLOAD SWAP1 JUMP JUMPDEST DUP3 PUSH2 0x6F7 JUMP JUMPDEST PUSH2 0xA40 PUSH2 0xA37 PUSH1 0x20 DUP8 ADD MLOAD SWAP1 JUMP JUMPDEST PUSH1 0x1 DUP4 ADD PUSH2 0x6F7 JUMP JUMPDEST ADD SWAP3 PUSH2 0xA58 PUSH2 0xA52 PUSH1 0x40 DUP4 ADD MLOAD ISZERO ISZERO SWAP1 JUMP JUMPDEST DUP6 PUSH2 0x6AA JUMP JUMPDEST PUSH2 0xA6E PUSH2 0xA68 PUSH1 0x60 DUP4 ADD MLOAD ISZERO ISZERO SWAP1 JUMP JUMPDEST DUP6 PUSH2 0x91D JUMP JUMPDEST ADD MLOAD ISZERO ISZERO SWAP1 JUMP JUMPDEST SWAP1 PUSH2 0x942 JUMP JUMPDEST SWAP1 PUSH2 0x118 SWAP2 PUSH2 0xA09 JUMP JUMPDEST PUSH2 0xA04 PUSH2 0xAFA PUSH32 0xB9F6AE7E91AF5CF462672F7DB163810A3C68B9605216B3A540519EF79487D020 SWAP3 PUSH2 0x833 PUSH1 0x0 PUSH2 0xAEA PUSH2 0xABD PUSH2 0x4B6 JUMP JUMPDEST SWAP2 PUSH2 0xAC8 DUP6 DUP3 DUP6 ADD MSTORE JUMP JUMPDEST PUSH2 0xAD3 DUP10 PUSH1 0x20 DUP6 ADD MSTORE JUMP JUMPDEST ISZERO ISZERO PUSH1 0x40 DUP4 ADD DUP2 SWAP1 MSTORE PUSH1 0x60 DUP4 ADD DUP2 SWAP1 MSTORE PUSH1 0x80 DUP4 ADD MSTORE JUMP JUMPDEST PUSH2 0xAF5 DUP4 PUSH1 0x1 PUSH2 0x1C5 JUMP JUMPDEST PUSH2 0xA7B JUMP JUMPDEST SWAP3 PUSH2 0xB04 PUSH1 0x40 MLOAD SWAP1 JUMP JUMPDEST SWAP2 DUP3 SWAP2 DUP3 SWAP1 DUP2 MSTORE PUSH1 0x20 ADD SWAP1 JUMP INVALID LOG2 PUSH5 0x6970667358 0x22 SLT KECCAK256 0xD8 DUP9 CALLER PUSH23 0x805E4B6FDE290891E747E08A9A9740EDDC5C07273EFB24 0xB0 TLOAD CHAINID DUP14 0x2A PUSH5 0x736F6C6343 STOP ADDMOD XOR STOP CALLER "},"methodIdentifiers":{"addQuestion(uint256,uint256)":"938cfd67","answers(uint256,address)":"7dfca71c","determineCorrectAnswer(uint256)":"8df75c7a","getQuestionOutcome(uint256)":"25aaf905","hasAnswered(uint256,address)":"e6b4eacf","questions(uint256)":"31b1b978","stakeContract()":"1a186227","submitAnswer(uint256,bool)":"7adb3eac"}}}}}