{"contracts/StakeContract.sol":{"StakeContract":{"abi":[{"inputs":[{"internalType":"address","name":"_tokenAddress","type":"address"},{"internalType":"uint256","name":"_stakingRewardRate","type":"uint256"}],"stateMutability":"nonpayable","type":"constructor"},{"anonymous":false,"inputs":[{"indexed":true,"internalType":"address","name":"previousOwner","type":"address"},{"indexed":true,"internalType":"address","name":"newOwner","type":"address"}],"name":"OwnershipTransferred","type":"event"},{"anonymous":false,"inputs":[{"indexed":true,"internalType":"address","name":"user","type":"address"},{"indexed":false,"internalType":"uint256","name":"reward","type":"uint256"}],"name":"RewardPaid","type":"event"},{"anonymous":false,"inputs":[{"indexed":true,"internalType":"address","name":"user","type":"address"},{"indexed":false,"internalType":"uint256","name":"amount","type":"uint256"}],"name":"Staked","type":"event"},{"anonymous":false,"inputs":[{"indexed":true,"internalType":"address","name":"user","type":"address"},{"indexed":false,"internalType":"uint256","name":"amount","type":"uint256"}],"name":"Withdrawn","type":"event"},{"inputs":[],"name":"claimReward","outputs":[],"stateMutability":"nonpayable","type":"function"},{"inputs":[{"internalType":"address","name":"account","type":"address"},{"internalType":"uint256","name":"newRewardPerToken","type":"uint256"}],"name":"earned","outputs":[{"internalType":"uint256","name":"","type":"uint256"}],"stateMutability":"view","type":"function"},{"inputs":[{"internalType":"address","name":"user","type":"address"}],"name":"getStakeAmount","outputs":[{"internalType":"uint256","name":"","type":"uint256"}],"stateMutability":"view","type":"function"},{"inputs":[],"name":"lastUpdateTime","outputs":[{"internalType":"uint256","name":"","type":"uint256"}],"stateMutability":"view","type":"function"},{"inputs":[],"name":"owner","outputs":[{"internalType":"address","name":"","type":"address"}],"stateMutability":"view","type":"function"},{"inputs":[],"name":"renounceOwnership","outputs":[],"stateMutability":"nonpayable","type":"function"},{"inputs":[],"name":"rewardPerToken","outputs":[{"internalType":"uint256","name":"","type":"uint256"}],"stateMutability":"view","type":"function"},{"inputs":[{"internalType":"address","name":"","type":"address"}],"name":"rewards","outputs":[{"internalType":"uint256","name":"","type":"uint256"}],"stateMutability":"view","type":"function"},{"inputs":[{"internalType":"uint256","name":"_stakingRewardRate","type":"uint256"}],"name":"setStakingRewardRate","outputs":[],"stateMutability":"nonpayable","type":"function"},{"inputs":[{"internalType":"uint256","name":"amount","type":"uint256"}],"name":"stake","outputs":[],"stateMutability":"nonpayable","type":"function"},{"inputs":[{"internalType":"address","name":"","type":"address"}],"name":"stakes","outputs":[{"internalType":"uint256","name":"","type":"uint256"}],"stateMutability":"view","type":"function"},{"inputs":[],"name":"stakingRewardRate","outputs":[{"internalType":"uint256","name":"","type":"uint256"}],"stateMutability":"view","type":"function"},{"inputs":[],"name":"token","outputs":[{"internalType":"contract IERC20","name":"","type":"address"}],"stateMutability":"view","type":"function"},{"inputs":[],"name":"totalStaked","outputs":[{"internalType":"uint256","name":"","type":"uint256"}],"stateMutability":"view","type":"function"},{"inputs":[{"internalType":"address","name":"newOwner","type":"address"}],"name":"transferOwnership","outputs":[],"stateMutability":"nonpayable","type":"function"},{"inputs":[{"internalType":"uint256","name":"amount","type":"uint256"}],"name":"withdraw","outputs":[],"stateMutability":"nonpayable","type":"function"}],"evm":{"bytecode":{"linkReferences":{},"object":"60806040523462000031576200001f62000018620000fc565b90620001bb565b604051610ce3620002668239610ce390f35b600080fd5b634e487b7160e01b600052604160045260246000fd5b90601f01601f191681019081106001600160401b038211176200006e57604052565b62000036565b906200008b6200008360405190565b92836200004c565b565b6001600160a01b031690565b90565b6001600160a01b0381165b036200003157565b905051906200008b826200009c565b80620000a7565b905051906200008b82620000be565b9190604083820312620000315762000099906020620000f48286620000af565b9401620000c5565b6200011f62000f4980380380620001138162000074565b928339810190620000d4565b9091565b62000099906200008d906001600160a01b031682565b620000999062000123565b620000999062000139565b906001600160a01b03905b9181191691161790565b906200017862000099620001809262000144565b82546200014f565b9055565b90600019906200015a565b6200009962000099620000999290565b90620001b36200009962000180926200018f565b825462000184565b90620001e1620001d96200008b93620001d3620001e9565b62000144565b600162000164565b60036200019f565b6200008b336200020b565b62000099906200008d565b620000999054620001f4565b620002336200022c6200021f6000620001ff565b620001d384600062000164565b9162000144565b907f8be0079c531659141344cd1fd0a4f28419497f9722a3daafe3b4186f6b6457e06200025f60405190565b600090a356fe6080604052600436101561001257600080fd5b60003560e01c80630700037d146101125780630c2eb4031461010d57806316934fc4146101085780632e1a7d4d146101035780633e491d47146100fe5780634f3fc2df146100f9578063715018a6146100f4578063817b1cd2146100ef5780638da5cb5b146100ea578063a694fc3a146100e5578063b7d68519146100e0578063b88a802f146100db578063c8f33c91146100d6578063cd3daf9d146100d1578063f2fde38b146100cc5763fc0c546a036101385761044b565b6103f6565b6103db565b6103c0565b61039c565b610384565b61036c565b610337565b61031c565b6102f8565b6102dd565b6102aa565b61026a565b610228565b6101fd565b6101cd565b6001600160a01b031690565b90565b6001600160a01b0381165b0361013857565b600080fd5b9050359061014a82610126565b565b90602082820312610138576101239161013d565b61012390610117906001600160a01b031682565b61012390610160565b61012390610174565b906101909061017d565b600052602052604060002090565b610123916008021c81565b90610123915461019e565b60006101c4610123926006610186565b6101a9565b9052565b34610138576101f96101e86101e336600461014c565b6101b4565b6040515b9182918290815260200190565b0390f35b34610138576101f96101e861021336600461014c565b610483565b60006101c4610123926005610186565b34610138576101f96101e861023e36600461014c565b610218565b80610131565b9050359061014a82610243565b906020828203126101385761012391610249565b346101385761028261027d366004610256565b610632565b604051005b9190604083820312610138576101239060206102a3828661013d565b9401610249565b34610138576101f96101e86102c0366004610287565b906107af565b600091031261013857565b610123600060036101a9565b34610138576102ed3660046102c6565b6101f96101e86102d1565b34610138576103083660046102c6565b61028261084a565b610123600060026101a9565b346101385761032c3660046102c6565b6101f96101e8610310565b34610138576103473660046102c6565b6101f9610352610852565b604051918291826001600160a01b03909116815260200190565b346101385761028261037f366004610256565b610880565b3461013857610282610397366004610256565b61097f565b34610138576103ac3660046102c6565b6102826109ca565b610123600060046101a9565b34610138576103d03660046102c6565b6101f96101e86103b4565b34610138576103eb3660046102c6565b6101f96101e8610aa3565b346101385761028261040936600461014c565b610b87565b610123916008021c610117565b90610123915461040e565b6101236000600161041b565b6101c99061017d565b60208101929161014a9190610432565b346101385761045b3660046102c6565b6101f9610466610426565b6040519182918261043b565b6101239081565b6101239054610472565b61049a61012391610492600090565b506005610186565b610479565b6101236101236101239290565b156104b357565b60405162461bcd60e51b815260206004820152601d60248201527f416d6f756e74206d7573742062652067726561746572207468616e20300000006044820152606490fd5b0390fd5b1561050357565b60405162461bcd60e51b8152602060048201526012602482015271496e73756666696369656e74207374616b6560701b6044820152606490fd5b634e487b7160e01b600052601160045260246000fd5b9190820391821161056057565b61053d565b90600019905b9181191691161790565b9061058561012361058c9261049f565b8254610565565b9055565b61012390610117565b6101239054610590565b634e487b7160e01b600052604160045260246000fd5b90601f01601f1916810190811067ffffffffffffffff8211176105db57604052565b6105a3565b801515610131565b9050519061014a826105e0565b9060208282031261013857610123916105e8565b6001600160a01b03909116815260408101929161014a9160200152565b6040513d6000823e3d90fd5b61064661063f600061049f565b82116104ac565b61066961065761049a336005610186565b8290610662565b9190565b10156104fc565b61067233610b90565b610698610680336005610186565b6106928361068d83610479565b610553565b90610575565b6106b06106a98261068d6002610479565b6002610575565b6106c26106bd6001610599565b61017d565b60206106cd60405190565b91829063a9059cbb60e01b8252816000816106ec883360048401610609565b03925af1801561076557610738575b507f7084f5476618d8e60b11ef0d7d3f06914655adb8793e28ff7f018d4c76d505d56107336107293361017d565b926101ec60405190565b0390a2565b6107599060203d60201161075e575b61075181836105b9565b8101906105f5565b6106fb565b503d610747565b610626565b8181029291811591840414171561056057565b634e487b7160e01b600052601260045260246000fd5b811561079d570490565b61077d565b9190820180921161056057565b61080c61049a6108046107ed610123956107c7600090565b506107e76107d3610aa3565b6107e161049a896005610186565b92610553565b9061076a565b6107fe670de0b6b3a764000061049f565b90610793565b926006610186565b906107a2565b61081a610c0b565b61014a610838565b6101176101236101239290565b61012390610822565b61014a610845600061082f565b610c5b565b61014a610812565b6101236000610599565b6001600160a01b0391821681529116602082015260608101929161014a9160400152565b61088d61063f600061049f565b61089633610b90565b6108dd6020826108a96106bd6001610599565b6108b23061017d565b60006108bd60405190565b8096819582946108d16323b872dd60e01b90565b8452336004850161085c565b03925af180156107655761094b575b5061090d6108fb336005610186565b6106928361090883610479565b6107a2565b61091e6106a9826109086002610479565b7f9e71bc8eea02a63969f509818f2dafb9254532904319f9dbda79b67bd34a5f3d6107336107293361017d565b6109639060203d60201161075e5761075181836105b9565b6108ec565b61014a90610974610c0b565b61014a906003610575565b61014a90610968565b1561098f57565b60405162461bcd60e51b81526020600482015260136024820152724e6f207265776172647320746f20636c61696d60681b6044820152606490fd5b6109d333610b90565b6109e161049a336006610186565b6109f56109ee600061049f565b8211610988565b610a12610a02600061049f565b610a0d336006610186565b610575565b610a1f6106bd6001610599565b6020610a2a60405190565b91829063a9059cbb60e01b825281600081610a49883360048401610609565b03925af1801561076557610a86575b507fe2403640ba68fed3a2f88b7557551d1993f84b99bb10ff833f0cf8db0c5e04866107336107293361017d565b610a9e9060203d60201161075e5761075181836105b9565b610a58565b610aad6002610479565b610aba61065e600061049f565b14610aec57610123610ae2610acf6003610479565b6107e7610adc6004610479565b42610553565b6107fe6002610479565b610123600061049f565b61014a90610b02610c0b565b610b62565b15610b0e57565b60405162461bcd60e51b815260206004820152602660248201527f4f776e61626c653a206e6577206f776e657220697320746865207a65726f206160448201526564647265737360d01b6064820152608490fd5b61014a90610845610b76610117600061082f565b6001600160a01b0383161415610b07565b61014a90610af6565b610bb090610a0d610ba8610ba2610aa3565b836107af565b916006610186565b61014a426004610575565b15610bc257565b60405162461bcd60e51b8152806104f8600482016020808252818101527f4f776e61626c653a2063616c6c6572206973206e6f7420746865206f776e6572604082015260600190565b61014a610c16610852565b610c2f610c2233610117565b916001600160a01b031690565b14610bbb565b906001600160a01b039061056b565b90610c5461012361058c9261017d565b8254610c35565b610c7c610c76610c6b6000610599565b6106bd846000610c44565b9161017d565b907f8be0079c531659141344cd1fd0a4f28419497f9722a3daafe3b4186f6b6457e0610ca760405190565b600090a356fea264697066735822122000fec252bfc18786a865686d3e1f9ba97ec89dfcede73aeae6d022352dcbd1cc64736f6c63430008180033","opcodes":"PUSH1 0x80 PUSH1 0x40 MSTORE CALLVALUE PUSH3 0x31 JUMPI PUSH3 0x1F PUSH3 0x18 PUSH3 0xFC JUMP JUMPDEST SWAP1 PUSH3 0x1BB JUMP JUMPDEST PUSH1 0x40 MLOAD PUSH2 0xCE3 PUSH3 0x266 DUP3 CODECOPY PUSH2 0xCE3 SWAP1 RETURN JUMPDEST PUSH1 0x0 DUP1 REVERT JUMPDEST PUSH4 0x4E487B71 PUSH1 0xE0 SHL PUSH1 0x0 MSTORE PUSH1 0x41 PUSH1 0x4 MSTORE PUSH1 0x24 PUSH1 0x0 REVERT JUMPDEST SWAP1 PUSH1 0x1F ADD PUSH1 0x1F NOT AND DUP2 ADD SWAP1 DUP2 LT PUSH1 0x1 PUSH1 0x1 PUSH1 0x40 SHL SUB DUP3 GT OR PUSH3 0x6E JUMPI PUSH1 0x40 MSTORE JUMP JUMPDEST PUSH3 0x36 JUMP JUMPDEST SWAP1 PUSH3 0x8B PUSH3 0x83 PUSH1 0x40 MLOAD SWAP1 JUMP JUMPDEST SWAP3 DUP4 PUSH3 0x4C JUMP JUMPDEST JUMP JUMPDEST PUSH1 0x1 PUSH1 0x1 PUSH1 0xA0 SHL SUB AND SWAP1 JUMP JUMPDEST SWAP1 JUMP JUMPDEST PUSH1 0x1 PUSH1 0x1 PUSH1 0xA0 SHL SUB DUP2 AND JUMPDEST SUB PUSH3 0x31 JUMPI JUMP JUMPDEST SWAP1 POP MLOAD SWAP1 PUSH3 0x8B DUP3 PUSH3 0x9C JUMP JUMPDEST DUP1 PUSH3 0xA7 JUMP JUMPDEST SWAP1 POP MLOAD SWAP1 PUSH3 0x8B DUP3 PUSH3 0xBE JUMP JUMPDEST SWAP2 SWAP1 PUSH1 0x40 DUP4 DUP3 SUB SLT PUSH3 0x31 JUMPI PUSH3 0x99 SWAP1 PUSH1 0x20 PUSH3 0xF4 DUP3 DUP7 PUSH3 0xAF JUMP JUMPDEST SWAP5 ADD PUSH3 0xC5 JUMP JUMPDEST PUSH3 0x11F PUSH3 0xF49 DUP1 CODESIZE SUB DUP1 PUSH3 0x113 DUP2 PUSH3 0x74 JUMP JUMPDEST SWAP3 DUP4 CODECOPY DUP2 ADD SWAP1 PUSH3 0xD4 JUMP JUMPDEST SWAP1 SWAP2 JUMP JUMPDEST PUSH3 0x99 SWAP1 PUSH3 0x8D SWAP1 PUSH1 0x1 PUSH1 0x1 PUSH1 0xA0 SHL SUB AND DUP3 JUMP JUMPDEST PUSH3 0x99 SWAP1 PUSH3 0x123 JUMP JUMPDEST PUSH3 0x99 SWAP1 PUSH3 0x139 JUMP JUMPDEST SWAP1 PUSH1 0x1 PUSH1 0x1 PUSH1 0xA0 SHL SUB SWAP1 JUMPDEST SWAP2 DUP2 NOT AND SWAP2 AND OR SWAP1 JUMP JUMPDEST SWAP1 PUSH3 0x178 PUSH3 0x99 PUSH3 0x180 SWAP3 PUSH3 0x144 JUMP JUMPDEST DUP3 SLOAD PUSH3 0x14F JUMP JUMPDEST SWAP1 SSTORE JUMP JUMPDEST SWAP1 PUSH1 0x0 NOT SWAP1 PUSH3 0x15A JUMP JUMPDEST PUSH3 0x99 PUSH3 0x99 PUSH3 0x99 SWAP3 SWAP1 JUMP JUMPDEST SWAP1 PUSH3 0x1B3 PUSH3 0x99 PUSH3 0x180 SWAP3 PUSH3 0x18F JUMP JUMPDEST DUP3 SLOAD PUSH3 0x184 JUMP JUMPDEST SWAP1 PUSH3 0x1E1 PUSH3 0x1D9 PUSH3 0x8B SWAP4 PUSH3 0x1D3 PUSH3 0x1E9 JUMP JUMPDEST PUSH3 0x144 JUMP JUMPDEST PUSH1 0x1 PUSH3 0x164 JUMP JUMPDEST PUSH1 0x3 PUSH3 0x19F JUMP JUMPDEST PUSH3 0x8B CALLER PUSH3 0x20B JUMP JUMPDEST PUSH3 0x99 SWAP1 PUSH3 0x8D JUMP JUMPDEST PUSH3 0x99 SWAP1 SLOAD PUSH3 0x1F4 JUMP JUMPDEST PUSH3 0x233 PUSH3 0x22C PUSH3 0x21F PUSH1 0x0 PUSH3 0x1FF JUMP JUMPDEST PUSH3 0x1D3 DUP5 PUSH1 0x0 PUSH3 0x164 JUMP JUMPDEST SWAP2 PUSH3 0x144 JUMP JUMPDEST SWAP1 PUSH32 0x8BE0079C531659141344CD1FD0A4F28419497F9722A3DAAFE3B4186F6B6457E0 PUSH3 0x25F PUSH1 0x40 MLOAD SWAP1 JUMP JUMPDEST PUSH1 0x0 SWAP1 LOG3 JUMP INVALID PUSH1 0x80 PUSH1 0x40 MSTORE PUSH1 0x4 CALLDATASIZE LT ISZERO PUSH2 0x12 JUMPI PUSH1 0x0 DUP1 REVERT JUMPDEST PUSH1 0x0 CALLDATALOAD PUSH1 0xE0 SHR DUP1 PUSH4 0x700037D EQ PUSH2 0x112 JUMPI DUP1 PUSH4 0xC2EB403 EQ PUSH2 0x10D JUMPI DUP1 PUSH4 0x16934FC4 EQ PUSH2 0x108 JUMPI DUP1 PUSH4 0x2E1A7D4D EQ PUSH2 0x103 JUMPI DUP1 PUSH4 0x3E491D47 EQ PUSH2 0xFE JUMPI DUP1 PUSH4 0x4F3FC2DF EQ PUSH2 0xF9 JUMPI DUP1 PUSH4 0x715018A6 EQ PUSH2 0xF4 JUMPI DUP1 PUSH4 0x817B1CD2 EQ PUSH2 0xEF JUMPI DUP1 PUSH4 0x8DA5CB5B EQ PUSH2 0xEA JUMPI DUP1 PUSH4 0xA694FC3A EQ PUSH2 0xE5 JUMPI DUP1 PUSH4 0xB7D68519 EQ PUSH2 0xE0 JUMPI DUP1 PUSH4 0xB88A802F EQ PUSH2 0xDB JUMPI DUP1 PUSH4 0xC8F33C91 EQ PUSH2 0xD6 JUMPI DUP1 PUSH4 0xCD3DAF9D EQ PUSH2 0xD1 JUMPI DUP1 PUSH4 0xF2FDE38B EQ PUSH2 0xCC JUMPI PUSH4 0xFC0C546A SUB PUSH2 0x138 JUMPI PUSH2 0x44B JUMP JUMPDEST PUSH2 0x3F6 JUMP JUMPDEST PUSH2 0x3DB JUMP JUMPDEST PUSH2 0x3C0 JUMP JUMPDEST PUSH2 0x39C JUMP JUMPDEST PUSH2 0x384 JUMP JUMPDEST PUSH2 0x36C JUMP JUMPDEST PUSH2 0x337 JUMP JUMPDEST PUSH2 0x31C JUMP JUMPDEST PUSH2 0x2F8 JUMP JUMPDEST PUSH2 0x2DD JUMP JUMPDEST PUSH2 0x2AA JUMP JUMPDEST PUSH2 0x26A JUMP JUMPDEST PUSH2 0x228 JUMP JUMPDEST PUSH2 0x1FD JUMP JUMPDEST PUSH2 0x1CD JUMP JUMPDEST PUSH1 0x1 PUSH1 0x1 PUSH1 0xA0 SHL SUB AND SWAP1 JUMP JUMPDEST SWAP1 JUMP JUMPDEST PUSH1 0x1 PUSH1 0x1 PUSH1 0xA0 SHL SUB DUP2 AND JUMPDEST SUB PUSH2 0x138 JUMPI JUMP JUMPDEST PUSH1 0x0 DUP1 REVERT JUMPDEST SWAP1 POP CALLDATALOAD SWAP1 PUSH2 0x14A DUP3 PUSH2 0x126 JUMP JUMPDEST JUMP JUMPDEST SWAP1 PUSH1 0x20 DUP3 DUP3 SUB SLT PUSH2 0x138 JUMPI PUSH2 0x123 SWAP2 PUSH2 0x13D JUMP JUMPDEST PUSH2 0x123 SWAP1 PUSH2 0x117 SWAP1 PUSH1 0x1 PUSH1 0x1 PUSH1 0xA0 SHL SUB AND DUP3 JUMP JUMPDEST PUSH2 0x123 SWAP1 PUSH2 0x160 JUMP JUMPDEST PUSH2 0x123 SWAP1 PUSH2 0x174 JUMP JUMPDEST SWAP1 PUSH2 0x190 SWAP1 PUSH2 0x17D JUMP JUMPDEST PUSH1 0x0 MSTORE PUSH1 0x20 MSTORE PUSH1 0x40 PUSH1 0x0 KECCAK256 SWAP1 JUMP JUMPDEST PUSH2 0x123 SWAP2 PUSH1 0x8 MUL SHR DUP2 JUMP JUMPDEST SWAP1 PUSH2 0x123 SWAP2 SLOAD PUSH2 0x19E JUMP JUMPDEST PUSH1 0x0 PUSH2 0x1C4 PUSH2 0x123 SWAP3 PUSH1 0x6 PUSH2 0x186 JUMP JUMPDEST PUSH2 0x1A9 JUMP JUMPDEST SWAP1 MSTORE JUMP JUMPDEST CALLVALUE PUSH2 0x138 JUMPI PUSH2 0x1F9 PUSH2 0x1E8 PUSH2 0x1E3 CALLDATASIZE PUSH1 0x4 PUSH2 0x14C JUMP JUMPDEST PUSH2 0x1B4 JUMP JUMPDEST PUSH1 0x40 MLOAD JUMPDEST SWAP2 DUP3 SWAP2 DUP3 SWAP1 DUP2 MSTORE PUSH1 0x20 ADD SWAP1 JUMP JUMPDEST SUB SWAP1 RETURN JUMPDEST CALLVALUE PUSH2 0x138 JUMPI PUSH2 0x1F9 PUSH2 0x1E8 PUSH2 0x213 CALLDATASIZE PUSH1 0x4 PUSH2 0x14C JUMP JUMPDEST PUSH2 0x483 JUMP JUMPDEST PUSH1 0x0 PUSH2 0x1C4 PUSH2 0x123 SWAP3 PUSH1 0x5 PUSH2 0x186 JUMP JUMPDEST CALLVALUE PUSH2 0x138 JUMPI PUSH2 0x1F9 PUSH2 0x1E8 PUSH2 0x23E CALLDATASIZE PUSH1 0x4 PUSH2 0x14C JUMP JUMPDEST PUSH2 0x218 JUMP JUMPDEST DUP1 PUSH2 0x131 JUMP JUMPDEST SWAP1 POP CALLDATALOAD SWAP1 PUSH2 0x14A DUP3 PUSH2 0x243 JUMP JUMPDEST SWAP1 PUSH1 0x20 DUP3 DUP3 SUB SLT PUSH2 0x138 JUMPI PUSH2 0x123 SWAP2 PUSH2 0x249 JUMP JUMPDEST CALLVALUE PUSH2 0x138 JUMPI PUSH2 0x282 PUSH2 0x27D CALLDATASIZE PUSH1 0x4 PUSH2 0x256 JUMP JUMPDEST PUSH2 0x632 JUMP JUMPDEST PUSH1 0x40 MLOAD STOP JUMPDEST SWAP2 SWAP1 PUSH1 0x40 DUP4 DUP3 SUB SLT PUSH2 0x138 JUMPI PUSH2 0x123 SWAP1 PUSH1 0x20 PUSH2 0x2A3 DUP3 DUP7 PUSH2 0x13D JUMP JUMPDEST SWAP5 ADD PUSH2 0x249 JUMP JUMPDEST CALLVALUE PUSH2 0x138 JUMPI PUSH2 0x1F9 PUSH2 0x1E8 PUSH2 0x2C0 CALLDATASIZE PUSH1 0x4 PUSH2 0x287 JUMP JUMPDEST SWAP1 PUSH2 0x7AF JUMP JUMPDEST PUSH1 0x0 SWAP2 SUB SLT PUSH2 0x138 JUMPI JUMP JUMPDEST PUSH2 0x123 PUSH1 0x0 PUSH1 0x3 PUSH2 0x1A9 JUMP JUMPDEST CALLVALUE PUSH2 0x138 JUMPI PUSH2 0x2ED CALLDATASIZE PUSH1 0x4 PUSH2 0x2C6 JUMP JUMPDEST PUSH2 0x1F9 PUSH2 0x1E8 PUSH2 0x2D1 JUMP JUMPDEST CALLVALUE PUSH2 0x138 JUMPI PUSH2 0x308 CALLDATASIZE PUSH1 0x4 PUSH2 0x2C6 JUMP JUMPDEST PUSH2 0x282 PUSH2 0x84A JUMP JUMPDEST PUSH2 0x123 PUSH1 0x0 PUSH1 0x2 PUSH2 0x1A9 JUMP JUMPDEST CALLVALUE PUSH2 0x138 JUMPI PUSH2 0x32C CALLDATASIZE PUSH1 0x4 PUSH2 0x2C6 JUMP JUMPDEST PUSH2 0x1F9 PUSH2 0x1E8 PUSH2 0x310 JUMP JUMPDEST CALLVALUE PUSH2 0x138 JUMPI PUSH2 0x347 CALLDATASIZE PUSH1 0x4 PUSH2 0x2C6 JUMP JUMPDEST PUSH2 0x1F9 PUSH2 0x352 PUSH2 0x852 JUMP JUMPDEST PUSH1 0x40 MLOAD SWAP2 DUP3 SWAP2 DUP3 PUSH1 0x1 PUSH1 0x1 PUSH1 0xA0 SHL SUB SWAP1 SWAP2 AND DUP2 MSTORE PUSH1 0x20 ADD SWAP1 JUMP JUMPDEST CALLVALUE PUSH2 0x138 JUMPI PUSH2 0x282 PUSH2 0x37F CALLDATASIZE PUSH1 0x4 PUSH2 0x256 JUMP JUMPDEST PUSH2 0x880 JUMP JUMPDEST CALLVALUE PUSH2 0x138 JUMPI PUSH2 0x282 PUSH2 0x397 CALLDATASIZE PUSH1 0x4 PUSH2 0x256 JUMP JUMPDEST PUSH2 0x97F JUMP JUMPDEST CALLVALUE PUSH2 0x138 JUMPI PUSH2 0x3AC CALLDATASIZE PUSH1 0x4 PUSH2 0x2C6 JUMP JUMPDEST PUSH2 0x282 PUSH2 0x9CA JUMP JUMPDEST PUSH2 0x123 PUSH1 0x0 PUSH1 0x4 PUSH2 0x1A9 JUMP JUMPDEST CALLVALUE PUSH2 0x138 JUMPI PUSH2 0x3D0 CALLDATASIZE PUSH1 0x4 PUSH2 0x2C6 JUMP JUMPDEST PUSH2 0x1F9 PUSH2 0x1E8 PUSH2 0x3B4 JUMP JUMPDEST CALLVALUE PUSH2 0x138 JUMPI PUSH2 0x3EB CALLDATASIZE PUSH1 0x4 PUSH2 0x2C6 JUMP JUMPDEST PUSH2 0x1F9 PUSH2 0x1E8 PUSH2 0xAA3 JUMP JUMPDEST CALLVALUE PUSH2 0x138 JUMPI PUSH2 0x282 PUSH2 0x409 CALLDATASIZE PUSH1 0x4 PUSH2 0x14C JUMP JUMPDEST PUSH2 0xB87 JUMP JUMPDEST PUSH2 0x123 SWAP2 PUSH1 0x8 MUL SHR PUSH2 0x117 JUMP JUMPDEST SWAP1 PUSH2 0x123 SWAP2 SLOAD PUSH2 0x40E JUMP JUMPDEST PUSH2 0x123 PUSH1 0x0 PUSH1 0x1 PUSH2 0x41B JUMP JUMPDEST PUSH2 0x1C9 SWAP1 PUSH2 0x17D JUMP JUMPDEST PUSH1 0x20 DUP2 ADD SWAP3 SWAP2 PUSH2 0x14A SWAP2 SWAP1 PUSH2 0x432 JUMP JUMPDEST CALLVALUE PUSH2 0x138 JUMPI PUSH2 0x45B CALLDATASIZE PUSH1 0x4 PUSH2 0x2C6 JUMP JUMPDEST PUSH2 0x1F9 PUSH2 0x466 PUSH2 0x426 JUMP JUMPDEST PUSH1 0x40 MLOAD SWAP2 DUP3 SWAP2 DUP3 PUSH2 0x43B JUMP JUMPDEST PUSH2 0x123 SWAP1 DUP2 JUMP JUMPDEST PUSH2 0x123 SWAP1 SLOAD PUSH2 0x472 JUMP JUMPDEST PUSH2 0x49A PUSH2 0x123 SWAP2 PUSH2 0x492 PUSH1 0x0 SWAP1 JUMP JUMPDEST POP PUSH1 0x5 PUSH2 0x186 JUMP JUMPDEST PUSH2 0x479 JUMP JUMPDEST PUSH2 0x123 PUSH2 0x123 PUSH2 0x123 SWAP3 SWAP1 JUMP JUMPDEST ISZERO PUSH2 0x4B3 JUMPI JUMP JUMPDEST PUSH1 0x40 MLOAD PUSH3 0x461BCD PUSH1 0xE5 SHL DUP2 MSTORE PUSH1 0x20 PUSH1 0x4 DUP3 ADD MSTORE PUSH1 0x1D PUSH1 0x24 DUP3 ADD MSTORE PUSH32 0x416D6F756E74206D7573742062652067726561746572207468616E2030000000 PUSH1 0x44 DUP3 ADD MSTORE PUSH1 0x64 SWAP1 REVERT JUMPDEST SUB SWAP1 REVERT JUMPDEST ISZERO PUSH2 0x503 JUMPI JUMP JUMPDEST PUSH1 0x40 MLOAD PUSH3 0x461BCD PUSH1 0xE5 SHL DUP2 MSTORE PUSH1 0x20 PUSH1 0x4 DUP3 ADD MSTORE PUSH1 0x12 PUSH1 0x24 DUP3 ADD MSTORE PUSH18 0x496E73756666696369656E74207374616B65 PUSH1 0x70 SHL PUSH1 0x44 DUP3 ADD MSTORE PUSH1 0x64 SWAP1 REVERT JUMPDEST PUSH4 0x4E487B71 PUSH1 0xE0 SHL PUSH1 0x0 MSTORE PUSH1 0x11 PUSH1 0x4 MSTORE PUSH1 0x24 PUSH1 0x0 REVERT JUMPDEST SWAP2 SWAP1 DUP3 SUB SWAP2 DUP3 GT PUSH2 0x560 JUMPI JUMP JUMPDEST PUSH2 0x53D JUMP JUMPDEST SWAP1 PUSH1 0x0 NOT SWAP1 JUMPDEST SWAP2 DUP2 NOT AND SWAP2 AND OR SWAP1 JUMP JUMPDEST SWAP1 PUSH2 0x585 PUSH2 0x123 PUSH2 0x58C SWAP3 PUSH2 0x49F JUMP JUMPDEST DUP3 SLOAD PUSH2 0x565 JUMP JUMPDEST SWAP1 SSTORE JUMP JUMPDEST PUSH2 0x123 SWAP1 PUSH2 0x117 JUMP JUMPDEST PUSH2 0x123 SWAP1 SLOAD PUSH2 0x590 JUMP JUMPDEST PUSH4 0x4E487B71 PUSH1 0xE0 SHL PUSH1 0x0 MSTORE PUSH1 0x41 PUSH1 0x4 MSTORE PUSH1 0x24 PUSH1 0x0 REVERT JUMPDEST SWAP1 PUSH1 0x1F ADD PUSH1 0x1F NOT AND DUP2 ADD SWAP1 DUP2 LT PUSH8 0xFFFFFFFFFFFFFFFF DUP3 GT OR PUSH2 0x5DB JUMPI PUSH1 0x40 MSTORE JUMP JUMPDEST PUSH2 0x5A3 JUMP JUMPDEST DUP1 ISZERO ISZERO PUSH2 0x131 JUMP JUMPDEST SWAP1 POP MLOAD SWAP1 PUSH2 0x14A DUP3 PUSH2 0x5E0 JUMP JUMPDEST SWAP1 PUSH1 0x20 DUP3 DUP3 SUB SLT PUSH2 0x138 JUMPI PUSH2 0x123 SWAP2 PUSH2 0x5E8 JUMP JUMPDEST PUSH1 0x1 PUSH1 0x1 PUSH1 0xA0 SHL SUB SWAP1 SWAP2 AND DUP2 MSTORE PUSH1 0x40 DUP2 ADD SWAP3 SWAP2 PUSH2 0x14A SWAP2 PUSH1 0x20 ADD MSTORE JUMP JUMPDEST PUSH1 0x40 MLOAD RETURNDATASIZE PUSH1 0x0 DUP3 RETURNDATACOPY RETURNDATASIZE SWAP1 REVERT JUMPDEST PUSH2 0x646 PUSH2 0x63F PUSH1 0x0 PUSH2 0x49F JUMP JUMPDEST DUP3 GT PUSH2 0x4AC JUMP JUMPDEST PUSH2 0x669 PUSH2 0x657 PUSH2 0x49A CALLER PUSH1 0x5 PUSH2 0x186 JUMP JUMPDEST DUP3 SWAP1 PUSH2 0x662 JUMP JUMPDEST SWAP2 SWAP1 JUMP JUMPDEST LT ISZERO PUSH2 0x4FC JUMP JUMPDEST PUSH2 0x672 CALLER PUSH2 0xB90 JUMP JUMPDEST PUSH2 0x698 PUSH2 0x680 CALLER PUSH1 0x5 PUSH2 0x186 JUMP JUMPDEST PUSH2 0x692 DUP4 PUSH2 0x68D DUP4 PUSH2 0x479 JUMP JUMPDEST PUSH2 0x553 JUMP JUMPDEST SWAP1 PUSH2 0x575 JUMP JUMPDEST PUSH2 0x6B0 PUSH2 0x6A9 DUP3 PUSH2 0x68D PUSH1 0x2 PUSH2 0x479 JUMP JUMPDEST PUSH1 0x2 PUSH2 0x575 JUMP JUMPDEST PUSH2 0x6C2 PUSH2 0x6BD PUSH1 0x1 PUSH2 0x599 JUMP JUMPDEST PUSH2 0x17D JUMP JUMPDEST PUSH1 0x20 PUSH2 0x6CD PUSH1 0x40 MLOAD SWAP1 JUMP JUMPDEST SWAP2 DUP3 SWAP1 PUSH4 0xA9059CBB PUSH1 0xE0 SHL DUP3 MSTORE DUP2 PUSH1 0x0 DUP2 PUSH2 0x6EC DUP9 CALLER PUSH1 0x4 DUP5 ADD PUSH2 0x609 JUMP JUMPDEST SUB SWAP3 GAS CALL DUP1 ISZERO PUSH2 0x765 JUMPI PUSH2 0x738 JUMPI JUMPDEST POP PUSH32 0x7084F5476618D8E60B11EF0D7D3F06914655ADB8793E28FF7F018D4C76D505D5 PUSH2 0x733 PUSH2 0x729 CALLER PUSH2 0x17D JUMP JUMPDEST SWAP3 PUSH2 0x1EC PUSH1 0x40 MLOAD SWAP1 JUMP JUMPDEST SUB SWAP1 LOG2 JUMP JUMPDEST PUSH2 0x759 SWAP1 PUSH1 0x20 RETURNDATASIZE PUSH1 0x20 GT PUSH2 0x75E JUMPI JUMPDEST PUSH2 0x751 DUP2 DUP4 PUSH2 0x5B9 JUMP JUMPDEST DUP2 ADD SWAP1 PUSH2 0x5F5 JUMP JUMPDEST PUSH2 0x6FB JUMP JUMPDEST POP RETURNDATASIZE PUSH2 0x747 JUMP JUMPDEST PUSH2 0x626 JUMP JUMPDEST DUP2 DUP2 MUL SWAP3 SWAP2 DUP2 ISZERO SWAP2 DUP5 DIV EQ OR ISZERO PUSH2 0x560 JUMPI JUMP JUMPDEST PUSH4 0x4E487B71 PUSH1 0xE0 SHL PUSH1 0x0 MSTORE PUSH1 0x12 PUSH1 0x4 MSTORE PUSH1 0x24 PUSH1 0x0 REVERT JUMPDEST DUP2 ISZERO PUSH2 0x79D JUMPI DIV SWAP1 JUMP JUMPDEST PUSH2 0x77D JUMP JUMPDEST SWAP2 SWAP1 DUP3 ADD DUP1 SWAP3 GT PUSH2 0x560 JUMPI JUMP JUMPDEST PUSH2 0x80C PUSH2 0x49A PUSH2 0x804 PUSH2 0x7ED PUSH2 0x123 SWAP6 PUSH2 0x7C7 PUSH1 0x0 SWAP1 JUMP JUMPDEST POP PUSH2 0x7E7 PUSH2 0x7D3 PUSH2 0xAA3 JUMP JUMPDEST PUSH2 0x7E1 PUSH2 0x49A DUP10 PUSH1 0x5 PUSH2 0x186 JUMP JUMPDEST SWAP3 PUSH2 0x553 JUMP JUMPDEST SWAP1 PUSH2 0x76A JUMP JUMPDEST PUSH2 0x7FE PUSH8 0xDE0B6B3A7640000 PUSH2 0x49F JUMP JUMPDEST SWAP1 PUSH2 0x793 JUMP JUMPDEST SWAP3 PUSH1 0x6 PUSH2 0x186 JUMP JUMPDEST SWAP1 PUSH2 0x7A2 JUMP JUMPDEST PUSH2 0x81A PUSH2 0xC0B JUMP JUMPDEST PUSH2 0x14A PUSH2 0x838 JUMP JUMPDEST PUSH2 0x117 PUSH2 0x123 PUSH2 0x123 SWAP3 SWAP1 JUMP JUMPDEST PUSH2 0x123 SWAP1 PUSH2 0x822 JUMP JUMPDEST PUSH2 0x14A PUSH2 0x845 PUSH1 0x0 PUSH2 0x82F JUMP JUMPDEST PUSH2 0xC5B JUMP JUMPDEST PUSH2 0x14A PUSH2 0x812 JUMP JUMPDEST PUSH2 0x123 PUSH1 0x0 PUSH2 0x599 JUMP JUMPDEST PUSH1 0x1 PUSH1 0x1 PUSH1 0xA0 SHL SUB SWAP2 DUP3 AND DUP2 MSTORE SWAP2 AND PUSH1 0x20 DUP3 ADD MSTORE PUSH1 0x60 DUP2 ADD SWAP3 SWAP2 PUSH2 0x14A SWAP2 PUSH1 0x40 ADD MSTORE JUMP JUMPDEST PUSH2 0x88D PUSH2 0x63F PUSH1 0x0 PUSH2 0x49F JUMP JUMPDEST PUSH2 0x896 CALLER PUSH2 0xB90 JUMP JUMPDEST PUSH2 0x8DD PUSH1 0x20 DUP3 PUSH2 0x8A9 PUSH2 0x6BD PUSH1 0x1 PUSH2 0x599 JUMP JUMPDEST PUSH2 0x8B2 ADDRESS PUSH2 0x17D JUMP JUMPDEST PUSH1 0x0 PUSH2 0x8BD PUSH1 0x40 MLOAD SWAP1 JUMP JUMPDEST DUP1 SWAP7 DUP2 SWAP6 DUP3 SWAP5 PUSH2 0x8D1 PUSH4 0x23B872DD PUSH1 0xE0 SHL SWAP1 JUMP JUMPDEST DUP5 MSTORE CALLER PUSH1 0x4 DUP6 ADD PUSH2 0x85C JUMP JUMPDEST SUB SWAP3 GAS CALL DUP1 ISZERO PUSH2 0x765 JUMPI PUSH2 0x94B JUMPI JUMPDEST POP PUSH2 0x90D PUSH2 0x8FB CALLER PUSH1 0x5 PUSH2 0x186 JUMP JUMPDEST PUSH2 0x692 DUP4 PUSH2 0x908 DUP4 PUSH2 0x479 JUMP JUMPDEST PUSH2 0x7A2 JUMP JUMPDEST PUSH2 0x91E PUSH2 0x6A9 DUP3 PUSH2 0x908 PUSH1 0x2 PUSH2 0x479 JUMP JUMPDEST PUSH32 0x9E71BC8EEA02A63969F509818F2DAFB9254532904319F9DBDA79B67BD34A5F3D PUSH2 0x733 PUSH2 0x729 CALLER PUSH2 0x17D JUMP JUMPDEST PUSH2 0x963 SWAP1 PUSH1 0x20 RETURNDATASIZE PUSH1 0x20 GT PUSH2 0x75E JUMPI PUSH2 0x751 DUP2 DUP4 PUSH2 0x5B9 JUMP JUMPDEST PUSH2 0x8EC JUMP JUMPDEST PUSH2 0x14A SWAP1 PUSH2 0x974 PUSH2 0xC0B JUMP JUMPDEST PUSH2 0x14A SWAP1 PUSH1 0x3 PUSH2 0x575 JUMP JUMPDEST PUSH2 0x14A SWAP1 PUSH2 0x968 JUMP JUMPDEST ISZERO PUSH2 0x98F JUMPI JUMP JUMPDEST PUSH1 0x40 MLOAD PUSH3 0x461BCD PUSH1 0xE5 SHL DUP2 MSTORE PUSH1 0x20 PUSH1 0x4 DUP3 ADD MSTORE PUSH1 0x13 PUSH1 0x24 DUP3 ADD MSTORE PUSH19 0x4E6F207265776172647320746F20636C61696D PUSH1 0x68 SHL PUSH1 0x44 DUP3 ADD MSTORE PUSH1 0x64 SWAP1 REVERT JUMPDEST PUSH2 0x9D3 CALLER PUSH2 0xB90 JUMP JUMPDEST PUSH2 0x9E1 PUSH2 0x49A CALLER PUSH1 0x6 PUSH2 0x186 JUMP JUMPDEST PUSH2 0x9F5 PUSH2 0x9EE PUSH1 0x0 PUSH2 0x49F JUMP JUMPDEST DUP3 GT PUSH2 0x988 JUMP JUMPDEST PUSH2 0xA12 PUSH2 0xA02 PUSH1 0x0 PUSH2 0x49F JUMP JUMPDEST PUSH2 0xA0D CALLER PUSH1 0x6 PUSH2 0x186 JUMP JUMPDEST PUSH2 0x575 JUMP JUMPDEST PUSH2 0xA1F PUSH2 0x6BD PUSH1 0x1 PUSH2 0x599 JUMP JUMPDEST PUSH1 0x20 PUSH2 0xA2A PUSH1 0x40 MLOAD SWAP1 JUMP JUMPDEST SWAP2 DUP3 SWAP1 PUSH4 0xA9059CBB PUSH1 0xE0 SHL DUP3 MSTORE DUP2 PUSH1 0x0 DUP2 PUSH2 0xA49 DUP9 CALLER PUSH1 0x4 DUP5 ADD PUSH2 0x609 JUMP JUMPDEST SUB SWAP3 GAS CALL DUP1 ISZERO PUSH2 0x765 JUMPI PUSH2 0xA86 JUMPI JUMPDEST POP PUSH32 0xE2403640BA68FED3A2F88B7557551D1993F84B99BB10FF833F0CF8DB0C5E0486 PUSH2 0x733 PUSH2 0x729 CALLER PUSH2 0x17D JUMP JUMPDEST PUSH2 0xA9E SWAP1 PUSH1 0x20 RETURNDATASIZE PUSH1 0x20 GT PUSH2 0x75E JUMPI PUSH2 0x751 DUP2 DUP4 PUSH2 0x5B9 JUMP JUMPDEST PUSH2 0xA58 JUMP JUMPDEST PUSH2 0xAAD PUSH1 0x2 PUSH2 0x479 JUMP JUMPDEST PUSH2 0xABA PUSH2 0x65E PUSH1 0x0 PUSH2 0x49F JUMP JUMPDEST EQ PUSH2 0xAEC JUMPI PUSH2 0x123 PUSH2 0xAE2 PUSH2 0xACF PUSH1 0x3 PUSH2 0x479 JUMP JUMPDEST PUSH2 0x7E7 PUSH2 0xADC PUSH1 0x4 PUSH2 0x479 JUMP JUMPDEST TIMESTAMP PUSH2 0x553 JUMP JUMPDEST PUSH2 0x7FE PUSH1 0x2 PUSH2 0x479 JUMP JUMPDEST PUSH2 0x123 PUSH1 0x0 PUSH2 0x49F JUMP JUMPDEST PUSH2 0x14A SWAP1 PUSH2 0xB02 PUSH2 0xC0B JUMP JUMPDEST PUSH2 0xB62 JUMP JUMPDEST ISZERO PUSH2 0xB0E JUMPI JUMP JUMPDEST PUSH1 0x40 MLOAD PUSH3 0x461BCD PUSH1 0xE5 SHL DUP2 MSTORE PUSH1 0x20 PUSH1 0x4 DUP3 ADD MSTORE PUSH1 0x26 PUSH1 0x24 DUP3 ADD MSTORE PUSH32 0x4F776E61626C653A206E6577206F776E657220697320746865207A65726F2061 PUSH1 0x44 DUP3 ADD MSTORE PUSH6 0x646472657373 PUSH1 0xD0 SHL PUSH1 0x64 DUP3 ADD MSTORE PUSH1 0x84 SWAP1 REVERT JUMPDEST PUSH2 0x14A SWAP1 PUSH2 0x845 PUSH2 0xB76 PUSH2 0x117 PUSH1 0x0 PUSH2 0x82F JUMP JUMPDEST PUSH1 0x1 PUSH1 0x1 PUSH1 0xA0 SHL SUB DUP4 AND EQ ISZERO PUSH2 0xB07 JUMP JUMPDEST PUSH2 0x14A SWAP1 PUSH2 0xAF6 JUMP JUMPDEST PUSH2 0xBB0 SWAP1 PUSH2 0xA0D PUSH2 0xBA8 PUSH2 0xBA2 PUSH2 0xAA3 JUMP JUMPDEST DUP4 PUSH2 0x7AF JUMP JUMPDEST SWAP2 PUSH1 0x6 PUSH2 0x186 JUMP JUMPDEST PUSH2 0x14A TIMESTAMP PUSH1 0x4 PUSH2 0x575 JUMP JUMPDEST ISZERO PUSH2 0xBC2 JUMPI JUMP JUMPDEST PUSH1 0x40 MLOAD PUSH3 0x461BCD PUSH1 0xE5 SHL DUP2 MSTORE DUP1 PUSH2 0x4F8 PUSH1 0x4 DUP3 ADD PUSH1 0x20 DUP1 DUP3 MSTORE DUP2 DUP2 ADD MSTORE PUSH32 0x4F776E61626C653A2063616C6C6572206973206E6F7420746865206F776E6572 PUSH1 0x40 DUP3 ADD MSTORE PUSH1 0x60 ADD SWAP1 JUMP JUMPDEST PUSH2 0x14A PUSH2 0xC16 PUSH2 0x852 JUMP JUMPDEST PUSH2 0xC2F PUSH2 0xC22 CALLER PUSH2 0x117 JUMP JUMPDEST SWAP2 PUSH1 0x1 PUSH1 0x1 PUSH1 0xA0 SHL SUB AND SWAP1 JUMP JUMPDEST EQ PUSH2 0xBBB JUMP JUMPDEST SWAP1 PUSH1 0x1 PUSH1 0x1 PUSH1 0xA0 SHL SUB SWAP1 PUSH2 0x56B JUMP JUMPDEST SWAP1 PUSH2 0xC54 PUSH2 0x123 PUSH2 0x58C SWAP3 PUSH2 0x17D JUMP JUMPDEST DUP3 SLOAD PUSH2 0xC35 JUMP JUMPDEST PUSH2 0xC7C PUSH2 0xC76 PUSH2 0xC6B PUSH1 0x0 PUSH2 0x599 JUMP JUMPDEST PUSH2 0x6BD DUP5 PUSH1 0x0 PUSH2 0xC44 JUMP JUMPDEST SWAP2 PUSH2 0x17D JUMP JUMPDEST SWAP1 PUSH32 0x8BE0079C531659141344CD1FD0A4F28419497F9722A3DAAFE3B4186F6B6457E0 PUSH2 0xCA7 PUSH1 0x40 MLOAD SWAP1 JUMP JUMPDEST PUSH1 0x0 SWAP1 LOG3 JUMP INVALID LOG2 PUSH5 0x6970667358 0x22 SLT KECCAK256 STOP INVALID 0xC2 MSTORE 0xBF 0xC1 DUP8 DUP7 0xA8 PUSH6 0x686D3E1F9BA9 PUSH31 0xC89DFCEDE73AEAE6D022352DCBD1CC64736F6C634300081800330000000000 "},"methodIdentifiers":{"claimReward()":"b88a802f","earned(address,uint256)":"3e491d47","getStakeAmount(address)":"0c2eb403","lastUpdateTime()":"c8f33c91","owner()":"8da5cb5b","renounceOwnership()":"715018a6","rewardPerToken()":"cd3daf9d","rewards(address)":"0700037d","setStakingRewardRate(uint256)":"b7d68519","stake(uint256)":"a694fc3a","stakes(address)":"16934fc4","stakingRewardRate()":"4f3fc2df","token()":"fc0c546a","totalStaked()":"817b1cd2","transferOwnership(address)":"f2fde38b","withdraw(uint256)":"2e1a7d4d"}}}}}