{"contracts/MockStakeContract.sol":{"MockStakeContract":{"abi":[{"inputs":[],"stateMutability":"nonpayable","type":"constructor"},{"inputs":[{"internalType":"address","name":"","type":"address"}],"name":"getStakeAmount","outputs":[{"internalType":"uint256","name":"","type":"uint256"}],"stateMutability":"pure","type":"function"},{"inputs":[{"internalType":"address","name":"user","type":"address"}],"name":"penalize","outputs":[],"stateMutability":"nonpayable","type":"function"},{"inputs":[{"internalType":"address","name":"","type":"address"}],"name":"stakes","outputs":[{"internalType":"uint256","name":"","type":"uint256"}],"stateMutability":"view","type":"function"}],"evm":{"bytecode":{"linkReferences":{},"object":"60806040523461001a576040516101a561002082396101a590f35b600080fdfe6080604052600436101561001257600080fd5b60003560e01c80630c2eb4031461004257806316934fc41461003d576378d97c940361006757610141565b610126565b61008f565b6001600160a01b031690565b90565b6001600160a01b0381160361006757565b600080fd5b9050359061007982610056565b565b90602082820312610067576100539161006c565b34610067576100ba6100aa6100a536600461007b565b610164565b6040519182918290815260200190565b0390f35b61005390610047906001600160a01b031682565b610053906100be565b610053906100d2565b906100ee906100db565b600052602052604060002090565b610053916008021c81565b9061005391546100fc565b600061012161005392826100e4565b610107565b34610067576100ba6100aa61013c36600461007b565b610112565b346100675761015136600461007b565b50604051005b6100536100536100539290565b50610053606461015756fea2646970667358221220df2088389ac6b3193b79b944f3dcc2444c73b1927d6c5b0c052a6650f9401bcf64736f6c63430008180033","opcodes":"PUSH1 0x80 PUSH1 0x40 MSTORE CALLVALUE PUSH2 0x1A JUMPI PUSH1 0x40 MLOAD PUSH2 0x1A5 PUSH2 0x20 DUP3 CODECOPY PUSH2 0x1A5 SWAP1 RETURN JUMPDEST PUSH1 0x0 DUP1 REVERT INVALID PUSH1 0x80 PUSH1 0x40 MSTORE PUSH1 0x4 CALLDATASIZE LT ISZERO PUSH2 0x12 JUMPI PUSH1 0x0 DUP1 REVERT JUMPDEST PUSH1 0x0 CALLDATALOAD PUSH1 0xE0 SHR DUP1 PUSH4 0xC2EB403 EQ PUSH2 0x42 JUMPI DUP1 PUSH4 0x16934FC4 EQ PUSH2 0x3D JUMPI PUSH4 0x78D97C94 SUB PUSH2 0x67 JUMPI PUSH2 0x141 JUMP JUMPDEST PUSH2 0x126 JUMP JUMPDEST PUSH2 0x8F JUMP JUMPDEST PUSH1 0x1 PUSH1 0x1 PUSH1 0xA0 SHL SUB AND SWAP1 JUMP JUMPDEST SWAP1 JUMP JUMPDEST PUSH1 0x1 PUSH1 0x1 PUSH1 0xA0 SHL SUB DUP2 AND SUB PUSH2 0x67 JUMPI JUMP JUMPDEST PUSH1 0x0 DUP1 REVERT JUMPDEST SWAP1 POP CALLDATALOAD SWAP1 PUSH2 0x79 DUP3 PUSH2 0x56 JUMP JUMPDEST JUMP JUMPDEST SWAP1 PUSH1 0x20 DUP3 DUP3 SUB SLT PUSH2 0x67 JUMPI PUSH2 0x53 SWAP2 PUSH2 0x6C JUMP JUMPDEST CALLVALUE PUSH2 0x67 JUMPI PUSH2 0xBA PUSH2 0xAA PUSH2 0xA5 CALLDATASIZE PUSH1 0x4 PUSH2 0x7B JUMP JUMPDEST PUSH2 0x164 JUMP JUMPDEST PUSH1 0x40 MLOAD SWAP2 DUP3 SWAP2 DUP3 SWAP1 DUP2 MSTORE PUSH1 0x20 ADD SWAP1 JUMP JUMPDEST SUB SWAP1 RETURN JUMPDEST PUSH2 0x53 SWAP1 PUSH2 0x47 SWAP1 PUSH1 0x1 PUSH1 0x1 PUSH1 0xA0 SHL SUB AND DUP3 JUMP JUMPDEST PUSH2 0x53 SWAP1 PUSH2 0xBE JUMP JUMPDEST PUSH2 0x53 SWAP1 PUSH2 0xD2 JUMP JUMPDEST SWAP1 PUSH2 0xEE SWAP1 PUSH2 0xDB JUMP JUMPDEST PUSH1 0x0 MSTORE PUSH1 0x20 MSTORE PUSH1 0x40 PUSH1 0x0 KECCAK256 SWAP1 JUMP JUMPDEST PUSH2 0x53 SWAP2 PUSH1 0x8 MUL SHR DUP2 JUMP JUMPDEST SWAP1 PUSH2 0x53 SWAP2 SLOAD PUSH2 0xFC JUMP JUMPDEST PUSH1 0x0 PUSH2 0x121 PUSH2 0x53 SWAP3 DUP3 PUSH2 0xE4 JUMP JUMPDEST PUSH2 0x107 JUMP JUMPDEST CALLVALUE PUSH2 0x67 JUMPI PUSH2 0xBA PUSH2 0xAA PUSH2 0x13C CALLDATASIZE PUSH1 0x4 PUSH2 0x7B JUMP JUMPDEST PUSH2 0x112 JUMP JUMPDEST CALLVALUE PUSH2 0x67 JUMPI PUSH2 0x151 CALLDATASIZE PUSH1 0x4 PUSH2 0x7B JUMP JUMPDEST POP PUSH1 0x40 MLOAD STOP JUMPDEST PUSH2 0x53 PUSH2 0x53 PUSH2 0x53 SWAP3 SWAP1 JUMP JUMPDEST POP PUSH2 0x53 PUSH1 0x64 PUSH2 0x157 JUMP INVALID LOG2 PUSH5 0x6970667358 0x22 SLT KECCAK256 0xDF KECCAK256 DUP9 CODESIZE SWAP11 0xC6 0xB3 NOT EXTCODESIZE PUSH26 0xB944F3DCC2444C73B1927D6C5B0C052A6650F9401BCF64736F6C PUSH4 0x43000818 STOP CALLER "},"methodIdentifiers":{"getStakeAmount(address)":"0c2eb403","penalize(address)":"78d97c94","stakes(address)":"16934fc4"}}}}}