{"contracts/TreasuryContract.sol":{"TreasuryContract":{"abi":[{"inputs":[{"internalType":"address","name":"_usdcAddress","type":"address"}],"stateMutability":"nonpayable","type":"constructor"},{"inputs":[],"name":"bettingContract","outputs":[{"internalType":"address","name":"","type":"address"}],"stateMutability":"view","type":"function"},{"inputs":[{"internalType":"uint256","name":"amount","type":"uint256"}],"name":"pullUSDC","outputs":[],"stateMutability":"nonpayable","type":"function"},{"inputs":[{"internalType":"address","name":"_bettingContract","type":"address"}],"name":"setBettingContract","outputs":[],"stateMutability":"nonpayable","type":"function"},{"inputs":[{"internalType":"address","name":"_stakeContract","type":"address"}],"name":"setStakeContract","outputs":[],"stateMutability":"nonpayable","type":"function"},{"inputs":[],"name":"stakeContract","outputs":[{"internalType":"address","name":"","type":"address"}],"stateMutability":"view","type":"function"},{"inputs":[],"name":"tokenAddress","outputs":[{"internalType":"contract IERC20","name":"","type":"address"}],"stateMutability":"view","type":"function"},{"inputs":[{"internalType":"address","name":"to","type":"address"},{"internalType":"uint256","name":"amount","type":"uint256"}],"name":"withdrawUSDC","outputs":[],"stateMutability":"nonpayable","type":"function"}],"evm":{"bytecode":{"linkReferences":{},"object":"60806040523461002a576100196100146100c2565b610136565b6040516105d261014a82396105d290f35b600080fd5b634e487b7160e01b600052604160045260246000fd5b90601f01601f191681019081106001600160401b0382111761006657604052565b61002f565b9061007f61007860405190565b9283610045565b565b6001600160a01b031690565b90565b6001600160a01b0381160361002a57565b9050519061007f82610090565b9060208282031261002a5761008d916100a1565b61008d61071c803803806100d58161006b565b9283398101906100ae565b61008d90610081906001600160a01b031682565b61008d906100e0565b61008d906100f4565b9061011661008d610132926100fd565b82546001600160a01b0319166001600160a01b03919091161790565b9055565b61014261007f916100fd565b600061010656fe6080604052600436101561001257600080fd5b60003560e01c80631a1862271461008257806321cb48311461007d57806330fce48b1461007857806344471fd914610073578063509484d51461006e5780639d76ea58146100695763dd28505d0361009257610271565b610236565b6101d4565b6101bb565b610168565b61011c565b6100e5565b600091031261009257565b600080fd5b6100ac916008021c5b6001600160a01b031690565b90565b906100ac9154610097565b6100ac600060026100af565b6100cf906100a0565b9052565b6020810192916100e391906100c6565b565b34610092576100f5366004610087565b61010c6101006100ba565b604051918291826100d3565b0390f35b6100ac600060016100af565b346100925761012c366004610087565b61010c610100610110565b610140816100a0565b0361009257565b905035906100e382610137565b90602082820312610092576100ac91610147565b346100925761018061017b366004610154565b6102b9565b604051005b80610140565b905035906100e382610185565b9190604083820312610092576100ac9060206101b48286610147565b940161018b565b34610092576101806101ce366004610198565b906104d1565b34610092576101806101e7366004610154565b6104db565b6100ac6000806100af565b6100ac906100a0906001600160a01b031682565b6100ac906101f7565b6100ac9061020b565b6100cf90610214565b6020810192916100e3919061021d565b3461009257610246366004610087565b61010c6102516101ec565b60405191829182610226565b90602082820312610092576100ac9161018b565b346100925761018061028436600461025d565b610593565b906102996100ac6102b592610214565b82546001600160a01b0319166001600160a01b03919091161790565b9055565b6100e3906001610289565b6100ac906100a0565b6100ac90546102c4565b6020808252818101527f43616c6c6572206973206e6f7420746865207374616b6520636f6e7472616374604082015260600190565b1561031357565b60405162461bcd60e51b81528061032c600482016102d7565b0390fd5b906100e39161035961034a61034560026102cd565b6100a0565b610353336100a0565b1461030c565b61043d565b634e487b7160e01b600052604160045260246000fd5b90601f01601f1916810190811067ffffffffffffffff82111761039657604052565b61035e565b801515610140565b905051906100e38261039b565b90602082820312610092576100ac916103a3565b9160206100e39294936103df604082019660008301906100c6565b0152565b6040513d6000823e3d90fd5b6020808252601490820152731554d110c81d1c985b9cd9995c8819985a5b195960621b604082015260600190565b1561042457565b60405162461bcd60e51b81528061032c600482016103ef565b6104819160209161045661045160006102cd565b610214565b90600061046260405190565b80968195829461047663a9059cbb60e01b90565b8452600484016103c4565b03925af180156104cc576100e39160009161049d575b5061041d565b6104bf915060203d6020116104c5575b6104b78183610374565b8101906103b0565b38610497565b503d6104ad565b6103e3565b906100e391610330565b6100e3906002610289565b60208082526022908201527f43616c6c6572206973206e6f74207468652062657474696e6720636f6e74726160408201526118dd60f21b606082015260800190565b1561052f57565b60405162461bcd60e51b81528061032c600482016104e6565b6100e39061056b61055c61034560016102cd565b610565336100a0565b14610528565b60206104819161057e61045160006102cd565b61058860016102cd565b600061046260405190565b6100e39061054856fea26469706673582212201777bbfe1fd3b068ce81c23ac5a8e4440849ebe10b81fe18fed2ec42acde61df64736f6c63430008180033","opcodes":"PUSH1 0x80 PUSH1 0x40 MSTORE CALLVALUE PUSH2 0x2A JUMPI PUSH2 0x19 PUSH2 0x14 PUSH2 0xC2 JUMP JUMPDEST PUSH2 0x136 JUMP JUMPDEST PUSH1 0x40 MLOAD PUSH2 0x5D2 PUSH2 0x14A DUP3 CODECOPY PUSH2 0x5D2 SWAP1 RETURN JUMPDEST PUSH1 0x0 DUP1 REVERT JUMPDEST PUSH4 0x4E487B71 PUSH1 0xE0 SHL PUSH1 0x0 MSTORE PUSH1 0x41 PUSH1 0x4 MSTORE PUSH1 0x24 PUSH1 0x0 REVERT JUMPDEST SWAP1 PUSH1 0x1F ADD PUSH1 0x1F NOT AND DUP2 ADD SWAP1 DUP2 LT PUSH1 0x1 PUSH1 0x1 PUSH1 0x40 SHL SUB DUP3 GT OR PUSH2 0x66 JUMPI PUSH1 0x40 MSTORE JUMP JUMPDEST PUSH2 0x2F JUMP JUMPDEST SWAP1 PUSH2 0x7F PUSH2 0x78 PUSH1 0x40 MLOAD SWAP1 JUMP JUMPDEST SWAP3 DUP4 PUSH2 0x45 JUMP JUMPDEST JUMP JUMPDEST PUSH1 0x1 PUSH1 0x1 PUSH1 0xA0 SHL SUB AND SWAP1 JUMP JUMPDEST SWAP1 JUMP JUMPDEST PUSH1 0x1 PUSH1 0x1 PUSH1 0xA0 SHL SUB DUP2 AND SUB PUSH2 0x2A JUMPI JUMP JUMPDEST SWAP1 POP MLOAD SWAP1 PUSH2 0x7F DUP3 PUSH2 0x90 JUMP JUMPDEST SWAP1 PUSH1 0x20 DUP3 DUP3 SUB SLT PUSH2 0x2A JUMPI PUSH2 0x8D SWAP2 PUSH2 0xA1 JUMP JUMPDEST PUSH2 0x8D PUSH2 0x71C DUP1 CODESIZE SUB DUP1 PUSH2 0xD5 DUP2 PUSH2 0x6B JUMP JUMPDEST SWAP3 DUP4 CODECOPY DUP2 ADD SWAP1 PUSH2 0xAE JUMP JUMPDEST PUSH2 0x8D SWAP1 PUSH2 0x81 SWAP1 PUSH1 0x1 PUSH1 0x1 PUSH1 0xA0 SHL SUB AND DUP3 JUMP JUMPDEST PUSH2 0x8D SWAP1 PUSH2 0xE0 JUMP JUMPDEST PUSH2 0x8D SWAP1 PUSH2 0xF4 JUMP JUMPDEST SWAP1 PUSH2 0x116 PUSH2 0x8D PUSH2 0x132 SWAP3 PUSH2 0xFD JUMP JUMPDEST DUP3 SLOAD PUSH1 0x1 PUSH1 0x1 PUSH1 0xA0 SHL SUB NOT AND PUSH1 0x1 PUSH1 0x1 PUSH1 0xA0 SHL SUB SWAP2 SWAP1 SWAP2 AND OR SWAP1 JUMP JUMPDEST SWAP1 SSTORE JUMP JUMPDEST PUSH2 0x142 PUSH2 0x7F SWAP2 PUSH2 0xFD JUMP JUMPDEST PUSH1 0x0 PUSH2 0x106 JUMP INVALID PUSH1 0x80 PUSH1 0x40 MSTORE PUSH1 0x4 CALLDATASIZE LT ISZERO PUSH2 0x12 JUMPI PUSH1 0x0 DUP1 REVERT JUMPDEST PUSH1 0x0 CALLDATALOAD PUSH1 0xE0 SHR DUP1 PUSH4 0x1A186227 EQ PUSH2 0x82 JUMPI DUP1 PUSH4 0x21CB4831 EQ PUSH2 0x7D JUMPI DUP1 PUSH4 0x30FCE48B EQ PUSH2 0x78 JUMPI DUP1 PUSH4 0x44471FD9 EQ PUSH2 0x73 JUMPI DUP1 PUSH4 0x509484D5 EQ PUSH2 0x6E JUMPI DUP1 PUSH4 0x9D76EA58 EQ PUSH2 0x69 JUMPI PUSH4 0xDD28505D SUB PUSH2 0x92 JUMPI PUSH2 0x271 JUMP JUMPDEST PUSH2 0x236 JUMP JUMPDEST PUSH2 0x1D4 JUMP JUMPDEST PUSH2 0x1BB JUMP JUMPDEST PUSH2 0x168 JUMP JUMPDEST PUSH2 0x11C JUMP JUMPDEST PUSH2 0xE5 JUMP JUMPDEST PUSH1 0x0 SWAP2 SUB SLT PUSH2 0x92 JUMPI JUMP JUMPDEST PUSH1 0x0 DUP1 REVERT JUMPDEST PUSH2 0xAC SWAP2 PUSH1 0x8 MUL SHR JUMPDEST PUSH1 0x1 PUSH1 0x1 PUSH1 0xA0 SHL SUB AND SWAP1 JUMP JUMPDEST SWAP1 JUMP JUMPDEST SWAP1 PUSH2 0xAC SWAP2 SLOAD PUSH2 0x97 JUMP JUMPDEST PUSH2 0xAC PUSH1 0x0 PUSH1 0x2 PUSH2 0xAF JUMP JUMPDEST PUSH2 0xCF SWAP1 PUSH2 0xA0 JUMP JUMPDEST SWAP1 MSTORE JUMP JUMPDEST PUSH1 0x20 DUP2 ADD SWAP3 SWAP2 PUSH2 0xE3 SWAP2 SWAP1 PUSH2 0xC6 JUMP JUMPDEST JUMP JUMPDEST CALLVALUE PUSH2 0x92 JUMPI PUSH2 0xF5 CALLDATASIZE PUSH1 0x4 PUSH2 0x87 JUMP JUMPDEST PUSH2 0x10C PUSH2 0x100 PUSH2 0xBA JUMP JUMPDEST PUSH1 0x40 MLOAD SWAP2 DUP3 SWAP2 DUP3 PUSH2 0xD3 JUMP JUMPDEST SUB SWAP1 RETURN JUMPDEST PUSH2 0xAC PUSH1 0x0 PUSH1 0x1 PUSH2 0xAF JUMP JUMPDEST CALLVALUE PUSH2 0x92 JUMPI PUSH2 0x12C CALLDATASIZE PUSH1 0x4 PUSH2 0x87 JUMP JUMPDEST PUSH2 0x10C PUSH2 0x100 PUSH2 0x110 JUMP JUMPDEST PUSH2 0x140 DUP2 PUSH2 0xA0 JUMP JUMPDEST SUB PUSH2 0x92 JUMPI JUMP JUMPDEST SWAP1 POP CALLDATALOAD SWAP1 PUSH2 0xE3 DUP3 PUSH2 0x137 JUMP JUMPDEST SWAP1 PUSH1 0x20 DUP3 DUP3 SUB SLT PUSH2 0x92 JUMPI PUSH2 0xAC SWAP2 PUSH2 0x147 JUMP JUMPDEST CALLVALUE PUSH2 0x92 JUMPI PUSH2 0x180 PUSH2 0x17B CALLDATASIZE PUSH1 0x4 PUSH2 0x154 JUMP JUMPDEST PUSH2 0x2B9 JUMP JUMPDEST PUSH1 0x40 MLOAD STOP JUMPDEST DUP1 PUSH2 0x140 JUMP JUMPDEST SWAP1 POP CALLDATALOAD SWAP1 PUSH2 0xE3 DUP3 PUSH2 0x185 JUMP JUMPDEST SWAP2 SWAP1 PUSH1 0x40 DUP4 DUP3 SUB SLT PUSH2 0x92 JUMPI PUSH2 0xAC SWAP1 PUSH1 0x20 PUSH2 0x1B4 DUP3 DUP7 PUSH2 0x147 JUMP JUMPDEST SWAP5 ADD PUSH2 0x18B JUMP JUMPDEST CALLVALUE PUSH2 0x92 JUMPI PUSH2 0x180 PUSH2 0x1CE CALLDATASIZE PUSH1 0x4 PUSH2 0x198 JUMP JUMPDEST SWAP1 PUSH2 0x4D1 JUMP JUMPDEST CALLVALUE PUSH2 0x92 JUMPI PUSH2 0x180 PUSH2 0x1E7 CALLDATASIZE PUSH1 0x4 PUSH2 0x154 JUMP JUMPDEST PUSH2 0x4DB JUMP JUMPDEST PUSH2 0xAC PUSH1 0x0 DUP1 PUSH2 0xAF JUMP JUMPDEST PUSH2 0xAC SWAP1 PUSH2 0xA0 SWAP1 PUSH1 0x1 PUSH1 0x1 PUSH1 0xA0 SHL SUB AND DUP3 JUMP JUMPDEST PUSH2 0xAC SWAP1 PUSH2 0x1F7 JUMP JUMPDEST PUSH2 0xAC SWAP1 PUSH2 0x20B JUMP JUMPDEST PUSH2 0xCF SWAP1 PUSH2 0x214 JUMP JUMPDEST PUSH1 0x20 DUP2 ADD SWAP3 SWAP2 PUSH2 0xE3 SWAP2 SWAP1 PUSH2 0x21D JUMP JUMPDEST CALLVALUE PUSH2 0x92 JUMPI PUSH2 0x246 CALLDATASIZE PUSH1 0x4 PUSH2 0x87 JUMP JUMPDEST PUSH2 0x10C PUSH2 0x251 PUSH2 0x1EC JUMP JUMPDEST PUSH1 0x40 MLOAD SWAP2 DUP3 SWAP2 DUP3 PUSH2 0x226 JUMP JUMPDEST SWAP1 PUSH1 0x20 DUP3 DUP3 SUB SLT PUSH2 0x92 JUMPI PUSH2 0xAC SWAP2 PUSH2 0x18B JUMP JUMPDEST CALLVALUE PUSH2 0x92 JUMPI PUSH2 0x180 PUSH2 0x284 CALLDATASIZE PUSH1 0x4 PUSH2 0x25D JUMP JUMPDEST PUSH2 0x593 JUMP JUMPDEST SWAP1 PUSH2 0x299 PUSH2 0xAC PUSH2 0x2B5 SWAP3 PUSH2 0x214 JUMP JUMPDEST DUP3 SLOAD PUSH1 0x1 PUSH1 0x1 PUSH1 0xA0 SHL SUB NOT AND PUSH1 0x1 PUSH1 0x1 PUSH1 0xA0 SHL SUB SWAP2 SWAP1 SWAP2 AND OR SWAP1 JUMP JUMPDEST SWAP1 SSTORE JUMP JUMPDEST PUSH2 0xE3 SWAP1 PUSH1 0x1 PUSH2 0x289 JUMP JUMPDEST PUSH2 0xAC SWAP1 PUSH2 0xA0 JUMP JUMPDEST PUSH2 0xAC SWAP1 SLOAD PUSH2 0x2C4 JUMP JUMPDEST PUSH1 0x20 DUP1 DUP3 MSTORE DUP2 DUP2 ADD MSTORE PUSH32 0x43616C6C6572206973206E6F7420746865207374616B6520636F6E7472616374 PUSH1 0x40 DUP3 ADD MSTORE PUSH1 0x60 ADD SWAP1 JUMP JUMPDEST ISZERO PUSH2 0x313 JUMPI JUMP JUMPDEST PUSH1 0x40 MLOAD PUSH3 0x461BCD PUSH1 0xE5 SHL DUP2 MSTORE DUP1 PUSH2 0x32C PUSH1 0x4 DUP3 ADD PUSH2 0x2D7 JUMP JUMPDEST SUB SWAP1 REVERT JUMPDEST SWAP1 PUSH2 0xE3 SWAP2 PUSH2 0x359 PUSH2 0x34A PUSH2 0x345 PUSH1 0x2 PUSH2 0x2CD JUMP JUMPDEST PUSH2 0xA0 JUMP JUMPDEST PUSH2 0x353 CALLER PUSH2 0xA0 JUMP JUMPDEST EQ PUSH2 0x30C JUMP JUMPDEST PUSH2 0x43D JUMP JUMPDEST PUSH4 0x4E487B71 PUSH1 0xE0 SHL PUSH1 0x0 MSTORE PUSH1 0x41 PUSH1 0x4 MSTORE PUSH1 0x24 PUSH1 0x0 REVERT JUMPDEST SWAP1 PUSH1 0x1F ADD PUSH1 0x1F NOT AND DUP2 ADD SWAP1 DUP2 LT PUSH8 0xFFFFFFFFFFFFFFFF DUP3 GT OR PUSH2 0x396 JUMPI PUSH1 0x40 MSTORE JUMP JUMPDEST PUSH2 0x35E JUMP JUMPDEST DUP1 ISZERO ISZERO PUSH2 0x140 JUMP JUMPDEST SWAP1 POP MLOAD SWAP1 PUSH2 0xE3 DUP3 PUSH2 0x39B JUMP JUMPDEST SWAP1 PUSH1 0x20 DUP3 DUP3 SUB SLT PUSH2 0x92 JUMPI PUSH2 0xAC SWAP2 PUSH2 0x3A3 JUMP JUMPDEST SWAP2 PUSH1 0x20 PUSH2 0xE3 SWAP3 SWAP5 SWAP4 PUSH2 0x3DF PUSH1 0x40 DUP3 ADD SWAP7 PUSH1 0x0 DUP4 ADD SWAP1 PUSH2 0xC6 JUMP JUMPDEST ADD MSTORE JUMP JUMPDEST PUSH1 0x40 MLOAD RETURNDATASIZE PUSH1 0x0 DUP3 RETURNDATACOPY RETURNDATASIZE SWAP1 REVERT JUMPDEST PUSH1 0x20 DUP1 DUP3 MSTORE PUSH1 0x14 SWAP1 DUP3 ADD MSTORE PUSH20 0x1554D110C81D1C985B9CD9995C8819985A5B1959 PUSH1 0x62 SHL PUSH1 0x40 DUP3 ADD MSTORE PUSH1 0x60 ADD SWAP1 JUMP JUMPDEST ISZERO PUSH2 0x424 JUMPI JUMP JUMPDEST PUSH1 0x40 MLOAD PUSH3 0x461BCD PUSH1 0xE5 SHL DUP2 MSTORE DUP1 PUSH2 0x32C PUSH1 0x4 DUP3 ADD PUSH2 0x3EF JUMP JUMPDEST PUSH2 0x481 SWAP2 PUSH1 0x20 SWAP2 PUSH2 0x456 PUSH2 0x451 PUSH1 0x0 PUSH2 0x2CD JUMP JUMPDEST PUSH2 0x214 JUMP JUMPDEST SWAP1 PUSH1 0x0 PUSH2 0x462 PUSH1 0x40 MLOAD SWAP1 JUMP JUMPDEST DUP1 SWAP7 DUP2 SWAP6 DUP3 SWAP5 PUSH2 0x476 PUSH4 0xA9059CBB PUSH1 0xE0 SHL SWAP1 JUMP JUMPDEST DUP5 MSTORE PUSH1 0x4 DUP5 ADD PUSH2 0x3C4 JUMP JUMPDEST SUB SWAP3 GAS CALL DUP1 ISZERO PUSH2 0x4CC JUMPI PUSH2 0xE3 SWAP2 PUSH1 0x0 SWAP2 PUSH2 0x49D JUMPI JUMPDEST POP PUSH2 0x41D JUMP JUMPDEST PUSH2 0x4BF SWAP2 POP PUSH1 0x20 RETURNDATASIZE PUSH1 0x20 GT PUSH2 0x4C5 JUMPI JUMPDEST PUSH2 0x4B7 DUP2 DUP4 PUSH2 0x374 JUMP JUMPDEST DUP2 ADD SWAP1 PUSH2 0x3B0 JUMP JUMPDEST CODESIZE PUSH2 0x497 JUMP JUMPDEST POP RETURNDATASIZE PUSH2 0x4AD JUMP JUMPDEST PUSH2 0x3E3 JUMP JUMPDEST SWAP1 PUSH2 0xE3 SWAP2 PUSH2 0x330 JUMP JUMPDEST PUSH2 0xE3 SWAP1 PUSH1 0x2 PUSH2 0x289 JUMP JUMPDEST PUSH1 0x20 DUP1 DUP3 MSTORE PUSH1 0x22 SWAP1 DUP3 ADD MSTORE PUSH32 0x43616C6C6572206973206E6F74207468652062657474696E6720636F6E747261 PUSH1 0x40 DUP3 ADD MSTORE PUSH2 0x18DD PUSH1 0xF2 SHL PUSH1 0x60 DUP3 ADD MSTORE PUSH1 0x80 ADD SWAP1 JUMP JUMPDEST ISZERO PUSH2 0x52F JUMPI JUMP JUMPDEST PUSH1 0x40 MLOAD PUSH3 0x461BCD PUSH1 0xE5 SHL DUP2 MSTORE DUP1 PUSH2 0x32C PUSH1 0x4 DUP3 ADD PUSH2 0x4E6 JUMP JUMPDEST PUSH2 0xE3 SWAP1 PUSH2 0x56B PUSH2 0x55C PUSH2 0x345 PUSH1 0x1 PUSH2 0x2CD JUMP JUMPDEST PUSH2 0x565 CALLER PUSH2 0xA0 JUMP JUMPDEST EQ PUSH2 0x528 JUMP JUMPDEST PUSH1 0x20 PUSH2 0x481 SWAP2 PUSH2 0x57E PUSH2 0x451 PUSH1 0x0 PUSH2 0x2CD JUMP JUMPDEST PUSH2 0x588 PUSH1 0x1 PUSH2 0x2CD JUMP JUMPDEST PUSH1 0x0 PUSH2 0x462 PUSH1 0x40 MLOAD SWAP1 JUMP JUMPDEST PUSH2 0xE3 SWAP1 PUSH2 0x548 JUMP INVALID LOG2 PUSH5 0x6970667358 0x22 SLT KECCAK256 OR PUSH24 0xBBFE1FD3B068CE81C23AC5A8E4440849EBE10B81FE18FED2 0xEC TIMESTAMP 0xAC 0xDE PUSH2 0xDF64 PUSH20 0x6F6C634300081800330000000000000000000000 "},"methodIdentifiers":{"bettingContract()":"21cb4831","pullUSDC(uint256)":"dd28505d","setBettingContract(address)":"30fce48b","setStakeContract(address)":"509484d5","stakeContract()":"1a186227","tokenAddress()":"9d76ea58","withdrawUSDC(address,uint256)":"44471fd9"}}}}}