{
  "_format": "hh-sol-artifact-1",
  "contractName": "DecentralizedBetting",
  "sourceName": "contracts/DecentralizedBetting.sol",
  "abi": [
    {
      "inputs": [
        {
          "internalType": "address",
          "name": "_socialOracleAddress",
          "type": "address"
        },
        {
          "internalType": "address",
          "name": "_matchNFTAddress",
          "type": "address"
        }
      ],
      "stateMutability": "nonpayable",
      "type": "constructor"
    },
    {
      "inputs": [
        {
          "internalType": "uint256",
          "name": "",
          "type": "uint256"
        },
        {
          "internalType": "address",
          "name": "",
          "type": "address"
        }
      ],
      "name": "bets",
      "outputs": [
        {
          "internalType": "uint256",
          "name": "amount",
          "type": "uint256"
        },
        {
          "internalType": "bool",
          "name": "prediction",
          "type": "bool"
        }
      ],
      "stateMutability": "view",
      "type": "function"
    },
    {
      "inputs": [
        {
          "internalType": "uint256",
          "name": "eventId",
          "type": "uint256"
        }
      ],
      "name": "claimWinnings",
      "outputs": [],
      "stateMutability": "nonpayable",
      "type": "function"
    },
    {
      "inputs": [
        {
          "internalType": "uint256",
          "name": "timestamp",
          "type": "uint256"
        }
      ],
      "name": "createEvent",
      "outputs": [],
      "stateMutability": "nonpayable",
      "type": "function"
    },
    {
      "inputs": [
        {
          "internalType": "uint256",
          "name": "",
          "type": "uint256"
        }
      ],
      "name": "events",
      "outputs": [
        {
          "internalType": "uint256",
          "name": "id",
          "type": "uint256"
        },
        {
          "internalType": "uint256",
          "name": "timestamp",
          "type": "uint256"
        },
        {
          "internalType": "bool",
          "name": "outcome",
          "type": "bool"
        },
        {
          "internalType": "bool",
          "name": "resolved",
          "type": "bool"
        },
        {
          "internalType": "uint256",
          "name": "totalPot",
          "type": "uint256"
        },
        {
          "internalType": "uint256",
          "name": "winningPot",
          "type": "uint256"
        },
        {
          "internalType": "bool",
          "name": "emergencyStop",
          "type": "bool"
        }
      ],
      "stateMutability": "view",
      "type": "function"
    },
    {
      "inputs": [],
      "name": "matchNFTAddress",
      "outputs": [
        {
          "internalType": "address",
          "name": "",
          "type": "address"
        }
      ],
      "stateMutability": "view",
      "type": "function"
    },
    {
      "inputs": [],
      "name": "owner",
      "outputs": [
        {
          "internalType": "address",
          "name": "",
          "type": "address"
        }
      ],
      "stateMutability": "view",
      "type": "function"
    },
    {
      "inputs": [
        {
          "internalType": "uint256",
          "name": "eventId",
          "type": "uint256"
        },
        {
          "internalType": "bool",
          "name": "prediction",
          "type": "bool"
        }
      ],
      "name": "placeBet",
      "outputs": [],
      "stateMutability": "payable",
      "type": "function"
    },
    {
      "inputs": [
        {
          "internalType": "uint256",
          "name": "eventId",
          "type": "uint256"
        }
      ],
      "name": "resolveEvent",
      "outputs": [],
      "stateMutability": "nonpayable",
      "type": "function"
    },
    {
      "inputs": [],
      "name": "socialOracleAddress",
      "outputs": [
        {
          "internalType": "address",
          "name": "",
          "type": "address"
        }
      ],
      "stateMutability": "view",
      "type": "function"
    },
    {
      "inputs": [
        {
          "internalType": "uint256",
          "name": "eventId",
          "type": "uint256"
        }
      ],
      "name": "toggleEmergencyStop",
      "outputs": [],
      "stateMutability": "nonpayable",
      "type": "function"
    },
    {
      "inputs": [],
      "name": "withdraw",
      "outputs": [],
      "stateMutability": "nonpayable",
      "type": "function"
    }
  ],
  "bytecode": "0x60806040523462000031576200001f62000018620000e5565b90620001a4565b604051610ef4620001e48239610ef490f35b600080fd5b634e487b7160e01b600052604160045260246000fd5b90601f01601f191681019081106001600160401b038211176200006e57604052565b62000036565b906200008b6200008360405190565b92836200004c565b565b6001600160a01b031690565b90565b6001600160a01b038116036200003157565b905051906200008b826200009c565b9190604083820312620000315762000099906020620000dd8286620000ae565b9401620000ae565b62000108620010d880380380620000fc8162000074565b928339810190620000bd565b9091565b906001600160a01b03905b9181191691161790565b62000099906200008d906001600160a01b031682565b620000999062000121565b620000999062000137565b906200016162000099620001699262000142565b82546200010c565b9055565b6200009962000099620000999290565b906000199062000117565b906200019c6200009962000169926200016d565b82546200017d565b90620001db6200008b92620001bb3360006200014d565b620001d3620001cb60016200016d565b600162000188565b60046200014d565b60056200014d56fe6080604052600436101561001257600080fd5b60003560e01c80630b791430146100c257806330658198146100bd5780633ccfd60b146100b8578063677bd9ff146100b35780638822e6fd146100ae5780638da5cb5b146100a9578063977d996d146100a45780639a2e82401461009f5780639ed9c74d1461009a578063bed524d6146100955763f644b3bb036100d05761044e565b6103aa565b610396565b610343565b61031f565b610304565b6102e1565b6102c9565b6102ac565b610285565b6101fd565b805b036100d057565b600080fd5b905035906100e2826100c7565b565b906020828203126100d0576100f8916100d5565b90565b6100f86100f86100f89290565b90610112906100fb565b600052602052604060002090565b6100f89081565b6100f89054610120565b6100f8905b60ff1690565b6100f89054610131565b6100f89060081c610136565b6100f89054610146565b610167906002610108565b61017081610127565b9161017d60018301610127565b9161018a6002820161013c565b9161019760028301610152565b916101a460038201610127565b916100f860056101b660048501610127565b930161013c565b9052565b90815260e08101979695909490939092909160208601521515604085015215156060840152608083015260a082015260c0016100e29115159052565b346100d0576102316102186102133660046100e4565b61015c565b9361022897959793919360405190565b978897886101c1565b0390f35b60009103126100d057565b6100f8916008021c5b6001600160a01b031690565b906100f89154610240565b6100f860006004610255565b6101bd90610249565b6020810192916100e2919061026c565b346100d057610295366004610235565b6102316102a0610260565b60405191829182610275565b346100d0576102bc366004610235565b6102c461056c565b604051005b346100d0576102c46102dc3660046100e4565b6106fc565b346100d0576102c46102f43660046100e4565b610884565b6100f8600080610255565b346100d057610314366004610235565b6102316102a06102f9565b346100d0576102c46103323660046100e4565b610902565b6100f860006005610255565b346100d057610353366004610235565b6102316102a0610337565b8015156100c9565b905035906100e28261035e565b91906040838203126100d0576100f890602061038f82866100d5565b9401610366565b6102c46103a4366004610373565b90610d14565b346100d0576102c46103bd3660046100e4565b610eb5565b6100c981610249565b905035906100e2826103c2565b91906040838203126100d0576100f89060206103f482866100d5565b94016103cb565b6100f890610249906001600160a01b031682565b6100f8906103fb565b6100f89061040f565b9061011290610418565b9061043a61043f926003610108565b610421565b906100f860016101b684610127565b346100d0576104676104613660046103d8565b9061042b565b9061023161047460405190565b92839283908152901515602082015260400190565b6100f890610249565b6100f89054610489565b156104a357565b60405162461bcd60e51b815260206004820152602260248201527f4f6e6c79206f776e65722063616e2063616c6c20746869732066756e6374696f604482015261371760f11b6064820152608490fd5b6105176105086105036000610492565b610249565b61051133610249565b1461049c565b6100e261052b565b6040513d6000823e3d90fd5b600080808061053930610418565b3161054e61054961054984610492565b610418565b828215610563575bf11561055e57565b61051f565b506108fc610556565b6100e26104f3565b1561057b57565b60405162461bcd60e51b815260206004820152601c60248201527f4576656e7420686173206e6f74206265656e207265736f6c7665642e000000006044820152606490fd5b156105c757565b60405162461bcd60e51b815260206004820152601960248201527f5573657220686173206e6f2062657420746f20636c61696d2e000000000000006044820152606490fd5b90600019905b9181191691161790565b9061062c6100f8610633926100fb565b825461060c565b9055565b634e487b7160e01b600052601160045260246000fd5b8181029291811591840414171561066057565b610637565b634e487b7160e01b600052601260045260246000fd5b90610685565b9190565b908115610690570490565b610665565b1561069c57565b60405162461bcd60e51b815260206004820152603260248201527f496e73756666696369656e7420636f6e74726163742062616c616e636520746f604482015271103830bc9037baba103bb4b73734b733b99760711b6064820152608490fd5b600261071a6107158261070f8582610108565b01610152565b610574565b6107326100f861072b846003610108565b3390610421565b61073b81610127565b9261075460009461074e610681876100fb565b116105c0565b6107606001830161013c565b61078561077f61077a866107748682610108565b0161013c565b151590565b91151590565b0361080757826107e56107d58695946107d0876107bf60046107b3896107b960036107b3879e9d889e610108565b01610127565b99610108565b9201946107cb86610127565b61064d565b61067b565b916107df846100fb565b9061061c565b6107fb6107f130610418565b8290311015610695565b61054e61054933610418565b509050816108176100e2936100fb565b910161061c565b6100e2906108326105086105036000610492565b610857565b9060ff90610612565b906108506100f86106339261077a565b8254610837565b6100e290600561087e61087661087283610774866002610108565b1590565b926002610108565b01610840565b6100e29061081e565b60001981146106605760010190565b634e487b7160e01b600052604160045260246000fd5b90601f01601f1916810190811067ffffffffffffffff8211176108d457604052565b61089c565b9081526040810192916100e29160200152565b9081526040810192916100e2916020019061026c565b61090c6001610127565b906109206109198361088d565b600161061c565b610937826000610931826002610108565b0161061c565b610948816001610931856002610108565b6109586105496105496004610492565b803b156100d05761098d60009291839261097160405190565b948593849283919063938cfd6760e01b835289600484016108d9565b03925af1801561055e57610a0c575b506109ad6105496105496005610492565b803b156100d0576109e36000929183926109c660405190565b94859384928391906394bf804d60e01b83523390600484016108ec565b03925af1801561055e576109f45750565b6100e2906000610a0481836108b2565b810190610235565b610a1c906000610a0481836108b2565b3861099c565b15610a2957565b60405162461bcd60e51b815260206004820152601860248201527f4576656e7420686173206265656e207265736f6c7665642e00000000000000006044820152606490fd5b906100e291610a8d610a88610872600261070f8582610108565b610a22565b610c2d565b15610a9957565b60405162461bcd60e51b815260206004820152602160248201527f42657474696e672069732074656d706f726172696c792073757370656e6465646044820152601760f91b6064820152608490fd5b15610aef57565b60405162461bcd60e51b815260206004820152602260248201527f42657420616d6f756e74206d7573742062652067726561746572207468616e20604482015261181760f11b6064820152608490fd5b15610b4657565b60405162461bcd60e51b815260206004820152601e60248201527f557365722068617320616c726561647920706c616365642061206265742e00006044820152606490fd5b15610b9257565b60405162461bcd60e51b815260206004820152601160248201527024b73b30b634b21032bb32b73a1024a21760791b6044820152606490fd5b906100e2610bd860405190565b92836108b2565b6100f86040610bcb565b6001610c0f60206100e294610c08610c02600083015190565b8661061c565b0151151590565b9101610840565b906100e291610be9565b9190820180921161066057565b600291610c4a610c4561087260056107748688610108565b610a92565b610cfd6000610c62610c5b826100fb565b3411610ae8565b610cdf600391610c8e610c7c826107b361072b8a88610108565b610c88610681846100fb565b14610b3f565b610cb2610c9f826107b3898b610108565b610cab610681846100fb565b1415610b8b565b610cc5610cbd610bdf565b913490830152565b8415156020820152610cda61072b8785610108565b610c16565b610ce98486610108565b016107df610cf682610127565b3490610c20565b610d05575050565b610ce96004916100e293610108565b906100e291610a6e565b6100e290610d37610a88610872600261070f8582610108565b610de8565b905051906100e28261035e565b91906040838203126100d0576100f8906020610d658286610d3c565b9401610d3c565b15610d7357565b60405162461bcd60e51b8152602060048201526024808201527f5175657374696f6e206f7574636f6d65206e6f742064657465726d696e6564206044820152633cb2ba1760e11b6064820152608490fd5b9061ff009060081b610612565b90610de16100f86106339261077a565b8254610dc4565b6002610e09610dfc60006107b38585610108565b610cab61068160006100fb565b610e196105496105496004610492565b906040610e2560405190565b6325aaf90560e01b81526004810185905292839060249082905afa801561055e576100e293610e74610e7a92600195600080919092610e80575b50610e6990610d6c565b8461087e8482610108565b82610108565b01610dd1565b610e699250610ea7915060403d604011610eae575b610e9f81836108b2565b810190610d49565b9091610e5f565b503d610e95565b6100e290610d1e56fea2646970667358221220ed2b6d0ceea15e4d16c2a63ed5060c606944a108297e0c228b7c657835e3485b64736f6c63430008180033",
  "linkReferences": {},
  "deployedLinkReferences": {}
}