{
  "_format": "hh-sol-artifact-1",
  "contractName": "StakeContract",
  "sourceName": "contracts/StakeContract.sol",
  "abi": [
    {
      "inputs": [
        {
          "internalType": "address",
          "name": "_betStakingToken",
          "type": "address"
        },
        {
          "internalType": "address",
          "name": "_liquidityTokenAddress",
          "type": "address"
        },
        {
          "internalType": "address",
          "name": "_stakingTokenAddress",
          "type": "address"
        },
        {
          "internalType": "address",
          "name": "_treasuryAddress",
          "type": "address"
        },
        {
          "internalType": "uint256",
          "name": "_penaltyRate",
          "type": "uint256"
        }
      ],
      "stateMutability": "nonpayable",
      "type": "constructor"
    },
    {
      "anonymous": false,
      "inputs": [
        {
          "indexed": true,
          "internalType": "address",
          "name": "previousOwner",
          "type": "address"
        },
        {
          "indexed": true,
          "internalType": "address",
          "name": "newOwner",
          "type": "address"
        }
      ],
      "name": "OwnershipTransferred",
      "type": "event"
    },
    {
      "anonymous": false,
      "inputs": [
        {
          "indexed": true,
          "internalType": "address",
          "name": "user",
          "type": "address"
        },
        {
          "indexed": false,
          "internalType": "uint256",
          "name": "penaltyAmount",
          "type": "uint256"
        }
      ],
      "name": "Penalized",
      "type": "event"
    },
    {
      "anonymous": false,
      "inputs": [
        {
          "indexed": true,
          "internalType": "address",
          "name": "user",
          "type": "address"
        },
        {
          "indexed": false,
          "internalType": "uint256",
          "name": "stakeAmount",
          "type": "uint256"
        },
        {
          "indexed": false,
          "internalType": "uint256",
          "name": "liquidityAmount",
          "type": "uint256"
        }
      ],
      "name": "Staked",
      "type": "event"
    },
    {
      "anonymous": false,
      "inputs": [
        {
          "indexed": true,
          "internalType": "address",
          "name": "user",
          "type": "address"
        },
        {
          "indexed": false,
          "internalType": "uint256",
          "name": "stakeAmount",
          "type": "uint256"
        },
        {
          "indexed": false,
          "internalType": "uint256",
          "name": "liquidityAmount",
          "type": "uint256"
        }
      ],
      "name": "Withdrawn",
      "type": "event"
    },
    {
      "inputs": [],
      "name": "betStakingToken",
      "outputs": [
        {
          "internalType": "contract BetStakingToken",
          "name": "",
          "type": "address"
        }
      ],
      "stateMutability": "view",
      "type": "function"
    },
    {
      "inputs": [
        {
          "internalType": "address",
          "name": "user",
          "type": "address"
        }
      ],
      "name": "getStakeAmount",
      "outputs": [
        {
          "internalType": "uint256",
          "name": "",
          "type": "uint256"
        }
      ],
      "stateMutability": "view",
      "type": "function"
    },
    {
      "inputs": [],
      "name": "liquidityToken",
      "outputs": [
        {
          "internalType": "contract IERC20",
          "name": "",
          "type": "address"
        }
      ],
      "stateMutability": "view",
      "type": "function"
    },
    {
      "inputs": [],
      "name": "owner",
      "outputs": [
        {
          "internalType": "address",
          "name": "",
          "type": "address"
        }
      ],
      "stateMutability": "view",
      "type": "function"
    },
    {
      "inputs": [
        {
          "internalType": "address",
          "name": "user",
          "type": "address"
        }
      ],
      "name": "penalize",
      "outputs": [],
      "stateMutability": "nonpayable",
      "type": "function"
    },
    {
      "inputs": [],
      "name": "penaltyRate",
      "outputs": [
        {
          "internalType": "uint256",
          "name": "",
          "type": "uint256"
        }
      ],
      "stateMutability": "view",
      "type": "function"
    },
    {
      "inputs": [],
      "name": "renounceOwnership",
      "outputs": [],
      "stateMutability": "nonpayable",
      "type": "function"
    },
    {
      "inputs": [
        {
          "internalType": "uint256",
          "name": "stakeAmount",
          "type": "uint256"
        },
        {
          "internalType": "uint256",
          "name": "liquidityAmount",
          "type": "uint256"
        }
      ],
      "name": "stake",
      "outputs": [],
      "stateMutability": "nonpayable",
      "type": "function"
    },
    {
      "inputs": [],
      "name": "stakingToken",
      "outputs": [
        {
          "internalType": "contract IERC20",
          "name": "",
          "type": "address"
        }
      ],
      "stateMutability": "view",
      "type": "function"
    },
    {
      "inputs": [],
      "name": "totalStaked",
      "outputs": [
        {
          "internalType": "uint256",
          "name": "",
          "type": "uint256"
        }
      ],
      "stateMutability": "view",
      "type": "function"
    },
    {
      "inputs": [
        {
          "internalType": "address",
          "name": "newOwner",
          "type": "address"
        }
      ],
      "name": "transferOwnership",
      "outputs": [],
      "stateMutability": "nonpayable",
      "type": "function"
    },
    {
      "inputs": [],
      "name": "treasuryAddress",
      "outputs": [
        {
          "internalType": "address",
          "name": "",
          "type": "address"
        }
      ],
      "stateMutability": "view",
      "type": "function"
    },
    {
      "inputs": [
        {
          "internalType": "uint256",
          "name": "stakeAmount",
          "type": "uint256"
        }
      ],
      "name": "withdraw",
      "outputs": [],
      "stateMutability": "nonpayable",
      "type": "function"
    }
  ],
  "bytecode": "0x608060405234620000345762000022620000186200012e565b93929092620001f0565b604051610d3a620002ca8239610d3a90f35b600080fd5b634e487b7160e01b600052604160045260246000fd5b90601f01601f191681019081106001600160401b038211176200007157604052565b62000039565b906200008e6200008660405190565b92836200004f565b565b6001600160a01b031690565b90565b6001600160a01b0381165b036200003457565b905051906200008e826200009f565b80620000aa565b905051906200008e82620000c1565b919060a0838203126200003457620000f08184620000b2565b92620001008260208301620000b2565b926200009c620001148460408501620000b2565b936080620001268260608701620000b2565b9401620000c8565b620001516200100480380380620001458162000077565b928339810190620000d7565b9091929394565b6200009c9062000090906001600160a01b031682565b6200009c9062000158565b6200009c906200016e565b906001600160a01b03905b9181191691161790565b90620001ad6200009c620001b59262000179565b825462000184565b9055565b90600019906200018f565b6200009c6200009c6200009c9290565b90620001e86200009c620001b592620001c4565b8254620001b9565b620002356200023d916200021f6200022d6200008e9897956200021f6200022562000245996200021f6200024d565b62000179565b600162000199565b600262000199565b600362000199565b600462000199565b6006620001d4565b6200008e336200026f565b6200009c9062000090565b6200009c905462000258565b620002976200029062000283600062000263565b6200021f84600062000199565b9162000179565b907f8be0079c531659141344cd1fd0a4f28419497f9722a3daafe3b4186f6b6457e0620002c360405190565b600090a356fe6080604052600436101561001257600080fd5b60003560e01c80630c2eb403146100e257806314795cef146100dd5780632e1a7d4d146100d857806343cd8f7e146100d3578063715018a6146100ce57806372f702f3146100c957806378d97c94146100c45780637b0472f0146100bf578063817b1cd2146100ba5780638da5cb5b146100b5578063c5f956af146100b0578063d6b7494f146100ab5763f2fde38b03610108576103be565b6103a3565b61037c565b61033b565b610320565b6102e5565b6102aa565b61028f565b61026b565b610250565b610227565b6101d9565b610134565b6001600160a01b031690565b90565b6001600160a01b0381165b0361010857565b600080fd5b9050359061011a826100f6565b565b90602082820312610108576100f39161010d565b9052565b346101085761016061014f61014a36600461011c565b610453565b6040515b9182918290815260200190565b0390f35b600091031261010857565b6100f3916008021c6001600160a01b031690565b906100f3915461016f565b6100f360006003610183565b6100f3906100e7906001600160a01b031682565b6100f39061019a565b6100f3906101ae565b610130906101b7565b60208101929161011a91906101c0565b34610108576101e9366004610164565b6101606101f461018e565b604051918291826101c9565b80610101565b9050359061011a82610200565b90602082820312610108576100f391610206565b346101085761023f61023a366004610213565b6105a5565b604051005b6100f360006002610183565b3461010857610260366004610164565b6101606101f4610244565b346101085761027b366004610164565b61023f610725565b6100f360006001610183565b346101085761029f366004610164565b6101606101f4610283565b346101085761023f6102bd36600461011c565b6108d1565b9190604083820312610108576100f39060206102de8286610206565b9401610206565b346101085761023f6102f83660046102c2565b90610995565b6100f3916008021c81565b906100f391546102fe565b6100f360006005610309565b3461010857610330366004610164565b61016061014f610314565b346101085761034b366004610164565b610160610356610b6e565b604051918291826001600160a01b03909116815260200190565b6100f360006004610183565b346101085761038c366004610164565b610160610356610370565b6100f360006006610309565b34610108576103b3366004610164565b61016061014f610397565b346101085761023f6103d136600461011c565b610c09565b6100f3906100e7565b6100f390546103d6565b634e487b7160e01b600052604160045260246000fd5b90601f01601f1916810190811067ffffffffffffffff82111761042157604052565b6103e9565b9050519061011a82610200565b90602082820312610108576100f391610426565b6040513d6000823e3d90fd5b602061049f91610461600090565b5061047461046f60036103df565b6101b7565b604051938492839182916370a0823160e01b8352600483016001600160a01b03909116815260200190565b03915afa9081156104de576000916104b5575090565b6100f3915060203d6020116104d7575b6104cf81836103ff565b810190610433565b503d6104c5565b610447565b6100f36100f36100f39290565b156104f757565b60405162461bcd60e51b815260206004820152601d60248201527f416d6f756e74206d7573742062652067726561746572207468616e20300000006044820152606490fd5b0390fd5b6001600160a01b03909116815260408101929161011a9160200152565b801515610101565b9050519061011a8261055d565b90602082820312610108576100f391610565565b610130906104e3565b90815260408101929161011a9160200190610586565b60006105ba6105b3826104e3565b83116104f0565b6105c761046f60036103df565b803b1561010857816105d860405190565b91829063079cc67960e41b82528183816105f6893360048401610540565b03925af180156104de576106c1575b5061061361046f60016103df565b90602061061f60405190565b92839063a9059cbb60e01b825281848161063d893360048401610540565b03925af19182156104de577f92ccf450a286a957af52509bc1c9939d1a6a481783e142e41e2499f0bb66ebc692610694575b50610679336101b7565b9261068f61068660405190565b9283928361058f565b0390a2565b6106b59060203d6020116106ba575b6106ad81836103ff565b810190610572565b61066f565b503d6106a3565b6106e090823d84116106e6575b6106d881836103ff565b810190610164565b38610605565b503d6106ce565b6106f5610c62565b61011a610713565b6100e76100f36100f39290565b6100f3906106fd565b61011a610720600061070a565b610cb2565b61011a6106ed565b61011a90610739610c62565b6107a2565b6100f39081565b6100f3905461073e565b634e487b7160e01b600052601160045260246000fd5b8181029291811591840414171561077857565b61074f565b634e487b7160e01b600052601260045260246000fd5b811561079d570490565b61077d565b6107af61046f60036103df565b60206107ba60405190565b6370a0823160e01b81526001600160a01b038416600482015291829060249082905afa9081156104de5761081591610805916000916108b2575b506107ff6006610745565b90610765565b61080f60646104e3565b90610793565b9061082361046f60036103df565b803b1561010857600061083560405190565b91829063079cc67960e41b8252818381610853898960048401610540565b03925af180156104de577fce6324a0bfd5e264b9b4039aeeab1620f460c269fa080cbd889681a37aaadc659261068f926108929261089c575b506101b7565b9261015360405190565b6108ac9060006106d881836103ff565b3861088c565b6108cb915060203d6020116104d7576104cf81836103ff565b386107f4565b61011a9061072d565b156108e157565b60405162461bcd60e51b815260206004820152601e60248201527f416d6f756e7473206d7573742062652067726561746572207468616e203000006044820152606490fd5b6001600160a01b0391821681529116602082015260608101929161011a9160400152565b9190820180921161077857565b90600019905b9181191691161790565b906109776100f361097e926104e3565b8254610957565b9055565b90815260408101929161011a9160200152565b906000906109a2826104e3565b831180610b58575b6109b3906108da565b6109fb6109c361046f60016103df565b6020856323b872dd926109d5306101b7565b876109df60405190565b8097819582946109ef8a60e01b90565b84523360048501610926565b03925af19081156104de578392602092610b3d575b50610a1e61046f60026103df565b6109ef86610a2c60046103df565b93610a46610a3960405190565b9788968795869460e01b90565b03925af180156104de57610b20575b50610a6361046f60036103df565b91823b156101085780610a7560405190565b9384906340c10f1960e01b8252818381610a938a3360048401610540565b03925af19283156104de577f1449c6dd7851abc30abf37f57715f492010519147cc2652fbc38202c18a6ee9093610b03575b5050610ae4610add84610ad86005610745565b61094a565b6005610967565b610aed336101b7565b9261068f610afa60405190565b92839283610982565b81610b1992903d106106e6576106d881836103ff565b3880610ac5565b610b389060203d6020116106ba576106ad81836103ff565b610a55565b610b5390833d85116106ba576106ad81836103ff565b610a10565b506109b3610b65836104e3565b821190506109aa565b6100f360006103df565b61011a90610b84610c62565b610be4565b15610b9057565b60405162461bcd60e51b815260206004820152602660248201527f4f776e61626c653a206e6577206f776e657220697320746865207a65726f206160448201526564647265737360d01b6064820152608490fd5b61011a90610720610bf86100e7600061070a565b6001600160a01b0383161415610b89565b61011a90610b78565b15610c1957565b60405162461bcd60e51b81528061053c600482016020808252818101527f4f776e61626c653a2063616c6c6572206973206e6f7420746865206f776e6572604082015260600190565b61011a610c6d610b6e565b610c86610c79336100e7565b916001600160a01b031690565b14610c12565b906001600160a01b039061095d565b90610cab6100f361097e926101b7565b8254610c8c565b610cd3610ccd610cc260006103df565b61046f846000610c9b565b916101b7565b907f8be0079c531659141344cd1fd0a4f28419497f9722a3daafe3b4186f6b6457e0610cfe60405190565b600090a356fea2646970667358221220161560395d1de5a2ce23d75fa18182ead2ce21229b0250d269e05afea131f0dd64736f6c63430008180033",
  "linkReferences": {},
  "deployedLinkReferences": {}
}