{
  "_format": "hh-sol-artifact-1",
  "contractName": "DecentralizedBetting",
  "sourceName": "contracts/DecentralizedBetting.sol",
  "abi": [
    {
      "inputs": [
        {
          "internalType": "address",
          "name": "_socialOracleAddress",
          "type": "address"
        },
        {
          "internalType": "address",
          "name": "_matchNFTAddress",
          "type": "address"
        },
        {
          "internalType": "address",
          "name": "_bettingTokenAddress",
          "type": "address"
        }
      ],
      "stateMutability": "nonpayable",
      "type": "constructor"
    },
    {
      "inputs": [
        {
          "internalType": "uint256",
          "name": "",
          "type": "uint256"
        },
        {
          "internalType": "address",
          "name": "",
          "type": "address"
        }
      ],
      "name": "bets",
      "outputs": [
        {
          "internalType": "uint256",
          "name": "amount",
          "type": "uint256"
        },
        {
          "internalType": "bool",
          "name": "prediction",
          "type": "bool"
        }
      ],
      "stateMutability": "view",
      "type": "function"
    },
    {
      "inputs": [],
      "name": "bettingToken",
      "outputs": [
        {
          "internalType": "contract IERC20",
          "name": "",
          "type": "address"
        }
      ],
      "stateMutability": "view",
      "type": "function"
    },
    {
      "inputs": [
        {
          "internalType": "uint256",
          "name": "eventId",
          "type": "uint256"
        }
      ],
      "name": "claimWinnings",
      "outputs": [],
      "stateMutability": "nonpayable",
      "type": "function"
    },
    {
      "inputs": [
        {
          "internalType": "uint256",
          "name": "timestamp",
          "type": "uint256"
        }
      ],
      "name": "createEvent",
      "outputs": [],
      "stateMutability": "nonpayable",
      "type": "function"
    },
    {
      "inputs": [
        {
          "internalType": "uint256",
          "name": "",
          "type": "uint256"
        }
      ],
      "name": "events",
      "outputs": [
        {
          "internalType": "uint256",
          "name": "id",
          "type": "uint256"
        },
        {
          "internalType": "uint256",
          "name": "timestamp",
          "type": "uint256"
        },
        {
          "internalType": "bool",
          "name": "outcome",
          "type": "bool"
        },
        {
          "internalType": "bool",
          "name": "resolved",
          "type": "bool"
        },
        {
          "internalType": "uint256",
          "name": "totalPot",
          "type": "uint256"
        },
        {
          "internalType": "uint256",
          "name": "winningPot",
          "type": "uint256"
        },
        {
          "internalType": "bool",
          "name": "emergencyStop",
          "type": "bool"
        }
      ],
      "stateMutability": "view",
      "type": "function"
    },
    {
      "inputs": [],
      "name": "matchNFTAddress",
      "outputs": [
        {
          "internalType": "address",
          "name": "",
          "type": "address"
        }
      ],
      "stateMutability": "view",
      "type": "function"
    },
    {
      "inputs": [],
      "name": "owner",
      "outputs": [
        {
          "internalType": "address",
          "name": "",
          "type": "address"
        }
      ],
      "stateMutability": "view",
      "type": "function"
    },
    {
      "inputs": [
        {
          "internalType": "uint256",
          "name": "eventId",
          "type": "uint256"
        },
        {
          "internalType": "bool",
          "name": "prediction",
          "type": "bool"
        },
        {
          "internalType": "uint256",
          "name": "amount",
          "type": "uint256"
        }
      ],
      "name": "placeBet",
      "outputs": [],
      "stateMutability": "nonpayable",
      "type": "function"
    },
    {
      "inputs": [
        {
          "internalType": "uint256",
          "name": "eventId",
          "type": "uint256"
        }
      ],
      "name": "resolveEvent",
      "outputs": [],
      "stateMutability": "nonpayable",
      "type": "function"
    },
    {
      "inputs": [],
      "name": "socialOracleAddress",
      "outputs": [
        {
          "internalType": "address",
          "name": "",
          "type": "address"
        }
      ],
      "stateMutability": "view",
      "type": "function"
    },
    {
      "inputs": [
        {
          "internalType": "uint256",
          "name": "eventId",
          "type": "uint256"
        }
      ],
      "name": "toggleEmergencyStop",
      "outputs": [],
      "stateMutability": "nonpayable",
      "type": "function"
    },
    {
      "inputs": [],
      "name": "withdraw",
      "outputs": [],
      "stateMutability": "nonpayable",
      "type": "function"
    }
  ],
  "bytecode": "0x60806040523462000031576200001f62000018620000f4565b91620001b4565b6040516112a86200020b82396112a890f35b600080fd5b634e487b7160e01b600052604160045260246000fd5b90601f01601f191681019081106001600160401b038211176200006e57604052565b62000036565b906200008b6200008360405190565b92836200004c565b565b6001600160a01b031690565b90565b6001600160a01b038116036200003157565b905051906200008b826200009c565b9091606082840312620000315762000099620000da8484620000ae565b936040620000ec8260208701620000ae565b9401620000ae565b62000117620014b3803803806200010b8162000074565b928339810190620000bd565b909192565b906001600160a01b03905b9181191691161790565b62000099906200008d906001600160a01b031682565b620000999062000131565b620000999062000147565b906200017162000099620001799262000152565b82546200011c565b9055565b6200009962000099620000999290565b906000199062000127565b90620001ac6200009962000179926200017d565b82546200018d565b91620001fc6200020292620001f46200008b95620001d43360006200015d565b620001ec620001e460016200017d565b600162000198565b60056200015d565b60066200015d565b62000152565b60026200015d56fe6080604052600436101561001257600080fd5b60003560e01c80630b791430146100d25780631a38cac6146100cd57806330658198146100c85780633ccfd60b146100c357806343425e88146100be578063677bd9ff146100b95780638822e6fd146100b45780638da5cb5b146100af578063977d996d146100aa5780639a2e8240146100a5578063bed524d6146100a05763f644b3bb036100e0576104bc565b61043e565b610423565b6103ff565b6103e4565b6103c1565b6103a9565b610382565b61031f565b6102f8565b61028a565b61020d565b805b036100e057565b600080fd5b905035906100f2826100d7565b565b906020828203126100e057610108916100e5565b90565b6101086101086101089290565b906101229061010b565b600052602052604060002090565b6101089081565b6101089054610130565b610108905b60ff1690565b6101089054610141565b6101089060081c610146565b6101089054610156565b610177906003610118565b61018081610137565b9161018d60018301610137565b9161019a6002820161014c565b916101a760028301610162565b916101b460038201610137565b9161010860056101c660048501610137565b930161014c565b9052565b90815260e08101979695909490939092909160208601521515604085015215156060840152608083015260a082015260c0016100f29115159052565b346100e0576102416102286102233660046100f4565b61016c565b9361023897959793919360405190565b978897886101d1565b0390f35b8015156100d9565b905035906100f282610245565b90916060828403126100e05761010861027384846100e5565b936040610283826020870161024d565b94016100e5565b346100e0576102a361029d36600461025a565b916109be565b604051005b60009103126100e057565b610108916008021c5b6001600160a01b031690565b9061010891546102b3565b610108600060056102c8565b6101cd906102bc565b6020810192916100f291906102df565b346100e0576103083660046102a8565b6102416103136102d3565b604051918291826102e8565b346100e05761032f3660046102a8565b6102a3610bd8565b610108600060026102c8565b610108906102bc906001600160a01b031682565b61010890610343565b61010890610357565b6101cd90610360565b6020810192916100f29190610369565b346100e0576103923660046102a8565b61024161039d610337565b60405191829182610372565b346100e0576102a36103bc3660046100f4565b610d6e565b346100e0576102a36103d43660046100f4565b610f90565b6101086000806102c8565b346100e0576103f43660046102a8565b6102416103136103d9565b346100e0576102a36104123660046100f4565b610fd1565b610108600060066102c8565b346100e0576104333660046102a8565b610241610313610417565b346100e0576102a36104513660046100f4565b611269565b6100d9816102bc565b905035906100f282610456565b91906040838203126100e05761010890602061048882866100e5565b940161045f565b9061012290610360565b906104a86104ad926004610118565b61048f565b9061010860016101c684610137565b346100e0576104d56104cf36600461046c565b90610499565b906102416104e260405190565b92839283908152901515602082015260400190565b156104fe57565b60405162461bcd60e51b815260206004820152601860248201527f4576656e7420686173206265656e207265736f6c7665642e00000000000000006044820152606490fd5b906100f2929161056e610569610565600261055f856003610118565b01610162565b1590565b6104f7565b610819565b1561057a57565b60405162461bcd60e51b815260206004820152602160248201527f42657474696e672069732074656d706f726172696c792073757370656e6465646044820152601760f91b6064820152608490fd5b610108906102bc565b61010890546105c9565b634e487b7160e01b600052604160045260246000fd5b90601f01601f1916810190811067ffffffffffffffff82111761061457604052565b6105dc565b905051906100f282610245565b906020828203126100e05761010891610619565b6040906106646100f2949695939661065a606084019860008501906102df565b60208301906102df565b0152565b6040513d6000823e3d90fd5b1561067b57565b60405162461bcd60e51b815260206004820152601e60248201527f4661696c656420746f207472616e736665722062657420746f6b656e732e00006044820152606490fd5b156106c757565b60405162461bcd60e51b815260206004820152601e60248201527f557365722068617320616c726561647920706c616365642061206265742e00006044820152606490fd5b1561071357565b60405162461bcd60e51b815260206004820152601160248201527024b73b30b634b21032bb32b73a1024a21760791b6044820152606490fd5b906100f261075960405190565b92836105f2565b610108604061074c565b90600019905b9181191691161790565b9061078a6101086107919261010b565b825461076a565b9055565b9060ff90610770565b151590565b906107b361010861079192151590565b8254610795565b60016107e060206100f2946107d96107d3600083015190565b8661077a565b0151151590565b91016107a3565b906100f2916107ba565b634e487b7160e01b600052601160045260246000fd5b9190820180921161081457565b6107f1565b6003929161083d61083861056560056108328689610118565b0161014c565b610573565b61088960208461085561085060026105d2565b610360565b61085e30610360565b600061086960405190565b80968195829461087d6323b872dd60e01b90565b8452336004850161063a565b03925af180156109b9576108a59160009161098a575b50610674565b6004906108e16108ca60006108c46108bd8787610118565b339061048f565b01610137565b6108db6108d7600061010b565b9190565b146106c0565b6109076108f360006108c48689610118565b6109006108d7600061010b565b141561070c565b610934610912610760565b61091a868252565b821515602082015261092f6108bd8686610118565b6107e7565b61095b856109428582610118565b016109558661095083610137565b610807565b9061077a565b610966575b50505050565b6109766109559261098195610118565b019161095083610137565b38808080610960565b6109ac915060203d6020116109b2575b6109a481836105f2565b810190610626565b3861089f565b503d61099a565b610668565b906100f29291610543565b156109d057565b60405162461bcd60e51b815260206004820152602260248201527f4f6e6c79206f776e65722063616e2063616c6c20746869732066756e6374696f604482015261371760f11b6064820152608490fd5b610a44610a35610a3060006105d2565b6102bc565b610a3e336102bc565b146109c9565b6100f2610ad4565b905051906100f2826100d7565b906020828203126100e05761010891610a4c565b9160206100f2929493610664604082019660008301906102df565b15610a8f57565b60405162461bcd60e51b815260206004820152601a60248201527f4661696c656420746f207472616e7366657220746f6b656e732e0000000000006044820152606490fd5b610b146020610ae661085060026105d2565b610aef30610360565b90610af960405190565b938492839182916370a0823160e01b5b8352600483016102e8565b03915afa9081156109b957610b7091602091600091610bab575b50610b3c61085060026105d2565b610b4660006105d2565b6000610b5160405190565b809681958294610b6563a9059cbb60e01b90565b845260048401610a6d565b03925af180156109b9576100f291600091610b8c575b50610a88565b610ba5915060203d6020116109b2576109a481836105f2565b38610b86565b610bcb9150823d8411610bd1575b610bc381836105f2565b810190610a59565b38610b2e565b503d610bb9565b6100f2610a20565b15610be757565b60405162461bcd60e51b815260206004820152601c60248201527f4576656e7420686173206e6f74206265656e207265736f6c7665642e000000006044820152606490fd5b15610c3357565b60405162461bcd60e51b815260206004820152601960248201527f5573657220686173206e6f2062657420746f20636c61696d2e000000000000006044820152606490fd5b8181029291811591840414171561081457565b634e487b7160e01b600052601260045260246000fd5b8115610cab570490565b610c8b565b15610cb757565b60405162461bcd60e51b815260206004820152603860248201527f496e73756666696369656e7420636f6e747261637420746f6b656e2062616c6160448201527f6e636520746f20706179206f75742077696e6e696e67732e00000000000000006064820152608490fd5b15610d2957565b60405162461bcd60e51b815260206004820152601c60248201527f4661696c656420746f207472616e736665722077696e6e696e67732e000000006044820152606490fd5b600390610d88610d83600261055f8486610118565b610be0565b610d996101086108bd836004610118565b610da281610137565b92610dbb600094610db56108d78761010b565b11610c2c565b610dc48461010b565b92610dd16001840161014c565b610dec610de661079e60026108328688610118565b91151590565b03610f465790610e1460046108c484610e0e856108c4610e6a9a999882610118565b94610118565b90838211610f1b575b5050610e349084610e2d8161010b565b910161077a565b6020610e4361085060026105d2565b610e4c30610360565b90610e5660405190565b948592839182916370a0823160e01b610b09565b03915afa9081156109b957610e90610ec392602094600091610efe575b50821115610cb0565b610e9d61085060026105d2565b90610ea760405190565b948593849283919063a9059cbb60e01b83523360048401610a6d565b03925af180156109b9576100f291600091610edf575b50610d22565b610ef8915060203d6020116109b2576109a481836105f2565b38610ed9565b610f159150853d8711610bd157610bc381836105f2565b38610e87565b82935090610f39610f3e92610f3488610e349601610137565b610c78565b610ca1565b919038610e1d565b5050916100f2920161077a565b6100f290610f67610a35610a3060006105d2565b6100f2906005610f8a610f8261056583610832866003610118565b926003610118565b016107a3565b6100f290610f53565b60001981146108145760010190565b9081526040810192916100f29160200152565b9081526040810192916100f291602001906102df565b610fdb6001610137565b90610fef610fe883610f99565b600161077a565b611006826000611000826003610118565b0161077a565b611017816001611000856003610118565b61102761085061085060056105d2565b803b156100e05761105c60009291839261104060405190565b948593849283919063938cfd6760e01b83528960048401610fa8565b03925af180156109b9576110db575b5061107c61085061085060066105d2565b803b156100e0576110b260009291839261109560405190565b94859384928391906394bf804d60e01b8352339060048401610fbb565b03925af180156109b9576110c35750565b6100f29060006110d381836105f2565b8101906102a8565b6110eb9060006110d381836105f2565b3861106b565b6100f29061110b610569610565600261055f856003610118565b6111af565b91906040838203126100e05761010890602061112c8286610619565b9401610619565b1561113a57565b60405162461bcd60e51b8152602060048201526024808201527f5175657374696f6e206f7574636f6d65206e6f742064657465726d696e6564206044820152633cb2ba1760e11b6064820152608490fd5b9061ff009060081b610770565b906111a861010861079192151590565b825461118b565b60036111c36108f360006108c48585610118565b6111d361085061085060056105d2565b604080516325aaf90560e01b81526004810185905291829060249082905afa80156109b9576100f29360019361122961122e93600295600080919092611234575b5061121e90611133565b85610f8a8585610118565b610118565b01611198565b61121e925061125b915060403d604011611262575b61125381836105f2565b810190611110565b9091611214565b503d611249565b6100f2906110f156fea264697066735822122051f3676ba2dba36d19c8a52a4b71b1101b866bd1fb9245bb77abfd9806499dc864736f6c63430008180033",
  "linkReferences": {},
  "deployedLinkReferences": {}
}