{
  "contracts/DecentralizedBetting.sol": {
    "DecentralizedBetting": {
      "abi": [
        {
          "inputs": [
            {
              "internalType": "address",
              "name": "_socialOracleAddress",
              "type": "address"
            },
            {
              "internalType": "address",
              "name": "_matchNFTAddress",
              "type": "address"
            }
          ],
          "stateMutability": "nonpayable",
          "type": "constructor"
        },
        {
          "inputs": [
            {
              "internalType": "uint256",
              "name": "",
              "type": "uint256"
            },
            {
              "internalType": "address",
              "name": "",
              "type": "address"
            }
          ],
          "name": "bets",
          "outputs": [
            {
              "internalType": "uint256",
              "name": "amount",
              "type": "uint256"
            },
            {
              "internalType": "bool",
              "name": "prediction",
              "type": "bool"
            }
          ],
          "stateMutability": "view",
          "type": "function"
        },
        {
          "inputs": [
            {
              "internalType": "uint256",
              "name": "eventId",
              "type": "uint256"
            }
          ],
          "name": "claimWinnings",
          "outputs": [],
          "stateMutability": "nonpayable",
          "type": "function"
        },
        {
          "inputs": [
            {
              "internalType": "uint256",
              "name": "timestamp",
              "type": "uint256"
            }
          ],
          "name": "createEvent",
          "outputs": [],
          "stateMutability": "nonpayable",
          "type": "function"
        },
        {
          "inputs": [
            {
              "internalType": "uint256",
              "name": "",
              "type": "uint256"
            }
          ],
          "name": "events",
          "outputs": [
            {
              "internalType": "uint256",
              "name": "id",
              "type": "uint256"
            },
            {
              "internalType": "uint256",
              "name": "timestamp",
              "type": "uint256"
            },
            {
              "internalType": "bool",
              "name": "outcome",
              "type": "bool"
            },
            {
              "internalType": "bool",
              "name": "resolved",
              "type": "bool"
            },
            {
              "internalType": "uint256",
              "name": "totalPot",
              "type": "uint256"
            },
            {
              "internalType": "uint256",
              "name": "winningPot",
              "type": "uint256"
            },
            {
              "internalType": "bool",
              "name": "emergencyStop",
              "type": "bool"
            }
          ],
          "stateMutability": "view",
          "type": "function"
        },
        {
          "inputs": [],
          "name": "matchNFTAddress",
          "outputs": [
            {
              "internalType": "address",
              "name": "",
              "type": "address"
            }
          ],
          "stateMutability": "view",
          "type": "function"
        },
        {
          "inputs": [],
          "name": "owner",
          "outputs": [
            {
              "internalType": "address",
              "name": "",
              "type": "address"
            }
          ],
          "stateMutability": "view",
          "type": "function"
        },
        {
          "inputs": [
            {
              "internalType": "uint256",
              "name": "eventId",
              "type": "uint256"
            },
            {
              "internalType": "bool",
              "name": "prediction",
              "type": "bool"
            }
          ],
          "name": "placeBet",
          "outputs": [],
          "stateMutability": "payable",
          "type": "function"
        },
        {
          "inputs": [
            {
              "internalType": "uint256",
              "name": "eventId",
              "type": "uint256"
            }
          ],
          "name": "resolveEvent",
          "outputs": [],
          "stateMutability": "nonpayable",
          "type": "function"
        },
        {
          "inputs": [],
          "name": "socialOracleAddress",
          "outputs": [
            {
              "internalType": "address",
              "name": "",
              "type": "address"
            }
          ],
          "stateMutability": "view",
          "type": "function"
        },
        {
          "inputs": [
            {
              "internalType": "uint256",
              "name": "eventId",
              "type": "uint256"
            }
          ],
          "name": "toggleEmergencyStop",
          "outputs": [],
          "stateMutability": "nonpayable",
          "type": "function"
        },
        {
          "inputs": [],
          "name": "withdraw",
          "outputs": [],
          "stateMutability": "nonpayable",
          "type": "function"
        }
      ],
      "evm": {
        "bytecode": {
          "linkReferences": {},
          "object": "60806040523462000031576200001f62000018620000e5565b90620001a4565b604051610ef4620001e48239610ef490f35b600080fd5b634e487b7160e01b600052604160045260246000fd5b90601f01601f191681019081106001600160401b038211176200006e57604052565b62000036565b906200008b6200008360405190565b92836200004c565b565b6001600160a01b031690565b90565b6001600160a01b038116036200003157565b905051906200008b826200009c565b9190604083820312620000315762000099906020620000dd8286620000ae565b9401620000ae565b62000108620010d880380380620000fc8162000074565b928339810190620000bd565b9091565b906001600160a01b03905b9181191691161790565b62000099906200008d906001600160a01b031682565b620000999062000121565b620000999062000137565b906200016162000099620001699262000142565b82546200010c565b9055565b6200009962000099620000999290565b906000199062000117565b906200019c6200009962000169926200016d565b82546200017d565b90620001db6200008b92620001bb3360006200014d565b620001d3620001cb60016200016d565b600162000188565b60046200014d565b60056200014d56fe6080604052600436101561001257600080fd5b60003560e01c80630b791430146100c257806330658198146100bd5780633ccfd60b146100b8578063677bd9ff146100b35780638822e6fd146100ae5780638da5cb5b146100a9578063977d996d146100a45780639a2e82401461009f5780639ed9c74d1461009a578063bed524d6146100955763f644b3bb036100d05761044e565b6103aa565b610396565b610343565b61031f565b610304565b6102e1565b6102c9565b6102ac565b610285565b6101fd565b805b036100d057565b600080fd5b905035906100e2826100c7565b565b906020828203126100d0576100f8916100d5565b90565b6100f86100f86100f89290565b90610112906100fb565b600052602052604060002090565b6100f89081565b6100f89054610120565b6100f8905b60ff1690565b6100f89054610131565b6100f89060081c610136565b6100f89054610146565b610167906002610108565b61017081610127565b9161017d60018301610127565b9161018a6002820161013c565b9161019760028301610152565b916101a460038201610127565b916100f860056101b660048501610127565b930161013c565b9052565b90815260e08101979695909490939092909160208601521515604085015215156060840152608083015260a082015260c0016100e29115159052565b346100d0576102316102186102133660046100e4565b61015c565b9361022897959793919360405190565b978897886101c1565b0390f35b60009103126100d057565b6100f8916008021c5b6001600160a01b031690565b906100f89154610240565b6100f860006004610255565b6101bd90610249565b6020810192916100e2919061026c565b346100d057610295366004610235565b6102316102a0610260565b60405191829182610275565b346100d0576102bc366004610235565b6102c461056c565b604051005b346100d0576102c46102dc3660046100e4565b6106fc565b346100d0576102c46102f43660046100e4565b610884565b6100f8600080610255565b346100d057610314366004610235565b6102316102a06102f9565b346100d0576102c46103323660046100e4565b610902565b6100f860006005610255565b346100d057610353366004610235565b6102316102a0610337565b8015156100c9565b905035906100e28261035e565b91906040838203126100d0576100f890602061038f82866100d5565b9401610366565b6102c46103a4366004610373565b90610d14565b346100d0576102c46103bd3660046100e4565b610eb5565b6100c981610249565b905035906100e2826103c2565b91906040838203126100d0576100f89060206103f482866100d5565b94016103cb565b6100f890610249906001600160a01b031682565b6100f8906103fb565b6100f89061040f565b9061011290610418565b9061043a61043f926003610108565b610421565b906100f860016101b684610127565b346100d0576104676104613660046103d8565b9061042b565b9061023161047460405190565b92839283908152901515602082015260400190565b6100f890610249565b6100f89054610489565b156104a357565b60405162461bcd60e51b815260206004820152602260248201527f4f6e6c79206f776e65722063616e2063616c6c20746869732066756e6374696f604482015261371760f11b6064820152608490fd5b6105176105086105036000610492565b610249565b61051133610249565b1461049c565b6100e261052b565b6040513d6000823e3d90fd5b600080808061053930610418565b3161054e61054961054984610492565b610418565b828215610563575bf11561055e57565b61051f565b506108fc610556565b6100e26104f3565b1561057b57565b60405162461bcd60e51b815260206004820152601c60248201527f4576656e7420686173206e6f74206265656e207265736f6c7665642e000000006044820152606490fd5b156105c757565b60405162461bcd60e51b815260206004820152601960248201527f5573657220686173206e6f2062657420746f20636c61696d2e000000000000006044820152606490fd5b90600019905b9181191691161790565b9061062c6100f8610633926100fb565b825461060c565b9055565b634e487b7160e01b600052601160045260246000fd5b8181029291811591840414171561066057565b610637565b634e487b7160e01b600052601260045260246000fd5b90610685565b9190565b908115610690570490565b610665565b1561069c57565b60405162461bcd60e51b815260206004820152603260248201527f496e73756666696369656e7420636f6e74726163742062616c616e636520746f604482015271103830bc9037baba103bb4b73734b733b99760711b6064820152608490fd5b600261071a6107158261070f8582610108565b01610152565b610574565b6107326100f861072b846003610108565b3390610421565b61073b81610127565b9261075460009461074e610681876100fb565b116105c0565b6107606001830161013c565b61078561077f61077a866107748682610108565b0161013c565b151590565b91151590565b0361080757826107e56107d58695946107d0876107bf60046107b3896107b960036107b3879e9d889e610108565b01610127565b99610108565b9201946107cb86610127565b61064d565b61067b565b916107df846100fb565b9061061c565b6107fb6107f130610418565b8290311015610695565b61054e61054933610418565b509050816108176100e2936100fb565b910161061c565b6100e2906108326105086105036000610492565b610857565b9060ff90610612565b906108506100f86106339261077a565b8254610837565b6100e290600561087e61087661087283610774866002610108565b1590565b926002610108565b01610840565b6100e29061081e565b60001981146106605760010190565b634e487b7160e01b600052604160045260246000fd5b90601f01601f1916810190811067ffffffffffffffff8211176108d457604052565b61089c565b9081526040810192916100e29160200152565b9081526040810192916100e2916020019061026c565b61090c6001610127565b906109206109198361088d565b600161061c565b610937826000610931826002610108565b0161061c565b610948816001610931856002610108565b6109586105496105496004610492565b803b156100d05761098d60009291839261097160405190565b948593849283919063938cfd6760e01b835289600484016108d9565b03925af1801561055e57610a0c575b506109ad6105496105496005610492565b803b156100d0576109e36000929183926109c660405190565b94859384928391906394bf804d60e01b83523390600484016108ec565b03925af1801561055e576109f45750565b6100e2906000610a0481836108b2565b810190610235565b610a1c906000610a0481836108b2565b3861099c565b15610a2957565b60405162461bcd60e51b815260206004820152601860248201527f4576656e7420686173206265656e207265736f6c7665642e00000000000000006044820152606490fd5b906100e291610a8d610a88610872600261070f8582610108565b610a22565b610c2d565b15610a9957565b60405162461bcd60e51b815260206004820152602160248201527f42657474696e672069732074656d706f726172696c792073757370656e6465646044820152601760f91b6064820152608490fd5b15610aef57565b60405162461bcd60e51b815260206004820152602260248201527f42657420616d6f756e74206d7573742062652067726561746572207468616e20604482015261181760f11b6064820152608490fd5b15610b4657565b60405162461bcd60e51b815260206004820152601e60248201527f557365722068617320616c726561647920706c616365642061206265742e00006044820152606490fd5b15610b9257565b60405162461bcd60e51b815260206004820152601160248201527024b73b30b634b21032bb32b73a1024a21760791b6044820152606490fd5b906100e2610bd860405190565b92836108b2565b6100f86040610bcb565b6001610c0f60206100e294610c08610c02600083015190565b8661061c565b0151151590565b9101610840565b906100e291610be9565b9190820180921161066057565b600291610c4a610c4561087260056107748688610108565b610a92565b610cfd6000610c62610c5b826100fb565b3411610ae8565b610cdf600391610c8e610c7c826107b361072b8a88610108565b610c88610681846100fb565b14610b3f565b610cb2610c9f826107b3898b610108565b610cab610681846100fb565b1415610b8b565b610cc5610cbd610bdf565b913490830152565b8415156020820152610cda61072b8785610108565b610c16565b610ce98486610108565b016107df610cf682610127565b3490610c20565b610d05575050565b610ce96004916100e293610108565b906100e291610a6e565b6100e290610d37610a88610872600261070f8582610108565b610de8565b905051906100e28261035e565b91906040838203126100d0576100f8906020610d658286610d3c565b9401610d3c565b15610d7357565b60405162461bcd60e51b8152602060048201526024808201527f5175657374696f6e206f7574636f6d65206e6f742064657465726d696e6564206044820152633cb2ba1760e11b6064820152608490fd5b9061ff009060081b610612565b90610de16100f86106339261077a565b8254610dc4565b6002610e09610dfc60006107b38585610108565b610cab61068160006100fb565b610e196105496105496004610492565b906040610e2560405190565b6325aaf90560e01b81526004810185905292839060249082905afa801561055e576100e293610e74610e7a92600195600080919092610e80575b50610e6990610d6c565b8461087e8482610108565b82610108565b01610dd1565b610e699250610ea7915060403d604011610eae575b610e9f81836108b2565b810190610d49565b9091610e5f565b503d610e95565b6100e290610d1e56fea2646970667358221220ed2b6d0ceea15e4d16c2a63ed5060c606944a108297e0c228b7c657835e3485b64736f6c63430008180033",
          "opcodes": "PUSH1 0x80 PUSH1 0x40 MSTORE CALLVALUE PUSH3 0x31 JUMPI PUSH3 0x1F PUSH3 0x18 PUSH3 0xE5 JUMP JUMPDEST SWAP1 PUSH3 0x1A4 JUMP JUMPDEST PUSH1 0x40 MLOAD PUSH2 0xEF4 PUSH3 0x1E4 DUP3 CODECOPY PUSH2 0xEF4 SWAP1 RETURN JUMPDEST PUSH1 0x0 DUP1 REVERT JUMPDEST PUSH4 0x4E487B71 PUSH1 0xE0 SHL PUSH1 0x0 MSTORE PUSH1 0x41 PUSH1 0x4 MSTORE PUSH1 0x24 PUSH1 0x0 REVERT JUMPDEST SWAP1 PUSH1 0x1F ADD PUSH1 0x1F NOT AND DUP2 ADD SWAP1 DUP2 LT PUSH1 0x1 PUSH1 0x1 PUSH1 0x40 SHL SUB DUP3 GT OR PUSH3 0x6E JUMPI PUSH1 0x40 MSTORE JUMP JUMPDEST PUSH3 0x36 JUMP JUMPDEST SWAP1 PUSH3 0x8B PUSH3 0x83 PUSH1 0x40 MLOAD SWAP1 JUMP JUMPDEST SWAP3 DUP4 PUSH3 0x4C JUMP JUMPDEST JUMP JUMPDEST PUSH1 0x1 PUSH1 0x1 PUSH1 0xA0 SHL SUB AND SWAP1 JUMP JUMPDEST SWAP1 JUMP JUMPDEST PUSH1 0x1 PUSH1 0x1 PUSH1 0xA0 SHL SUB DUP2 AND SUB PUSH3 0x31 JUMPI JUMP JUMPDEST SWAP1 POP MLOAD SWAP1 PUSH3 0x8B DUP3 PUSH3 0x9C JUMP JUMPDEST SWAP2 SWAP1 PUSH1 0x40 DUP4 DUP3 SUB SLT PUSH3 0x31 JUMPI PUSH3 0x99 SWAP1 PUSH1 0x20 PUSH3 0xDD DUP3 DUP7 PUSH3 0xAE JUMP JUMPDEST SWAP5 ADD PUSH3 0xAE JUMP JUMPDEST PUSH3 0x108 PUSH3 0x10D8 DUP1 CODESIZE SUB DUP1 PUSH3 0xFC DUP2 PUSH3 0x74 JUMP JUMPDEST SWAP3 DUP4 CODECOPY DUP2 ADD SWAP1 PUSH3 0xBD JUMP JUMPDEST SWAP1 SWAP2 JUMP JUMPDEST SWAP1 PUSH1 0x1 PUSH1 0x1 PUSH1 0xA0 SHL SUB SWAP1 JUMPDEST SWAP2 DUP2 NOT AND SWAP2 AND OR SWAP1 JUMP JUMPDEST PUSH3 0x99 SWAP1 PUSH3 0x8D SWAP1 PUSH1 0x1 PUSH1 0x1 PUSH1 0xA0 SHL SUB AND DUP3 JUMP JUMPDEST PUSH3 0x99 SWAP1 PUSH3 0x121 JUMP JUMPDEST PUSH3 0x99 SWAP1 PUSH3 0x137 JUMP JUMPDEST SWAP1 PUSH3 0x161 PUSH3 0x99 PUSH3 0x169 SWAP3 PUSH3 0x142 JUMP JUMPDEST DUP3 SLOAD PUSH3 0x10C JUMP JUMPDEST SWAP1 SSTORE JUMP JUMPDEST PUSH3 0x99 PUSH3 0x99 PUSH3 0x99 SWAP3 SWAP1 JUMP JUMPDEST SWAP1 PUSH1 0x0 NOT SWAP1 PUSH3 0x117 JUMP JUMPDEST SWAP1 PUSH3 0x19C PUSH3 0x99 PUSH3 0x169 SWAP3 PUSH3 0x16D JUMP JUMPDEST DUP3 SLOAD PUSH3 0x17D JUMP JUMPDEST SWAP1 PUSH3 0x1DB PUSH3 0x8B SWAP3 PUSH3 0x1BB CALLER PUSH1 0x0 PUSH3 0x14D JUMP JUMPDEST PUSH3 0x1D3 PUSH3 0x1CB PUSH1 0x1 PUSH3 0x16D JUMP JUMPDEST PUSH1 0x1 PUSH3 0x188 JUMP JUMPDEST PUSH1 0x4 PUSH3 0x14D JUMP JUMPDEST PUSH1 0x5 PUSH3 0x14D JUMP INVALID PUSH1 0x80 PUSH1 0x40 MSTORE PUSH1 0x4 CALLDATASIZE LT ISZERO PUSH2 0x12 JUMPI PUSH1 0x0 DUP1 REVERT JUMPDEST PUSH1 0x0 CALLDATALOAD PUSH1 0xE0 SHR DUP1 PUSH4 0xB791430 EQ PUSH2 0xC2 JUMPI DUP1 PUSH4 0x30658198 EQ PUSH2 0xBD JUMPI DUP1 PUSH4 0x3CCFD60B EQ PUSH2 0xB8 JUMPI DUP1 PUSH4 0x677BD9FF EQ PUSH2 0xB3 JUMPI DUP1 PUSH4 0x8822E6FD EQ PUSH2 0xAE JUMPI DUP1 PUSH4 0x8DA5CB5B EQ PUSH2 0xA9 JUMPI DUP1 PUSH4 0x977D996D EQ PUSH2 0xA4 JUMPI DUP1 PUSH4 0x9A2E8240 EQ PUSH2 0x9F JUMPI DUP1 PUSH4 0x9ED9C74D EQ PUSH2 0x9A JUMPI DUP1 PUSH4 0xBED524D6 EQ PUSH2 0x95 JUMPI PUSH4 0xF644B3BB SUB PUSH2 0xD0 JUMPI PUSH2 0x44E JUMP JUMPDEST PUSH2 0x3AA JUMP JUMPDEST PUSH2 0x396 JUMP JUMPDEST PUSH2 0x343 JUMP JUMPDEST PUSH2 0x31F JUMP JUMPDEST PUSH2 0x304 JUMP JUMPDEST PUSH2 0x2E1 JUMP JUMPDEST PUSH2 0x2C9 JUMP JUMPDEST PUSH2 0x2AC JUMP JUMPDEST PUSH2 0x285 JUMP JUMPDEST PUSH2 0x1FD JUMP JUMPDEST DUP1 JUMPDEST SUB PUSH2 0xD0 JUMPI JUMP JUMPDEST PUSH1 0x0 DUP1 REVERT JUMPDEST SWAP1 POP CALLDATALOAD SWAP1 PUSH2 0xE2 DUP3 PUSH2 0xC7 JUMP JUMPDEST JUMP JUMPDEST SWAP1 PUSH1 0x20 DUP3 DUP3 SUB SLT PUSH2 0xD0 JUMPI PUSH2 0xF8 SWAP2 PUSH2 0xD5 JUMP JUMPDEST SWAP1 JUMP JUMPDEST PUSH2 0xF8 PUSH2 0xF8 PUSH2 0xF8 SWAP3 SWAP1 JUMP JUMPDEST SWAP1 PUSH2 0x112 SWAP1 PUSH2 0xFB JUMP JUMPDEST PUSH1 0x0 MSTORE PUSH1 0x20 MSTORE PUSH1 0x40 PUSH1 0x0 KECCAK256 SWAP1 JUMP JUMPDEST PUSH2 0xF8 SWAP1 DUP2 JUMP JUMPDEST PUSH2 0xF8 SWAP1 SLOAD PUSH2 0x120 JUMP JUMPDEST PUSH2 0xF8 SWAP1 JUMPDEST PUSH1 0xFF AND SWAP1 JUMP JUMPDEST PUSH2 0xF8 SWAP1 SLOAD PUSH2 0x131 JUMP JUMPDEST PUSH2 0xF8 SWAP1 PUSH1 0x8 SHR PUSH2 0x136 JUMP JUMPDEST PUSH2 0xF8 SWAP1 SLOAD PUSH2 0x146 JUMP JUMPDEST PUSH2 0x167 SWAP1 PUSH1 0x2 PUSH2 0x108 JUMP JUMPDEST PUSH2 0x170 DUP2 PUSH2 0x127 JUMP JUMPDEST SWAP2 PUSH2 0x17D PUSH1 0x1 DUP4 ADD PUSH2 0x127 JUMP JUMPDEST SWAP2 PUSH2 0x18A PUSH1 0x2 DUP3 ADD PUSH2 0x13C JUMP JUMPDEST SWAP2 PUSH2 0x197 PUSH1 0x2 DUP4 ADD PUSH2 0x152 JUMP JUMPDEST SWAP2 PUSH2 0x1A4 PUSH1 0x3 DUP3 ADD PUSH2 0x127 JUMP JUMPDEST SWAP2 PUSH2 0xF8 PUSH1 0x5 PUSH2 0x1B6 PUSH1 0x4 DUP6 ADD PUSH2 0x127 JUMP JUMPDEST SWAP4 ADD PUSH2 0x13C JUMP JUMPDEST SWAP1 MSTORE JUMP JUMPDEST SWAP1 DUP2 MSTORE PUSH1 0xE0 DUP2 ADD SWAP8 SWAP7 SWAP6 SWAP1 SWAP5 SWAP1 SWAP4 SWAP1 SWAP3 SWAP1 SWAP2 PUSH1 0x20 DUP7 ADD MSTORE ISZERO ISZERO PUSH1 0x40 DUP6 ADD MSTORE ISZERO ISZERO PUSH1 0x60 DUP5 ADD MSTORE PUSH1 0x80 DUP4 ADD MSTORE PUSH1 0xA0 DUP3 ADD MSTORE PUSH1 0xC0 ADD PUSH2 0xE2 SWAP2 ISZERO ISZERO SWAP1 MSTORE JUMP JUMPDEST CALLVALUE PUSH2 0xD0 JUMPI PUSH2 0x231 PUSH2 0x218 PUSH2 0x213 CALLDATASIZE PUSH1 0x4 PUSH2 0xE4 JUMP JUMPDEST PUSH2 0x15C JUMP JUMPDEST SWAP4 PUSH2 0x228 SWAP8 SWAP6 SWAP8 SWAP4 SWAP2 SWAP4 PUSH1 0x40 MLOAD SWAP1 JUMP JUMPDEST SWAP8 DUP9 SWAP8 DUP9 PUSH2 0x1C1 JUMP JUMPDEST SUB SWAP1 RETURN JUMPDEST PUSH1 0x0 SWAP2 SUB SLT PUSH2 0xD0 JUMPI JUMP JUMPDEST PUSH2 0xF8 SWAP2 PUSH1 0x8 MUL SHR JUMPDEST PUSH1 0x1 PUSH1 0x1 PUSH1 0xA0 SHL SUB AND SWAP1 JUMP JUMPDEST SWAP1 PUSH2 0xF8 SWAP2 SLOAD PUSH2 0x240 JUMP JUMPDEST PUSH2 0xF8 PUSH1 0x0 PUSH1 0x4 PUSH2 0x255 JUMP JUMPDEST PUSH2 0x1BD SWAP1 PUSH2 0x249 JUMP JUMPDEST PUSH1 0x20 DUP2 ADD SWAP3 SWAP2 PUSH2 0xE2 SWAP2 SWAP1 PUSH2 0x26C JUMP JUMPDEST CALLVALUE PUSH2 0xD0 JUMPI PUSH2 0x295 CALLDATASIZE PUSH1 0x4 PUSH2 0x235 JUMP JUMPDEST PUSH2 0x231 PUSH2 0x2A0 PUSH2 0x260 JUMP JUMPDEST PUSH1 0x40 MLOAD SWAP2 DUP3 SWAP2 DUP3 PUSH2 0x275 JUMP JUMPDEST CALLVALUE PUSH2 0xD0 JUMPI PUSH2 0x2BC CALLDATASIZE PUSH1 0x4 PUSH2 0x235 JUMP JUMPDEST PUSH2 0x2C4 PUSH2 0x56C JUMP JUMPDEST PUSH1 0x40 MLOAD STOP JUMPDEST CALLVALUE PUSH2 0xD0 JUMPI PUSH2 0x2C4 PUSH2 0x2DC CALLDATASIZE PUSH1 0x4 PUSH2 0xE4 JUMP JUMPDEST PUSH2 0x6FC JUMP JUMPDEST CALLVALUE PUSH2 0xD0 JUMPI PUSH2 0x2C4 PUSH2 0x2F4 CALLDATASIZE PUSH1 0x4 PUSH2 0xE4 JUMP JUMPDEST PUSH2 0x884 JUMP JUMPDEST PUSH2 0xF8 PUSH1 0x0 DUP1 PUSH2 0x255 JUMP JUMPDEST CALLVALUE PUSH2 0xD0 JUMPI PUSH2 0x314 CALLDATASIZE PUSH1 0x4 PUSH2 0x235 JUMP JUMPDEST PUSH2 0x231 PUSH2 0x2A0 PUSH2 0x2F9 JUMP JUMPDEST CALLVALUE PUSH2 0xD0 JUMPI PUSH2 0x2C4 PUSH2 0x332 CALLDATASIZE PUSH1 0x4 PUSH2 0xE4 JUMP JUMPDEST PUSH2 0x902 JUMP JUMPDEST PUSH2 0xF8 PUSH1 0x0 PUSH1 0x5 PUSH2 0x255 JUMP JUMPDEST CALLVALUE PUSH2 0xD0 JUMPI PUSH2 0x353 CALLDATASIZE PUSH1 0x4 PUSH2 0x235 JUMP JUMPDEST PUSH2 0x231 PUSH2 0x2A0 PUSH2 0x337 JUMP JUMPDEST DUP1 ISZERO ISZERO PUSH2 0xC9 JUMP JUMPDEST SWAP1 POP CALLDATALOAD SWAP1 PUSH2 0xE2 DUP3 PUSH2 0x35E JUMP JUMPDEST SWAP2 SWAP1 PUSH1 0x40 DUP4 DUP3 SUB SLT PUSH2 0xD0 JUMPI PUSH2 0xF8 SWAP1 PUSH1 0x20 PUSH2 0x38F DUP3 DUP7 PUSH2 0xD5 JUMP JUMPDEST SWAP5 ADD PUSH2 0x366 JUMP JUMPDEST PUSH2 0x2C4 PUSH2 0x3A4 CALLDATASIZE PUSH1 0x4 PUSH2 0x373 JUMP JUMPDEST SWAP1 PUSH2 0xD14 JUMP JUMPDEST CALLVALUE PUSH2 0xD0 JUMPI PUSH2 0x2C4 PUSH2 0x3BD CALLDATASIZE PUSH1 0x4 PUSH2 0xE4 JUMP JUMPDEST PUSH2 0xEB5 JUMP JUMPDEST PUSH2 0xC9 DUP2 PUSH2 0x249 JUMP JUMPDEST SWAP1 POP CALLDATALOAD SWAP1 PUSH2 0xE2 DUP3 PUSH2 0x3C2 JUMP JUMPDEST SWAP2 SWAP1 PUSH1 0x40 DUP4 DUP3 SUB SLT PUSH2 0xD0 JUMPI PUSH2 0xF8 SWAP1 PUSH1 0x20 PUSH2 0x3F4 DUP3 DUP7 PUSH2 0xD5 JUMP JUMPDEST SWAP5 ADD PUSH2 0x3CB JUMP JUMPDEST PUSH2 0xF8 SWAP1 PUSH2 0x249 SWAP1 PUSH1 0x1 PUSH1 0x1 PUSH1 0xA0 SHL SUB AND DUP3 JUMP JUMPDEST PUSH2 0xF8 SWAP1 PUSH2 0x3FB JUMP JUMPDEST PUSH2 0xF8 SWAP1 PUSH2 0x40F JUMP JUMPDEST SWAP1 PUSH2 0x112 SWAP1 PUSH2 0x418 JUMP JUMPDEST SWAP1 PUSH2 0x43A PUSH2 0x43F SWAP3 PUSH1 0x3 PUSH2 0x108 JUMP JUMPDEST PUSH2 0x421 JUMP JUMPDEST SWAP1 PUSH2 0xF8 PUSH1 0x1 PUSH2 0x1B6 DUP5 PUSH2 0x127 JUMP JUMPDEST CALLVALUE PUSH2 0xD0 JUMPI PUSH2 0x467 PUSH2 0x461 CALLDATASIZE PUSH1 0x4 PUSH2 0x3D8 JUMP JUMPDEST SWAP1 PUSH2 0x42B JUMP JUMPDEST SWAP1 PUSH2 0x231 PUSH2 0x474 PUSH1 0x40 MLOAD SWAP1 JUMP JUMPDEST SWAP3 DUP4 SWAP3 DUP4 SWAP1 DUP2 MSTORE SWAP1 ISZERO ISZERO PUSH1 0x20 DUP3 ADD MSTORE PUSH1 0x40 ADD SWAP1 JUMP JUMPDEST PUSH2 0xF8 SWAP1 PUSH2 0x249 JUMP JUMPDEST PUSH2 0xF8 SWAP1 SLOAD PUSH2 0x489 JUMP JUMPDEST ISZERO PUSH2 0x4A3 JUMPI JUMP JUMPDEST PUSH1 0x40 MLOAD PUSH3 0x461BCD PUSH1 0xE5 SHL DUP2 MSTORE PUSH1 0x20 PUSH1 0x4 DUP3 ADD MSTORE PUSH1 0x22 PUSH1 0x24 DUP3 ADD MSTORE PUSH32 0x4F6E6C79206F776E65722063616E2063616C6C20746869732066756E6374696F PUSH1 0x44 DUP3 ADD MSTORE PUSH2 0x3717 PUSH1 0xF1 SHL PUSH1 0x64 DUP3 ADD MSTORE PUSH1 0x84 SWAP1 REVERT JUMPDEST PUSH2 0x517 PUSH2 0x508 PUSH2 0x503 PUSH1 0x0 PUSH2 0x492 JUMP JUMPDEST PUSH2 0x249 JUMP JUMPDEST PUSH2 0x511 CALLER PUSH2 0x249 JUMP JUMPDEST EQ PUSH2 0x49C JUMP JUMPDEST PUSH2 0xE2 PUSH2 0x52B JUMP JUMPDEST PUSH1 0x40 MLOAD RETURNDATASIZE PUSH1 0x0 DUP3 RETURNDATACOPY RETURNDATASIZE SWAP1 REVERT JUMPDEST PUSH1 0x0 DUP1 DUP1 DUP1 PUSH2 0x539 ADDRESS PUSH2 0x418 JUMP JUMPDEST BALANCE PUSH2 0x54E PUSH2 0x549 PUSH2 0x549 DUP5 PUSH2 0x492 JUMP JUMPDEST PUSH2 0x418 JUMP JUMPDEST DUP3 DUP3 ISZERO PUSH2 0x563 JUMPI JUMPDEST CALL ISZERO PUSH2 0x55E JUMPI JUMP JUMPDEST PUSH2 0x51F JUMP JUMPDEST POP PUSH2 0x8FC PUSH2 0x556 JUMP JUMPDEST PUSH2 0xE2 PUSH2 0x4F3 JUMP JUMPDEST ISZERO PUSH2 0x57B JUMPI JUMP JUMPDEST PUSH1 0x40 MLOAD PUSH3 0x461BCD PUSH1 0xE5 SHL DUP2 MSTORE PUSH1 0x20 PUSH1 0x4 DUP3 ADD MSTORE PUSH1 0x1C PUSH1 0x24 DUP3 ADD MSTORE PUSH32 0x4576656E7420686173206E6F74206265656E207265736F6C7665642E00000000 PUSH1 0x44 DUP3 ADD MSTORE PUSH1 0x64 SWAP1 REVERT JUMPDEST ISZERO PUSH2 0x5C7 JUMPI JUMP JUMPDEST PUSH1 0x40 MLOAD PUSH3 0x461BCD PUSH1 0xE5 SHL DUP2 MSTORE PUSH1 0x20 PUSH1 0x4 DUP3 ADD MSTORE PUSH1 0x19 PUSH1 0x24 DUP3 ADD MSTORE PUSH32 0x5573657220686173206E6F2062657420746F20636C61696D2E00000000000000 PUSH1 0x44 DUP3 ADD MSTORE PUSH1 0x64 SWAP1 REVERT JUMPDEST SWAP1 PUSH1 0x0 NOT SWAP1 JUMPDEST SWAP2 DUP2 NOT AND SWAP2 AND OR SWAP1 JUMP JUMPDEST SWAP1 PUSH2 0x62C PUSH2 0xF8 PUSH2 0x633 SWAP3 PUSH2 0xFB JUMP JUMPDEST DUP3 SLOAD PUSH2 0x60C JUMP JUMPDEST SWAP1 SSTORE JUMP JUMPDEST PUSH4 0x4E487B71 PUSH1 0xE0 SHL PUSH1 0x0 MSTORE PUSH1 0x11 PUSH1 0x4 MSTORE PUSH1 0x24 PUSH1 0x0 REVERT JUMPDEST DUP2 DUP2 MUL SWAP3 SWAP2 DUP2 ISZERO SWAP2 DUP5 DIV EQ OR ISZERO PUSH2 0x660 JUMPI JUMP JUMPDEST PUSH2 0x637 JUMP JUMPDEST PUSH4 0x4E487B71 PUSH1 0xE0 SHL PUSH1 0x0 MSTORE PUSH1 0x12 PUSH1 0x4 MSTORE PUSH1 0x24 PUSH1 0x0 REVERT JUMPDEST SWAP1 PUSH2 0x685 JUMP JUMPDEST SWAP2 SWAP1 JUMP JUMPDEST SWAP1 DUP2 ISZERO PUSH2 0x690 JUMPI DIV SWAP1 JUMP JUMPDEST PUSH2 0x665 JUMP JUMPDEST ISZERO PUSH2 0x69C JUMPI JUMP JUMPDEST PUSH1 0x40 MLOAD PUSH3 0x461BCD PUSH1 0xE5 SHL DUP2 MSTORE PUSH1 0x20 PUSH1 0x4 DUP3 ADD MSTORE PUSH1 0x32 PUSH1 0x24 DUP3 ADD MSTORE PUSH32 0x496E73756666696369656E7420636F6E74726163742062616C616E636520746F PUSH1 0x44 DUP3 ADD MSTORE PUSH18 0x103830BC9037BABA103BB4B73734B733B997 PUSH1 0x71 SHL PUSH1 0x64 DUP3 ADD MSTORE PUSH1 0x84 SWAP1 REVERT JUMPDEST PUSH1 0x2 PUSH2 0x71A PUSH2 0x715 DUP3 PUSH2 0x70F DUP6 DUP3 PUSH2 0x108 JUMP JUMPDEST ADD PUSH2 0x152 JUMP JUMPDEST PUSH2 0x574 JUMP JUMPDEST PUSH2 0x732 PUSH2 0xF8 PUSH2 0x72B DUP5 PUSH1 0x3 PUSH2 0x108 JUMP JUMPDEST CALLER SWAP1 PUSH2 0x421 JUMP JUMPDEST PUSH2 0x73B DUP2 PUSH2 0x127 JUMP JUMPDEST SWAP3 PUSH2 0x754 PUSH1 0x0 SWAP5 PUSH2 0x74E PUSH2 0x681 DUP8 PUSH2 0xFB JUMP JUMPDEST GT PUSH2 0x5C0 JUMP JUMPDEST PUSH2 0x760 PUSH1 0x1 DUP4 ADD PUSH2 0x13C JUMP JUMPDEST PUSH2 0x785 PUSH2 0x77F PUSH2 0x77A DUP7 PUSH2 0x774 DUP7 DUP3 PUSH2 0x108 JUMP JUMPDEST ADD PUSH2 0x13C JUMP JUMPDEST ISZERO ISZERO SWAP1 JUMP JUMPDEST SWAP2 ISZERO ISZERO SWAP1 JUMP JUMPDEST SUB PUSH2 0x807 JUMPI DUP3 PUSH2 0x7E5 PUSH2 0x7D5 DUP7 SWAP6 SWAP5 PUSH2 0x7D0 DUP8 PUSH2 0x7BF PUSH1 0x4 PUSH2 0x7B3 DUP10 PUSH2 0x7B9 PUSH1 0x3 PUSH2 0x7B3 DUP8 SWAP15 SWAP14 DUP9 SWAP15 PUSH2 0x108 JUMP JUMPDEST ADD PUSH2 0x127 JUMP JUMPDEST SWAP10 PUSH2 0x108 JUMP JUMPDEST SWAP3 ADD SWAP5 PUSH2 0x7CB DUP7 PUSH2 0x127 JUMP JUMPDEST PUSH2 0x64D JUMP JUMPDEST PUSH2 0x67B JUMP JUMPDEST SWAP2 PUSH2 0x7DF DUP5 PUSH2 0xFB JUMP JUMPDEST SWAP1 PUSH2 0x61C JUMP JUMPDEST PUSH2 0x7FB PUSH2 0x7F1 ADDRESS PUSH2 0x418 JUMP JUMPDEST DUP3 SWAP1 BALANCE LT ISZERO PUSH2 0x695 JUMP JUMPDEST PUSH2 0x54E PUSH2 0x549 CALLER PUSH2 0x418 JUMP JUMPDEST POP SWAP1 POP DUP2 PUSH2 0x817 PUSH2 0xE2 SWAP4 PUSH2 0xFB JUMP JUMPDEST SWAP2 ADD PUSH2 0x61C JUMP JUMPDEST PUSH2 0xE2 SWAP1 PUSH2 0x832 PUSH2 0x508 PUSH2 0x503 PUSH1 0x0 PUSH2 0x492 JUMP JUMPDEST PUSH2 0x857 JUMP JUMPDEST SWAP1 PUSH1 0xFF SWAP1 PUSH2 0x612 JUMP JUMPDEST SWAP1 PUSH2 0x850 PUSH2 0xF8 PUSH2 0x633 SWAP3 PUSH2 0x77A JUMP JUMPDEST DUP3 SLOAD PUSH2 0x837 JUMP JUMPDEST PUSH2 0xE2 SWAP1 PUSH1 0x5 PUSH2 0x87E PUSH2 0x876 PUSH2 0x872 DUP4 PUSH2 0x774 DUP7 PUSH1 0x2 PUSH2 0x108 JUMP JUMPDEST ISZERO SWAP1 JUMP JUMPDEST SWAP3 PUSH1 0x2 PUSH2 0x108 JUMP JUMPDEST ADD PUSH2 0x840 JUMP JUMPDEST PUSH2 0xE2 SWAP1 PUSH2 0x81E JUMP JUMPDEST PUSH1 0x0 NOT DUP2 EQ PUSH2 0x660 JUMPI PUSH1 0x1 ADD SWAP1 JUMP JUMPDEST PUSH4 0x4E487B71 PUSH1 0xE0 SHL PUSH1 0x0 MSTORE PUSH1 0x41 PUSH1 0x4 MSTORE PUSH1 0x24 PUSH1 0x0 REVERT JUMPDEST SWAP1 PUSH1 0x1F ADD PUSH1 0x1F NOT AND DUP2 ADD SWAP1 DUP2 LT PUSH8 0xFFFFFFFFFFFFFFFF DUP3 GT OR PUSH2 0x8D4 JUMPI PUSH1 0x40 MSTORE JUMP JUMPDEST PUSH2 0x89C JUMP JUMPDEST SWAP1 DUP2 MSTORE PUSH1 0x40 DUP2 ADD SWAP3 SWAP2 PUSH2 0xE2 SWAP2 PUSH1 0x20 ADD MSTORE JUMP JUMPDEST SWAP1 DUP2 MSTORE PUSH1 0x40 DUP2 ADD SWAP3 SWAP2 PUSH2 0xE2 SWAP2 PUSH1 0x20 ADD SWAP1 PUSH2 0x26C JUMP JUMPDEST PUSH2 0x90C PUSH1 0x1 PUSH2 0x127 JUMP JUMPDEST SWAP1 PUSH2 0x920 PUSH2 0x919 DUP4 PUSH2 0x88D JUMP JUMPDEST PUSH1 0x1 PUSH2 0x61C JUMP JUMPDEST PUSH2 0x937 DUP3 PUSH1 0x0 PUSH2 0x931 DUP3 PUSH1 0x2 PUSH2 0x108 JUMP JUMPDEST ADD PUSH2 0x61C JUMP JUMPDEST PUSH2 0x948 DUP2 PUSH1 0x1 PUSH2 0x931 DUP6 PUSH1 0x2 PUSH2 0x108 JUMP JUMPDEST PUSH2 0x958 PUSH2 0x549 PUSH2 0x549 PUSH1 0x4 PUSH2 0x492 JUMP JUMPDEST DUP1 EXTCODESIZE ISZERO PUSH2 0xD0 JUMPI PUSH2 0x98D PUSH1 0x0 SWAP3 SWAP2 DUP4 SWAP3 PUSH2 0x971 PUSH1 0x40 MLOAD SWAP1 JUMP JUMPDEST SWAP5 DUP6 SWAP4 DUP5 SWAP3 DUP4 SWAP2 SWAP1 PUSH4 0x938CFD67 PUSH1 0xE0 SHL DUP4 MSTORE DUP10 PUSH1 0x4 DUP5 ADD PUSH2 0x8D9 JUMP JUMPDEST SUB SWAP3 GAS CALL DUP1 ISZERO PUSH2 0x55E JUMPI PUSH2 0xA0C JUMPI JUMPDEST POP PUSH2 0x9AD PUSH2 0x549 PUSH2 0x549 PUSH1 0x5 PUSH2 0x492 JUMP JUMPDEST DUP1 EXTCODESIZE ISZERO PUSH2 0xD0 JUMPI PUSH2 0x9E3 PUSH1 0x0 SWAP3 SWAP2 DUP4 SWAP3 PUSH2 0x9C6 PUSH1 0x40 MLOAD SWAP1 JUMP JUMPDEST SWAP5 DUP6 SWAP4 DUP5 SWAP3 DUP4 SWAP2 SWAP1 PUSH4 0x94BF804D PUSH1 0xE0 SHL DUP4 MSTORE CALLER SWAP1 PUSH1 0x4 DUP5 ADD PUSH2 0x8EC JUMP JUMPDEST SUB SWAP3 GAS CALL DUP1 ISZERO PUSH2 0x55E JUMPI PUSH2 0x9F4 JUMPI POP JUMP JUMPDEST PUSH2 0xE2 SWAP1 PUSH1 0x0 PUSH2 0xA04 DUP2 DUP4 PUSH2 0x8B2 JUMP JUMPDEST DUP2 ADD SWAP1 PUSH2 0x235 JUMP JUMPDEST PUSH2 0xA1C SWAP1 PUSH1 0x0 PUSH2 0xA04 DUP2 DUP4 PUSH2 0x8B2 JUMP JUMPDEST CODESIZE PUSH2 0x99C JUMP JUMPDEST ISZERO PUSH2 0xA29 JUMPI JUMP JUMPDEST PUSH1 0x40 MLOAD PUSH3 0x461BCD PUSH1 0xE5 SHL DUP2 MSTORE PUSH1 0x20 PUSH1 0x4 DUP3 ADD MSTORE PUSH1 0x18 PUSH1 0x24 DUP3 ADD MSTORE PUSH32 0x4576656E7420686173206265656E207265736F6C7665642E0000000000000000 PUSH1 0x44 DUP3 ADD MSTORE PUSH1 0x64 SWAP1 REVERT JUMPDEST SWAP1 PUSH2 0xE2 SWAP2 PUSH2 0xA8D PUSH2 0xA88 PUSH2 0x872 PUSH1 0x2 PUSH2 0x70F DUP6 DUP3 PUSH2 0x108 JUMP JUMPDEST PUSH2 0xA22 JUMP JUMPDEST PUSH2 0xC2D JUMP JUMPDEST ISZERO PUSH2 0xA99 JUMPI JUMP JUMPDEST PUSH1 0x40 MLOAD PUSH3 0x461BCD PUSH1 0xE5 SHL DUP2 MSTORE PUSH1 0x20 PUSH1 0x4 DUP3 ADD MSTORE PUSH1 0x21 PUSH1 0x24 DUP3 ADD MSTORE PUSH32 0x42657474696E672069732074656D706F726172696C792073757370656E646564 PUSH1 0x44 DUP3 ADD MSTORE PUSH1 0x17 PUSH1 0xF9 SHL PUSH1 0x64 DUP3 ADD MSTORE PUSH1 0x84 SWAP1 REVERT JUMPDEST ISZERO PUSH2 0xAEF JUMPI JUMP JUMPDEST PUSH1 0x40 MLOAD PUSH3 0x461BCD PUSH1 0xE5 SHL DUP2 MSTORE PUSH1 0x20 PUSH1 0x4 DUP3 ADD MSTORE PUSH1 0x22 PUSH1 0x24 DUP3 ADD MSTORE PUSH32 0x42657420616D6F756E74206D7573742062652067726561746572207468616E20 PUSH1 0x44 DUP3 ADD MSTORE PUSH2 0x1817 PUSH1 0xF1 SHL PUSH1 0x64 DUP3 ADD MSTORE PUSH1 0x84 SWAP1 REVERT JUMPDEST ISZERO PUSH2 0xB46 JUMPI JUMP JUMPDEST PUSH1 0x40 MLOAD PUSH3 0x461BCD PUSH1 0xE5 SHL DUP2 MSTORE PUSH1 0x20 PUSH1 0x4 DUP3 ADD MSTORE PUSH1 0x1E PUSH1 0x24 DUP3 ADD MSTORE PUSH32 0x557365722068617320616C726561647920706C616365642061206265742E0000 PUSH1 0x44 DUP3 ADD MSTORE PUSH1 0x64 SWAP1 REVERT JUMPDEST ISZERO PUSH2 0xB92 JUMPI JUMP JUMPDEST PUSH1 0x40 MLOAD PUSH3 0x461BCD PUSH1 0xE5 SHL DUP2 MSTORE PUSH1 0x20 PUSH1 0x4 DUP3 ADD MSTORE PUSH1 0x11 PUSH1 0x24 DUP3 ADD MSTORE PUSH17 0x24B73B30B634B21032BB32B73A1024A217 PUSH1 0x79 SHL PUSH1 0x44 DUP3 ADD MSTORE PUSH1 0x64 SWAP1 REVERT JUMPDEST SWAP1 PUSH2 0xE2 PUSH2 0xBD8 PUSH1 0x40 MLOAD SWAP1 JUMP JUMPDEST SWAP3 DUP4 PUSH2 0x8B2 JUMP JUMPDEST PUSH2 0xF8 PUSH1 0x40 PUSH2 0xBCB JUMP JUMPDEST PUSH1 0x1 PUSH2 0xC0F PUSH1 0x20 PUSH2 0xE2 SWAP5 PUSH2 0xC08 PUSH2 0xC02 PUSH1 0x0 DUP4 ADD MLOAD SWAP1 JUMP JUMPDEST DUP7 PUSH2 0x61C JUMP JUMPDEST ADD MLOAD ISZERO ISZERO SWAP1 JUMP JUMPDEST SWAP2 ADD PUSH2 0x840 JUMP JUMPDEST SWAP1 PUSH2 0xE2 SWAP2 PUSH2 0xBE9 JUMP JUMPDEST SWAP2 SWAP1 DUP3 ADD DUP1 SWAP3 GT PUSH2 0x660 JUMPI JUMP JUMPDEST PUSH1 0x2 SWAP2 PUSH2 0xC4A PUSH2 0xC45 PUSH2 0x872 PUSH1 0x5 PUSH2 0x774 DUP7 DUP9 PUSH2 0x108 JUMP JUMPDEST PUSH2 0xA92 JUMP JUMPDEST PUSH2 0xCFD PUSH1 0x0 PUSH2 0xC62 PUSH2 0xC5B DUP3 PUSH2 0xFB JUMP JUMPDEST CALLVALUE GT PUSH2 0xAE8 JUMP JUMPDEST PUSH2 0xCDF PUSH1 0x3 SWAP2 PUSH2 0xC8E PUSH2 0xC7C DUP3 PUSH2 0x7B3 PUSH2 0x72B DUP11 DUP9 PUSH2 0x108 JUMP JUMPDEST PUSH2 0xC88 PUSH2 0x681 DUP5 PUSH2 0xFB JUMP JUMPDEST EQ PUSH2 0xB3F JUMP JUMPDEST PUSH2 0xCB2 PUSH2 0xC9F DUP3 PUSH2 0x7B3 DUP10 DUP12 PUSH2 0x108 JUMP JUMPDEST PUSH2 0xCAB PUSH2 0x681 DUP5 PUSH2 0xFB JUMP JUMPDEST EQ ISZERO PUSH2 0xB8B JUMP JUMPDEST PUSH2 0xCC5 PUSH2 0xCBD PUSH2 0xBDF JUMP JUMPDEST SWAP2 CALLVALUE SWAP1 DUP4 ADD MSTORE JUMP JUMPDEST DUP5 ISZERO ISZERO PUSH1 0x20 DUP3 ADD MSTORE PUSH2 0xCDA PUSH2 0x72B DUP8 DUP6 PUSH2 0x108 JUMP JUMPDEST PUSH2 0xC16 JUMP JUMPDEST PUSH2 0xCE9 DUP5 DUP7 PUSH2 0x108 JUMP JUMPDEST ADD PUSH2 0x7DF PUSH2 0xCF6 DUP3 PUSH2 0x127 JUMP JUMPDEST CALLVALUE SWAP1 PUSH2 0xC20 JUMP JUMPDEST PUSH2 0xD05 JUMPI POP POP JUMP JUMPDEST PUSH2 0xCE9 PUSH1 0x4 SWAP2 PUSH2 0xE2 SWAP4 PUSH2 0x108 JUMP JUMPDEST SWAP1 PUSH2 0xE2 SWAP2 PUSH2 0xA6E JUMP JUMPDEST PUSH2 0xE2 SWAP1 PUSH2 0xD37 PUSH2 0xA88 PUSH2 0x872 PUSH1 0x2 PUSH2 0x70F DUP6 DUP3 PUSH2 0x108 JUMP JUMPDEST PUSH2 0xDE8 JUMP JUMPDEST SWAP1 POP MLOAD SWAP1 PUSH2 0xE2 DUP3 PUSH2 0x35E JUMP JUMPDEST SWAP2 SWAP1 PUSH1 0x40 DUP4 DUP3 SUB SLT PUSH2 0xD0 JUMPI PUSH2 0xF8 SWAP1 PUSH1 0x20 PUSH2 0xD65 DUP3 DUP7 PUSH2 0xD3C JUMP JUMPDEST SWAP5 ADD PUSH2 0xD3C JUMP JUMPDEST ISZERO PUSH2 0xD73 JUMPI JUMP JUMPDEST PUSH1 0x40 MLOAD PUSH3 0x461BCD PUSH1 0xE5 SHL DUP2 MSTORE PUSH1 0x20 PUSH1 0x4 DUP3 ADD MSTORE PUSH1 0x24 DUP1 DUP3 ADD MSTORE PUSH32 0x5175657374696F6E206F7574636F6D65206E6F742064657465726D696E656420 PUSH1 0x44 DUP3 ADD MSTORE PUSH4 0x3CB2BA17 PUSH1 0xE1 SHL PUSH1 0x64 DUP3 ADD MSTORE PUSH1 0x84 SWAP1 REVERT JUMPDEST SWAP1 PUSH2 0xFF00 SWAP1 PUSH1 0x8 SHL PUSH2 0x612 JUMP JUMPDEST SWAP1 PUSH2 0xDE1 PUSH2 0xF8 PUSH2 0x633 SWAP3 PUSH2 0x77A JUMP JUMPDEST DUP3 SLOAD PUSH2 0xDC4 JUMP JUMPDEST PUSH1 0x2 PUSH2 0xE09 PUSH2 0xDFC PUSH1 0x0 PUSH2 0x7B3 DUP6 DUP6 PUSH2 0x108 JUMP JUMPDEST PUSH2 0xCAB PUSH2 0x681 PUSH1 0x0 PUSH2 0xFB JUMP JUMPDEST PUSH2 0xE19 PUSH2 0x549 PUSH2 0x549 PUSH1 0x4 PUSH2 0x492 JUMP JUMPDEST SWAP1 PUSH1 0x40 PUSH2 0xE25 PUSH1 0x40 MLOAD SWAP1 JUMP JUMPDEST PUSH4 0x25AAF905 PUSH1 0xE0 SHL DUP2 MSTORE PUSH1 0x4 DUP2 ADD DUP6 SWAP1 MSTORE SWAP3 DUP4 SWAP1 PUSH1 0x24 SWAP1 DUP3 SWAP1 GAS STATICCALL DUP1 ISZERO PUSH2 0x55E JUMPI PUSH2 0xE2 SWAP4 PUSH2 0xE74 PUSH2 0xE7A SWAP3 PUSH1 0x1 SWAP6 PUSH1 0x0 DUP1 SWAP2 SWAP1 SWAP3 PUSH2 0xE80 JUMPI JUMPDEST POP PUSH2 0xE69 SWAP1 PUSH2 0xD6C JUMP JUMPDEST DUP5 PUSH2 0x87E DUP5 DUP3 PUSH2 0x108 JUMP JUMPDEST DUP3 PUSH2 0x108 JUMP JUMPDEST ADD PUSH2 0xDD1 JUMP JUMPDEST PUSH2 0xE69 SWAP3 POP PUSH2 0xEA7 SWAP2 POP PUSH1 0x40 RETURNDATASIZE PUSH1 0x40 GT PUSH2 0xEAE JUMPI JUMPDEST PUSH2 0xE9F DUP2 DUP4 PUSH2 0x8B2 JUMP JUMPDEST DUP2 ADD SWAP1 PUSH2 0xD49 JUMP JUMPDEST SWAP1 SWAP2 PUSH2 0xE5F JUMP JUMPDEST POP RETURNDATASIZE PUSH2 0xE95 JUMP JUMPDEST PUSH2 0xE2 SWAP1 PUSH2 0xD1E JUMP INVALID LOG2 PUSH5 0x6970667358 0x22 SLT KECCAK256 0xED 0x2B PUSH14 0xCEEA15E4D16C2A63ED5060C6069 PREVRANDAO LOG1 ADDMOD 0x29 PUSH31 0xC228B7C657835E3485B64736F6C6343000818003300000000000000000000 "
        },
        "methodIdentifiers": {
          "bets(uint256,address)": "f644b3bb",
          "claimWinnings(uint256)": "677bd9ff",
          "createEvent(uint256)": "977d996d",
          "events(uint256)": "0b791430",
          "matchNFTAddress()": "9a2e8240",
          "owner()": "8da5cb5b",
          "placeBet(uint256,bool)": "9ed9c74d",
          "resolveEvent(uint256)": "bed524d6",
          "socialOracleAddress()": "30658198",
          "toggleEmergencyStop(uint256)": "8822e6fd",
          "withdraw()": "3ccfd60b"
        }
      }
    }
  }
}