{
  "contracts/DecentralizedBetting.sol": {
    "DecentralizedBetting": {
      "abi": [
        {
          "inputs": [
            {
              "internalType": "address",
              "name": "_socialOracleAddress",
              "type": "address"
            },
            {
              "internalType": "address",
              "name": "_matchNFTAddress",
              "type": "address"
            }
          ],
          "stateMutability": "nonpayable",
          "type": "constructor"
        },
        {
          "inputs": [
            {
              "internalType": "uint256",
              "name": "",
              "type": "uint256"
            },
            {
              "internalType": "address",
              "name": "",
              "type": "address"
            }
          ],
          "name": "bets",
          "outputs": [
            {
              "internalType": "uint256",
              "name": "amount",
              "type": "uint256"
            },
            {
              "internalType": "bool",
              "name": "prediction",
              "type": "bool"
            }
          ],
          "stateMutability": "view",
          "type": "function"
        },
        {
          "inputs": [
            {
              "internalType": "uint256",
              "name": "eventId",
              "type": "uint256"
            }
          ],
          "name": "claimWinnings",
          "outputs": [],
          "stateMutability": "nonpayable",
          "type": "function"
        },
        {
          "inputs": [
            {
              "internalType": "uint256",
              "name": "timestamp",
              "type": "uint256"
            },
            {
              "internalType": "string",
              "name": "description",
              "type": "string"
            }
          ],
          "name": "createEvent",
          "outputs": [],
          "stateMutability": "nonpayable",
          "type": "function"
        },
        {
          "inputs": [
            {
              "internalType": "uint256",
              "name": "",
              "type": "uint256"
            }
          ],
          "name": "events",
          "outputs": [
            {
              "internalType": "uint256",
              "name": "id",
              "type": "uint256"
            },
            {
              "internalType": "uint256",
              "name": "timestamp",
              "type": "uint256"
            },
            {
              "internalType": "bool",
              "name": "outcome",
              "type": "bool"
            },
            {
              "internalType": "bool",
              "name": "resolved",
              "type": "bool"
            },
            {
              "internalType": "uint256",
              "name": "totalPot",
              "type": "uint256"
            },
            {
              "internalType": "uint256",
              "name": "winningPot",
              "type": "uint256"
            },
            {
              "internalType": "bool",
              "name": "emergencyStop",
              "type": "bool"
            }
          ],
          "stateMutability": "view",
          "type": "function"
        },
        {
          "inputs": [],
          "name": "matchNFTAddress",
          "outputs": [
            {
              "internalType": "address",
              "name": "",
              "type": "address"
            }
          ],
          "stateMutability": "view",
          "type": "function"
        },
        {
          "inputs": [],
          "name": "owner",
          "outputs": [
            {
              "internalType": "address",
              "name": "",
              "type": "address"
            }
          ],
          "stateMutability": "view",
          "type": "function"
        },
        {
          "inputs": [
            {
              "internalType": "uint256",
              "name": "eventId",
              "type": "uint256"
            },
            {
              "internalType": "bool",
              "name": "prediction",
              "type": "bool"
            }
          ],
          "name": "placeBet",
          "outputs": [],
          "stateMutability": "payable",
          "type": "function"
        },
        {
          "inputs": [
            {
              "internalType": "uint256",
              "name": "eventId",
              "type": "uint256"
            }
          ],
          "name": "resolveEvent",
          "outputs": [],
          "stateMutability": "nonpayable",
          "type": "function"
        },
        {
          "inputs": [],
          "name": "socialOracleAddress",
          "outputs": [
            {
              "internalType": "address",
              "name": "",
              "type": "address"
            }
          ],
          "stateMutability": "view",
          "type": "function"
        },
        {
          "inputs": [
            {
              "internalType": "uint256",
              "name": "eventId",
              "type": "uint256"
            }
          ],
          "name": "toggleEmergencyStop",
          "outputs": [],
          "stateMutability": "nonpayable",
          "type": "function"
        },
        {
          "inputs": [],
          "name": "withdraw",
          "outputs": [],
          "stateMutability": "nonpayable",
          "type": "function"
        }
      ],
      "evm": {
        "bytecode": {
          "linkReferences": {},
          "object": "60806040523462000031576200001f62000018620000e5565b90620001a4565b6040516110d9620001e482396110d990f35b600080fd5b634e487b7160e01b600052604160045260246000fd5b90601f01601f191681019081106001600160401b038211176200006e57604052565b62000036565b906200008b6200008360405190565b92836200004c565b565b6001600160a01b031690565b90565b6001600160a01b038116036200003157565b905051906200008b826200009c565b9190604083820312620000315762000099906020620000dd8286620000ae565b9401620000ae565b62000108620012bd80380380620000fc8162000074565b928339810190620000bd565b9091565b906001600160a01b03905b9181191691161790565b62000099906200008d906001600160a01b031682565b620000999062000121565b620000999062000137565b906200016162000099620001699262000142565b82546200010c565b9055565b6200009962000099620000999290565b906000199062000117565b906200019c6200009962000169926200016d565b82546200017d565b90620001db6200008b92620001bb3360006200014d565b620001d3620001cb60016200016d565b600162000188565b60046200014d565b60056200014d56fe6080604052600436101561001257600080fd5b60003560e01c80630b791430146100c257806330658198146100bd5780633ccfd60b146100b8578063677bd9ff146100b35780638822e6fd146100ae5780638da5cb5b146100a95780639a2e8240146100a45780639ed9c74d1461009f578063a1d255e11461009a578063bed524d6146100955763f644b3bb036100d05761054d565b6104a9565b610490565b61037e565b61032b565b610304565b6102e1565b6102c9565b6102ac565b610285565b6101fd565b805b036100d057565b600080fd5b905035906100e2826100c7565b565b906020828203126100d0576100f8916100d5565b90565b6100f86100f86100f89290565b90610112906100fb565b600052602052604060002090565b6100f89081565b6100f89054610120565b6100f8905b60ff1690565b6100f89054610131565b6100f89060081c610136565b6100f89054610146565b610167906002610108565b61017081610127565b9161017d60018301610127565b9161018a6002820161013c565b9161019760028301610152565b916101a460038201610127565b916100f860056101b660048501610127565b930161013c565b9052565b90815260e08101979695909490939092909160208601521515604085015215156060840152608083015260a082015260c0016100e29115159052565b346100d0576102316102186102133660046100e4565b61015c565b9361022897959793919360405190565b978897886101c1565b0390f35b60009103126100d057565b6100f8916008021c5b6001600160a01b031690565b906100f89154610240565b6100f860006004610255565b6101bd90610249565b6020810192916100e2919061026c565b346100d057610295366004610235565b6102316102a0610260565b60405191829182610275565b346100d0576102bc366004610235565b6102c461066b565b604051005b346100d0576102c46102dc3660046100e4565b610990565b346100d0576102c46102f43660046100e4565b6109fb565b6100f8600080610255565b346100d057610314366004610235565b6102316102a06102f9565b6100f860006005610255565b346100d05761033b366004610235565b6102316102a061031f565b8015156100c9565b905035906100e282610346565b91906040838203126100d0576100f890602061037782866100d5565b940161034e565b6102c461038c36600461035b565b90610c91565b634e487b7160e01b600052604160045260246000fd5b90601f01601f1916810190811067ffffffffffffffff8211176103ca57604052565b610392565b906100e26103dc60405190565b92836103a8565b67ffffffffffffffff81116103ca57602090601f01601f19160190565b0190565b90826000939282370152565b90929192610425610420826103e3565b6103cf565b93818552818301116100d0576100e2916020850190610404565b9080601f830112156100d0578160206100f893359101610410565b9190916040818403126100d05761047183826100d5565b92602082013567ffffffffffffffff81116100d0576100f8920161043f565b346100d0576102c46104a336600461045a565b90610e7c565b346100d0576102c46104bc3660046100e4565b61109a565b6100c981610249565b905035906100e2826104c1565b91906040838203126100d0576100f89060206104f382866100d5565b94016104ca565b6100f890610249906001600160a01b031682565b6100f8906104fa565b6100f89061050e565b9061011290610517565b9061053961053e926003610108565b610520565b906100f860016101b684610127565b346100d0576105666105603660046104d7565b9061052a565b9061023161057360405190565b92839283908152901515602082015260400190565b6100f890610249565b6100f89054610588565b156105a257565b60405162461bcd60e51b815260206004820152602260248201527f4f6e6c79206f776e65722063616e2063616c6c20746869732066756e6374696f604482015261371760f11b6064820152608490fd5b6106166106076106026000610591565b610249565b61061033610249565b1461059b565b6100e261062a565b6040513d6000823e3d90fd5b600080808061063830610517565b3161064d61064861064884610591565b610517565b828215610662575bf11561065d57565b61061e565b506108fc610655565b6100e26105f2565b1561067a57565b60405162461bcd60e51b815260206004820152601860248201527f4576656e7420686173206265656e207265736f6c7665642e00000000000000006044820152606490fd5b6100e2906106e76106e26106de60026106d88582610108565b01610152565b1590565b610673565b610874565b156106f357565b60405162461bcd60e51b815260206004820152601c60248201527f4576656e7420686173206e6f74206265656e207265736f6c7665642e000000006044820152606490fd5b1561073f57565b60405162461bcd60e51b815260206004820152601960248201527f5573657220686173206e6f2062657420746f20636c61696d2e000000000000006044820152606490fd5b90600019905b9181191691161790565b906107a46100f86107ab926100fb565b8254610784565b9055565b634e487b7160e01b600052601160045260246000fd5b818102929181159184041417156107d857565b6107af565b634e487b7160e01b600052601260045260246000fd5b906107fd565b9190565b908115610808570490565b6107dd565b1561081457565b60405162461bcd60e51b815260206004820152603260248201527f496e73756666696369656e7420636f6e74726163742062616c616e636520746f604482015271103830bc9037baba103bb4b73734b733b99760711b6064820152608490fd5b600261088c610887826106d88582610108565b6106ec565b6108a46100f861089d846003610108565b3390610520565b6108ad81610127565b926108c66000946108c06107f9876100fb565b11610738565b6108d26001830161013c565b6108f76108f16108ec866108e68682610108565b0161013c565b151590565b91151590565b0361097957826109576109478695946109428761093160046109258961092b6003610925879e9d889e610108565b01610127565b99610108565b92019461093d86610127565b6107c5565b6107f3565b91610951846100fb565b90610794565b61096d61096330610517565b829031101561080d565b61064d61064833610517565b509050816109896100e2936100fb565b9101610794565b6100e2906106bf565b6100e2906109ad6106076106026000610591565b6109d2565b9060ff9061078a565b906109cb6100f86107ab926108ec565b82546109b2565b6100e29060056109f56109ed6106de836108e6866002610108565b926002610108565b016109bb565b6100e290610999565b906100e291610a1e6106e26106de60026106d88582610108565b610baa565b15610a2a57565b60405162461bcd60e51b815260206004820152602160248201527f42657474696e672069732074656d706f726172696c792073757370656e6465646044820152601760f91b6064820152608490fd5b15610a8057565b60405162461bcd60e51b815260206004820152602260248201527f42657420616d6f756e74206d7573742062652067726561746572207468616e20604482015261181760f11b6064820152608490fd5b15610ad757565b60405162461bcd60e51b815260206004820152601e60248201527f557365722068617320616c726561647920706c616365642061206265742e00006044820152606490fd5b15610b2357565b60405162461bcd60e51b815260206004820152601160248201527024b73b30b634b21032bb32b73a1024a21760791b6044820152606490fd5b6100f860406103cf565b6001610b8c60206100e294610b85610b7f600083015190565b86610794565b0151151590565b91016109bb565b906100e291610b66565b919082018092116107d857565b600291610bc7610bc26106de60056108e68688610108565b610a23565b610c7a6000610bdf610bd8826100fb565b3411610a79565b610c5c600391610c0b610bf98261092561089d8a88610108565b610c056107f9846100fb565b14610ad0565b610c2f610c1c82610925898b610108565b610c286107f9846100fb565b1415610b1c565b610c42610c3a610b5c565b913490830152565b8415156020820152610c5761089d8785610108565b610b93565b610c668486610108565b01610951610c7382610127565b3490610b9d565b610c82575050565b610c666004916100e293610108565b906100e291610a04565b906100e291610cb06106076106026000610591565b610d58565b60001981146107d85760010190565b60005b838110610cd75750506000910152565b8181015183820152602001610cc7565b610d08610d1160209361040093610cfc815190565b80835293849260200190565b95869101610cc4565b601f01601f191690565b90815292916100e291604090610d3d9060608701908782036020890152610ce7565b940152565b9081526040810192916100e2916020019061026c565b610d626001610127565b91610d76610d6f84610cb5565b6001610794565b610d8d836000610d87826002610108565b01610794565b610d9e826001610d87866002610108565b610dae6106486106486004610591565b91823b156100d057610de79260009283610dc760405190565b809681958294610ddb633386efc860e01b90565b84528a60048501610d1b565b03925af1801561065d57610e66575b50610e076106486106486005610591565b803b156100d057610e3d600092918392610e2060405190565b94859384928391906394bf804d60e01b8352339060048401610d42565b03925af1801561065d57610e4e5750565b6100e2906000610e5e81836103a8565b810190610235565b610e76906000610e5e81836103a8565b38610df6565b906100e291610c9b565b6100e290610e9a6106076106026000610591565b6100e290610eb36106e26106de60026106d88582610108565b610fb0565b15610ebf57565b60405162461bcd60e51b815260206004820152601b60248201527f4576656e7420686173206e6f74206f63637572726564207965742e00000000006044820152606490fd5b905051906100e282610346565b91906040838203126100d0576100f8906020610f2d8286610f04565b9401610f04565b15610f3b57565b60405162461bcd60e51b8152602060048201526024808201527f5175657374696f6e206f7574636f6d65206e6f742064657465726d696e6564206044820152633cb2ba1760e11b6064820152608490fd5b9061ff009060081b61078a565b90610fa96100f86107ab926108ec565b8254610f8c565b6002610fd1610fc460006109258585610108565b610c286107f960006100fb565b610fee610fe66100f860016109258686610108565b421015610eb8565b610ffe6106486106486004610591565b90604061100a60405190565b6325aaf90560e01b81526004810185905292839060249082905afa801561065d576100e29361105961105f92600195600080919092611065575b5061104e90610f34565b846109f58482610108565b82610108565b01610f99565b61104e925061108c915060403d604011611093575b61108481836103a8565b810190610f11565b9091611044565b503d61107a565b6100e290610e8656fea2646970667358221220ec67c85a48fe8727096e9a2c74bd13e5f3f699ba9b258677d71d378efc72639c64736f6c63430008180033",
          "opcodes": "PUSH1 0x80 PUSH1 0x40 MSTORE CALLVALUE PUSH3 0x31 JUMPI PUSH3 0x1F PUSH3 0x18 PUSH3 0xE5 JUMP JUMPDEST SWAP1 PUSH3 0x1A4 JUMP JUMPDEST PUSH1 0x40 MLOAD PUSH2 0x10D9 PUSH3 0x1E4 DUP3 CODECOPY PUSH2 0x10D9 SWAP1 RETURN JUMPDEST PUSH1 0x0 DUP1 REVERT JUMPDEST PUSH4 0x4E487B71 PUSH1 0xE0 SHL PUSH1 0x0 MSTORE PUSH1 0x41 PUSH1 0x4 MSTORE PUSH1 0x24 PUSH1 0x0 REVERT JUMPDEST SWAP1 PUSH1 0x1F ADD PUSH1 0x1F NOT AND DUP2 ADD SWAP1 DUP2 LT PUSH1 0x1 PUSH1 0x1 PUSH1 0x40 SHL SUB DUP3 GT OR PUSH3 0x6E JUMPI PUSH1 0x40 MSTORE JUMP JUMPDEST PUSH3 0x36 JUMP JUMPDEST SWAP1 PUSH3 0x8B PUSH3 0x83 PUSH1 0x40 MLOAD SWAP1 JUMP JUMPDEST SWAP3 DUP4 PUSH3 0x4C JUMP JUMPDEST JUMP JUMPDEST PUSH1 0x1 PUSH1 0x1 PUSH1 0xA0 SHL SUB AND SWAP1 JUMP JUMPDEST SWAP1 JUMP JUMPDEST PUSH1 0x1 PUSH1 0x1 PUSH1 0xA0 SHL SUB DUP2 AND SUB PUSH3 0x31 JUMPI JUMP JUMPDEST SWAP1 POP MLOAD SWAP1 PUSH3 0x8B DUP3 PUSH3 0x9C JUMP JUMPDEST SWAP2 SWAP1 PUSH1 0x40 DUP4 DUP3 SUB SLT PUSH3 0x31 JUMPI PUSH3 0x99 SWAP1 PUSH1 0x20 PUSH3 0xDD DUP3 DUP7 PUSH3 0xAE JUMP JUMPDEST SWAP5 ADD PUSH3 0xAE JUMP JUMPDEST PUSH3 0x108 PUSH3 0x12BD DUP1 CODESIZE SUB DUP1 PUSH3 0xFC DUP2 PUSH3 0x74 JUMP JUMPDEST SWAP3 DUP4 CODECOPY DUP2 ADD SWAP1 PUSH3 0xBD JUMP JUMPDEST SWAP1 SWAP2 JUMP JUMPDEST SWAP1 PUSH1 0x1 PUSH1 0x1 PUSH1 0xA0 SHL SUB SWAP1 JUMPDEST SWAP2 DUP2 NOT AND SWAP2 AND OR SWAP1 JUMP JUMPDEST PUSH3 0x99 SWAP1 PUSH3 0x8D SWAP1 PUSH1 0x1 PUSH1 0x1 PUSH1 0xA0 SHL SUB AND DUP3 JUMP JUMPDEST PUSH3 0x99 SWAP1 PUSH3 0x121 JUMP JUMPDEST PUSH3 0x99 SWAP1 PUSH3 0x137 JUMP JUMPDEST SWAP1 PUSH3 0x161 PUSH3 0x99 PUSH3 0x169 SWAP3 PUSH3 0x142 JUMP JUMPDEST DUP3 SLOAD PUSH3 0x10C JUMP JUMPDEST SWAP1 SSTORE JUMP JUMPDEST PUSH3 0x99 PUSH3 0x99 PUSH3 0x99 SWAP3 SWAP1 JUMP JUMPDEST SWAP1 PUSH1 0x0 NOT SWAP1 PUSH3 0x117 JUMP JUMPDEST SWAP1 PUSH3 0x19C PUSH3 0x99 PUSH3 0x169 SWAP3 PUSH3 0x16D JUMP JUMPDEST DUP3 SLOAD PUSH3 0x17D JUMP JUMPDEST SWAP1 PUSH3 0x1DB PUSH3 0x8B SWAP3 PUSH3 0x1BB CALLER PUSH1 0x0 PUSH3 0x14D JUMP JUMPDEST PUSH3 0x1D3 PUSH3 0x1CB PUSH1 0x1 PUSH3 0x16D JUMP JUMPDEST PUSH1 0x1 PUSH3 0x188 JUMP JUMPDEST PUSH1 0x4 PUSH3 0x14D JUMP JUMPDEST PUSH1 0x5 PUSH3 0x14D JUMP INVALID PUSH1 0x80 PUSH1 0x40 MSTORE PUSH1 0x4 CALLDATASIZE LT ISZERO PUSH2 0x12 JUMPI PUSH1 0x0 DUP1 REVERT JUMPDEST PUSH1 0x0 CALLDATALOAD PUSH1 0xE0 SHR DUP1 PUSH4 0xB791430 EQ PUSH2 0xC2 JUMPI DUP1 PUSH4 0x30658198 EQ PUSH2 0xBD JUMPI DUP1 PUSH4 0x3CCFD60B EQ PUSH2 0xB8 JUMPI DUP1 PUSH4 0x677BD9FF EQ PUSH2 0xB3 JUMPI DUP1 PUSH4 0x8822E6FD EQ PUSH2 0xAE JUMPI DUP1 PUSH4 0x8DA5CB5B EQ PUSH2 0xA9 JUMPI DUP1 PUSH4 0x9A2E8240 EQ PUSH2 0xA4 JUMPI DUP1 PUSH4 0x9ED9C74D EQ PUSH2 0x9F JUMPI DUP1 PUSH4 0xA1D255E1 EQ PUSH2 0x9A JUMPI DUP1 PUSH4 0xBED524D6 EQ PUSH2 0x95 JUMPI PUSH4 0xF644B3BB SUB PUSH2 0xD0 JUMPI PUSH2 0x54D JUMP JUMPDEST PUSH2 0x4A9 JUMP JUMPDEST PUSH2 0x490 JUMP JUMPDEST PUSH2 0x37E JUMP JUMPDEST PUSH2 0x32B JUMP JUMPDEST PUSH2 0x304 JUMP JUMPDEST PUSH2 0x2E1 JUMP JUMPDEST PUSH2 0x2C9 JUMP JUMPDEST PUSH2 0x2AC JUMP JUMPDEST PUSH2 0x285 JUMP JUMPDEST PUSH2 0x1FD JUMP JUMPDEST DUP1 JUMPDEST SUB PUSH2 0xD0 JUMPI JUMP JUMPDEST PUSH1 0x0 DUP1 REVERT JUMPDEST SWAP1 POP CALLDATALOAD SWAP1 PUSH2 0xE2 DUP3 PUSH2 0xC7 JUMP JUMPDEST JUMP JUMPDEST SWAP1 PUSH1 0x20 DUP3 DUP3 SUB SLT PUSH2 0xD0 JUMPI PUSH2 0xF8 SWAP2 PUSH2 0xD5 JUMP JUMPDEST SWAP1 JUMP JUMPDEST PUSH2 0xF8 PUSH2 0xF8 PUSH2 0xF8 SWAP3 SWAP1 JUMP JUMPDEST SWAP1 PUSH2 0x112 SWAP1 PUSH2 0xFB JUMP JUMPDEST PUSH1 0x0 MSTORE PUSH1 0x20 MSTORE PUSH1 0x40 PUSH1 0x0 KECCAK256 SWAP1 JUMP JUMPDEST PUSH2 0xF8 SWAP1 DUP2 JUMP JUMPDEST PUSH2 0xF8 SWAP1 SLOAD PUSH2 0x120 JUMP JUMPDEST PUSH2 0xF8 SWAP1 JUMPDEST PUSH1 0xFF AND SWAP1 JUMP JUMPDEST PUSH2 0xF8 SWAP1 SLOAD PUSH2 0x131 JUMP JUMPDEST PUSH2 0xF8 SWAP1 PUSH1 0x8 SHR PUSH2 0x136 JUMP JUMPDEST PUSH2 0xF8 SWAP1 SLOAD PUSH2 0x146 JUMP JUMPDEST PUSH2 0x167 SWAP1 PUSH1 0x2 PUSH2 0x108 JUMP JUMPDEST PUSH2 0x170 DUP2 PUSH2 0x127 JUMP JUMPDEST SWAP2 PUSH2 0x17D PUSH1 0x1 DUP4 ADD PUSH2 0x127 JUMP JUMPDEST SWAP2 PUSH2 0x18A PUSH1 0x2 DUP3 ADD PUSH2 0x13C JUMP JUMPDEST SWAP2 PUSH2 0x197 PUSH1 0x2 DUP4 ADD PUSH2 0x152 JUMP JUMPDEST SWAP2 PUSH2 0x1A4 PUSH1 0x3 DUP3 ADD PUSH2 0x127 JUMP JUMPDEST SWAP2 PUSH2 0xF8 PUSH1 0x5 PUSH2 0x1B6 PUSH1 0x4 DUP6 ADD PUSH2 0x127 JUMP JUMPDEST SWAP4 ADD PUSH2 0x13C JUMP JUMPDEST SWAP1 MSTORE JUMP JUMPDEST SWAP1 DUP2 MSTORE PUSH1 0xE0 DUP2 ADD SWAP8 SWAP7 SWAP6 SWAP1 SWAP5 SWAP1 SWAP4 SWAP1 SWAP3 SWAP1 SWAP2 PUSH1 0x20 DUP7 ADD MSTORE ISZERO ISZERO PUSH1 0x40 DUP6 ADD MSTORE ISZERO ISZERO PUSH1 0x60 DUP5 ADD MSTORE PUSH1 0x80 DUP4 ADD MSTORE PUSH1 0xA0 DUP3 ADD MSTORE PUSH1 0xC0 ADD PUSH2 0xE2 SWAP2 ISZERO ISZERO SWAP1 MSTORE JUMP JUMPDEST CALLVALUE PUSH2 0xD0 JUMPI PUSH2 0x231 PUSH2 0x218 PUSH2 0x213 CALLDATASIZE PUSH1 0x4 PUSH2 0xE4 JUMP JUMPDEST PUSH2 0x15C JUMP JUMPDEST SWAP4 PUSH2 0x228 SWAP8 SWAP6 SWAP8 SWAP4 SWAP2 SWAP4 PUSH1 0x40 MLOAD SWAP1 JUMP JUMPDEST SWAP8 DUP9 SWAP8 DUP9 PUSH2 0x1C1 JUMP JUMPDEST SUB SWAP1 RETURN JUMPDEST PUSH1 0x0 SWAP2 SUB SLT PUSH2 0xD0 JUMPI JUMP JUMPDEST PUSH2 0xF8 SWAP2 PUSH1 0x8 MUL SHR JUMPDEST PUSH1 0x1 PUSH1 0x1 PUSH1 0xA0 SHL SUB AND SWAP1 JUMP JUMPDEST SWAP1 PUSH2 0xF8 SWAP2 SLOAD PUSH2 0x240 JUMP JUMPDEST PUSH2 0xF8 PUSH1 0x0 PUSH1 0x4 PUSH2 0x255 JUMP JUMPDEST PUSH2 0x1BD SWAP1 PUSH2 0x249 JUMP JUMPDEST PUSH1 0x20 DUP2 ADD SWAP3 SWAP2 PUSH2 0xE2 SWAP2 SWAP1 PUSH2 0x26C JUMP JUMPDEST CALLVALUE PUSH2 0xD0 JUMPI PUSH2 0x295 CALLDATASIZE PUSH1 0x4 PUSH2 0x235 JUMP JUMPDEST PUSH2 0x231 PUSH2 0x2A0 PUSH2 0x260 JUMP JUMPDEST PUSH1 0x40 MLOAD SWAP2 DUP3 SWAP2 DUP3 PUSH2 0x275 JUMP JUMPDEST CALLVALUE PUSH2 0xD0 JUMPI PUSH2 0x2BC CALLDATASIZE PUSH1 0x4 PUSH2 0x235 JUMP JUMPDEST PUSH2 0x2C4 PUSH2 0x66B JUMP JUMPDEST PUSH1 0x40 MLOAD STOP JUMPDEST CALLVALUE PUSH2 0xD0 JUMPI PUSH2 0x2C4 PUSH2 0x2DC CALLDATASIZE PUSH1 0x4 PUSH2 0xE4 JUMP JUMPDEST PUSH2 0x990 JUMP JUMPDEST CALLVALUE PUSH2 0xD0 JUMPI PUSH2 0x2C4 PUSH2 0x2F4 CALLDATASIZE PUSH1 0x4 PUSH2 0xE4 JUMP JUMPDEST PUSH2 0x9FB JUMP JUMPDEST PUSH2 0xF8 PUSH1 0x0 DUP1 PUSH2 0x255 JUMP JUMPDEST CALLVALUE PUSH2 0xD0 JUMPI PUSH2 0x314 CALLDATASIZE PUSH1 0x4 PUSH2 0x235 JUMP JUMPDEST PUSH2 0x231 PUSH2 0x2A0 PUSH2 0x2F9 JUMP JUMPDEST PUSH2 0xF8 PUSH1 0x0 PUSH1 0x5 PUSH2 0x255 JUMP JUMPDEST CALLVALUE PUSH2 0xD0 JUMPI PUSH2 0x33B CALLDATASIZE PUSH1 0x4 PUSH2 0x235 JUMP JUMPDEST PUSH2 0x231 PUSH2 0x2A0 PUSH2 0x31F JUMP JUMPDEST DUP1 ISZERO ISZERO PUSH2 0xC9 JUMP JUMPDEST SWAP1 POP CALLDATALOAD SWAP1 PUSH2 0xE2 DUP3 PUSH2 0x346 JUMP JUMPDEST SWAP2 SWAP1 PUSH1 0x40 DUP4 DUP3 SUB SLT PUSH2 0xD0 JUMPI PUSH2 0xF8 SWAP1 PUSH1 0x20 PUSH2 0x377 DUP3 DUP7 PUSH2 0xD5 JUMP JUMPDEST SWAP5 ADD PUSH2 0x34E JUMP JUMPDEST PUSH2 0x2C4 PUSH2 0x38C CALLDATASIZE PUSH1 0x4 PUSH2 0x35B JUMP JUMPDEST SWAP1 PUSH2 0xC91 JUMP JUMPDEST PUSH4 0x4E487B71 PUSH1 0xE0 SHL PUSH1 0x0 MSTORE PUSH1 0x41 PUSH1 0x4 MSTORE PUSH1 0x24 PUSH1 0x0 REVERT JUMPDEST SWAP1 PUSH1 0x1F ADD PUSH1 0x1F NOT AND DUP2 ADD SWAP1 DUP2 LT PUSH8 0xFFFFFFFFFFFFFFFF DUP3 GT OR PUSH2 0x3CA JUMPI PUSH1 0x40 MSTORE JUMP JUMPDEST PUSH2 0x392 JUMP JUMPDEST SWAP1 PUSH2 0xE2 PUSH2 0x3DC PUSH1 0x40 MLOAD SWAP1 JUMP JUMPDEST SWAP3 DUP4 PUSH2 0x3A8 JUMP JUMPDEST PUSH8 0xFFFFFFFFFFFFFFFF DUP2 GT PUSH2 0x3CA JUMPI PUSH1 0x20 SWAP1 PUSH1 0x1F ADD PUSH1 0x1F NOT AND ADD SWAP1 JUMP JUMPDEST ADD SWAP1 JUMP JUMPDEST SWAP1 DUP3 PUSH1 0x0 SWAP4 SWAP3 DUP3 CALLDATACOPY ADD MSTORE JUMP JUMPDEST SWAP1 SWAP3 SWAP2 SWAP3 PUSH2 0x425 PUSH2 0x420 DUP3 PUSH2 0x3E3 JUMP JUMPDEST PUSH2 0x3CF JUMP JUMPDEST SWAP4 DUP2 DUP6 MSTORE DUP2 DUP4 ADD GT PUSH2 0xD0 JUMPI PUSH2 0xE2 SWAP2 PUSH1 0x20 DUP6 ADD SWAP1 PUSH2 0x404 JUMP JUMPDEST SWAP1 DUP1 PUSH1 0x1F DUP4 ADD SLT ISZERO PUSH2 0xD0 JUMPI DUP2 PUSH1 0x20 PUSH2 0xF8 SWAP4 CALLDATALOAD SWAP2 ADD PUSH2 0x410 JUMP JUMPDEST SWAP2 SWAP1 SWAP2 PUSH1 0x40 DUP2 DUP5 SUB SLT PUSH2 0xD0 JUMPI PUSH2 0x471 DUP4 DUP3 PUSH2 0xD5 JUMP JUMPDEST SWAP3 PUSH1 0x20 DUP3 ADD CALLDATALOAD PUSH8 0xFFFFFFFFFFFFFFFF DUP2 GT PUSH2 0xD0 JUMPI PUSH2 0xF8 SWAP3 ADD PUSH2 0x43F JUMP JUMPDEST CALLVALUE PUSH2 0xD0 JUMPI PUSH2 0x2C4 PUSH2 0x4A3 CALLDATASIZE PUSH1 0x4 PUSH2 0x45A JUMP JUMPDEST SWAP1 PUSH2 0xE7C JUMP JUMPDEST CALLVALUE PUSH2 0xD0 JUMPI PUSH2 0x2C4 PUSH2 0x4BC CALLDATASIZE PUSH1 0x4 PUSH2 0xE4 JUMP JUMPDEST PUSH2 0x109A JUMP JUMPDEST PUSH2 0xC9 DUP2 PUSH2 0x249 JUMP JUMPDEST SWAP1 POP CALLDATALOAD SWAP1 PUSH2 0xE2 DUP3 PUSH2 0x4C1 JUMP JUMPDEST SWAP2 SWAP1 PUSH1 0x40 DUP4 DUP3 SUB SLT PUSH2 0xD0 JUMPI PUSH2 0xF8 SWAP1 PUSH1 0x20 PUSH2 0x4F3 DUP3 DUP7 PUSH2 0xD5 JUMP JUMPDEST SWAP5 ADD PUSH2 0x4CA JUMP JUMPDEST PUSH2 0xF8 SWAP1 PUSH2 0x249 SWAP1 PUSH1 0x1 PUSH1 0x1 PUSH1 0xA0 SHL SUB AND DUP3 JUMP JUMPDEST PUSH2 0xF8 SWAP1 PUSH2 0x4FA JUMP JUMPDEST PUSH2 0xF8 SWAP1 PUSH2 0x50E JUMP JUMPDEST SWAP1 PUSH2 0x112 SWAP1 PUSH2 0x517 JUMP JUMPDEST SWAP1 PUSH2 0x539 PUSH2 0x53E SWAP3 PUSH1 0x3 PUSH2 0x108 JUMP JUMPDEST PUSH2 0x520 JUMP JUMPDEST SWAP1 PUSH2 0xF8 PUSH1 0x1 PUSH2 0x1B6 DUP5 PUSH2 0x127 JUMP JUMPDEST CALLVALUE PUSH2 0xD0 JUMPI PUSH2 0x566 PUSH2 0x560 CALLDATASIZE PUSH1 0x4 PUSH2 0x4D7 JUMP JUMPDEST SWAP1 PUSH2 0x52A JUMP JUMPDEST SWAP1 PUSH2 0x231 PUSH2 0x573 PUSH1 0x40 MLOAD SWAP1 JUMP JUMPDEST SWAP3 DUP4 SWAP3 DUP4 SWAP1 DUP2 MSTORE SWAP1 ISZERO ISZERO PUSH1 0x20 DUP3 ADD MSTORE PUSH1 0x40 ADD SWAP1 JUMP JUMPDEST PUSH2 0xF8 SWAP1 PUSH2 0x249 JUMP JUMPDEST PUSH2 0xF8 SWAP1 SLOAD PUSH2 0x588 JUMP JUMPDEST ISZERO PUSH2 0x5A2 JUMPI JUMP JUMPDEST PUSH1 0x40 MLOAD PUSH3 0x461BCD PUSH1 0xE5 SHL DUP2 MSTORE PUSH1 0x20 PUSH1 0x4 DUP3 ADD MSTORE PUSH1 0x22 PUSH1 0x24 DUP3 ADD MSTORE PUSH32 0x4F6E6C79206F776E65722063616E2063616C6C20746869732066756E6374696F PUSH1 0x44 DUP3 ADD MSTORE PUSH2 0x3717 PUSH1 0xF1 SHL PUSH1 0x64 DUP3 ADD MSTORE PUSH1 0x84 SWAP1 REVERT JUMPDEST PUSH2 0x616 PUSH2 0x607 PUSH2 0x602 PUSH1 0x0 PUSH2 0x591 JUMP JUMPDEST PUSH2 0x249 JUMP JUMPDEST PUSH2 0x610 CALLER PUSH2 0x249 JUMP JUMPDEST EQ PUSH2 0x59B JUMP JUMPDEST PUSH2 0xE2 PUSH2 0x62A JUMP JUMPDEST PUSH1 0x40 MLOAD RETURNDATASIZE PUSH1 0x0 DUP3 RETURNDATACOPY RETURNDATASIZE SWAP1 REVERT JUMPDEST PUSH1 0x0 DUP1 DUP1 DUP1 PUSH2 0x638 ADDRESS PUSH2 0x517 JUMP JUMPDEST BALANCE PUSH2 0x64D PUSH2 0x648 PUSH2 0x648 DUP5 PUSH2 0x591 JUMP JUMPDEST PUSH2 0x517 JUMP JUMPDEST DUP3 DUP3 ISZERO PUSH2 0x662 JUMPI JUMPDEST CALL ISZERO PUSH2 0x65D JUMPI JUMP JUMPDEST PUSH2 0x61E JUMP JUMPDEST POP PUSH2 0x8FC PUSH2 0x655 JUMP JUMPDEST PUSH2 0xE2 PUSH2 0x5F2 JUMP JUMPDEST ISZERO PUSH2 0x67A JUMPI JUMP JUMPDEST PUSH1 0x40 MLOAD PUSH3 0x461BCD PUSH1 0xE5 SHL DUP2 MSTORE PUSH1 0x20 PUSH1 0x4 DUP3 ADD MSTORE PUSH1 0x18 PUSH1 0x24 DUP3 ADD MSTORE PUSH32 0x4576656E7420686173206265656E207265736F6C7665642E0000000000000000 PUSH1 0x44 DUP3 ADD MSTORE PUSH1 0x64 SWAP1 REVERT JUMPDEST PUSH2 0xE2 SWAP1 PUSH2 0x6E7 PUSH2 0x6E2 PUSH2 0x6DE PUSH1 0x2 PUSH2 0x6D8 DUP6 DUP3 PUSH2 0x108 JUMP JUMPDEST ADD PUSH2 0x152 JUMP JUMPDEST ISZERO SWAP1 JUMP JUMPDEST PUSH2 0x673 JUMP JUMPDEST PUSH2 0x874 JUMP JUMPDEST ISZERO PUSH2 0x6F3 JUMPI JUMP JUMPDEST PUSH1 0x40 MLOAD PUSH3 0x461BCD PUSH1 0xE5 SHL DUP2 MSTORE PUSH1 0x20 PUSH1 0x4 DUP3 ADD MSTORE PUSH1 0x1C PUSH1 0x24 DUP3 ADD MSTORE PUSH32 0x4576656E7420686173206E6F74206265656E207265736F6C7665642E00000000 PUSH1 0x44 DUP3 ADD MSTORE PUSH1 0x64 SWAP1 REVERT JUMPDEST ISZERO PUSH2 0x73F JUMPI JUMP JUMPDEST PUSH1 0x40 MLOAD PUSH3 0x461BCD PUSH1 0xE5 SHL DUP2 MSTORE PUSH1 0x20 PUSH1 0x4 DUP3 ADD MSTORE PUSH1 0x19 PUSH1 0x24 DUP3 ADD MSTORE PUSH32 0x5573657220686173206E6F2062657420746F20636C61696D2E00000000000000 PUSH1 0x44 DUP3 ADD MSTORE PUSH1 0x64 SWAP1 REVERT JUMPDEST SWAP1 PUSH1 0x0 NOT SWAP1 JUMPDEST SWAP2 DUP2 NOT AND SWAP2 AND OR SWAP1 JUMP JUMPDEST SWAP1 PUSH2 0x7A4 PUSH2 0xF8 PUSH2 0x7AB SWAP3 PUSH2 0xFB JUMP JUMPDEST DUP3 SLOAD PUSH2 0x784 JUMP JUMPDEST SWAP1 SSTORE JUMP JUMPDEST PUSH4 0x4E487B71 PUSH1 0xE0 SHL PUSH1 0x0 MSTORE PUSH1 0x11 PUSH1 0x4 MSTORE PUSH1 0x24 PUSH1 0x0 REVERT JUMPDEST DUP2 DUP2 MUL SWAP3 SWAP2 DUP2 ISZERO SWAP2 DUP5 DIV EQ OR ISZERO PUSH2 0x7D8 JUMPI JUMP JUMPDEST PUSH2 0x7AF JUMP JUMPDEST PUSH4 0x4E487B71 PUSH1 0xE0 SHL PUSH1 0x0 MSTORE PUSH1 0x12 PUSH1 0x4 MSTORE PUSH1 0x24 PUSH1 0x0 REVERT JUMPDEST SWAP1 PUSH2 0x7FD JUMP JUMPDEST SWAP2 SWAP1 JUMP JUMPDEST SWAP1 DUP2 ISZERO PUSH2 0x808 JUMPI DIV SWAP1 JUMP JUMPDEST PUSH2 0x7DD JUMP JUMPDEST ISZERO PUSH2 0x814 JUMPI JUMP JUMPDEST PUSH1 0x40 MLOAD PUSH3 0x461BCD PUSH1 0xE5 SHL DUP2 MSTORE PUSH1 0x20 PUSH1 0x4 DUP3 ADD MSTORE PUSH1 0x32 PUSH1 0x24 DUP3 ADD MSTORE PUSH32 0x496E73756666696369656E7420636F6E74726163742062616C616E636520746F PUSH1 0x44 DUP3 ADD MSTORE PUSH18 0x103830BC9037BABA103BB4B73734B733B997 PUSH1 0x71 SHL PUSH1 0x64 DUP3 ADD MSTORE PUSH1 0x84 SWAP1 REVERT JUMPDEST PUSH1 0x2 PUSH2 0x88C PUSH2 0x887 DUP3 PUSH2 0x6D8 DUP6 DUP3 PUSH2 0x108 JUMP JUMPDEST PUSH2 0x6EC JUMP JUMPDEST PUSH2 0x8A4 PUSH2 0xF8 PUSH2 0x89D DUP5 PUSH1 0x3 PUSH2 0x108 JUMP JUMPDEST CALLER SWAP1 PUSH2 0x520 JUMP JUMPDEST PUSH2 0x8AD DUP2 PUSH2 0x127 JUMP JUMPDEST SWAP3 PUSH2 0x8C6 PUSH1 0x0 SWAP5 PUSH2 0x8C0 PUSH2 0x7F9 DUP8 PUSH2 0xFB JUMP JUMPDEST GT PUSH2 0x738 JUMP JUMPDEST PUSH2 0x8D2 PUSH1 0x1 DUP4 ADD PUSH2 0x13C JUMP JUMPDEST PUSH2 0x8F7 PUSH2 0x8F1 PUSH2 0x8EC DUP7 PUSH2 0x8E6 DUP7 DUP3 PUSH2 0x108 JUMP JUMPDEST ADD PUSH2 0x13C JUMP JUMPDEST ISZERO ISZERO SWAP1 JUMP JUMPDEST SWAP2 ISZERO ISZERO SWAP1 JUMP JUMPDEST SUB PUSH2 0x979 JUMPI DUP3 PUSH2 0x957 PUSH2 0x947 DUP7 SWAP6 SWAP5 PUSH2 0x942 DUP8 PUSH2 0x931 PUSH1 0x4 PUSH2 0x925 DUP10 PUSH2 0x92B PUSH1 0x3 PUSH2 0x925 DUP8 SWAP15 SWAP14 DUP9 SWAP15 PUSH2 0x108 JUMP JUMPDEST ADD PUSH2 0x127 JUMP JUMPDEST SWAP10 PUSH2 0x108 JUMP JUMPDEST SWAP3 ADD SWAP5 PUSH2 0x93D DUP7 PUSH2 0x127 JUMP JUMPDEST PUSH2 0x7C5 JUMP JUMPDEST PUSH2 0x7F3 JUMP JUMPDEST SWAP2 PUSH2 0x951 DUP5 PUSH2 0xFB JUMP JUMPDEST SWAP1 PUSH2 0x794 JUMP JUMPDEST PUSH2 0x96D PUSH2 0x963 ADDRESS PUSH2 0x517 JUMP JUMPDEST DUP3 SWAP1 BALANCE LT ISZERO PUSH2 0x80D JUMP JUMPDEST PUSH2 0x64D PUSH2 0x648 CALLER PUSH2 0x517 JUMP JUMPDEST POP SWAP1 POP DUP2 PUSH2 0x989 PUSH2 0xE2 SWAP4 PUSH2 0xFB JUMP JUMPDEST SWAP2 ADD PUSH2 0x794 JUMP JUMPDEST PUSH2 0xE2 SWAP1 PUSH2 0x6BF JUMP JUMPDEST PUSH2 0xE2 SWAP1 PUSH2 0x9AD PUSH2 0x607 PUSH2 0x602 PUSH1 0x0 PUSH2 0x591 JUMP JUMPDEST PUSH2 0x9D2 JUMP JUMPDEST SWAP1 PUSH1 0xFF SWAP1 PUSH2 0x78A JUMP JUMPDEST SWAP1 PUSH2 0x9CB PUSH2 0xF8 PUSH2 0x7AB SWAP3 PUSH2 0x8EC JUMP JUMPDEST DUP3 SLOAD PUSH2 0x9B2 JUMP JUMPDEST PUSH2 0xE2 SWAP1 PUSH1 0x5 PUSH2 0x9F5 PUSH2 0x9ED PUSH2 0x6DE DUP4 PUSH2 0x8E6 DUP7 PUSH1 0x2 PUSH2 0x108 JUMP JUMPDEST SWAP3 PUSH1 0x2 PUSH2 0x108 JUMP JUMPDEST ADD PUSH2 0x9BB JUMP JUMPDEST PUSH2 0xE2 SWAP1 PUSH2 0x999 JUMP JUMPDEST SWAP1 PUSH2 0xE2 SWAP2 PUSH2 0xA1E PUSH2 0x6E2 PUSH2 0x6DE PUSH1 0x2 PUSH2 0x6D8 DUP6 DUP3 PUSH2 0x108 JUMP JUMPDEST PUSH2 0xBAA JUMP JUMPDEST ISZERO PUSH2 0xA2A JUMPI JUMP JUMPDEST PUSH1 0x40 MLOAD PUSH3 0x461BCD PUSH1 0xE5 SHL DUP2 MSTORE PUSH1 0x20 PUSH1 0x4 DUP3 ADD MSTORE PUSH1 0x21 PUSH1 0x24 DUP3 ADD MSTORE PUSH32 0x42657474696E672069732074656D706F726172696C792073757370656E646564 PUSH1 0x44 DUP3 ADD MSTORE PUSH1 0x17 PUSH1 0xF9 SHL PUSH1 0x64 DUP3 ADD MSTORE PUSH1 0x84 SWAP1 REVERT JUMPDEST ISZERO PUSH2 0xA80 JUMPI JUMP JUMPDEST PUSH1 0x40 MLOAD PUSH3 0x461BCD PUSH1 0xE5 SHL DUP2 MSTORE PUSH1 0x20 PUSH1 0x4 DUP3 ADD MSTORE PUSH1 0x22 PUSH1 0x24 DUP3 ADD MSTORE PUSH32 0x42657420616D6F756E74206D7573742062652067726561746572207468616E20 PUSH1 0x44 DUP3 ADD MSTORE PUSH2 0x1817 PUSH1 0xF1 SHL PUSH1 0x64 DUP3 ADD MSTORE PUSH1 0x84 SWAP1 REVERT JUMPDEST ISZERO PUSH2 0xAD7 JUMPI JUMP JUMPDEST PUSH1 0x40 MLOAD PUSH3 0x461BCD PUSH1 0xE5 SHL DUP2 MSTORE PUSH1 0x20 PUSH1 0x4 DUP3 ADD MSTORE PUSH1 0x1E PUSH1 0x24 DUP3 ADD MSTORE PUSH32 0x557365722068617320616C726561647920706C616365642061206265742E0000 PUSH1 0x44 DUP3 ADD MSTORE PUSH1 0x64 SWAP1 REVERT JUMPDEST ISZERO PUSH2 0xB23 JUMPI JUMP JUMPDEST PUSH1 0x40 MLOAD PUSH3 0x461BCD PUSH1 0xE5 SHL DUP2 MSTORE PUSH1 0x20 PUSH1 0x4 DUP3 ADD MSTORE PUSH1 0x11 PUSH1 0x24 DUP3 ADD MSTORE PUSH17 0x24B73B30B634B21032BB32B73A1024A217 PUSH1 0x79 SHL PUSH1 0x44 DUP3 ADD MSTORE PUSH1 0x64 SWAP1 REVERT JUMPDEST PUSH2 0xF8 PUSH1 0x40 PUSH2 0x3CF JUMP JUMPDEST PUSH1 0x1 PUSH2 0xB8C PUSH1 0x20 PUSH2 0xE2 SWAP5 PUSH2 0xB85 PUSH2 0xB7F PUSH1 0x0 DUP4 ADD MLOAD SWAP1 JUMP JUMPDEST DUP7 PUSH2 0x794 JUMP JUMPDEST ADD MLOAD ISZERO ISZERO SWAP1 JUMP JUMPDEST SWAP2 ADD PUSH2 0x9BB JUMP JUMPDEST SWAP1 PUSH2 0xE2 SWAP2 PUSH2 0xB66 JUMP JUMPDEST SWAP2 SWAP1 DUP3 ADD DUP1 SWAP3 GT PUSH2 0x7D8 JUMPI JUMP JUMPDEST PUSH1 0x2 SWAP2 PUSH2 0xBC7 PUSH2 0xBC2 PUSH2 0x6DE PUSH1 0x5 PUSH2 0x8E6 DUP7 DUP9 PUSH2 0x108 JUMP JUMPDEST PUSH2 0xA23 JUMP JUMPDEST PUSH2 0xC7A PUSH1 0x0 PUSH2 0xBDF PUSH2 0xBD8 DUP3 PUSH2 0xFB JUMP JUMPDEST CALLVALUE GT PUSH2 0xA79 JUMP JUMPDEST PUSH2 0xC5C PUSH1 0x3 SWAP2 PUSH2 0xC0B PUSH2 0xBF9 DUP3 PUSH2 0x925 PUSH2 0x89D DUP11 DUP9 PUSH2 0x108 JUMP JUMPDEST PUSH2 0xC05 PUSH2 0x7F9 DUP5 PUSH2 0xFB JUMP JUMPDEST EQ PUSH2 0xAD0 JUMP JUMPDEST PUSH2 0xC2F PUSH2 0xC1C DUP3 PUSH2 0x925 DUP10 DUP12 PUSH2 0x108 JUMP JUMPDEST PUSH2 0xC28 PUSH2 0x7F9 DUP5 PUSH2 0xFB JUMP JUMPDEST EQ ISZERO PUSH2 0xB1C JUMP JUMPDEST PUSH2 0xC42 PUSH2 0xC3A PUSH2 0xB5C JUMP JUMPDEST SWAP2 CALLVALUE SWAP1 DUP4 ADD MSTORE JUMP JUMPDEST DUP5 ISZERO ISZERO PUSH1 0x20 DUP3 ADD MSTORE PUSH2 0xC57 PUSH2 0x89D DUP8 DUP6 PUSH2 0x108 JUMP JUMPDEST PUSH2 0xB93 JUMP JUMPDEST PUSH2 0xC66 DUP5 DUP7 PUSH2 0x108 JUMP JUMPDEST ADD PUSH2 0x951 PUSH2 0xC73 DUP3 PUSH2 0x127 JUMP JUMPDEST CALLVALUE SWAP1 PUSH2 0xB9D JUMP JUMPDEST PUSH2 0xC82 JUMPI POP POP JUMP JUMPDEST PUSH2 0xC66 PUSH1 0x4 SWAP2 PUSH2 0xE2 SWAP4 PUSH2 0x108 JUMP JUMPDEST SWAP1 PUSH2 0xE2 SWAP2 PUSH2 0xA04 JUMP JUMPDEST SWAP1 PUSH2 0xE2 SWAP2 PUSH2 0xCB0 PUSH2 0x607 PUSH2 0x602 PUSH1 0x0 PUSH2 0x591 JUMP JUMPDEST PUSH2 0xD58 JUMP JUMPDEST PUSH1 0x0 NOT DUP2 EQ PUSH2 0x7D8 JUMPI PUSH1 0x1 ADD SWAP1 JUMP JUMPDEST PUSH1 0x0 JUMPDEST DUP4 DUP2 LT PUSH2 0xCD7 JUMPI POP POP PUSH1 0x0 SWAP2 ADD MSTORE JUMP JUMPDEST DUP2 DUP2 ADD MLOAD DUP4 DUP3 ADD MSTORE PUSH1 0x20 ADD PUSH2 0xCC7 JUMP JUMPDEST PUSH2 0xD08 PUSH2 0xD11 PUSH1 0x20 SWAP4 PUSH2 0x400 SWAP4 PUSH2 0xCFC DUP2 MLOAD SWAP1 JUMP JUMPDEST DUP1 DUP4 MSTORE SWAP4 DUP5 SWAP3 PUSH1 0x20 ADD SWAP1 JUMP JUMPDEST SWAP6 DUP7 SWAP2 ADD PUSH2 0xCC4 JUMP JUMPDEST PUSH1 0x1F ADD PUSH1 0x1F NOT AND SWAP1 JUMP JUMPDEST SWAP1 DUP2 MSTORE SWAP3 SWAP2 PUSH2 0xE2 SWAP2 PUSH1 0x40 SWAP1 PUSH2 0xD3D SWAP1 PUSH1 0x60 DUP8 ADD SWAP1 DUP8 DUP3 SUB PUSH1 0x20 DUP10 ADD MSTORE PUSH2 0xCE7 JUMP JUMPDEST SWAP5 ADD MSTORE JUMP JUMPDEST SWAP1 DUP2 MSTORE PUSH1 0x40 DUP2 ADD SWAP3 SWAP2 PUSH2 0xE2 SWAP2 PUSH1 0x20 ADD SWAP1 PUSH2 0x26C JUMP JUMPDEST PUSH2 0xD62 PUSH1 0x1 PUSH2 0x127 JUMP JUMPDEST SWAP2 PUSH2 0xD76 PUSH2 0xD6F DUP5 PUSH2 0xCB5 JUMP JUMPDEST PUSH1 0x1 PUSH2 0x794 JUMP JUMPDEST PUSH2 0xD8D DUP4 PUSH1 0x0 PUSH2 0xD87 DUP3 PUSH1 0x2 PUSH2 0x108 JUMP JUMPDEST ADD PUSH2 0x794 JUMP JUMPDEST PUSH2 0xD9E DUP3 PUSH1 0x1 PUSH2 0xD87 DUP7 PUSH1 0x2 PUSH2 0x108 JUMP JUMPDEST PUSH2 0xDAE PUSH2 0x648 PUSH2 0x648 PUSH1 0x4 PUSH2 0x591 JUMP JUMPDEST SWAP2 DUP3 EXTCODESIZE ISZERO PUSH2 0xD0 JUMPI PUSH2 0xDE7 SWAP3 PUSH1 0x0 SWAP3 DUP4 PUSH2 0xDC7 PUSH1 0x40 MLOAD SWAP1 JUMP JUMPDEST DUP1 SWAP7 DUP2 SWAP6 DUP3 SWAP5 PUSH2 0xDDB PUSH4 0x3386EFC8 PUSH1 0xE0 SHL SWAP1 JUMP JUMPDEST DUP5 MSTORE DUP11 PUSH1 0x4 DUP6 ADD PUSH2 0xD1B JUMP JUMPDEST SUB SWAP3 GAS CALL DUP1 ISZERO PUSH2 0x65D JUMPI PUSH2 0xE66 JUMPI JUMPDEST POP PUSH2 0xE07 PUSH2 0x648 PUSH2 0x648 PUSH1 0x5 PUSH2 0x591 JUMP JUMPDEST DUP1 EXTCODESIZE ISZERO PUSH2 0xD0 JUMPI PUSH2 0xE3D PUSH1 0x0 SWAP3 SWAP2 DUP4 SWAP3 PUSH2 0xE20 PUSH1 0x40 MLOAD SWAP1 JUMP JUMPDEST SWAP5 DUP6 SWAP4 DUP5 SWAP3 DUP4 SWAP2 SWAP1 PUSH4 0x94BF804D PUSH1 0xE0 SHL DUP4 MSTORE CALLER SWAP1 PUSH1 0x4 DUP5 ADD PUSH2 0xD42 JUMP JUMPDEST SUB SWAP3 GAS CALL DUP1 ISZERO PUSH2 0x65D JUMPI PUSH2 0xE4E JUMPI POP JUMP JUMPDEST PUSH2 0xE2 SWAP1 PUSH1 0x0 PUSH2 0xE5E DUP2 DUP4 PUSH2 0x3A8 JUMP JUMPDEST DUP2 ADD SWAP1 PUSH2 0x235 JUMP JUMPDEST PUSH2 0xE76 SWAP1 PUSH1 0x0 PUSH2 0xE5E DUP2 DUP4 PUSH2 0x3A8 JUMP JUMPDEST CODESIZE PUSH2 0xDF6 JUMP JUMPDEST SWAP1 PUSH2 0xE2 SWAP2 PUSH2 0xC9B JUMP JUMPDEST PUSH2 0xE2 SWAP1 PUSH2 0xE9A PUSH2 0x607 PUSH2 0x602 PUSH1 0x0 PUSH2 0x591 JUMP JUMPDEST PUSH2 0xE2 SWAP1 PUSH2 0xEB3 PUSH2 0x6E2 PUSH2 0x6DE PUSH1 0x2 PUSH2 0x6D8 DUP6 DUP3 PUSH2 0x108 JUMP JUMPDEST PUSH2 0xFB0 JUMP JUMPDEST ISZERO PUSH2 0xEBF JUMPI JUMP JUMPDEST PUSH1 0x40 MLOAD PUSH3 0x461BCD PUSH1 0xE5 SHL DUP2 MSTORE PUSH1 0x20 PUSH1 0x4 DUP3 ADD MSTORE PUSH1 0x1B PUSH1 0x24 DUP3 ADD MSTORE PUSH32 0x4576656E7420686173206E6F74206F63637572726564207965742E0000000000 PUSH1 0x44 DUP3 ADD MSTORE PUSH1 0x64 SWAP1 REVERT JUMPDEST SWAP1 POP MLOAD SWAP1 PUSH2 0xE2 DUP3 PUSH2 0x346 JUMP JUMPDEST SWAP2 SWAP1 PUSH1 0x40 DUP4 DUP3 SUB SLT PUSH2 0xD0 JUMPI PUSH2 0xF8 SWAP1 PUSH1 0x20 PUSH2 0xF2D DUP3 DUP7 PUSH2 0xF04 JUMP JUMPDEST SWAP5 ADD PUSH2 0xF04 JUMP JUMPDEST ISZERO PUSH2 0xF3B JUMPI JUMP JUMPDEST PUSH1 0x40 MLOAD PUSH3 0x461BCD PUSH1 0xE5 SHL DUP2 MSTORE PUSH1 0x20 PUSH1 0x4 DUP3 ADD MSTORE PUSH1 0x24 DUP1 DUP3 ADD MSTORE PUSH32 0x5175657374696F6E206F7574636F6D65206E6F742064657465726D696E656420 PUSH1 0x44 DUP3 ADD MSTORE PUSH4 0x3CB2BA17 PUSH1 0xE1 SHL PUSH1 0x64 DUP3 ADD MSTORE PUSH1 0x84 SWAP1 REVERT JUMPDEST SWAP1 PUSH2 0xFF00 SWAP1 PUSH1 0x8 SHL PUSH2 0x78A JUMP JUMPDEST SWAP1 PUSH2 0xFA9 PUSH2 0xF8 PUSH2 0x7AB SWAP3 PUSH2 0x8EC JUMP JUMPDEST DUP3 SLOAD PUSH2 0xF8C JUMP JUMPDEST PUSH1 0x2 PUSH2 0xFD1 PUSH2 0xFC4 PUSH1 0x0 PUSH2 0x925 DUP6 DUP6 PUSH2 0x108 JUMP JUMPDEST PUSH2 0xC28 PUSH2 0x7F9 PUSH1 0x0 PUSH2 0xFB JUMP JUMPDEST PUSH2 0xFEE PUSH2 0xFE6 PUSH2 0xF8 PUSH1 0x1 PUSH2 0x925 DUP7 DUP7 PUSH2 0x108 JUMP JUMPDEST TIMESTAMP LT ISZERO PUSH2 0xEB8 JUMP JUMPDEST PUSH2 0xFFE PUSH2 0x648 PUSH2 0x648 PUSH1 0x4 PUSH2 0x591 JUMP JUMPDEST SWAP1 PUSH1 0x40 PUSH2 0x100A PUSH1 0x40 MLOAD SWAP1 JUMP JUMPDEST PUSH4 0x25AAF905 PUSH1 0xE0 SHL DUP2 MSTORE PUSH1 0x4 DUP2 ADD DUP6 SWAP1 MSTORE SWAP3 DUP4 SWAP1 PUSH1 0x24 SWAP1 DUP3 SWAP1 GAS STATICCALL DUP1 ISZERO PUSH2 0x65D JUMPI PUSH2 0xE2 SWAP4 PUSH2 0x1059 PUSH2 0x105F SWAP3 PUSH1 0x1 SWAP6 PUSH1 0x0 DUP1 SWAP2 SWAP1 SWAP3 PUSH2 0x1065 JUMPI JUMPDEST POP PUSH2 0x104E SWAP1 PUSH2 0xF34 JUMP JUMPDEST DUP5 PUSH2 0x9F5 DUP5 DUP3 PUSH2 0x108 JUMP JUMPDEST DUP3 PUSH2 0x108 JUMP JUMPDEST ADD PUSH2 0xF99 JUMP JUMPDEST PUSH2 0x104E SWAP3 POP PUSH2 0x108C SWAP2 POP PUSH1 0x40 RETURNDATASIZE PUSH1 0x40 GT PUSH2 0x1093 JUMPI JUMPDEST PUSH2 0x1084 DUP2 DUP4 PUSH2 0x3A8 JUMP JUMPDEST DUP2 ADD SWAP1 PUSH2 0xF11 JUMP JUMPDEST SWAP1 SWAP2 PUSH2 0x1044 JUMP JUMPDEST POP RETURNDATASIZE PUSH2 0x107A JUMP JUMPDEST PUSH2 0xE2 SWAP1 PUSH2 0xE86 JUMP INVALID LOG2 PUSH5 0x6970667358 0x22 SLT KECCAK256 0xEC PUSH8 0xC85A48FE8727096E SWAP11 0x2C PUSH21 0xBD13E5F3F699BA9B258677D71D378EFC72639C6473 PUSH16 0x6C634300081800330000000000000000 "
        },
        "methodIdentifiers": {
          "bets(uint256,address)": "f644b3bb",
          "claimWinnings(uint256)": "677bd9ff",
          "createEvent(uint256,string)": "a1d255e1",
          "events(uint256)": "0b791430",
          "matchNFTAddress()": "9a2e8240",
          "owner()": "8da5cb5b",
          "placeBet(uint256,bool)": "9ed9c74d",
          "resolveEvent(uint256)": "bed524d6",
          "socialOracleAddress()": "30658198",
          "toggleEmergencyStop(uint256)": "8822e6fd",
          "withdraw()": "3ccfd60b"
        }
      }
    }
  }
}