{
  "_format": "hh-sol-artifact-1",
  "contractName": "Lock",
  "sourceName": "contracts/Lock.sol",
  "abi": [
    {
      "inputs": [
        {
          "internalType": "uint256",
          "name": "_unlockTime",
          "type": "uint256"
        }
      ],
      "stateMutability": "payable",
      "type": "constructor"
    },
    {
      "anonymous": false,
      "inputs": [
        {
          "indexed": false,
          "internalType": "uint256",
          "name": "amount",
          "type": "uint256"
        },
        {
          "indexed": false,
          "internalType": "uint256",
          "name": "when",
          "type": "uint256"
        }
      ],
      "name": "Withdrawal",
      "type": "event"
    },
    {
      "inputs": [],
      "name": "owner",
      "outputs": [
        {
          "internalType": "address payable",
          "name": "",
          "type": "address"
        }
      ],
      "stateMutability": "view",
      "type": "function"
    },
    {
      "inputs": [],
      "name": "unlockTime",
      "outputs": [
        {
          "internalType": "uint256",
          "name": "",
          "type": "uint256"
        }
      ],
      "stateMutability": "view",
      "type": "function"
    },
    {
      "inputs": [],
      "name": "withdraw",
      "outputs": [],
      "stateMutability": "nonpayable",
      "type": "function"
    }
  ],
  "bytecode": "0x608060405261001461000f610099565b6101ae565b60405161032f6101d8823961032f90f35b634e487b7160e01b600052604160045260246000fd5b90601f01601f191681019081106001600160401b0382111761005c57604052565b610025565b9061007561006e60405190565b928361003b565b565b600080fd5b90505190565b90602082820312610077576100969161007c565b90565b610096610507803803806100ac81610061565b928339810190610082565b60208082526023908201527f556e6c6f636b2074696d652073686f756c6420626520696e207468652066757460408201526275726560e81b606082015260800190565b1561010157565b60405162461bcd60e51b81528061011a600482016100b7565b0390fd5b90600019905b9181191691161790565b6100966100966100969290565b9061014b6100966101529261012e565b825461011e565b9055565b6100969061016a906001600160a01b031682565b6001600160a01b031690565b61009690610156565b61009690610176565b906001600160a01b0390610124565b906101a76100966101529261017f565b8254610188565b6101c4906101bd8142106100fa565b600061013b565b6100756101d03361017f565b600161019756fe6080604052600436101561001257600080fd5b60003560e01c8063251c1aa3146100425780633ccfd60b1461003d57638da5cb5b0361005257610112565b6100b0565b610081565b600091031261005257565b600080fd5b610062916008021c81565b90565b906100629154610057565b610062600080610065565b9052565b565b3461005257610091366004610047565b6100ac61009c610070565b6040519182918290815260200190565b0390f35b34610052576100c0366004610047565b6100c8610244565b604051005b610062916008021c5b6001600160a01b031690565b9061006291546100cd565b610062600060016100e2565b61007b906100d6565b60208101929161007f91906100f9565b3461005257610122366004610047565b6100ac61012d6100ed565b60405191829182610102565b6100629081565b6100629054610139565b602080825260169082015275165bdd4818d85b89dd081dda5d1a191c985dc81e595d60521b604082015260600190565b1561018157565b60405162461bcd60e51b81528061019a6004820161014a565b0390fd5b610062906100d6565b610062905461019e565b610062906100d6906001600160a01b031682565b610062906101b1565b610062906101c5565b6020808252601490820152732cb7ba9030b932b713ba103a34329037bbb732b960611b604082015260600190565b1561020c57565b60405162461bcd60e51b81528061019a600482016101d7565b90815260408101929161007f9160200152565b6040513d6000823e3d90fd5b61025c6102546100626000610140565b42101561017a565b61028061027161026c60016101a7565b6101ce565b61027a336100d6565b14610205565b600080808061028e306101ce565b7fbf2ed60bd5b5965d685680c01195c9514e4382e28e3a5a2d2d5244bf59411b936102c882316102bd60405190565b918291429083610225565b0390a16102d861026c60016101a7565b9031908282156102f0575bf1156102eb57565b610238565b506108fc6102e356fea2646970667358221220d586c4996373bf1719306077716ebe2a5aded0dd341036afbab01a0d242a672164736f6c63430008180033",
  "linkReferences": {},
  "deployedLinkReferences": {}
}