{
  "_format": "hh-sol-artifact-1",
  "contractName": "MatchNFT",
  "sourceName": "contracts/MatchNFT.sol",
  "abi": [
    {
      "inputs": [
        {
          "internalType": "string",
          "name": "_baseURI",
          "type": "string"
        }
      ],
      "stateMutability": "nonpayable",
      "type": "constructor"
    },
    {
      "anonymous": false,
      "inputs": [
        {
          "indexed": true,
          "internalType": "address",
          "name": "owner",
          "type": "address"
        },
        {
          "indexed": true,
          "internalType": "address",
          "name": "approved",
          "type": "address"
        },
        {
          "indexed": true,
          "internalType": "uint256",
          "name": "tokenId",
          "type": "uint256"
        }
      ],
      "name": "Approval",
      "type": "event"
    },
    {
      "anonymous": false,
      "inputs": [
        {
          "indexed": true,
          "internalType": "address",
          "name": "owner",
          "type": "address"
        },
        {
          "indexed": true,
          "internalType": "address",
          "name": "operator",
          "type": "address"
        },
        {
          "indexed": false,
          "internalType": "bool",
          "name": "approved",
          "type": "bool"
        }
      ],
      "name": "ApprovalForAll",
      "type": "event"
    },
    {
      "anonymous": false,
      "inputs": [
        {
          "indexed": true,
          "internalType": "address",
          "name": "from",
          "type": "address"
        },
        {
          "indexed": true,
          "internalType": "address",
          "name": "to",
          "type": "address"
        },
        {
          "indexed": true,
          "internalType": "uint256",
          "name": "tokenId",
          "type": "uint256"
        }
      ],
      "name": "Transfer",
      "type": "event"
    },
    {
      "inputs": [
        {
          "internalType": "address",
          "name": "to",
          "type": "address"
        },
        {
          "internalType": "uint256",
          "name": "tokenId",
          "type": "uint256"
        }
      ],
      "name": "approve",
      "outputs": [],
      "stateMutability": "nonpayable",
      "type": "function"
    },
    {
      "inputs": [
        {
          "internalType": "address",
          "name": "owner",
          "type": "address"
        }
      ],
      "name": "balanceOf",
      "outputs": [
        {
          "internalType": "uint256",
          "name": "",
          "type": "uint256"
        }
      ],
      "stateMutability": "view",
      "type": "function"
    },
    {
      "inputs": [
        {
          "internalType": "uint256",
          "name": "tokenId",
          "type": "uint256"
        }
      ],
      "name": "getApproved",
      "outputs": [
        {
          "internalType": "address",
          "name": "",
          "type": "address"
        }
      ],
      "stateMutability": "view",
      "type": "function"
    },
    {
      "inputs": [
        {
          "internalType": "address",
          "name": "owner",
          "type": "address"
        },
        {
          "internalType": "address",
          "name": "operator",
          "type": "address"
        }
      ],
      "name": "isApprovedForAll",
      "outputs": [
        {
          "internalType": "bool",
          "name": "",
          "type": "bool"
        }
      ],
      "stateMutability": "view",
      "type": "function"
    },
    {
      "inputs": [
        {
          "internalType": "uint256",
          "name": "eventId",
          "type": "uint256"
        },
        {
          "internalType": "address",
          "name": "to",
          "type": "address"
        }
      ],
      "name": "mint",
      "outputs": [],
      "stateMutability": "nonpayable",
      "type": "function"
    },
    {
      "inputs": [],
      "name": "name",
      "outputs": [
        {
          "internalType": "string",
          "name": "",
          "type": "string"
        }
      ],
      "stateMutability": "view",
      "type": "function"
    },
    {
      "inputs": [
        {
          "internalType": "uint256",
          "name": "tokenId",
          "type": "uint256"
        }
      ],
      "name": "ownerOf",
      "outputs": [
        {
          "internalType": "address",
          "name": "",
          "type": "address"
        }
      ],
      "stateMutability": "view",
      "type": "function"
    },
    {
      "inputs": [
        {
          "internalType": "address",
          "name": "from",
          "type": "address"
        },
        {
          "internalType": "address",
          "name": "to",
          "type": "address"
        },
        {
          "internalType": "uint256",
          "name": "tokenId",
          "type": "uint256"
        }
      ],
      "name": "safeTransferFrom",
      "outputs": [],
      "stateMutability": "nonpayable",
      "type": "function"
    },
    {
      "inputs": [
        {
          "internalType": "address",
          "name": "from",
          "type": "address"
        },
        {
          "internalType": "address",
          "name": "to",
          "type": "address"
        },
        {
          "internalType": "uint256",
          "name": "tokenId",
          "type": "uint256"
        },
        {
          "internalType": "bytes",
          "name": "data",
          "type": "bytes"
        }
      ],
      "name": "safeTransferFrom",
      "outputs": [],
      "stateMutability": "nonpayable",
      "type": "function"
    },
    {
      "inputs": [
        {
          "internalType": "address",
          "name": "operator",
          "type": "address"
        },
        {
          "internalType": "bool",
          "name": "approved",
          "type": "bool"
        }
      ],
      "name": "setApprovalForAll",
      "outputs": [],
      "stateMutability": "nonpayable",
      "type": "function"
    },
    {
      "inputs": [
        {
          "internalType": "string",
          "name": "_baseURI",
          "type": "string"
        }
      ],
      "name": "setBaseURI",
      "outputs": [],
      "stateMutability": "nonpayable",
      "type": "function"
    },
    {
      "inputs": [
        {
          "internalType": "bytes4",
          "name": "interfaceId",
          "type": "bytes4"
        }
      ],
      "name": "supportsInterface",
      "outputs": [
        {
          "internalType": "bool",
          "name": "",
          "type": "bool"
        }
      ],
      "stateMutability": "view",
      "type": "function"
    },
    {
      "inputs": [],
      "name": "symbol",
      "outputs": [
        {
          "internalType": "string",
          "name": "",
          "type": "string"
        }
      ],
      "stateMutability": "view",
      "type": "function"
    },
    {
      "inputs": [
        {
          "internalType": "uint256",
          "name": "tokenId",
          "type": "uint256"
        }
      ],
      "name": "tokenURI",
      "outputs": [
        {
          "internalType": "string",
          "name": "",
          "type": "string"
        }
      ],
      "stateMutability": "view",
      "type": "function"
    },
    {
      "inputs": [
        {
          "internalType": "address",
          "name": "from",
          "type": "address"
        },
        {
          "internalType": "address",
          "name": "to",
          "type": "address"
        },
        {
          "internalType": "uint256",
          "name": "tokenId",
          "type": "uint256"
        }
      ],
      "name": "transferFrom",
      "outputs": [],
      "stateMutability": "nonpayable",
      "type": "function"
    }
  ],
  "bytecode": "0x60806040523462000030576200001e620000186200014d565b620003cb565b6040516118b16200041282396118b190f35b600080fd5b634e487b7160e01b600052604160045260246000fd5b90601f01601f191681019081106001600160401b038211176200006d57604052565b62000035565b906200008a6200008260405190565b92836200004b565b565b6001600160401b0381116200006d57602090601f01601f19160190565b60005b838110620000bd5750506000910152565b8181015183820152602001620000ac565b90929192620000e7620000e1826200008c565b62000073565b938185528183011162000030576200008a916020850190620000a9565b9080601f83011215620000305781516200012192602001620000ce565b90565b90602082820312620000305781516001600160401b038111620000305762000121920162000104565b6200012162001cc380380380620001648162000073565b92833981019062000124565b9062000180620000e1836200008c565b918252565b62000191600862000170565b6713585d18da13919560c21b602082015290565b6200012162000185565b620001bb600462000170565b631353919560e21b602082015290565b62000121620001af565b634e487b7160e01b600052602260045260246000fd5b90600160028304921680156200020e575b60208310146200020857565b620001d5565b91607f1691620001fc565b6200012162000121620001219290565b91906200023e62000121620002569362000219565b90835460001960089290920291821b191691901b1790565b9055565b6200008a9160009162000229565b81811062000274575050565b806200028460006001936200025a565b0162000268565b9190601f81116200029b57505050565b620002af6200008a93600052602060002090565b906020601f840181900483019310620002d3575b6020601f90910104019062000268565b9091508190620002c3565b90620002e8815190565b906001600160401b0382116200006d576200031082620003098554620001eb565b856200028b565b602090601f83116001146200034f576200025692916000918362000343575b5050600019600883021c1916906002021790565b0151905038806200032f565b601f198316916200036585600052602060002090565b9260005b818110620003a6575091600293918560019694106200038c575b50505002019055565b01516000196008601f8516021c1916905538808062000383565b9193602060018192878701518155019501920162000369565b906200008a91620002de565b6200008a90620003ef620003de620001a5565b620003e8620001cb565b90620003f7565b6006620003bf565b90620004096200008a926000620003bf565b6001620003bf56fe6080604052600436101561001257600080fd5b60003560e01c806301ffc9a71461010257806306fdde03146100fd578063081812fc146100f8578063095ea7b3146100f357806323b872dd146100ee57806342842e0e146100e957806355f804b3146100e45780636352211e146100df57806370a08231146100da57806394bf804d146100d557806395d89b41146100d0578063a22cb465146100cb578063b88d4fde146100c6578063c87b56dd146100c15763e985e9c50361011a576105dc565b6105a5565b610589565b610520565b6104cd565b6104b4565b610466565b610437565b61041f565b61031c565b610303565b6102bc565b610248565b6101ee565b610145565b6001600160e01b031981165b0361011a57565b600080fd5b9050359061012c82610107565b565b9060208282031261011a576101429161011f565b90565b3461011a5761017361016061015b36600461012e565b6105f8565b6040515b91829182901515815260200190565b0390f35b600091031261011a57565b60005b8381106101955750506000910152565b8181015183820152602001610185565b6101c66101cf6020936101d9936101ba815190565b80835293849260200190565b95869101610182565b601f01601f191690565b0190565b6020808252610142929101906101a5565b3461011a576101fe366004610177565b61017361020961073b565b604051918291826101dd565b80610113565b9050359061012c82610215565b9060208282031261011a576101429161021b565b6001600160a01b031690565b3461011a5761017361026361025e366004610228565b61076a565b604051918291826001600160a01b03909116815260200190565b6001600160a01b038116610113565b9050359061012c8261027d565b919060408382031261011a576101429060206102b5828661028c565b940161021b565b3461011a576102d56102cf366004610299565b90610863565b604051005b909160608284031261011a576101426102f3848461028c565b9360406102b5826020870161028c565b3461011a576102d56103163660046102da565b91610926565b3461011a576102d561032f3660046102da565b91610967565b634e487b7160e01b600052604160045260246000fd5b90601f01601f1916810190811067ffffffffffffffff82111761036d57604052565b610335565b9061012c61037f60405190565b928361034b565b67ffffffffffffffff811161036d57602090601f01601f19160190565b90826000939282370152565b909291926103c46103bf82610386565b610372565b938185528183011161011a5761012c9160208501906103a3565b9080601f8301121561011a57816020610142933591016103af565b9060208282031261011a57813567ffffffffffffffff811161011a5761014292016103de565b3461011a576102d56104323660046103f9565b610b07565b3461011a5761017361026361044d366004610228565b610b74565b9060208282031261011a576101429161028c565b3461011a5761017361048161047c366004610452565b610c41565b6040519182918290815260200190565b919060408382031261011a576101429060206104ad828661021b565b940161028c565b3461011a576102d56104c7366004610491565b90610cea565b3461011a576104dd366004610177565b610173610209610d2c565b801515610113565b9050359061012c826104e8565b919060408382031261011a57610142906020610519828661028c565b94016104f0565b3461011a576102d56105333660046104fd565b90610d36565b9060808282031261011a5761054e818361028c565b9261055c826020850161028c565b9261056a836040830161021b565b92606082013567ffffffffffffffff811161011a5761014292016103de565b3461011a576102d561059c366004610539565b92919091610d41565b3461011a576101736102096105bb366004610228565b610e6e565b919060408382031261011a576101429060206104ad828661028c565b3461011a576101736101606105f23660046105c0565b90610ebe565b6380ac58cd60e01b6001600160e01b0319821614908115610628575b811561061e575090565b6101429150610ede565b6001600160e01b03198116635b5e139f60e01b149150610614565b634e487b7160e01b600052602260045260246000fd5b9060016002830492168015610679575b602083101461067457565b610643565b91607f1691610669565b805460009392916106a061069683610659565b8085529360200190565b91600181169081156106f257506001146106b957505050565b6106cc9192939450600052602060002090565b916000925b8184106106de5750500190565b8054848401526020909301926001016106d1565b92949550505060ff1916825215156020020190565b9061014291610683565b9061012c61072b9261072260405190565b93848092610707565b038361034b565b61014290610711565b6101426000610732565b6101426101426101429290565b9061075c90610745565b600052602052604060002090565b61078a61014291610779600090565b5061078381610efc565b6004610752565b546001600160a01b031690565b1561079e57565b60405162461bcd60e51b815260206004820152602160248201527f4552433732313a20617070726f76616c20746f2063757272656e74206f776e656044820152603960f91b6064820152608490fd5b0390fd5b156107f857565b60405162461bcd60e51b815260206004820152603d60248201527f4552433732313a20617070726f76652063616c6c6572206973206e6f7420746f60448201527f6b656e206f776e6572206f7220617070726f76656420666f7220616c6c0000006064820152608490fd5b9061012c916108ae61087483610b74565b6108926001600160a01b0382166001600160a01b0385161415610797565b336001600160a01b03821681149182156108b3575b50506107f1565b610f33565b6108bd9250610ebe565b38806108a7565b156108cb57565b60405162461bcd60e51b815260206004820152602d60248201527f4552433732313a2063616c6c6572206973206e6f7420746f6b656e206f776e6560448201526c1c881bdc88185c1c1c9bdd9959609a1b6064820152608490fd5b61012c92919061093e6109398433610f9c565b6108c4565b611120565b906109506103bf83610386565b918252565b6101426000610943565b610142610955565b909161012c9261097561095f565b92610d41565b9160001960089290920291821b911b5b9181191691161790565b91906109a66101426109ae93610745565b90835461097b565b9055565b61012c91600091610995565b8181106109c9575050565b806109d760006001936109b2565b016109be565b9190601f81116109ec57505050565b6109fe61012c93600052602060002090565b906020601f840181900483019310610a20575b6020601f9091010401906109be565b9091508190610a11565b90610a33815190565b9067ffffffffffffffff821161036d57610a5782610a518554610659565b856109dd565b602090601f8311600114610a92576109ae929160009183610a87575b5050600019600883021c1916906002021790565b015190503880610a73565b601f19831691610aa785600052602060002090565b9260005b818110610ae557509160029391856001969410610acc575b50505002019055565b01516000196008601f8516021c19169055388080610ac3565b91936020600181928787015181550195019201610aab565b9061012c91610a2a565b61012c906006610afd565b61023c6101426101429290565b61014290610b12565b15610b2f57565b60405162461bcd60e51b815260206004820152601860248201527f4552433732313a20696e76616c696420746f6b656e20494400000000000000006044820152606490fd5b610b819060005b50611217565b610142610b9161023c6000610b1f565b6001600160a01b0383161415610b28565b15610ba957565b60405162461bcd60e51b815260206004820152602960248201527f4552433732313a2061646472657373207a65726f206973206e6f7420612076616044820152683634b21037bbb732b960b91b6064820152608490fd5b6101429061023c906001600160a01b031682565b61014290610c00565b61014290610c14565b9061075c90610c1d565b6101429081565b6101429054610c30565b610c7961014291610c50600090565b50610c72610c6161023c6000610b1f565b6001600160a01b0383161415610ba2565b6003610c26565b610c37565b15610c8557565b60405162461bcd60e51b815260206004820152601f60248201527f4e465420666f72206576656e7420494420616c7265616479206d696e746564006044820152606490fd5b9060ff9061098b565b90610ce36101426109ae92151590565b8254610cca565b61012c91610d12610d0d610d09610d02856007610752565b5460ff1690565b1590565b610c7e565b610d276001610d22846007610752565b610cd3565b6112ca565b6101426001610732565b61012c919033611378565b61012c93929190610d556109398433610f9c565b611451565b15610d6157565b60405162461bcd60e51b815260206004820152602f60248201527f4552433732314d657461646174613a2055524920717565727920666f72206e6f60448201526e3732bc34b9ba32b73a103a37b5b2b760891b6064820152608490fd5b80546000939291610dd5610dd183610659565b9390565b9160018116908115610e265750600114610dee57505050565b610e019192939450600052602060002090565b6000905b838210610e125750500190565b600181602092548486015201910190610e05565b60ff191683525050811515909102019150565b6101d9610e5192602092610e4b815190565b94859290565b93849101610182565b610e68906101429392610dbe565b90610e39565b610e9461014291610e7d606090565b50610e8f610e8a82611470565b610d5a565b6114e8565b610142610ea060405190565b8092610eb26020830191600683610e5a565b9081038252038261034b565b61014291610ed9610d0292610ed1600090565b506005610c26565b610c26565b610ef86301ffc9a760e01b5b916001600160e01b03191690565b1490565b610f0861012c91611470565b610b28565b906001600160a01b039061098b565b90610f2c6101426109ae92610c1d565b8254610f0d565b90610f4882610f43836004610752565b610f1c565b610f6b610f65610f5f610f5a84610b74565b610c1d565b93610c1d565b91610745565b917f8c5be1e5ebec7d5bd14f71427d1e84f3dd0314c0f7b2291e5b200ac8c7c3b925610f9660405190565b600090a4565b610fa582610b74565b916001600160a01b0383166001600160a01b03831614928315610ffb575b508215610fcf57505090565b610ef8919250610fe1610fee9161076a565b926001600160a01b031690565b916001600160a01b031690565b6110089193508290610ebe565b9138610fc3565b1561101657565b60405162461bcd60e51b815260206004820152602560248201527f4552433732313a207472616e736665722066726f6d20696e636f72726563742060448201526437bbb732b960d91b6064820152608490fd5b1561107057565b60405162461bcd60e51b8152602060048201526024808201527f4552433732313a207472616e7366657220746f20746865207a65726f206164646044820152637265737360e01b6064820152608490fd5b916001600160a01b0360089290920291821b911b61098b565b91906110eb6101426109ae93610c1d565b9083546110c1565b61012c916000916110da565b906000199061098b565b906111196101426109ae92610745565b82546110ff565b610f65610f5f6111ec9294939461115161113986610b74565b61114b6001600160a01b038416610fee565b1461100f565b61117261116161023c6000610b1f565b6001600160a01b0388161415611069565b61117e61113986610b74565b611193600061118e876004610752565b6110f3565b6111dd6111a06001610745565b6111c56111ae846003610c26565b6111bf836111bb83610c37565b0390565b90611109565b6111bf6111d3896003610c26565b916101d983610c37565b610f5a86610f43876002610752565b917fddf252ad1be2c89b69c2b068fc378daa952ba7f163c4a11628f55a4df523b3ef610f9660405190565b61078a61014291611226600090565b506002610752565b1561123557565b60405162461bcd60e51b8152806107ed600482016020808252818101527f4552433732313a206d696e7420746f20746865207a65726f2061646472657373604082015260600190565b1561128557565b60405162461bcd60e51b815260206004820152601c60248201527f4552433732313a20746f6b656e20616c7265616479206d696e746564000000006044820152606490fd5b906111ec610f65610f5f6112de6000610b1f565b6112fc6001600160a01b0382166001600160a01b038816141561122e565b61131061130b610d0987611470565b61127e565b61131f61130b610d0987611470565b6111dd6111c56001610745565b1561133357565b60405162461bcd60e51b815260206004820152601960248201527f4552433732313a20617070726f766520746f2063616c6c6572000000000000006044820152606490fd5b6113e46113da610f5f7f17307eab39ab6107e8899845ad3d59bd9653f200f220920489ca2b5937696c31936113c76113b6876001600160a01b031690565b6001600160a01b038316141561132c565b610f5a87610d2288610ed9856005610c26565b9361016460405190565b0390a3565b156113f057565b6040515b62461bcd60e51b815260206004820152603260248201527f4552433732313a207472616e7366657220746f206e6f6e20455243373231526560448201527131b2b4bb32b91034b6b83632b6b2b73a32b960711b6064820152608490fd5b9161012c939161146b93611466838383611120565b6115ec565b6113e9565b61147b906000610b7b565b61148b610fee61023c6000610b1f565b141590565b369037565b9061012c6114ab6114a584610943565b93610386565b601f190160208401611490565b634e487b7160e01b600052601260045260246000fd5b906114d8565b9190565b9081156114e3570490565b6114b8565b6114f1816116c7565b906115026001926101d96001610745565b918061150d84611495565b936020018401905b611520575b50505090565b81156115765761155a9060001901926f181899199a1a9b1b9c1cb0b131b232b360811b600a82061a8453611554600a610745565b906114ce565b90816115696114d46000610745565b1461157657909181611515565b61151a565b9050519061012c82610107565b9060208282031261011a576101429161157b565b6001600160a01b039182168152911660208201526040810191909152608060608201819052610142929101906101a5565b3d156115e7576115dc3d610943565b903d6000602084013e565b606090565b6000949392916115fb81611869565b156116bd5790611610610f5a60209493610c1d565b9060003361163a61162060405190565b97889687958694630a85bd0160e11b86526004860161159c565b03925af16000918161168c575b5061167957506116556115cd565b80516116646114d46000610745565b03611671576040516113f4565b805190602001fd5b909150610ef8630a85bd0160e11b610eea565b6116af91925060203d6020116116b6575b6116a7818361034b565b810190611588565b9038611647565b503d61169d565b5060019450505050565b6116d16000610745565b907a184f03e93ff9f4daa797ed6e38ed64bf6a1f0100000000000000006116f781610745565b821015611847575b506d04ee2d6d415b85acef810000000061171881610745565b821015611825575b50662386f26fc1000061173281610745565b821015611803575b506305f5e10061174981610745565b8210156117e1575b5061271061175e81610745565b8210156117bf575b506117716064610745565b81101561179d575b6117866114d4600a610745565b101561178f5790565b610142906101d96001610745565b6117ae6117b9916115546064610745565b916101d96002610745565b90611779565b6117da916115546117cf92610745565b916101d96004610745565b9038611766565b6117fc916115546117f192610745565b916101d96008610745565b9038611751565b61181e9161155461181392610745565b916101d96010610745565b903861173a565b6118409161155461183592610745565b916101d96020610745565b9038611720565b6118629161155461185792610745565b916101d96040610745565b90386116ff565b3b6118776114d46000610745565b119056fea2646970667358221220969debb2e3c1f7369e074eb182cf117dfa0d00f0bc567f492a014c2346ba3ff864736f6c63430008180033",
  "linkReferences": {},
  "deployedLinkReferences": {}
}